:020000040800F2
:1000000038680020A54200083106000855050008A0
:1000100033060008370600083B0600080000000011
:100020000000000000000000000000003F06000883
:100030004106000800000000999C0008552B0008AC
:10004000BF420008BF420008BF4200086913000811
:10005000BF420008BF420008BF420008BF4200087C
:10006000BF420008BF420008BF420008BF4200086C
:10007000BF420008BF420008BF420008BF4200085C
:10008000BF420008BF420008BF420008BF4200084C
:10009000BF420008BF420008BF420008BF4200083C
:1000A000BF420008BF420008BF420008BF4200082C
:1000B000BF4200089DE30008BF420008BF4200089D
:1000C000BF420008BF420008BF420008BF4200080C
:1000D000BF420008273100083D0C0008590A0008FB
:1000E000BF4200083D130008BF420008BF4200089D
:1000F000BF420008BF420008BF420008BF420008DC
:10010000BF420008BF420008BF420008BF420008CB
:10011000BF420008BF420008BF420008BF420008BB
:10012000BF420008BF420008BF420008BF420008AB
:10013000BF420008BF420008BF420008BF4200089B
:10014000BF420008BF420008BF420008BF4200088B
:10015000BF420008BF420008BF4200085108000823
:10016000BF420008BF420008BF420008BF4200086B
:10017000BF420008BF420008BF420008BF4200085B
:10018000BF420008BF42000800F002F800F070F81B
:100190000AA090E8000C82448344AAF10107DA45E2
:1001A00001D100F065F8AFF2090EBAE80F0013F0C4
:1001B000010F18BFFB1A43F001031847C40D0100DB
:1001C000E40D01000A444FF0000C10F8013B13F05D
:1001D000070408BF10F8014B1D1108BF10F8015BA0
:1001E000641E05D010F8016B641E01F8016BF9D193
:1001F00013F0080F1EBF10F8014BAD1C0C1B09D1EA
:100200006D1E58BF01F801CBFAD505E014F8016B5B
:1002100001F8016B6D1EF9D59142D6D370470000ED
:100220000023002400250026103A28BF78C1FBD8FF
:10023000520728BF30C148BF0B60704764290EF0D9
:100240006B8278290EF0A48273290EF0308500208D
:1002500070471FB510F046FC0EF0C6FD04000020EC
:1002600000210FF0F5FD401C60601FBD10B510BDF2
:100270000EF0D0FD1146FFF7ECFF00F03CF90EF058
:10028000EEFD03B4FFF7F2FF03BC02F0E9FE00004D
:10029000002419E00A2002F0B6FCBD48007898B1AD
:1002A000BC4890F83A00012805D101F0AAFE0446A6
:1002B0000CB901F0BEFEB74890F83A0008B901F059
:1002C000B8FE0020B2490870E4E700244FE0142093
:1002D00002F099FCB0480078022848D1AC48007878
:1002E000002844D1AB4890F83A00012812D1AB481D
:1002F000007801280ED10020A849087002F021FEE4
:10030000A7480078022802D1A6A00EF093F9012098
:100310009F4908709F4890F83A00A8B9A54800681E
:10032000401CA44908609B48008800EBC00101EB19
:100330000010A0490968B1EB400F05D100209D498C
:1003400008600120924908709B48007801280ED16E
:10035000601CC4B2C82C0AD1002400209749087040
:1003600001F0D8F903209449087002F009F9AEE7CA
:1003700002E00A2002F047FCFBE702E00A2002F05C
:1003800042FCFBE700254BE00A2002F03CFC8248DF
:10039000007840B96D1CA5F59C40203803D10120A0
:1003A0007D49087000257C480078012838D17948BB
:1003B00090F83A0050BB00BF01F09AF901F07EFAC4
:1003C00001F04EFB734991F83400002301F1120251
:1003D000891C01F08DFC04461CB901207749087086
:1003E00014E000207549087040F6B83002F00BFCAC
:1003F0006B480078022802D171A00EF01BF901F0C1
:1004000089F941F2707002F0FEFBD5E7614890F87F
:100410003A00012801D102F0B3F802205E490870C9
:10042000B2E788B0202168460EF072FB07E00A2090
:1004300002F0E9FB5648007808B10AF0D3FFF6E76E
:100440000AE00A2002F0DFFB03F085FE5B4800783B
:10045000012801D100F0E1FAF3E703E04FF47A70EC
:1004600002F0D1FBFAE770B50446002500BF07F0A3
:1004700059F909F0E9FB05460723564A0021AFF276
:10048000250008F0A0FC0623534A0021AFF24F00DC
:1004900008F099FC0523514A0021AFF2790008F0D9
:1004A00092FC04234E4A0021AFF2271008F08BFC87
:1004B00003234C4A0021AFF23D1008F084FC0223D4
:1004C000494A0021AFF2571008F07DFC0823474A43
:1004D0000021AFF2092008F076FC0923444A0021EC
:1004E000AFF2532008F06FFC0A2008F0F0FE284617
:1004F00009F0AEFB70BD10B54FF4A06003F0F2FE42
:10050000A82002F02FFB4FF4165002F0B6FD4FF476
:10051000E13000F0B6F901F065F801F060FE02F09C
:100520002FFC02F009FC0DF0FDFD3249086800F0D7
:1005300029FB00F039FE02F0CAFC06F0B4FF0A23E2
:100540002D4A0021AFF2E10008F03DFC07F0D2F89F
:10055000002010BD10B529480468214628A00EF0DF
:1005600069F82648001D0468214628A00EF062F8AC
:10057000224808300468214627A00EF05BF81F4887
:1005800014300468214627A00EF054F810BD000076
:100590004A0000200E4400204900002023000020D3
:1005A0004800002073797374656D2077616B657501
:1005B000700D0A00540000204B0000203100002084
:1005C000495020436F6E6E636574206167696E6584
:1005D0000D0A000074080020740C00207414002020
:1005E000741C0020741E0020742000207428002039
:1005F00074300020C05F00207404002028ED00E06B
:10060000434653523A2538580D0A00004846535283
:100610003A2538580D0A0000444653523A253858B6
:100620000D0A0000414653523A2538580D0A000081
:10063000704700BFFEE700BFFEE700BFFEE7704760
:10064000704700000CB500200190009075480068CC
:1006500040F480307349086000BF7248006800F4BD
:10066000003000900198401C0190009818B9019842
:10067000B0F5A04FF1D16B48006810F4003F02D0F4
:100680000120009001E0002000900098012845D151
:1006900064484030006840F0805062494031086052
:1006A0006148006840F440405F4908605D48083098
:1006B00000685C49083108600846006840F4004062
:1006C00008600846006840F4A05008605748091FB9
:1006D0000860081F006840F08070091F086000BFB4
:1006E0005048006810F0007FFAD040F20560504991
:1006F00008604C480830006820F003004949083180
:1007000008600846006840F00200086000BF4548E5
:100710000830006800F00C000828F8D10CBD10B5B6
:100720004448006840F47000424908603D48006851
:1007300040F001003B49086000203A490831086058
:10074000384800683C490840364908603B48091D64
:100750000860081F006820F48020091F086000203E
:1007600030490C310860FFF76DFF4FF000603149F0
:100770008039086010BD70B50020002202230024DB
:100780000221284D08352D6805F00C0020B1042801
:1007900006D0082834D107E0294D2A4E356033E0D1
:1007A000294D284E35602FE01E4D2D1D2D68C5F3B7
:1007B00080541C4D2D1D2D6805F03F0154B1224D74
:1007C000B5FBF1F5174E361D3668C6F3881605FBE6
:1007D00006F209E01A4DB5FBF1F5124E361D3668EA
:1007E000C6F3881605FB06F20E4D2D1D2D68C5F3C8
:1007F00001456D1C6B00B2FBF3F5124E356003E052
:100800000F4D104E356000BF00BF064D08352D68F6
:10081000C5F303150D4E705D0A4D2D68C540094E98
:10082000356070BD00380240007000401954400728
:10083000003C024088ED00E0FFFFF6FE103000248F
:100840000024F4000000002040787D010400002016
:1008500010B540F225517B4804F00EFC80B1794878
:1008600004F048FBC4B278480088642808DA774866
:1008700075490988445474480088401C72490880AE
:1008800010BD10B588B004460121042004F0C0F862
:100890000121202004F016F9082206216C4803F0FB
:1008A000A4FE082207216A4803F09FFEC02006909C
:1008B00002208DF81C008DF81D0000208DF81E0010
:1008C00001208DF81F0006A9614803F003FE029481
:1008D0000020ADF80C00ADF80E00ADF81000ADF83A
:1008E00014000C20ADF8120002A9564804F04BFA8F
:1008F0000121544804F0CFFA4021524804F0B3FBE0
:10090000012240F225514F4804F07BFB47208DF82F
:10091000040001208DF8050003208DF80600012059
:100920008DF8070001A803F0E2FC0020464908808A
:1009300008B010BD70B505460E4600240CE000BF9F
:100940004021404804F082FB0028F9D0295D3D4851
:1009500004F0CCFA601CC4B2B442F0DB00BF40210A
:10096000384804F073FB0028F9D00020364908808D
:1009700070BD10B504460BE02178324804F0B6FA99
:1009800000BF80212F4804F061FB0028F9D0641CCF
:1009900020780028F0D110BD2DE9F04107460D4622
:1009A000294806780024002028700A2002F02BF93C
:1009B0002548008886420FD176B100BF04E0234865
:1009C000005D3855601CC4B2B442F8DB1E480078A4
:1009D000287000201C490880BDE8F0812DE9F04115
:1009E00007460D46184806780024002028700A2083
:1009F00002F009F91448008886420CD15EB100BFAC
:100A000004E01248005D3855601CC4B2B442F8DB03
:100A10000D4800782870BDE8F08108B500200090EE
:100A2000642200210B4802F019F969460948FFF7D2
:100A3000B3FF9DF8000020B19DF80010054801F0BB
:100A4000A9FA08BD001401401400002078300020ED
:100A500000080240DC30002010B540F225517148FA
:100A600004F00AFB80B16F4804F044FAC4B26E4847
:100A70000088642808DA6D486B49098844546A483C
:100A80000088401C6849088010BD1CB50121022067
:100A900003F0BEFF4FF40040009001208DF80400E9
:100AA00000208DF8060003208DF8050001208DF848
:100AB000070069465E4803F00DFD4FF400415C48B5
:100AC00003F086FD1CBD10B588B00446554804F0FF
:100AD000F3F80121082003F09BFF0121880403F0B3
:100AE000E0FF4FF44070059002208DF818008DF85B
:100AF000190000208DF81A0001208DF81B0005A9AF
:100B00004C4803F0E7FC072208214A4803F06DFD3A
:100B100007220921474803F068FD01940020ADF841
:100B20000800ADF80A00ADF80C00ADF810000C207C
:100B3000ADF80E0001A93B4804F025F9012240F26E
:100B40002551384804F05DFA0121364804F0A3F934
:100B50004021344804F087FA27208DF81C00022039
:100B60008DF81D0003208DF81E0001208DF81F0058
:100B700007A803F0BCFB00202B4908802E49086021
:100B800008B010BD10B50446FFF77FFF2046FFF701
:100B90009AFF10BD70B505460E4601202649086033
:100BA0004FF000040CE000BF40211E4804F04EFA54
:100BB0000028F9D0295D1B4804F098F9601CC4B2E4
:100BC000B442F0DB00BF4021164804F03FFA002891
:100BD000F9D00020144908801749086070BD2DE93C
:100BE000F04107460D461048068800240020287072
:100BF0000A2002F008F80C48008886420FD176B12E
:100C000000BF04E00948005D3855601C84B2B4425E
:100C1000F8DB054800882870002003490880BDE8FB
:100C2000F081000000480040160000204031002004
:100C300000040240000C0240BC82404210B540F269
:100C40002551764804F018FA80B1744804F052F93E
:100C5000C4B273480078642808DA72487049097889
:100C600044546F480078401C6D49087010BD10B5A1
:100C700088B004460121082003F0CAFE012148047F
:100C800003F00FFF07220521674803F0AEFC07229F
:100C90000621654803F0A9FC6020069002208DF82B
:100CA0001C0003208DF81D0000208DF81E0001207F
:100CB0008DF81F0006A95C4803F00CFC029400208C
:100CC000ADF80C00ADF80E00ADF81000ADF8140052
:100CD0000C20ADF8120002A9504804F054F801218C
:100CE0004E4804F0D8F840214C4804F0BCF90122E9
:100CF00040F22551494804F084F926208DF804007B
:100D000003208DF805008DF8060001208DF80700FE
:100D100001A803F0ECFA08B010BD70B505460E4608
:100D200000240CE000BF40213C4804F08FF900286B
:100D3000F9D0295D394804F0D9F8601CC4B2B44236
:100D4000F0DB00BF4021354804F080F90028F9D0DD
:100D500000203349087070BD10B504460BE02178BF
:100D60002E4804F0C3F800BF80212C4804F06EF92F
:100D70000028F9D0641C20780028F0D110BD2DE99E
:100D8000F04107460D4626480678002400202870CA
:100D90000A2001F038FF2248007886420FD176B150
:100DA00000BF04E01F48005D3855601CC4B2B44267
:100DB000F8DB1B4800782870002019490870BDE84E
:100DC000F0812DE9F04107460D46154806780024CC
:100DD000002028700A2001F016FF11480078864292
:100DE0000CD15EB100BF04E00E48005D3855601CB8
:100DF000C4B2B442F8DB0A4800782870BDE8F0813C
:100E000008B50020009064220021084801F026FF68
:100E100069460648FFF7B3FF08BD000000440040E4
:100E200022000020A4310020000C024008320020E3
:100E3000A548A6490860A64808607047A3480C303A
:100E4000006840F00040A1490C3108607047002163
:100E50009E480830016811F4803F01D0012070479E
:100E600011F0100F01D00220F9E711F0200F01D08E
:100E70000220F4E711F0400F01D00220EFE711F05B
:100E8000800F01D00220EAE70020E8E770B50446B1
:100E900000BFFFF7DCFF0546012D00D005E00A206A
:100EA00001F086FE641E002CF3D100BF04B9FF25BB
:100EB000284670BD70B5054600248648FFF7E6FF5A
:100EC000044674BB81480C30006820F440707F49B0
:100ED0000C3108600846006840F40070086008465D
:100EE000006820F0F80008600846006840EAC50085
:100EF00008600846006840F0020008600846006884
:100F000040F4803008607348FFF7C0FF0446012CAE
:100F100007D06E480C30006820F002006B490C319D
:100F20000860204670BD70B505460E46FF20FFF7ED
:100F3000ADFF044604BB65480C30006820F44070E7
:100F400062490C3108600846006840F4007008608F
:100F50000846006840F0010008602E60FF20FFF79F
:100F600095FF0446012C07D058480C30006820F04B
:100F7000010056490C310860204670BD01460868E2
:100F8000704701465448814201D2002070475348BF
:100F9000814201D20120F9E75148814201D2022069
:100FA000F4E75048814201D20320EFE74E488142E6
:100FB00001D20420EAE74D48814201D20520E5E74D
:100FC0004B48814201D20620E0E74A48814201D2E3
:100FD0000720DBE74848814201D20820D6E747488E
:100FE000814201D20920D1E74548814201D20A203D
:100FF000CCE70B20CAE72DE9F04704460E4617461A
:101000004FF000080025A946B4F1006F02D314F098
:10101000030F01D0BDE8F087FFF70AFF2B48001F40
:10102000006820F480602949091F0860254604EB08
:1010300087093448854214D210E02846FFF79EFF06
:10104000401C0AD02846FFF79CFF8246FFF732FF7C
:101050008046B8F1000F01D002E02D1D4D45ECD3C4
:1010600000BFB8F1000F0BD107E020463168FFF751
:101070005AFF00B103E0241D361D4C45F5D300BFD7
:101080001248001F006840F480601049091F086082
:10109000FFF7D4FE00BFBDE730B503460C4615464A
:1010A000002206E01846FFF769FF44F822001B1DE6
:1010B000521CAA42F6D330BD13B50446012201A941
:1010C0002046FFF798FF1CBD23016745043C024002
:1010D000AB89EFCD400D0300004000080080000800
:1010E00000C0000800000108000002080000040819
:1010F000000006080000080800000A0800000C08AC
:1011000000000E080000FF1FF8B504460D46174604
:101110001E468DF800408DF801508DF802708DF854
:1011200003606946002004F0A5FFF8BDF8B5044649
:101130000D4617461E468DF802708DF801508DF849
:1011400000608DF803406946002005F031F8F8BDD5
:10115000F8B507460C4615461E466946002004F0C1
:10116000F3FF9DF8000038709DF8010020709DF895
:10117000020028709DF803003070F8BDF8B50746EE
:101180000C4615461E466946002005F077F89DF886
:10119000030038709DF8010020709DF8020028704F
:1011A0009DF800003070F8BD3EB541F6FF74012196
:1011B000080703F076FC012005F041FD002005F052
:1011C000B5FBA0F5A041503931D0012003F0BDFAA4
:1011D00004E0601C84B20A2001F015FD412003F0F8
:1011E0006DFA0028F5D00CB901203EBD4FF4807097
:1011F00003F0ACFB012003F0C4FB7F200190FF2033
:10120000029000200090684604F099FE00233822E6
:101210003B211720FFF778FF0623052211460E20F9
:10122000FFF784FF45F25001002005F072FB00201B
:10123000DBE7F0B587B004460D4616461F46002191
:101240004FF4807005F0F4F88DF800508DF80160CF
:101250008DF8027000208DF803008DF810404FF0DB
:1012600080400390002002900098019001AA4FF462
:101270008071002005F025F84FF4805005F038FC0F
:101280004FF4003005F0C7FC0121080305F0C4FB52
:101290000121080205F0CCF84FF400300590002041
:1012A0008DF8180008208DF8190001208DF81A001B
:1012B00005A805F03FFC2920B849087002204870B5
:1012C00088700120C870084603F011F807B0F0BD1F
:1012D0007CB505460C46002005F02FF9284605F0A0
:1012E00007F9204605F019F94FF4804005F000FC9D
:1012F0004FF4800005F08FFC0121880305F08CFB82
:10130000012005F01AF94FF48000009000208DF8BC
:10131000040008208DF8050001208DF806006846BD
:1013200005F008FC03209D49087002204870887071
:101330000120C870084602F0DAFF7CBD10B506F047
:10134000CAF84FF4807005F096FB012805D1000221
:1013500005F0A1FB92A00DF06DF94FF4003005F0FF
:101360005AFC06F0D3F810BD10B506F0B4F84FF4EF
:10137000806005F080FB012802D1800205F08BFB24
:101380004FF4800005F047FCFFF7C9F9A82001F0F1
:10139000E9FB4FF4165001F070FEFFF705FF002047
:1013A00005F0CBF801208149087006F0AFF810BDB8
:1013B000F0B503460C461546642093FBF0F0C6B228
:1013C000642093FBF0F700FB1730C1B2132E02DD4F
:1013D00001F16400C1B20846CF1701EB977701EB2A
:1013E000A707BAB2072092FBF0F700FB172082B2E2
:1013F0005719601EDFF8B8C11CF80000384482B2EB
:10140000CF1701EB9777BF10B1EB870703D1032C00
:1014100001DA501E82B2072092FBF0F700FB172082
:1014200082B202B90722D0B2F0BD2DE9F0470446DE
:101430000E4617461D46DDE9088900234A46414607
:101440002846FFF761FE3A4631462046FFF7B0FFD7
:101450008246A4F5FA61C8B253463A463146FFF7D0
:1014600065FEBDE8F08738B504466B46A21C611CDA
:101470002046FFF76DFE38BD38B5044604F1080379
:10148000E21DA11D6846FFF779FE9DF8000000F5FA
:10149000FA604849888038BDF0B587B0064600201C
:1014A0000390049005900690002507E005F10A00DE
:1014B000305C303803A94855681CC5B20E2DF5DBE9
:1014C0009DF80C004FF47A7110FB01F09DF80D109F
:1014D00001EBC10202EB011100EB81009DF80E103F
:1014E00001EB810100EB41009DF80F1044183149D8
:1014F0008C809DF811009DF8101001EB810100EB2C
:1015000041042C498C719DF813009DF8121001EBD9
:10151000810100EB41042749CC719DF815009DF82D
:10152000141001EB810100EB410422490C709DF87D
:1015300017009DF8161001EB810100EB41041D49D5
:101540004C709DF819009DF8181001EB810100EB1B
:10155000410418498C70084680784978154FCDE9C8
:1015600000103B78FA79B979B888FFF75EFF124826
:10157000007802280FD138468078394649783A46B3
:101580001278CDE9002102903846C37982798188AA
:101590000AA00DF04FF807B0F0BD000024000020B5
:1015A000414C41524D2041210D0A000023000020F2
:1015B000DE0B01086C320020480000202B74696D9E
:1015C000653D253034642D253032642D253032645C
:1015D00020253032643A253032643A253032640DA9
:1015E0000A0000001CB501211E2003F011FA412061
:1015F000009001208DF8040000208DF806000320E3
:101600008DF8050001208DF807006946344802F086
:1016100061FF4121324802F0D9FF4021304802F0F9
:10162000D7FF4FF40050009001208DF804000020F7
:101630008DF8060003208DF8050001208DF80700C5
:101640006946284802F046FF4FF40051254802F051
:10165000BFFF4FF47840009001208DF80400002077
:101660008DF8060003208DF8050001208DF8070095
:1016700069461D4802F02EFF4FF478411A4802F0E7
:10168000A7FF4FF40060009001208DF804000020B7
:101690008DF8060003208DF8050001208DF8070065
:1016A0006946124802F016FF4FF400610F4802F03D
:1016B0008DFF1CBD70B505460C4645F2555005F032
:1016C0006BFB284605F06BFB204605F06BFB05F035
:1016D0006CFB05F06FFB70BD10B505F066FB10BD2F
:1016E0000004024000080240000C024000100240CA
:1016F00010B54FF40051FE4802F068FF40F2DC5094
:1017000001F081FAFB480078022802D1FAA00CF01F
:1017100091FF10BD10B500244FF40051F44802F0C1
:1017200057FFF4480078022802D1F7A00CF082FF9E
:10173000002404E0642001F066FA601CC4B2282C86
:10174000F8DB10BD70B504460D460026294620463C
:101750000DF022F90646304670BD10B50446E54846
:101760000078022803D1EC49ECA00CF063FF24B10F
:1017700064220021E84801F071FA10BD2DE9F04122
:101780009AB005460E4614460027642168460DF0BF
:10179000BFF9B8460020E34908802A46DFA1684621
:1017A0000CF054FF08F050FA80466846FFF7E1F865
:1017B000404608F04DFABEB1B4B10EE019A9D648C2
:1017C000FFF7EAF83146D448FFF7BCFF00B108E064
:1017D00064220021D04801F041FA601E80B204006A
:1017E000ECD100BF04B9012738461AB0BDE8F0813A
:1017F0002DE9F0419AB005460E4600246421684662
:101800000DF086F93746A0460020C64908802A46D2
:10181000C2A168460CF01AFF08F016FA8046684626
:10182000FFF7A7F8404608F013FA3EE0781E87B2AB
:1018300019A9B948FFF7B0F8BBA1B7480DF0ACF84B
:101840000446002C31D0B9A1B3480DF0A5F80446E8
:10185000002C2AD0A7480078022803D1AE49AFA0B7
:101860000CF0E8FEB3A1AC480DF096F8044644B184
:1018700064220021A84801F0F1F920461AB0BDE821
:10188000F081AFA1A4480DF087F8044634B164227A
:101890000021A14801F0E2F92046EFE7642200218F
:1018A0009D4801F0DBF90020E8E7002FBED164225B
:1018B0000021994801F0D2F92046DFE710B542F245
:1018C000107001F0A0F90A248A480078022802D199
:1018D0009DA00CF0AFFE17E0601EC4B24FF49670EE
:1018E00001F091F983480078022802D196A00CF00B
:1018F000A1FE4CB90A24FFF70DFF4FF4FA7001F076
:1019000082F901F0B5F907E04FF4967286A190A034
:10191000FFF734FF0028DFD100BF0120FFF71DFFD4
:1019200074480078022802D18AA00CF083FE4FF49C
:101930007A727DA189A0FFF721FF4FF4FA7001F0C0
:1019400062F90120FFF709FF6A480078022802D1F6
:1019500084A00CF06FFE4FF4967273A186A0FFF77F
:101960000DFF4FF4FA7001F04EF90120FFF7F5FE7C
:1019700060480078022802D183A00CF05BFE41F29F
:10198000883284A185A0FFF7F9FE4FF4FA7001F0C8
:101990003AF90120FFF7E1FE56480078022802D10B
:1019A00081A00CF047FE4FF47A7282A183A0FFF76A
:1019B000E5FE4FF4FA7001F026F90120FFF7CDFEA5
:1019C0004C480078022802D17FA00CF033FE4FF47F
:1019D0007A7280A181A0FFF7D1FE4FF4FA7001F076
:1019E00012F90120FFF7B9FE42480078022802D11F
:1019F0007CA00CF01FFE4FF496724BA17CA0FFF769
:101A0000BDFE4FF4FA7001F0FEF80120FFF7A5FECD
:101A100038480078022802D178A00CF00BFEC822CA
:101A200041A17AA0FFF7AAFE4FF4FA7001F0EBF89B
:101A30000120FFF792FE2F480078022802D177A0FC
:101A40000CF0F8FD40F2DC5237A178A0FFF796FECB
:101A50004FF4FA7001F0D7F80120FFF77EFE10BDB9
:101A600000B589B0242168460DF052F8724A73A17E
:101A700068460CF0EBFD4FF47A7001F0C4F81D4895
:101A80000078022802D172A00CF0D4FD4FF49672B7
:101A900025A173A0FFF772FE4FF4FA7001F0B3F8BE
:101AA0000120FFF75AFE13480078022803D1694647
:101AB0006FA00CF0BFFD4FF4FA721BA16846FFF750
:101AC0005DFE4FF4FA7001F09EF80120FFF745FE2D
:101AD00008480078022802D166A00CF0ABFD4FF454
:101AE0007A7211A167A0FFF749FE4FF4FA70CFE0B8
:101AF00000080240480000204D3335506F77657272
:101B00004F4E0D0A000000004D3335506F7765725F
:101B10004F66660D0A000000DC30002025730D0AB8
:101B200000000000140000204F4B0000434F4E4EB9
:101B300045435400434F4E4E454354204F4B000005
:101B4000414C52454144590041540D0A00000000E7
:101B500041540000415445300D0A000041544530C5
:101B60000000000041542B4950523D313135323094
:101B70003026570D0A00000041542B4950523D3188
:101B8000313532303026570041542B4350494E3FB7
:101B90000D0A00002B4350494E00000041542B43D6
:101BA00050494E3F0000000041542B435245473FEF
:101BB0000D0A00002B4352454700000041542B43BF
:101BC0005245473F0000000041542B4353510D0A3A
:101BD000000000002B4353510000000041542B43F0
:101BE0005351000041542B434D47463D310D0A00EF
:101BF00041542B434D47463D3100000041542B4397
:101C00005343533D2247534D220D0A0041542B4369
:101C10005343533D2247534D2200000041542B4370
:101C20004E4D493D322C320D0A00000041542B43E9
:101C30004E4D493D322C32002644002041542B5158
:101C400049435347503D312C2225732200000000A8
:101C500041542B51494647434E543D300D0A000034
:101C600041542B51494647434E543D30000000003B
:101C70002573000041542B51494D55583D310D0AF3
:101C80000000000041542B51494D55583D31000092
:101C900000F0B9FF0120FFF760FDF7480078022847
:101CA00002D1F6A00CF0C6FC4FF47A72AFF28811A4
:101CB000F6A0FFF763FD4FF4FA7000F0A4FF0120D7
:101CC000FFF74BFDEC480078022802D1F2A00CF09F
:101CD000B1FC4FF41672F3A1F4A0FFF74FFD4FF4DF
:101CE000FA7000F090FF0120FFF737FD09B000BD4A
:101CF0002DE9F0479EB005460E4617469846032448
:101D00004FF4167A642105A80CF002FF002002901F
:101D100003900490814600BFE748CDE9006750F882
:101D200025304246E5A105A80CF090FCD248007889
:101D3000022804D105A9AFF21C200CF07BFC4FF463
:101D40007A7105A8FFF754FD8146B9F1000F07D05D
:101D50004FF4967000F057FF00201EB0BDE8F087EA
:101D6000601EC4B20CB90120F7E720E040F6B8309D
:101D700000F049FF4246D8A102A80CF067FCBE481B
:101D80000078022804D102A9AFF270200CF052FCB6
:101D90004FF47A72AFF2702102A8FFF7EFFC4FF414
:101DA000FA7000F030FF0120FFF7D7FCB4E7002CF9
:101DB000DCD1642000F027FF0120CEE7F0B599B018
:101DC00005460E4614460027642168460CF0A0FE26
:101DD0002A46AFF2B82168460CF038FC6846FEF798
:101DE000C8FD96B18CB109E00A23002211461046C5
:101DF00007F066FBBC48007800B103E0601E80B2CB
:101E00000400F1D100BF04B901270020B6490870D1
:101E1000384619B0F0BD2DE9F0410646B3A1304671
:101E20000CF0BAFD074657B193480078022803D159
:101E30003146AFA00CF0FEFB0120AB490870AEA10B
:101E400030460CF0A9FD044684B18B480078022886
:101E500003D13146A6A00CF0EDFBA9A130460CF051
:101E60009BFD054615B10120A7490870BDE8F0812A
:101E70002DE9F04186B006460D4617464FF00008A2
:101E800001A818B9484606B0BDE8F0811422002127
:101E900001A800F0E3FE2B463A469CA101A80CF0F5
:101EA000D5FB75480078022807D192A00CF0C2FB40
:101EB00001A9AFF298300CF0BDFB4FF448728BA132
:101EC00001A8FFF77BFFA8B96B48007802280CD166
:101ED00088A00CF0AFFB002405E0315D8FA00CF072
:101EE000A9FB601CC4B2AC42F7DB29463046FEF7C2
:101EF00021FD01E04FF001080A2000F084FE404679
:101F0000C1E770B50446002506E00A2000F07BFE1C
:101F10007D48007800B103E0601E80B20400F4D177
:101F200000BF00207849087004B90125284670BD1B
:101F30002DE9FC4704460D4616460020009001900E
:101F4000E84600E0641C20782C28FBD1641C05E0E6
:101F5000207888F80000641C08F1010820780D281A
:101F6000F6D10A22002168460CF0DEFC3080B6F87B
:101F7000009000E0641C20787E28FBD1002705E05B
:101F8000207828706D1C641C781C87B24F45F7DBE5
:101F9000BDE8FC87F0B5B3B005460F460026C82162
:101FA00001A80CF0B5FD002000905EA128460CF0C1
:101FB000F3FC064606B36A4601A92846FFF7B8FFB8
:101FC0002D480078022812D159A00CF033FB0024D0
:101FD00006E001A8015D51A00CF02CFB601C84B24E
:101FE000BDF800008442F4DB42A00CF023FB524910
:101FF00001A808F0EEFB02E02846FFF70CFF33B023
:10200000F0BD10B50124FFF773FBFFF757FCFFF796
:1020100027FD4A4991F83400002301F11202891C7E
:10202000FFF766FE044614B90120454908702046B2
:1020300010BDF8B543480078052190FBF1F0C6B219
:102040004048007890FBF1F201FB1200C7B287B95B
:1020500001247DE0052322463146684607F0AAFFA9
:1020600000229DF800103848FFF702FF05460DB129
:1020700072E072E06AE000004800002041542B51F9
:10208000494D4F44453D300D0A00000041542B514D
:10209000494D4F44453D300041542B514953544123
:1020A000540D0A00514953544154000041542B51DE
:1020B00049535441540000002800002041542B5142
:1020C000494F50454E3D25642C222573222C222554
:1020D00073222C257300000041542B5149434C4F6F
:1020E00053453D2564000000320000203E00000002
:1020F0000D0A25730D0A000053454E4400000000F0
:1021000053454E44204F4B003300002041542B5187
:102110004953454E443D25642C25640025303258F2
:10212000000000002B524543454956450000000081
:1021300052453A0D0A0000004B0000200E440020DA
:1021400031000020B855002058540020601CC4B253
:10215000701C8442FFF67EAF16E0012410E03B467F
:102160002246711C684607F025FF00229DF80010EA
:102170000848FFF77DFE054605B104E0601CC4B2C7
:10218000B01C8442EBDB00BF15B10120024908708E
:10219000F8BD0000585400204900002010B500246C
:1021A0000020D44908604FF090000CF03CF800206B
:1021B0000CF039F800200CF036F800200CF033F861
:1021C000FF200CF030F844EA0024FF200CF02BF83C
:1021D00004430120C849C1F8A802204610BD1CB51F
:1021E00001210A2002F014FC4FF4806000900120CD
:1021F0008DF8040000208DF8060003208DF80500FE
:1022000001208DF807006946BC4802F063F90120FF
:10221000B84908600CF020F800200CF07AF8FFF7BD
:10222000BDFFB74908801CBD10B500240020B1498E
:1022300008604FF005000BF0F6FFFF200BF0F3FFF6
:1022400004460120AC49C1F8A802204610BD10B5D3
:1022500004460020A74908604FF001000BF0E3FF9F
:1022600020460BF0E0FF0120A349C1F8A80210BDF1
:1022700010B500209F4908604FF006000BF0D3FF17
:1022800001209D49C1F8A80210BD10B50020994950
:1022900008604FF004000BF0C6FF01209649C1F81A
:1022A000A80210BD2DE9F04106460C461746002055
:1022B000904908604FF003000BF0B5FFC4F30740EE
:1022C0000BF0B1FFC4F307200BF0ADFFE0B20BF051
:1022D000AAFF002505E0FF200BF0A5FF7055681C44
:1022E00085B2BD42F7DB012082490860BDE8F0817C
:1022F00010B500BFFFF798FF10F0010FFAD110BD25
:102300002DE9F04106460C461746FFF7B1FF0020C5
:10231000784908604FF002000BF085FFC4F30740D6
:102320000BF081FFC4F307200BF07DFFE0B20BF050
:102330007AFF002504E0705D0BF075FF681C85B224
:10234000BD42F8DB01206B490860FFF7D1FFBDE813
:10235000F0812DE9F04107460E461446F0B2C0F573
:102360008075AC4200DC254612E02A4631463846EC
:10237000FFF7C6FFAC4200D10BE02F442E44601B98
:1023800084B2B4F5807F02DD4FF4807500E025460D
:10239000EBE700BFBDE8F08110B504462403FFF76A
:1023A00067FFFFF7A5FF0020524908604FF02000AB
:1023B0000BF039FFC4F307400BF035FFC4F30720DF
:1023C0000BF031FFE0B20BF02EFF01204A49C1F8BB
:1023D000A802FFF78DFF10BD2DE9F05F81460F4683
:1023E0001646DFF820B14FEA1738C7F30B0ACAF5D3
:1023F0008054A64200DC344644E04FEA08314FF4F2
:1024000080525846FFF74EFF002508E00AEB050012
:102410001BF80000FF2800D003E0681C85B2A5422D
:10242000F4DB00BFA54216DA4046FFF7B5FF0025F2
:1024300007E019F8050005EB0A010BF80100681C1C
:1024400085B2A542F5DB4FEA08314FF48052584679
:10245000FFF77FFF04E0224639464846FFF779FF41
:10246000A64200D10FE008F101084FF0000AA14494
:102470002744301B86B2B6F5805F02DD4FF48054EE
:1024800000E03446B9E700BFBDE8F09F10B5FFF7A4
:10249000EFFEFFF72DFF0020164908604FF0C70040
:1024A0000BF0C1FE01201449C1F8A802FFF720FF7C
:1024B00010BD10B500200F4908604FF0B9000BF0B7
:1024C000B2FE01200C49C1F8A802032000F070FB05
:1024D00010BD10B50020074908604FF0AB000BF0AD
:1024E000A2FE01200449C1F8A802032000F060FB0D
:1024F00010BD0000A882414200804142000C024011
:1025000038000020763200201CB50121FF2002F0A7
:102510007FFA03208DF804008DF8050000208DF867
:1025200007004FF6FF70009069462A4801F0D2FF7D
:102530006946294801F0CEFF6946284801F0CAFFE4
:102540006946274801F0C6FF6946264801F0C2FFE8
:102550006946254801F0BEFF6946244801F0BAFFEC
:102560006946234801F0B6FF0021FF2002F050FA2F
:10257000012004F0A0FB0121084604F0A8FB1CBDCB
:1025800010B500241B48048821460420FEF7A0FE55
:102590000121164802F01AF84FF480410E4802F06B
:1025A00017F84FF400510C4802F012F84FF4805124
:1025B000094802F00DF84FF40061074802F008F8EE
:1025C0000D480078022802D10CA00CF033F8FFF778
:1025D0009BFF10BD00080240000C024000100240AA
:1025E000001C024000180240001402400004024097
:1025F000000002400E440020480000200D0A5379DC
:102600007374656D2048696265726E617465730DDF
:102610000A00000070B50020F8490871002404E0A9
:102620000020F6490855601CC4B2042CF8DB0024D5
:102630000DE0002507E00021F048401D00EB84007C
:102640004155681CC5B2042DF5DB601CC4B21E2CBC
:10265000EFDBEA4800F049FB70BD10B502460B46BF
:102660000024002103E0505C4440481CC1B2994260
:10267000F9DBE043C0B210BD2DE9F041074610225E
:10268000002138460CF050F90446DC4800F024FBE9
:10269000002525E0260ED948401D10F82500B0423F
:1026A0001CD1C4F30746D548401D00EB8500407897
:1026B000B04213D1C4F30726D048401D00EB85007B
:1026C0008078B0420AD1E6B2CC48401D00EB8500CC
:1026D000C078B04202D10120BDE8F081681CC5B2CB
:1026E000C6480079A842D5DC210EC4480279401DB5
:1026F00000F82210210C401F0279401D00EB8200DF
:102700004170210ABD480279401D00EB82008170B2
:10271000BA480279401D00EB8200C470B7480079C6
:10272000401CB6490871084600791E2801DB0020CC
:102730000871B24800F0D9FA0020CDE72DE9F04148
:1027400005460E461746FF20AD4908704870002424
:1027500005E0295DA01CAA4A1154601CC4B2042CD7
:10276000F7DBA7488671002405E00021E01DA44A9C
:102770001154601CC4B20C2CF7DB002406E0395D58
:1027800004F113009E4A1154601CC4B2042CF6DB01
:10279000002406E0002104F11700994A1154601C3E
:1027A000C4B2042CF6DB1B219548FFF756FF944971
:1027B000C876BDE8F0812DE9FE43804691A14046F0
:1027C0000CF0EAF806462EB101209249087092A05A
:1027D0000BF030FF94A140460CF0DEF80646A6B19F
:1027E0000A220021684600F039FA3146684600F0B6
:1027F000F2FC6846FFF740FF07461FB18DA00BF0C3
:1028000019FF02E090A00BF015FF94A140460CF0D8
:10281000C3F80646002E36D094A00BF00BFF012023
:1028200076490870FF20487000208870C870002426
:1028300022E07249491D01EB84004A1F2321FFF762
:102840007DFF8FA00BF0F6FE002506E06C48415D91
:1028500090A00BF0EFFE681CC5B21C2DF6DB71A03A
:102860000BF0E8FE1C216648FEF794F94FF4FA607D
:1028700000F0C9F9601CC4B260480079A042D8DCFD
:1028800086A00BF0D7FE8AA140460CF085F80646DC
:10289000002E36D08AA00BF0CDFE002057490870DC
:1028A000FF20487000208870C870002422E053493F
:1028B000491D01EB84004A1F2321FFF73FFF70A051
:1028C0000BF0B8FE002506E04D48415D71A00BF00D
:1028D000B1FE681CC5B21C2DF6DB52A00BF0AAFE9F
:1028E0001C214748FEF756F94FF4FA6000F08BF9C7
:1028F000601CC4B241480079A042D8DC75A00BF03E
:1029000099FE79A140460CF047F80646002E36D0D5
:1029100079A00BF08FFE1120384908700020487014
:10292000FF208870C870002422E03449491D01EB63
:1029300084004A1F2221FFF701FF51A00BF07AFE0D
:10294000002506E02E48415D52A00BF073FE681C86
:10295000C5B21C2DF6DB33A00BF06CFE1C21284801
:10296000FEF718F94FF4FA6000F04DF9601CC4B29C
:1029700022480079A042D8DC64A00BF05BFE68A17D
:1029800040460CF009F80646002E34D068A00BF043
:1029900051FE00201949087048708870C8700024E2
:1029A00022E01649491D01EB84004A1FEE21FFF782
:1029B000C5FE33A00BF03EFE002506E01048415D49
:1029C00034A00BF037FE681CC5B21C2DF6DB15A039
:1029D0000BF030FE1C210A48FEF7DCF84FF4FA60D9
:1029E00000F011F9601CC4B204480079A042D8DCA0
:1029F00054A00BF01FFEBDE8FE83000076420020CD
:102A0000F3420020247465737476616C762B2B2B53
:102A100000000000580000202B7465737476616C10
:102A200076206F6E0D0A00002473657476616C76F3
:102A30006569640073657476616C766569642065A8
:102A400072726F720D0A000073657476616C766540
:102A50006964207375636573730D0A00247365746C
:102A600076616C76616C6C6F6E00000076616C76DE
:102A7000616C6C206F6E202E2E2E2E2E0D0A000003
:102A800052533438355F53656E645F446174610D31
:102A90000A000000253032582000000076616C7674
:102AA000616C6C206F6E206F6B210D0A00000000BE
:102AB0002473657476616C76616C6C6F6666000079
:102AC00076616C76616C6C206F6666202E2E2E2EE1
:102AD0002E0D0A0076616C76616C6C206F66662044
:102AE0006F6B210D0A0000002473657469636561D2
:102AF0006C6C6F6666000000696365616C6C206FCA
:102B00006666202E2E2E2E2E0D0A0000696365614A
:102B10006C6C206F6666206F6B210D0A0000000050
:102B2000247365746368616765616C6C0000000004
:102B30006368616765616C6C20202E2E2E2E2E0D31
:102B40000A0000006368616765616C6C20206F6B30
:102B5000210D0A0010B504F0BEFC04F002FE04F0E2
:102B6000D5FC10BD70B504466FF0040001F00DFCFB
:102B7000E11704EB5171C1F3C701344A1170E11739
:102B800004EB5171CD1041F28830454305203049A6
:102B900008804FF0E020006940F002004FF0E02193
:102BA000086108464561006940F00100086170BD98
:102BB0002DE9F047074600264FF0E020D0F81490AA
:102BC0002248007807FB00F800BF04F0D7FC4FF064
:102BD000E020856911E04FF0E0208469AC420CD020
:102BE000AC4202D2281B064403E0A9EB04002844AF
:102BF00006442546464500D300E0ECE700BF04F05C
:102C000002FDBDE8F08770B504461248007801283F
:102C100014D11148007888B90D480088844206DB39
:102C20000B48008894FBF0F5284606F017FC08488E
:102C3000008894FBF0F100FB114084B24FF47A71EC
:102C400004FB01F0FFF7B4FF70BD00003A00002064
:102C50003C000020960000208A00002030B503468A
:102C600001E003F8011B1400A2F10102F9D130BD0B
:102C7000BB48BC490860704710B504464122214654
:102C8000B948FEF709FA10BD70B50446002506F0F4
:102C9000DBFF054641222146B348FEF7ACF9284642
:102CA00006F0D6FF70BD10B5044640F662126421EE
:102CB0002046FFF7F7FA10BD70B50446002506F070
:102CC000C3FF054640F6621264212046FFF784FBED
:102CD000284606F0BDFF70BD10B504467D2240F6C3
:102CE0002A212046FFF7DEFA10BD70B50446002504
:102CF00006F0AAFF05467D2240F62A212046FFF76E
:102D00006BFB284606F0A4FF70BD10B504461122E7
:102D100096492046FFF7C6FA10BD70B50446002557
:102D200006F092FF0546112290492046FFF754FB1A
:102D3000284606F08DFF70BD10B58D48FFF7E5FF02
:102D40008B48007C0A281AD04FF416508849086036
:102D500000200871087348734872072048810C20CE
:102D6000A1F8070040F2B110A1F805000120C873D6
:102D7000142088730A2008740846FFF7CEFF10BDA0
:102D80000EB57CA00BF056FC8248FFF775FF81481A
:102D900090F840000A2836D064207E4908807EA141
:102DA0007C48801C0BF052FC7FA17A4812300BF05B
:102DB0004DFC7FA1774824300BF048FC7FA175487B
:102DC00018300BF043FC0120724981F834000A20CE
:102DD000C1F83500002081F8390081F83A0081F807
:102DE0003B0000216B4880F83C1080F83D100A2021
:102DF000684981F840000846FFF746FF08F00DF8E3
:102E0000FFF708FC43E06F48FEF72DFB0A20FFF7B1
:102E1000FAFE6C48FEF730FB6A48807869494978C9
:102E2000684A1278CDE9002102906648C379827918
:102E3000818865A00BF0FEFB564924316CA00BF095
:102E4000F9FB544A1232A2F110016CA00BF0F2FB14
:102E5000504918316CA00BF0EDFB4E4890F834004F
:102E60006C4A52F820106CA00BF0E4FB4948018832
:102E70006EA00BF0DFFB474890F839106EA00BF006
:102E8000D9FB7148FFF70FFF7048FFF725FF414856
:102E900090F83B006E4908733E4890F83C106C482F
:102EA00041733C4890F83D1069488173002069499E
:102EB00008700EBD10B50A2066490870FEF72AFC9E
:102EC0004FF4FA70FFF79FFEFFF7D2FE10BD10B56A
:102ED00008F042FB6049086009680868804707F00D
:102EE000B8FF10BD70B505460E462A4890F8390067
:102EF000E8B95948006831460269284690470120E0
:102F0000564908700EE05449096848698047C4B2C0
:102F1000042C04D1504909688868804703E00A20DE
:102F2000FFF771FEEFE700BF00204C490870194819
:102F300090F83900012803D131462846FDF72AFED2
:102F400070BD10B54FF4E130FDF79BFCFEF74AFB76
:102F5000FFF745F90BF0E6F80BF086FA10BD00001C
:102F60000400FA050CED00E0008007088BFFFF0766
:102F7000C05F00202B574C572D53544D33324634ED
:102F80002056657273696F6E20312E302D300D0A18
:102F9000000000000E4400203139322E3136382E28
:102FA000312E313030000000383838380000000051
:102FB000303030303030303030000000636D6E65BE
:102FC000740000006C3200202B74696D653D253063
:102FD00034642D253032642D253032642025303282
:102FE000643A253032643A253032640D0A0000001C
:102FF0002B534E2025730D0A000000002B69702012
:1030000025732025730D0A002B61706E2025730D2A
:103010000A000000280000202B7463702D75647076
:10302000206D6F64653A25730D0A00002B68616E90
:10303000642025640D0A00002B646174616D6F6467
:10304000652025640D0A0000B85500207642002056
:103050001C5F002049000020440000204C0000209C
:10306000014600BF704700BFFE4A128812F0400FB1
:10307000FAD0C2B2FB4B9A80704710B588B00446B4
:103080000121084601F0C4FC0121102001F01AFDC5
:1030900007220921F44801F0A8FA07220A21F24880
:1030A00001F0A3FA4FF4C060069002208DF81C00D6
:1030B0008DF81D0000208DF81E0001208DF81F00E6
:1030C00006A9E94801F006FA02940020ADF80C00C8
:1030D000ADF80E00ADF81000ADF814000C20ADF8FE
:1030E000120002A9DF4801F04EFE0121DD4801F087
:1030F000D2FE4021DB4801F0B6FF012240F225510B
:10310000D84801F07EFF25208DF8040003208DF8BB
:1031100005008DF8060001208DF8070001A801F0D8
:10312000E6F808B010BD10B504F0D5F940F225510D
:10313000CC4801F0A1FF00284AD0CA4801F0DAFECD
:10314000C4B2CA48007878B1242C0DD0C848008891
:1031500064283DDAC748C64909884454C4480088F1
:10316000401CC349088033E00020C0490870C048B3
:10317000008810F4004F2BD1BD48008810F4804F18
:103180000CD00A2C03D00020B949088020E0B848B0
:10319000008840F40040B649088019E00D2C06D1A3
:1031A000B348008840F48040B149088010E0B0483E
:1031B0000088C0F30D00AF490C54AD480088401C96
:1031C000AB49088008460088C72801DD0020088038
:1031D00004F09CF910BD70B505460C460422002190
:1031E0002846FFF73BFD00E0641C20782028FBD137
:1031F000641C214628460BF0E1FB70BD014601200E
:10320000704770B505460C460020286000E0641C3D
:1032100020783D28FBD1641C214628460BF0CEFBCC
:1032200070BD0146012070470146012070470146EC
:10323000032901D3002070470120FCE70146B1F5C6
:10324000FA7F01D300207047B1F5C87F01D200207A
:10325000F9E70120F7E70146032901D30020704771
:103260000120FCE70146B1F5966F14D0B1F5166F59
:1032700011D0B1F5965F0ED0B1F5165F0BD0B1F558
:10328000964F08D0B1F5164F05D0B1F5614F02D079
:10329000B1F5E13F01D1012070470020FCE72DE9A5
:1032A000F04782460E4690461C46B146554630468B
:1032B0000BF0A8FB0746B84501DDA7EB0408002C7E
:1032C00000DA0024BC4202DD0020BDE8F087A14402
:1032D00003E019F8010B05F8010B5FEA0800A8F1FB
:1032E0000108F6D105F8010B5046EEE72DE9F84349
:1032F00004460E4617469846002000906D4603E0AF
:10330000207828706D1C641C20782D28F8D1641C4E
:103310000A22002168460BF007FB308003220021BF
:103320006846FFF79BFC6D4603E0207828706D1C13
:10333000641C20782D28F8D1641C0A2200216846DC
:103340000BF0F2FA38700A22002120460BF0ECFA5A
:1033500088F80000BDE8F8832DE9F04F87B00546F6
:103360000E4617469846DDE910AB129C00200490EB
:10337000059006900190029003900DF104090090D1
:1033800000E0641C20782028FBD1641C05E0207834
:1033900089F80000641C09F1010920782028F6D181
:1033A000641C3B463246294601A8FFF79FFF214691
:1033B00004A80BF003FB0023022204A96846FFF7D0
:1033C0006EFF0A22002168460BF0AEFA88F8000072
:1033D0000323022204A96846FFF761FF0A220021A5
:1033E00068460BF0A1FA8AF800000623022204A91D
:1033F0006846FFF754FF0A22002168460BF094FA52
:103400008BF8000007B0BDE8F08F2DE9F04F8BB0CE
:103410008246142103A80BF07BFB4FF00009C8463D
:1034200015A150460BF0B8FA05462DB102201549FA
:10343000087015A00BF0FEF817A150460BF0ACFA7F
:1034400005462DB104200F49087016A00BF0F2F8C4
:1034500019A150460BF0A0FA05469DB30520094975
:10346000087030E0001001400000024058000020C9
:10347000500000204F4400202424646562756720BA
:10348000320000004800002044454255475F475342
:103490004D5F4F4E0D0A000024246465627567205D
:1034A0003400000044454255475F52533438355F7D
:1034B0004F4E0D0A000000002424646562756720E9
:1034C0003500000002E0FAA00BF0B4F8FDA1504670
:1034D0000BF062FA05462DB10020FD490870FDA0F1
:1034E0000BF0A8F8FEA150460BF056FA054685B140
:1034F00010220021FC48FFF7B1FB2946FA48FFF7EC
:103500006AFEF948801EFFF7BFFBF749F7A00BF0F2
:1035100091F8F9A150460BF03FFA05469DB10622FD
:103520000021F1481030FFF799FB2946EE48103092
:10353000FFF751FEEC48801EFFF7A6FBEA49103169
:10354000EFA00BF077F8F1A150460BF025FA0546F5
:103550009DB10C220021E4481630FFF77FFB29467D
:10356000E1481630FFF737FEDF48801EFFF78CFB7F
:10357000DD491631E7A00BF05DF8E9A150460BF0EC
:103580000BFA0546FDB10A22002108A8FFF766FBE9
:10359000294608A8FFF71FFE0A22002108A80BF001
:1035A000C3F9D149891E08800846FFF76DFB012049
:1035B000DD4948730020DD490860CB48801E018842
:1035C000DBA00BF037F8DDA150460BF0E5F905461E
:1035D0009DB110220021C4482230FFF73FFB29464D
:1035E000C1482230FFF7F7FDBF48801EFFF74CFBB4
:1035F000BD492231D3A00BF01DF8D5A150460BF0E8
:10360000CBF90546002D44D0D348FDF72CFF1420FC
:10361000FFF7F9FAD048FDF72FFFCF488078CE4961
:103620004978CD4A1278CDE900210290CA48C37981
:1036300082798188C9A00AF0FDFFAB492231C1A07F
:103640000AF0F8FFA84A1032A749CEA00AF0F2FF0C
:10365000A5491631CEA00AF0EDFFA348801E90F8D0
:103660003400CE4A52F82010CDA00AF0E3FF9E4865
:10367000801E0188CFA00AF0DDFF9B48801E90F8D5
:103680003910CFA00AF0D6FFA8480168D0A00AF0F0
:10369000D1FFD3A150460BF07FF90546002D33D062
:1036A000D2A150460BF078F90746002F2CD0AA483B
:1036B000801C411E831E421DCDE901050091011DA4
:1036C000801CFFF749FEA4488078A3494978DFF8B9
:1036D00088C2CDE900109CF800309CF807209CF8C7
:1036E0000610BCF80400FDF7A0FE9B4881784078E6
:1036F000994A1278CDE9002002919748C3798279DE
:10370000818896A00AF096FFB9A150460BF044F9C3
:10371000054665B1B848007830B90120B64908704F
:10372000B6A00AF087FF02E0B7A00AF083FFBAA1B3
:1037300050460BF031F90546D5B10A22002108A800
:10374000FFF78CFA294608A8FFF745FD0A22002159
:1037500008A80BF0E9F86449891E81F8340008468E
:1037600090F834008D4A52F82010ADA00AF062FFA4
:10377000B0A150460BF010F90546DDB10A22002138
:1037800008A8FFF76BFA294608A8FFF724FD0A22CC
:10379000002108A80BF0C8F85349891EC1F835006C
:1037A0000846FFF771FA5048801ED0F83510A4A0E3
:1037B0000AF040FFA6A150460BF0EEF80546DDB139
:1037C0000A22002108A8FFF749FA294608A8FFF7AE
:1037D00002FD0A22002108A80BF0A6F84249891E22
:1037E00081F839000846FFF74FFA3F48801E90F8ED
:1037F000391073A00AF01EFF98A150460BF0CCF8C8
:103800000546DDB10A22002108A8FFF727FA29465C
:1038100008A8FFF7E0FC0A22002108A80BF084F8B2
:103820003149891E81F83A000846FFF72DFA2E48E3
:10383000801E90F83A108CA00AF0FCFE8EA1504633
:103840000BF0AAF80446002C20D02FA00AF0F2FEBC
:103850008BA00AF0EFFE8EA00AF0ECFE8FA00AF01B
:10386000E9FE92A00AF0E6FE94A00AF0E3FE97A01B
:103870000AF0E0FE98A00AF0DDFE9AA00AF0DAFE57
:103880009CA00AF0D7FE9FA00AF0D4FE9FA150464C
:103890000BF082F80446002C08D09FA150460BF094
:1038A0007BF804460CB118A03CE146E16FE1000052
:1038B00044454255475F50726F746F636F6C5F4F42
:1038C0004E0D0A00242464656275672030000000F4
:1038D0004800002044454255475F4F46460D0A00C8
:1038E0002473657469700000104400202B49502037
:1038F00025730D0A0000000024736574706F740056
:103900002B504F52542025730D0A00002473657408
:1039100061706E002B41504E2025730D0A0000008F
:1039200024736574686E64006055002054000020A4
:103930002B48414E442025640D0A00002473657411
:10394000736E00002B534E2025730D0A00000000FB
:1039500024696E666F0000006C3200202B74696D64
:10396000653D253034642D253032642D2530326498
:1039700020253032643A253032643A253032640DE5
:103980000A0000002B69702025732025730D0A00A2
:103990002B61706E2025730D0A00000028000020A6
:1039A0002B7463702D756470206D6F64653A257398
:1039B0000D0A00002B68616E642025640D0A00006A
:1039C0002B646174616D6F64652025640D0A0000CD
:1039D0002B6A69736869682025640D0A000000007D
:1039E0002473657474696D65000000002D0000008B
:1039F0002472657365740000490000202B526573C2
:103A00006574204F6B0D0A002B5265736574204559
:103A100072726F720D0A000024746370000000005F
:103A20002B7463702D756470206D6F64653A20256A
:103A3000730D0A002473657464656C617974000009
:103A40002B64656C617974696D652025640D0A00CD
:103A500024736574646174616D6F640024736574AC
:103A6000776F726B6D6F64002B776F726B6D6F6425
:103A7000652025640D0A000041542B2B0000000036
:103A800041542B535842444154450D0A0000000054
:103A900041542B53585041520D0A000041542B53AE
:103AA0005852465246450D0A0000000041542B531F
:103AB0005852464D4F44450D0A00000041542B53C7
:103AC0005852464641430D0A0000000041542B5312
:103AD00058524642570D0A0041542B5358435449FB
:103AE000440D0A0041542B53584E455449440D0A85
:103AF0000000000041542B5358504F5745520D0AB7
:103B0000000000000D0A2B4F4B0D0A0041542B53AF
:103B1000584244415445000041542B5358424441BB
:103B200054453F000AF086FDFD480168FDA00AF0FB
:103B300081FDAFF230000AF07DFDFEA150460AF093
:103B40002BFF04461CB3514603A8FFF75AFB0A2279
:103B5000002103A80AF0E8FE80464046FFF782FBFA
:103B600006466EB1EE48C0F80080FFF7D6F8AFF217
:103B700068200AF05FFDAFF274000AF05BFD06E01A
:103B8000AFF27C200AF056FDEDA00AF053FDEFA144
:103B900050460AF001FF0446002C3AD0EEA15046F0
:103BA0000AF0FAFE04465CB1E7A00AF043FDDC48E7
:103BB0000179ECA00AF03EFDAFF2B8000AF03AFD40
:103BC000EBA150460AF0E8FE044614B3514603A8A0
:103BD000FFF717FB0A22002103A80AF0A5FE804682
:103BE0004046FFF738FB06466EB1CD4981F80480A8
:103BF0000846FFF792F8D4A00AF01CFDAFF2FC00D3
:103C00000AF018FD05E0D0A00AF014FDCCA00AF0DF
:103C100011FDDAA150460AF0BFFE0446002C3BD04D
:103C2000D9A150460AF0B8FE044664B1C6A00AF015
:103C300001FDBB48B0F80510D6A00AF0FBFCAFF2BE
:103C40003C100AF0F7FCD7A150460AF0A5FE044646
:103C500014B3514603A8FFF7D4FA0A22002103A89F
:103C60000AF062FE80464046FFF7E8FA06466EB16B
:103C7000AB49A1F805800846FFF74FF8B2A00AF05B
:103C8000D9FCAFF280100AF0D5FC05E0AEA00AF036
:103C9000D1FCABA00AF0CEFCC5A150460AF07CFED8
:103CA0000446002C3AD0C5A150460AF075FE0446E1
:103CB0005CB1A5A00AF0BEFC9948417AC3A00AF005
:103CC000B9FCAFF2C0100AF0B5FCC4A150460AF02E
:103CD00063FE044614B3514603A8FFF792FA0A2282
:103CE000002103A80AF020FE80464046FFF79FFA15
:103CF00006466EB18A4981F809800846FFF70DF83B
:103D000091A00AF097FCAFF204200AF093FC05E0C2
:103D10008DA00AF08FFC8AA00AF08CFCB3A150465B
:103D20000AF03AFE0446002C3BD0B3A150460AF0FC
:103D300033FE044664B184A00AF07CFC7848B0F8F5
:103D40000710B0A00AF076FCAFF248200AF072FC2F
:103D5000B0A150460AF020FE044614B3514603A811
:103D6000FFF74FFA0A22002103A80AF0DDFD804682
:103D70004046FFF759FA06466EB16949A1F8078037
:103D80000846FEF7CAFF70A00AF054FCAFF28C2080
:103D90000AF050FC05E06CA00AF04CFC68A00AF0A8
:103DA00049FC9FA150460AF0F7FD0446002C3AD08A
:103DB0009EA150460AF0F0FD04465CB162A00AF0F4
:103DC00039FC574841899CA00AF034FCAFF2CC2062
:103DD0000AF030FC9CA150460AF0DEFD044614B304
:103DE000514603A8FFF70DFA0A22002103A80AF0A2
:103DF0009BFD80464046FFF714FA06466EB14849DF
:103E0000A1F80A800846FEF788FF4FA00AF012FCCE
:103E1000AFF210300AF00EFC05E04BA00AF00AFCED
:103E200047A00AF007FC8BA150460AF0B5FD0446F6
:103E3000002C3AD08BA150460AF0AEFD04465CB18E
:103E400041A00AF0F7FB3648817B8AA00AF0F2FB1A
:103E5000AFF250300AF0EEFB8AA150460AF09CFD0A
:103E6000044614B3514603A8FFF7CBF90A220021F8
:103E700003A80AF059FD80464046FFF7BFF9064601
:103E80006EB1274981F80E800846FEF746FF2EA046
:103E90000AF0D0FBAFF294300AF0CCFB05E02AA088
:103EA0000AF0C8FB26A00AF0C5FB7AA150460AF02A
:103EB00073FD04466CB124A00AF0BCFB09F02DF997
:103EC0008346594676A00AF0B5FBAFF2C8300AF037
:103ED000B1FB77A150460AF05FFD0746F7B10A2211
:103EE000002108A8FEF7BAFE394608A8FFF773F9C3
:103EF0001022002108A80AF017FD81464FEA194058
:103F00006F4908734FEA19216D48417380F80E908C
:103F1000007B6C4981F83B006948D5E0E2E0000095
:103F2000C05F00202B535842444154453A25640D4C
:103F30000A00000041542B535842444154453D006F
:103F40000D0A2B4552524F520D0A000041542B537B
:103F5000585041520000000041542B5358504152D8
:103F60003F0000002B53585041523A25640D0A007F
:103F700041542B53585041523D00000041542B53A3
:103F8000585246524645000041542B53585246520F
:103F900046453F002B535852465246453A25640D3C
:103FA0000A00000041542B535852465246453D00EA
:103FB00041542B535852464D4F44450041542B53C6
:103FC0005852464D4F44453F000000002B53585275
:103FD000464D4F44453A25640D0A000041542B5389
:103FE0005852464D4F44453D0000000041542B536C
:103FF000585246464143000041542B5358524646BE
:1040000041433F002B535852464641433A25640DE5
:104010000A00000041542B535852464641433D008C
:1040200041542B53585246425700000041542B53E1
:1040300058524642573F00002B5358524642573A77
:1040400025640D0A0000000041542B53585246428B
:10405000573D000041542B53585246504F5745523C
:104060000000000041542B53585246504F574552C0
:104070003F0000002B53585246504F5745523A25A7
:10408000640D0A0041542B53585246504F57455225
:104090003D00000041542B535852464353513F00BA
:1040A0002B535852464353513A2D25640D0A0000B4
:1040B0002473657463656E74657269640000000042
:1040C0001C5F00200E440020417B514880F83C10CA
:1040D0005048817B4E4880F83D10FEF7D5FD4EA03C
:1040E0000AF0A8FA51A150460AF056FC0746AFB1B3
:1040F0000A22002108A8FEF7B1FD394608A8FFF7FB
:104100006AF81022002108A80AF00EFC8146C9F3C3
:1041100007461FFA89F1304606F04BFE46A150468D
:104120000AF03AFC074627B106F077FE46A00AF0EF
:1041300081FA4AA150460AF02FFC07462FB103200E
:104140004949087049A00AF075FA5046FEF733FB5A
:104150000BB0BDE8F08F30B589B047480078002833
:1041600023D04648048800250A20FEF74CFD43482A
:104170000088844218D1BCB121464148FCF70AFDB1
:1041800040A00AF057FA00BF06E03D48415D42A05A
:104190000AF050FA681C85B2A542F6DB2EA00AF0A0
:1041A00049FA00203549088027E000250024202115
:1041B00001A80AF0ADFC3148008810F4004F1BD074
:1041C0002E4805781E2D0FDC00BF0BE02C48005D4B
:1041D00001A9085500BF3248008810F0400FFAD0FE
:1041E000601CC4B2AC42F1DB00202449088001A964
:1041F000085501A8FFF709F900BF09B030BD014615
:104200000120704701460120704701460120704798
:104210000E4400201C5F00202B73657463656E7470
:1042200065726964206F6B0D0A0000002473657469
:10423000737873656E69640024636C65617273786A
:1042400073656E69640000002B636C65617273783E
:1042500073656E6964206F6B0D0A000024736574CA
:104260006D33356F6E0000004C0000202B736574B9
:104270006D33356F6E0D0A0058000020500000208D
:104280004F44002052533438355F53656E645F44A9
:104290006174610D0A0000002530325820000000D2
:1042A000001001400948804709480047FEE7FEE743
:1042B000FEE7FEE7FEE7FEE7FEE7FEE7FEE7FEE7D6
:1042C00004480549054A064B704700001F070008CF
:1042D0008901000838620020386800203864002016
:1042E0003864002033490143334A1160704770B588
:1042F000002100230F22C47824B32F4C246804F437
:10430000E064C4F5E064C4F30721C1F10404E3B23E
:104310000A4144789C40E1B28478144021430C0760
:10432000210E264C05786155047804F01F05012400
:10433000AC4005786D114FF0E02606EB8505C5F819
:10434000004109E0047804F01F040125A5401C4C3D
:104350000678761144F8265070BD1A4A0A40024386
:10436000154B1B1F1A60704739B1134A121D126892
:104370000243114B1B1D1A6006E00F4A121D126802
:1043800082430D4B1B1D1A607047042808D14FF063
:10439000E021096941F004014FF0E022116107E0DA
:1043A0004FF0E021096921F004014FF0E022116192
:1043B000704700000000FA050CED00E000E400E0AA
:1043C00080E100E080FFFF1F10B50446984884425A
:1043D00008D10121084600F086FB0021012000F0F1
:1043E00082FB76E09348844208D10121022000F04C
:1043F0007AFB0021022000F076FB6AE08E488442BE
:1044000008D10121042000F06EFB0021042000F0FF
:104410006AFB5EE08948844208D10121082000F04F
:1044200062FB0021082000F05EFB52E084488442D9
:1044300008D10121102000F056FB0021102000F0CF
:1044400052FB46E07F48844208D10121202000F041
:104450004AFB0021202000F046FB3AE07A488442E3
:1044600008D10121402000F03EFB0021402000F057
:104470003AFB2EE07548844208D10121802000F0EB
:1044800032FB0021802000F02EFB22E070488442A5
:1044900008D10121801500F026FB0021A01500F0B5
:1044A00022FB16E06B48844208D10121401500F040
:1044B0001AFB0021601500F016FB0AE066488442F2
:1044C00007D10121001500F00EFB0021201500F09E
:1044D0000AFB10BDF0B50A4600210023002400BFEE
:1044E0003DE0012505FA01F3156805EA03049C4245
:1044F00034D105684F000326BE40B54305601579E9
:104500004E00B5400668354305601579012D02D08F
:104510001579022D16D185684F000326BE40B5439C
:10452000856055794E00B54086683543856045689D
:1045300001268E40B5434560456896798E40B6B2F7
:1045400035434560C5684F000326BE40B543C5608E
:10455000D5794E00B540C6683543C560491C102961
:10456000BFD3F0BD4FF6FF710160002101714171B1
:104570008171C171704708B54FF480320092009A82
:104580000A430092009AC261C161009AC261C26985
:104590000092C269009208BD0246002013690B42D6
:1045A00001D0012000E0002070470146086980B278
:1045B00070470246002053690B4201D0012000E001
:1045C000002070470146486980B2704701837047F8
:1045D000418370470AB1018300E041837047416124
:1045E000704742694A4042617047F0B50023002499
:1045F0004D07ED0E02FA05F3CE1000F1200555F837
:1046000026504E07F70E0F26BE40B543CF1000F1DF
:10461000200646F82750CE1000F1200555F8265008
:1046200045EA0304CE1000F1200545F82640F0BD10
:10463000000002400004024000080240000C02405A
:10464000001002400014024000180240001C02400A
:10465000002002400024024000280240F94800687F
:1046600040F00100F74908600020F6490831086071
:10467000F4480068F4490840F2490860F348091D0D
:104680000860F348EF4984310860F0481038091D8C
:104690000860EC48006820F48020EA4908600020A7
:1046A000E8490C310860E7498C3108607047002107
:1046B000E44A921C117011460870704710B501460B
:1046C0000022002300204A11012A02D1DD4C236878
:1046D00008E0022A03D1DB4C7034236802E0D94C95
:1046E0007434236801F01F02012494401C4201D05D
:1046F000012000E0002010BD38B50020009000240B
:10470000002500BF3120FFF7D9FF05460098401C67
:1047100000900098B0F5A04F01D0002DF2D03120CC
:10472000FFF7CCFF08B1012400E00024204638BD8B
:1047300001460020C34A106820F0F80040EAC1009A
:1047400010607047C349086070470021BD4A70324D
:1047500011701170012802D004280AD104E001214F
:10476000B84A7032117005E00521B64A70321170F6
:1047700000E000BF00BF7047B7490860704770B5E0
:10478000049C41EA82150126C6EB530645EA06451C
:10479000054345EA0465AB4E361D356070BDAD4935
:1047A00008667047820142EA0172A64B84331A60A0
:1047B0007047A8498866704710B5830143EA0163D2
:1047C00043EA02739F4C8834236010BDA1490867F7
:1047D0007047A049C864704702460020994B0833CF
:1047E000186820F0EC6042EA01031843954B083347
:1047F0001860704702460020924B0833186820F07A
:10480000784042EA010318438E4B08331860704722
:10481000014600208B4A0832106820F0030008434C
:104820001060704787480830006800F00C0070473F
:1048300001460020834A0832106820F0F000084347
:1048400010607047014600207E4A0832106820F44C
:10485000E05008431060704701460020794A083252
:10486000106820F4604040EAC10010607047F0B565
:10487000002100220024022500260223714F083760
:104880003F6807F00C0121B1042905D0082937D170
:1048900005E0724F076036E0714F076033E0694F03
:1048A0003F1D3F68C7F38056664F3F1D3F6807F0C6
:1048B0003F036EB16A4FB7FBF3F7DFF888C10CF125
:1048C000040CDCF800C0CCF3881C07FB0CF40CE0F3
:1048D000624FB7FBF3F7DFF86CC10CF1040CDCF8A6
:1048E00000C0CCF3881C07FB0CF4564F3F1D3F68FB
:1048F000C7F301477F1C7D00B4FBF5F7076002E0BA
:10490000564F076000BF00BF4E4F08373F6807F0A3
:10491000F0010909534F7A5C0768D7404760494F57
:1049200008373F6807F4E051890A4E4F7A5C4768C0
:10493000D7408760434F08373F6807F46041490B11
:10494000484F7A5C4768D740C760F0BD002100F44B
:104950004072B2F5407F0AD13A4A0832116821F418
:10496000F811414A02401143364A08321160354A73
:1049700070321268C0F30B031A43324B70331A6063
:1049800070473549443908607047334940390860F9
:10499000704736490860704701460020294A8C322A
:1049A000106820F01F004A1E1043264A8C32106007
:1049B000704701460020234A8C32106820F4F850DA
:1049C0004A1E40EA02201F4A8C321060704701469E
:1049D00000201C4A8C32106820F4401008431060FC
:1049E000704701460020174A8C32106820F44000BE
:1049F00008431060704701460020124A8C3210684C
:104A000020F440300843106070471949086070472F
:104A100039B10C4A3032126802430A4B30331A6003
:104A200006E0084A303212688243064B30331A607F
:104A30007047F9B1034A343212680243014B3433F0
:104A40001A601CE000380240FFFFF6EA1030002434
:104A50000030002000004742800E47420024F4004E
:104A600040787D0160000020FFFCFF0F5C014742A1
:104A7000E01147428F4A126882438E4B1A6070479A
:104A800039B18C4A121D126802438A4B1B1D1A60F1
:104A900006E0884A121D12688243864B1B1D1A606D
:104AA000704739B1834A0C3212680243814B0C3390
:104AB0001A6006E07F4A0C32126882437D4B0C3349
:104AC0001A60704739B17B4A103212680243794B41
:104AD00010331A6006E0774A103212688243754B31
:104AE00010331A60704739B1724A243A126802438F
:104AF000704B243B1A6006E06E4A243A12688243E7
:104B00006C4B243B1A60704739B16A4A203A1268EC
:104B10000243684B203B1A6006E0664A203A12685E
:104B20008243644B203B1A60704739B1614A1C3A9A
:104B3000126802435F4B1C3B1A6006E05D4A1C3A58
:104B4000126882435B4B1C3B1A60704739B1594A6B
:104B5000143A12680243574B143B1A6006E0554A58
:104B6000143A12688243534B143B1A60704739B1B0
:104B7000504A103A126802434E4B103B1A6006E04E
:104B80004C4A103A126882434A4B103B1A607047F5
:104B900039B1484A1C3212680243464B1C331A6032
:104BA00006E0444A1C3212688243424B1C331A60AE
:104BB000704739B13F4A2032126802433D4B2033DF
:104BC0001A6006E03B4A203212688243394B203398
:104BD0001A60704739B1374A243212680243354BA4
:104BE00024331A6006E0334A243212688243314B80
:104BF00024331A60704739B12E4A2C3212680243AE
:104C00002C4B2C331A6006E02A4A2C32126882435D
:104C1000284B2C331A60704739B1264A303212685B
:104C20000243244B30331A6006E0224A30321268C5
:104C30008243204B30331A607047012808D11D4948
:104C40003C31096841F008011A4A3C32116007E022
:104C500018493C31096821F00801164A3C321160BC
:104C6000704739B1134A273A12780243114B273B58
:104C70001A7006E00F4A273A127882430D4B273B01
:104C80001A7070470B484030006840F08070094946
:104C900040310860704701460020064A283A1268F1
:104CA0000A4201D0012000E0002070470149263966
:104CB000087070473438024010B50446FA48844200
:104CC00008D101211020FFF752FF00211020FFF72B
:104CD0004EFF57E0F548844209D101214804FFF70F
:104CE00035FF00214FF40030FFF730FF4AE0F04875
:104CF000844209D101218804FFF728FF00214FF4E5
:104D00008020FFF723FF3DE0EA48844209D10121DA
:104D1000C804FFF71BFF00214FF40020FFF716FF28
:104D200030E0E548844209D101210805FFF70EFF74
:104D300000214FF48010FFF709FF23E0DF48844291
:104D400008D101212020FFF712FF00212020FFF7CA
:104D50000EFF17E0DA48844209D101218807FFF7E6
:104D6000F5FE00214FF08040FFF7F0FE0AE0D54845
:104D7000844207D101214005FFF7E8FE00216005CC
:104D8000FFF7E4FE10BD2DE9FF4705460E4600245F
:104D9000A14600BFA046B08900B100BF2C8A24F410
:104DA0004054F08804432C82AC8941F20C60844367
:104DB000B08831890843718908430443AC81AC8AC7
:104DC00024F44074B0890443AC826846FFF74FFD79
:104DD000B548854202D0B948854202D1DDF80C9031
:104DE00001E0DDF80890A88910F4004F08D009EB25
:104DF000C90000EB091031684900B0FBF1F707E08A
:104E000009EBC90000EB091031688900B0FBF1F72C
:104E10006420B7FBF0F004012009642101FB107845
:104E2000A88910F4004F08D0322000EBC800B0FB76
:104E3000F1F000F00700044308E0322000EB081016
:104E40006421B0FBF1F000F00F0004432C81BDE8B9
:104E5000FF874FF41651016000218180C1800181DC
:104E60000C21418100218181704710B5024600204C
:104E7000108A20F470600B884C8823438C8823436D
:104E8000CC8823431843108210BD0021018041804B
:104E90008180C180704721B1828942F400528281B1
:104EA00004E082894DF6FF731A4082817047028BBD
:104EB00002F47F420283028B0A430283704721B1CE
:104EC000828942F40042828103E08289C2F30E02A9
:104ED0008281704721B1828A42F40062828204E0BA
:104EE000828A4FF2FF731A4082827047C1F3080230
:104EF0008280704701468888C0F308007047028AA4
:104F00004FF6F0731A400282028A0A430282704707
:104F100021B1828942F00202828104E082894FF647
:104F2000FD731A408281704782894FF2FF731A40E5
:104F3000828182890A4382817047028A4FF6DF7339
:104F40001A400282028A0A430282704721B1028A11
:104F500042F48042028204E0028A4BF6FF731A4058
:104F600002827047818941F001018181704721B13E
:104F7000828A42F00802828204E0828A4FF6F77346
:104F80001A4082827047028BD2B20283028B42EABD
:104F900001220283704721B1828A42F0200282827C
:104FA00004E0828A4FF6DF731A408282704721B193
:104FB000828A42F01002828204E0828A4FF6EF7306
:104FC0001A4082827047828A4FF6FB731A408282AF
:104FD000828A0A438282704721B1828A42F00202A9
:104FE000828204E0828A4FF6FD731A408282704703
:104FF0001AB1838A0B43838202E0838A8B438382C4
:105000007047F0B503460024002600250020A1F5D6
:1050100010676A3F00D100BF1846C1F3421401F087
:105020001F06012707FA06F5012C01D10C3004E018
:10503000022C01D1103000E014301AB107682F4360
:10504000076002E00768AF430760F0BD024600203A
:10505000B1F5007F00D100BF13880B4201D00120C1
:1050600000E00020704701F40072B2F5007F00D12B
:1050700000BFCA430280704770B502460024002377
:1050800000250020A1F510666A3E00D100BFC1F3E3
:10509000421501F01F03012606FA03F3012D13D177
:1050A0009689334017E000000010014000440040A2
:1050B00000480040004C00400050004000140140F7
:1050C00000780040007C0040022D02D1168A334057
:1050D00001E0968A33400C12012606FA04F4168881
:1050E000344013B10CB1012000E0002070BD10B5B8
:1050F00000220023A1F510646A3C00D100BF0A120F
:1051000001249440A3B2DC43048010BD10B50446D2
:10511000FE48844208D101210846FFF728FD0021FE
:105120000120FFF724FD9DE0B4F1804F08D101215B
:105130000846FFF70BFD00210120FFF707FD91E076
:10514000F348844208D101210220FFF7FFFC00212F
:105150000220FFF7FBFC85E0EE48844208D10121E4
:105160000420FFF7F3FC00210420FFF7EFFC79E0B7
:10517000E948844208D101210820FFF7E7FC00211B
:105180000820FFF7E3FC6DE0E448844208D10121E8
:105190001020FFF7DBFC00211020FFF7D7FC61E0B7
:1051A000DF48844208D101212020FFF7CFFC0021F5
:1051B0002020FFF7CBFC55E0DA48844208D10121DA
:1051C0000220FFF7D4FC00210220FFF7D0FC49E0C9
:1051D000D548844209D101210804FFF7C8FC002109
:1051E0004FF48030FFF7C3FC3CE0D048844209D143
:1051F00001214804FFF7BBFC00214FF40030FFF70A
:10520000B6FC2FE0CA48844209D101218804FFF787
:10521000AEFC00214FF48020FFF7A9FC22E0C54836
:10522000844208D101214020FFF790FC002140205A
:10523000FFF78CFC16E0C048844208D10121802091
:10524000FFF784FC00218020FFF780FC0AE0BB48C8
:10525000844207D101218015FFF778FC0021A015B9
:10526000FFF774FC10BD00220288A84B98420ED0B4
:10527000AC4B98420BD0B0F1804F08D0A44B984271
:1052800005D0A44B984202D0A34B984204D14FF6CC
:105290008F731A404B881A43A04B984207D0A04BFB
:1052A000984204D04FF6FF431A400B891A430280FC
:1052B0004B68C3620B880385944B984202D0994B8C
:1052C000984201D18B7A03860123838270474FF085
:1052D000FF3141600021018001814180817270476E
:1052E0000185828270470A46002101884FF68F733C
:1052F000194011430180704741627047C162704795
:105300000146486A70470146088D704721B10288FE
:1053100042F00202028004E002884FF6FD731A4058
:105320000280704721B1028842F00402028004E04A
:1053300002884FF6FB731A400280704721B1028841
:1053400042F08002028004E002884FF67F731A4028
:105350000280704702884FF6F7731A400280028875
:105360000A430280704702884FF6FF431A400280CA
:1053700002880A430280704721B1028842F001028C
:10538000028004E002884FF6FE731A4002807047E4
:1053900070B5002400220023058C4FF6FE763540C0
:1053A0000584028C8388048B4FF68F752C40B51EC4
:1053B0002C400D882C43751E2A408D892A434D8828
:1053C0002A43524DA84202D0564DA84213D14FF65F
:1053D000F7752A40CD892A434FF6FB752A408D8800
:1053E0002A434FF6FF652B404FF6FF552B400D8AA1
:1053F0002B434D8A2B43838004838D68456302844D
:1054000070BD70B5002400220023058C4FF6EF76A6
:1054100035400584028C8388048B48F6FF752C4048
:105420004FF6FF452C400D884FF6FF7606EA05251E
:105430002C434FF6DF752A408D8906EA05152A436D
:105440004D8806EA05152A43304DA84202D0354D55
:10545000A8421DD14FF67F752A40CD894FF6FF76C1
:1054600006EA05152A434FF6BF752A408D8806EADD
:1054700005152A434FF6FF352B404FF2FF752B40A1
:105480000D8A06EA85052B434D8A06EA85052B43DE
:10549000838004838D688563028470BD70B50024A9
:1054A00000220023058C4FF6FF6635400584028CF0
:1054B0008388848B4FF68F752C404FF6FC752C40FB
:1054C0000D882C434FF6FF552A408D894FF6FF7605
:1054D00006EA05252A434D8806EA05252A430B4D91
:1054E000A84202D00F4DA84238D14FF2FF752A4092
:1054F000CD894FF6FF7606EA05252A434FF6FF359C
:105500002A408D8806EA05252A4319E0000001405B
:105510000004004000080040000C00400010004063
:1055200000140040000401400040014000440140DC
:105530000048014000180040001C004000200040CE
:105540004EF6FF752B404DF6FF752B400D8A06EA8F
:1055500005152B434D8A06EA05152B43838084836A
:105560008D68C563028470BD70B5002200230024DD
:10557000058C4EF6FF7635400584038C8488828B3B
:1055800048F6FF752A404FF6FF452A400D884FF632
:10559000FF7606EA05252A434DF6FF752B408D89D7
:1055A00006EA05352B434D8806EA05352B43FE4DAB
:1055B000A84202D0FD4DA84208D14BF6FF752C4001
:1055C0000D8A4FF6FF7606EA85152C438480828388
:1055D0008D680564038470BD002101804180818055
:1055E00081608181C18101824182704770B503462B
:1055F000002000241846183001258D40ACB21D8CC7
:10560000A5431D8409B108290AD100EB6100056892
:105610004FF68F76354005600568154305600FE04D
:105620000D1FC5F34E052844056848F6FF76354042
:10563000056005684FF6FF7606EA022635430560E9
:1056400070BD4163704781637047C16370470164F7
:1056500070470A460021018B4FF68F7319401143A2
:10566000018370470A460021018B48F6FF731940F9
:105670004FF6FF7303EA02231943018370470A467A
:105680000021818B4FF68F7319401143818370473E
:105690000A460021818B48F6FF7319404FF6FF73CD
:1056A00003EA02231943818370470A460021018BD4
:1056B0004FF6F77319401143018370470A460021E2
:1056C000018B4FF2FF7319404FF6FF7303EA022379
:1056D0001943018370470A460021818B4FF6F77307
:1056E00019401143818370470A460021818B4FF294
:1056F000FF7319404FF6FF7303EA022319438183B6
:1057000070470A460021018B4FF6FB731940114385
:10571000018370470A460021018B4FF6FF33194081
:105720004FF6FF7303EA02231943018370470A46C9
:105730000021818B4FF6FB73194011438183704721
:105740000A460021818B4FF6FF3319404FF6FF7355
:1057500003EA02231943818370470A460021018B23
:105760004FF67F7319401143018370470A460021A9
:10577000018BC1F30E014FF6FF7303EA02231943B5
:10578000018370470A460021818B4FF67F731940D1
:105790001143818370470A460021818BC1F30E01BA
:1057A0004FF6FF7303EA02231943818370470A46C9
:1057B0000021018C4FF6FD7319401143018470479D
:1057C0000A460021018C4FF6F773194011430184FA
:1057D00070470A460021018C4FF6DF7319404FF6DF
:1057E000FF7303EA02131943018470470A4600213C
:1057F000018C4FF67F7319404FF6FF7303EA0213D3
:105800001943018470470A460021018C4FF6FF536B
:1058100019404FF6FF7303EA0223194301847047CE
:105820000A460021018C4FF2FF7319404FF6FF73B7
:1058300003EA02231943018470470A460021018CC0
:105840004DF6FF7319404FF6FF7303EA0233194315
:105850000184704730B5002301248C40A3B2048C2E
:105860009C430484048C02FA01F5ADB22C430484F9
:1058700030BD30B5002304248C40A3B2048C9C437B
:105880000484048C02FA01F5ADB22C43048430BDCB
:10589000828B4FF2FF331A408283828B4FF6FF7365
:1058A00003EA01231A4382837047F0B50C4615467C
:1058B000002100220026078C4EF6FF7C07EA0C0729
:1058C0000784818B028C4FF6FF7707EA043640F697
:1058D000FF4739404FF6FF7707EA052739434FF670
:1058E000FF7707EA0337394345F6FF773A4046F436
:1058F00080573A4381830284F0BD828B4FF6F37365
:105900001A408283828B0A4382837047F0B50C462B
:105910001546002100220026078C4FF6FF6C07EA8F
:105920000C070784818B028C4FF6FF7707EA042669
:105930004FF60C7739404FF6FF7707EA03172F43EE
:1059400039434FF2FF573A4046F480773A43818318
:105950000284F0BD028B4FF2FF331A400283028BA8
:105960004FF6FF7303EA01231A4302837047F0B531
:105970000C461546002100220026078C4FF6EF7CCE
:1059800007EA0C070784018B028C4FF6FF7707EAC2
:10599000041640F6FF4739404FF6FF7707EA033712
:1059A00039434FF6FF7703E0000001400004014057
:1059B00007EA052739434FF65F773A4046F010076C
:1059C0003A4301830284F0BD028B4FF6F3731A4011
:1059D0000283028B0A4302837047F0B50C461546DA
:1059E00000210022068C4FF6FE773E400684018B94
:1059F000028C4FF60C7631407E1C06EA03162E43CD
:105A000031434FF6F576324044F0010632430183CC
:105A10000284F0BD70B505460C46208850B9238934
:105A2000A28861882846FFF7D8FFE1882846FFF75B
:105A3000CBFF25E0208804280AD12389A288618829
:105A40002846FFF794FFE1882846FFF783FF17E019
:105A5000208808280AD12389A28861882846FFF770
:105A600055FFE1882846FFF748FF09E02389A2880F
:105A700061882846FFF719FFE1882846FFF708FFED
:105A800070BD002101804180012181800021C18001
:105A9000018170472DE9F04105460C46002601279B
:105AA000608808B9022600E00026A088012801D1FC
:105AB000022700E001272088A0B92389A2886188F5
:105AC0002846FFF78AFFE1882846FFF77DFF2389F4
:105AD0003A4631462846FFF74AFFE1882846FFF755
