:020000040800F2
:10000000A0670020813B0008290600084F05000872
:100010002B0600082F060008330600080000000029
:10002000000000000000000000000000370600088B
:100030003906000800000000759500082525000815
:100040009B3B00089B3B00089B3B0008611300089A
:100050009B3B00089B3B00089B3B00089B3B000828
:100060009B3B00089B3B00089B3B00089B3B000818
:100070009B3B00089B3B00089B3B00089B3B000808
:100080009B3B00089B3B00089B3B00089B3B0008F8
:100090009B3B00089B3B00089B3B00089B3B0008E8
:1000A0009B3B00089B3B00089B3B00089B3B0008D8
:1000B0009B3B000865DA00089B3B00089B3B00085F
:1000C0009B3B00089B3B00089B3B00089B3B0008B8
:1000D0009B3B0008B72A0008350C0008510A0008AD
:1000E0009B3B0008351300089B3B00089B3B000826
:1000F0009B3B00089B3B00089B3B00089B3B000888
:100100009B3B00089B3B00089B3B00089B3B000877
:100110009B3B00089B3B00089B3B00089B3B000867
:100120009B3B00089B3B00089B3B00089B3B000857
:100130009B3B00089B3B00089B3B00089B3B000847
:100140009B3B00089B3B00089B3B00089B3B000837
:100150009B3B00089B3B00089B3B000849080008AC
:100160009B3B00089B3B00089B3B00089B3B000817
:100170009B3B00089B3B00089B3B00089B3B000807
:100180009B3B00089B3B000800F002F800F070F871
:100190000AA090E8000C82448344AAF10107DA45E2
:1001A00001D100F065F8AFF2090EBAE80F0013F0C4
:1001B000010F18BFFB1A43F0010318478C0401001C
:1001C000AC0401000A444FF0000C10F8013B13F09E
:1001D000070408BF10F8014B1D1108BF10F8015BA0
:1001E000641E05D010F8016B641E01F8016BF9D193
:1001F00013F0080F1EBF10F8014BAD1C0C1B09D1EA
:100200006D1E58BF01F801CBFAD505E014F8016B5B
:1002100001F8016B6D1EF9D59142D6D370470000ED
:100220000023002400250026103A28BF78C1FBD8FF
:10023000520728BF30C148BF0B60704764290DF0DA
:10024000CF8578290DF0088673290EF09480002060
:1002500070471FB50FF0AAFF0EF02AF90400002026
:1002600000210FF059F9401C60601FBD10B510BD92
:100270000EF034F91146FFF7ECFF00F039F90EF0FB
:1002800052F903B4FFF7F2FF03BC02F0B1FB000028
:1002900000241BE00A2002F09EF9BB480078A8B1B8
:1002A0000AF067FBB94890F83A00012805D101F03F
:1002B00049FE04460CB901F05DFEB44890F83A00DE
:1002C00008B901F057FE0020AF490870E2E70024AA
:1002D0004FE0142002F07FF9AD480078022848D1A1
:1002E000A9480078002844D1A84890F83A0001288D
:1002F00012D1A848007801280ED10020A549087025
:1003000002F0E9FAA4480078022802D1A3A00DF077
:10031000F5FC01209C4908709C4890F83A00A8B967
:10032000A2480068401CA14908609848008800EB7A
:10033000C00101EB00109D490968B1EB400F05D1E8
:1003400000209A49086001208F4908709848007879
:1003500001280ED1601CC4B2C82C0AD10024002090
:100360009449087001F0D2F903209149087002F015
:100370008FF8AEE702E00A2002F02DF9FBE702E079
:100380000A2002F028F9FBE700254BE00A2002F0E2
:1003900022F97F48007840B96D1CA5F59C402038B3
:1003A00003D101207A490870002579480078012896
:1003B00038D1764890F83A0050BB00BF01F094F96C
:1003C00001F078FA01F048FB704991F834000023FD
:1003D00001F11202891C01F088FC04461CB90120BD
:1003E0007449087014E000207249087040F6B83073
:1003F00002F0F1F868480078022802D16EA00DF0F2
:100400007DFC01F083F941F2707002F0E4F8D5E769
:100410005E4890F83A00012801D102F039F8022034
:100420005B490870B2E707E00A2002F0D4F85648AA
:10043000007808B10AF03BFBF6E70AE00A2002F078
:10044000CAF803F04AFB5B480078012801D100F0AC
:10045000E0FAF3E703E04FF47A7002F0BCF8FAE751
:1004600070B50446002500BF06F0CAFD09F05AF831
:1004700005460723554A0021AFF2270008F011F97D
:100480000623534A0021AFF24D0008F00AF9052374
:10049000504A0021AFF2710008F003F904234E4ADC
:1004A0000021AFF21B1008F0FCF803234B4A002197
:1004B000AFF2351008F0F5F80223494A0021AFF2F7
:1004C0004B1008F0EEF80823464A0021AFF2012055
:1004D00008F0E7F80923444A0021AFF24B2008F066
:1004E000E0F80A2008F061FB284609F01FF870BD0B
:1004F00010B54FF4A06003F063FBA82002F01AF8D7
:100500004FF4165002F081FA4FF4E13000F0B5F9E3
:1005100001F064F801F0EBFD02F001F902F0DBF804
:100520000DF064F93149086800F028FB00F038FE4E
:1005300002F097F906F025FC0A232D4A0021AFF2BC
:10054000DF0008F0AEF806F043FD002010BD10B546
:1005500028480468214628A00DF0D0FB2548001D3E
:100560000468214627A00DF0C9FB22480830046822
:10057000214627A00DF0C2FB1E4814300468214616
:1005800026A00DF0BBFB10BD4A00002075430020E3
:100590004900002023000020480000207379737474
:1005A000656D2077616B6575700D0A005400002041
:1005B0004B00002031000020495020436F6E6E63D5
:1005C0006574206167696E650D0A0000740800207B
:1005D000740C002074140020741C0020741E002071
:1005E000742000207428002074300020285F002030
:1005F0007404002028ED00E0434653523A25385851
:100600000D0A0000484653523A2538580D0A00009A
:10061000444653523A2538580D0A00004146535279
:100620003A2538580D0A0000704700BFFEE700BFAA
:10063000FEE700BFFEE77047704700000CB50020E2
:10064000019000907548006840F48030734908605C
:1006500000BF7248006800F4003000900198401C10
:100660000190009818B90198B0F5A04FF1D16B48EE
:10067000006810F4003F02D00120009001E000204B
:1006800000900098012845D164484030006840F04F
:1006900080506249403108606148006840F4404041
:1006A0005F4908605D48083000685C4908310860AF
:1006B0000846006840F4004008600846006840F4BE
:1006C000A05008605748091F0860081F006840F0E4
:1006D0008070091F086000BF5048006810F0007F5C
:1006E000FAD040F20560504908604C480830006874
:1006F00020F003004949083108600846006840F0CE
:100700000200086000BF45480830006800F00C0097
:100710000828F8D10CBD10B54448006840F47000BA
:10072000424908603D48006840F001003B490860CC
:1007300000203A4908310860384800683C490840C0
:10074000364908603B48091D0860081F006820F40E
:100750008020091F0860002030490C310860FFF735
:100760006DFF4FF0006031498039086010BD70B5F1
:1007700000200022022300240221284D08352D6884
:1007800005F00C0020B1042806D0082834D107E079
:10079000294D2A4E356033E0294D284E35602FE033
:1007A0001E4D2D1D2D68C5F380541C4D2D1D2D682B
:1007B00005F03F0154B1224DB5FBF1F5174E361D42
:1007C0003668C6F3881605FB06F209E01A4DB5FB3C
:1007D000F1F5124E361D3668C6F3881605FB06F293
:1007E0000E4D2D1D2D68C5F301456D1C6B00B2FB30
:1007F000F3F5124E356003E00F4D104E356000BF2B
:1008000000BF064D08352D68C5F303150D4E705D0C
:100810000A4D2D68C540094E356070BD0038024054
:100820000070004019544007003C024088ED00E091
:10083000FFFFF6FE103000240024F400000000202A
:1008400040787D010400002010B540F225517B481E
:1008500004F080F880B1794803F0BAFFC4B2784858
:100860000088642808DA7748754909884454744830
:100870000088401C7249088010BD10B588B004463D
:100880000121042003F032FD0121202003F088FD26
:10089000082206216C4803F016FB082207216A484B
:1008A00003F011FBC020069002208DF81C008DF88B
:1008B0001D0000208DF81E0001208DF81F0006A9E4
:1008C000614803F075FA02940020ADF80C00ADF811
:1008D0000E00ADF81000ADF814000C20ADF81200B9
:1008E00002A9564803F0BDFE0121544803F041FF20
:1008F0004021524804F025F8012240F225514F488A
:1009000003F0EDFF47208DF8040001208DF805006D
:1009100003208DF8060001208DF8070001A803F0E0
:1009200054F900204649088008B010BD70B505464E
:100930000E4600240CE000BF4021404803F0F4FFC5
:100940000028F9D0295D3D4803F03EFF601CC4B289
:10095000B442F0DB00BF4021384803F0E5FF002837
:10096000F9D000203649088070BD10B504460BE070
:100970002178324803F028FF00BF80212F4803F080
:10098000D3FF0028F9D0641C20780028F0D110BDD6
:100990002DE9F04107460D4629480678002400203D
:1009A00028700A2001F017FE2548008886420FD1E2
:1009B00076B100BF04E02348005D3855601CC4B226
:1009C000B442F8DB1E480078287000201C490880DB
:1009D000BDE8F0812DE9F04107460D46184806783C
:1009E0000024002028700A2001F0F5FD144800883A
:1009F00086420CD15EB100BF04E01248005D38555C
:100A0000601CC4B2B442F8DB0D4800782870BDE821
:100A1000F08108B500200090642200210B4801F00D
:100A200005FE69460948FFF7B3FF9DF8000020B1B5
:100A30009DF80010054801F070FA08BD001401404F
:100A4000140000207830002000080240DC30002034
:100A500010B540F22551714803F07CFF80B16F481A
:100A600003F0B6FEC4B26E480088642808DA6D4808
:100A70006B49098844546A480088401C68490880CA
:100A800010BD1CB50121022003F030FC4FF40040E2
:100A9000009001208DF8040000208DF8060003204E
:100AA0008DF8050001208DF8070069465E4803F0C7
:100AB0007FF94FF400415C4803F0F8F91CBD10B514
:100AC00088B00446554803F065FD0121082003F075
:100AD0000DFC0121880403F052FC4FF44070059096
:100AE00002208DF818008DF8190000208DF81A00EA
:100AF00001208DF81B0005A94C4803F059F9072285
:100B000008214A4803F0DFF907220921474803F08A
:100B1000DAF901940020ADF80800ADF80A00ADF84C
:100B20000C00ADF810000C20ADF80E0001A93B48F8
:100B300003F097FD012240F22551384803F0CFFE23
:100B40000121364803F015FE4021344803F0F9FE38
:100B500027208DF81C0002208DF81D0003208DF841
:100B60001E0001208DF81F0007A803F02EF80020BA
:100B70002B4908802E49086008B010BD10B5044606
:100B8000FFF77FFF2046FFF79AFF10BD70B50546BF
:100B90000E460120264908604FF000040CE000BF1B
:100BA00040211E4803F0C0FE0028F9D0295D1B48F3
:100BB00003F00AFE601CC4B2B442F0DB00BF402167
:100BC000164803F0B1FE0028F9D00020144908802F
:100BD0001749086070BD2DE9F04107460D461048E1
:100BE00006880024002028700A2001F0F4FC0C483C
:100BF000008886420FD176B100BF04E00948005D4D
:100C00003855601C84B2B442F8DB0548008828706F
:100C1000002003490880BDE8F08100000048004042
:100C2000160000204031002000040240000C024069
:100C3000BC82404210B540F22551764803F08AFE4E
:100C400080B1744803F0C4FDC4B2734800786428CE
:100C500008DA72487049097844546F480078401C9B
:100C60006D49087010BD10B588B0044601210820F8
:100C700003F03CFB0121480403F081FB072205211E
:100C8000674803F020F907220621654803F01BF9A5
:100C90006020069002208DF81C0003208DF81D00B6
:100CA00000208DF81E0001208DF81F0006A95C4869
:100CB00003F07EF802940020ADF80C00ADF80E00B1
:100CC000ADF81000ADF814000C20ADF8120002A928
:100CD000504803F0C6FC01214E4803F04AFD402174
:100CE0004C4803F02EFE012240F22551494803F002
:100CF000F6FD26208DF8040003208DF805008DF800
:100D0000060001208DF8070001A802F05EFF08B080
:100D100010BD70B505460E4600240CE000BF402112
:100D20003C4803F001FE0028F9D0295D394803F062
:100D30004BFD601CC4B2B442F0DB00BF402135481B
:100D400003F0F2FD0028F9D000203349087070BD8F
:100D500010B504460BE021782E4803F035FD00BFA6
:100D600080212C4803F0E0FD0028F9D0641C207895
:100D70000028F0D110BD2DE9F04107460D46264868
:100D800006780024002028700A2001F024FC224864
:100D9000007886420FD176B100BF04E01F48005DA5
:100DA0003855601CC4B2B442F8DB1B480078287088
:100DB000002019490870BDE8F0812DE9F04107468F
:100DC0000D46154806780024002028700A2001F0FE
:100DD00002FC1148007886420CD15EB100BF04E0ED
:100DE0000E48005D3855601CC4B2B442F8DB0A48B6
:100DF00000782870BDE8F08108B5002000906422DA
:100E00000021084801F012FC69460648FFF7B3FFCD
:100E100008BD00000044004022000020A431002052
:100E2000000C024008320020A548A6490860A648E8
:100E300008607047A3480C30006840F00040A149AA
:100E40000C310860704700219E480830016811F499
:100E5000803F01D00120704711F0100F01D0022017
:100E6000F9E711F0200F01D00220F4E711F0400F54
:100E700001D00220EFE711F0800F01D00220EAE755
:100E80000020E8E770B5044600BFFFF7DCFF054629
:100E9000012D00D005E00A2001F072FB641E002C39
:100EA000F3D100BF04B9FF25284670BD70B50546D3
:100EB00000248648FFF7E6FF044674BB81480C30E7
:100EC000006820F440707F490C31086008460068D3
:100ED00040F4007008600846006820F0F8000860E0
:100EE0000846006840EAC50008600846006840F00F
:100EF000020008600846006840F4803008607348CB
:100F0000FFF7C0FF0446012C07D06E480C30006884
:100F100020F002006B490C310860204670BD70B5AE
:100F200005460E46FF20FFF7ADFF044604BB6548AB
:100F30000C30006820F4407062490C3108600846AB
:100F4000006840F4007008600846006840F0010046
:100F500008602E60FF20FFF795FF0446012C07D0A4
:100F600058480C30006820F0010056490C310860E8
:100F7000204670BD014608687047014654488142CA
:100F800001D2002070475348814201D20120F9E785
:100F90005148814201D20220F4E75048814201D2F7
:100FA0000320EFE74E48814201D20420EAE74D4892
:100FB000814201D20520E5E74B48814201D206205B
:100FC000E0E74A48814201D20720DBE748488142F6
:100FD00001D20820D6E74748814201D20920D1E753
:100FE0004548814201D20A20CCE70B20CAE72DE90F
:100FF000F04704460E4617464FF000080025A94664
:10100000B4F1006F02D314F0030F01D0BDE8F087F4
:10101000FFF70AFF2B48001F006820F48060294971
:10102000091F0860254604EB87093448854214D21D
:1010300010E02846FFF79EFF401C0AD02846FFF725
:101040009CFF8246FFF732FF8046B8F1000F01D0C7
:1010500002E02D1D4D45ECD300BFB8F1000F0BD1C0
:1010600007E020463168FFF75AFF00B103E0241D76
:10107000361D4C45F5D300BF1248001F006840F4F0
:1010800080601049091F0860FFF7D4FE00BFBDE76C
:1010900030B503460C461546002206E01846FFF719
:1010A00069FF44F822001B1D521CAA42F6D330BD32
:1010B00013B50446012201A92046FFF798FF1CBD85
:1010C00023016745043C0240AB89EFCD400D03008E
:1010D000004000080080000800C00008000001086F
:1010E00000000208000004080000060800000808CC
:1010F00000000A0800000C0800000E080000FF1F96
:10110000F8B504460D4617461E468DF800408DF88A
:1011100001508DF802708DF803606946002004F0DC
:1011200017FCF8BDF8B504460D4617461E468DF867
:1011300002708DF801508DF800608DF8034069460B
:10114000002004F0A3FCF8BDF8B507460C46154690
:101150001E466946002004F065FC9DF800003870CA
:101160009DF8010020709DF8020028709DF8030092
:101170003070F8BDF8B507460C4615461E46694660
:10118000002004F0E9FC9DF8030038709DF8010090
:1011900020709DF8020028709DF800003070F8BDA6
:1011A0003EB541F6FF740121080703F0E8F801207D
:1011B00005F0B3F9002005F027F8A0F5A04150395B
:1011C00031D0012002F02FFF04E0601C84B20A201D
:1011D00001F001FA412002F0DFFE0028F5D00CB941
:1011E00001203EBD4FF4807003F01EF8012003F093
:1011F00036F87F200190FF20029000200090684682
:1012000004F00BFB002338223B211720FFF778FF67
:101210000623052211460E20FFF784FF45F25001F8
:10122000002004F0E4FF0020DBE7F0B587B00446BF
:101230000D4616461F4600214FF4807004F066FDEF
:101240008DF800508DF801608DF8027000208DF847
:1012500003008DF810404FF0804003900020029072
:101260000098019001AA4FF48071002004F097FCCF
:101270004FF4805005F0AAF84FF4003005F039F92A
:101280000121080305F036F80121080204F03EFDB3
:101290004FF40030059000208DF8180008208DF8DC
:1012A000190001208DF81A0005A805F0B1F82920D1
:1012B000B84908700220487088700120C87008463C
:1012C00002F083FC07B0F0BD7CB505460C4600205B
:1012D00004F0A1FD284604F079FD204604F08BFDC2
:1012E0004FF4804005F072F84FF4800005F001F9EA
:1012F0000121880304F0FEFF012004F08CFD4FF46F
:101300008000009000208DF8040008208DF8050072
:1013100001208DF80600684605F07AF803209D4903
:1013200008700220487088700120C870084602F0DA
:101330004CFC7CBD10B505F03CFD4FF4807005F011
:1013400008F8012805D1000205F013F892A00CF06E
:10135000D5FC4FF4003005F0CCF805F045FD10BD8C
:1013600010B505F026FD4FF4806004F0F2FF01286F
:1013700002D1800204F0FDFF4FF4800005F0B9F8BF
:10138000FFF7C9F9A82001F0D5F84FF4165001F085
:101390003CFBFFF705FF002004F03DFD01208149E3
:1013A000087005F021FD10BDF0B503460C4615464A
:1013B000642093FBF0F0C6B2642093FBF0F700FBCF
:1013C0001730C1B2132E02DD01F16400C1B208462C
:1013D000CF1701EB977701EBA707BAB2072092FB73
:1013E000F0F700FB172082B25719601EDFF8B8C172
:1013F0001CF80000384482B2CF1701EB9777BF107A
:10140000B1EB870703D1032C01DA501E82B207200B
:1014100092FBF0F700FB172082B202B90722D0B28C
:10142000F0BD2DE9F04704460E4617461D46DDE99E
:10143000088900234A4641462846FFF761FE3A469E
:1014400031462046FFF7B0FF8246A4F5FA61C8B2E4
:1014500053463A463146FFF765FEBDE8F08738B59A
:1014600004466B46A21C611C2046FFF76DFE38BD8A
:1014700038B5044604F10803E21DA11D6846FFF7D4
:1014800079FE9DF8000000F5FA604849888038BD73
:10149000F0B587B0064600200390049005900690B2
:1014A000002507E005F10A00305C303803A94855F3
:1014B000681CC5B20E2DF5DB9DF80C004FF47A7157
:1014C00010FB01F09DF80D1001EBC10202EB0111C0
:1014D00000EB81009DF80E1001EB810100EB410053
:1014E0009DF80F10441831498C809DF811009DF82B
:1014F000101001EB810100EB41042C498C719DF827
:1015000013009DF8121001EB810100EB4104274903
:10151000CC719DF815009DF8141001EB810100EBD2
:10152000410422490C709DF817009DF8161001EB3C
:10153000810100EB41041D494C709DF819009DF894
:10154000181001EB810100EB410418498C7008462A
:1015500080784978154FCDE900103B78FA79B97950
:10156000B888FFF75EFF1248007802280FD138468E
:101570008078394649783A461278CDE900210290C0
:101580003846C379827981880AA00CF0B7FB07B08E
:10159000F0BD000024000020414C41524D2041216B
:1015A0000D0A000023000020A60201086C32002072
:1015B000480000202B74696D653D253034642D256D
:1015C0003032642D2530326420253032643A2530A3
:1015D00032643A253032640D0A0000001CB5012146
:1015E0001E2002F083FE4120009001208DF80400AF
:1015F00000208DF8060003208DF8050001208DF8ED
:1016000007006946344802F0D3FB4121324802F01A
:101610004BFC4021304802F049FC4FF40050009050
:1016200001208DF8040000208DF8060003208DF8BD
:10163000050001208DF807006946284802F0B8FB34
:101640004FF40051254802F031FC4FF4F040009077
:1016500001208DF8040000208DF8060003208DF88D
:10166000050001208DF8070069461D4802F0A0FB27
:101670004FF4F0411A4802F019FC4FF4006000905A
:1016800001208DF8040000208DF8060003208DF85D
:10169000050001208DF807006946124802F088FB1A
:1016A0004FF400610F4802F0FFFB1CBD70B505460A
:1016B0000C4645F2555004F0DDFF284604F0DDFFEE
:1016C000204604F0DDFF04F0DEFF04F0E1FF70BD12
:1016D00010B504F0D8FF10BD00040240000802401D
:1016E000000C02400010024010B54FF40051FE48BB
:1016F00002F0DAFB40F2DC5000F06DFFFB480078AE
:10170000022802D1FAA00CF0F9FA10BD10B500249D
:101710004FF40051F44802F0C9FBF4480078022865
:1017200002D1F7A00CF0EAFA002404E0642000F0F3
:1017300052FF601CC4B2282CF8DB10BD70B5044603
:101740000D460026294620460CF08AFC0646304607
:1017500070BD10B50446E5480078022803D1EC4975
:10176000ECA00CF0CBFA24B164220021E84800F090
:101770005DFF10BD2DE9F0419AB005460E461446B6
:101780000027642168460CF027FDB8460020E34995
:1017900008802A46DFA168460CF0BCFA07F0C2FEBA
:1017A00080466846FFF7E1F8404607F0BFFEBEB14D
:1017B000B4B10EE019A9D648FFF7EAF83146D4488B
:1017C000FFF7BCFF00B108E064220021D04800F020
:1017D0002DFF601E80B20400ECD100BF04B90127C8
:1017E00038461AB0BDE8F0812DE9F0419AB00546BF
:1017F0000E460024642168460CF0EEFC3746A046F5
:101800000020C64908802A46C2A168460CF082FA28
:1018100007F088FE80466846FFF7A7F8404607F0C5
:1018200085FE3EE0781E87B219A9B948FFF7B0F8E7
:10183000BBA1B7480CF014FC0446002C31D0B9A170
:10184000B3480CF00DFC0446002C2AD0A7480078C1
:10185000022803D1AE49AFA00CF050FAB3A1AC48B6
:101860000CF0FEFB044644B164220021A84800F0BD
:10187000DDFE20461AB0BDE8F081AFA1A4480CF00F
:10188000EFFB044634B164220021A14800F0CEFEF3
:101890002046EFE7642200219D4800F0C7FE0020AB
:1018A000E8E7002FBED164220021994800F0BEFE77
:1018B0002046DFE710B542F2107000F08CFE0A24DB
:1018C0008A480078022802D19DA00CF017FA17E090
:1018D000601EC4B24FF4967000F07DFE834800781D
:1018E000022802D196A00CF009FA4CB90A24FFF79D
:1018F0000DFF4FF4FA7000F06EFE00F0A1FE07E05D
:101900004FF4967286A190A0FFF734FF0028DFD134
:1019100000BF0120FFF71DFF74480078022802D1A4
:101920008AA00CF0EBF94FF47A727DA189A0FFF741
:1019300021FF4FF4FA7000F04EFE0120FFF709FF7F
:101940006A480078022802D184A00CF0D7F94FF43D
:10195000967273A186A0FFF70DFF4FF4FA7000F0A6
:101960003AFE0120FFF7F5FE60480078022802D118
:1019700083A00CF0C3F941F2883284A185A0FFF75F
:10198000F9FE4FF4FA7000F026FE0120FFF7E1FEA9
:1019900056480078022802D181A00CF0AFF94FF42C
:1019A0007A7282A183A0FFF7E5FE4FF4FA7000F08F
:1019B00012FE0120FFF7CDFE4C480078022802D12C
:1019C0007FA00CF09BF94FF47A7280A181A0FFF701
:1019D000D1FE4FF4FA7000F0FEFD0120FFF7B9FED2
:1019E00042480078022802D17CA00CF087F94FF41D
:1019F00096724BA17CA0FFF7BDFE4FF4FA7000F089
:101A0000EAFD0120FFF7A5FE38480078022802D140
:101A100078A00CF073F9C82241A17AA0FFF7AAFEC2
:101A20004FF4FA7000F0D7FD0120FFF792FE2F4827
:101A30000078022802D177A00CF060F940F2DC5265
:101A400037A178A0FFF796FE4FF4FA7000F0C3FDBF
:101A50000120FFF77EFE10BD00B589B02421684645
:101A60000CF0BAFB724A73A168460CF053F94FF4BC
:101A70007A7000F0B0FD1D480078022802D172A0F3
:101A80000CF03CF94FF4967225A173A0FFF772FE9B
:101A90004FF4FA7000F09FFD0120FFF75AFE134843
:101AA0000078022803D169466FA00CF027F94FF4A3
:101AB000FA721BA16846FFF75DFE4FF4FA7000F062
:101AC0008AFD0120FFF745FE08480078022802D170
:101AD00066A00CF013F94FF47A7211A167A0FFF71A
:101AE00049FE4FF4FA70CFE00008024048000020A1
:101AF0004D3335506F7765724F4E0D0A0000000070
:101B00004D3335506F7765724F66660D0A000000E1
:101B1000DC30002025730D0A0000000014000020B6
:101B20004F4B0000434F4E4E45435400434F4E4EE3
:101B3000454354204F4B0000414C5245414459000D
:101B400041540D0A0000000041540000415445304A
:101B50000D0A0000415445300000000041542B495B
:101B600050523D31313532303026570D0A000000D9
:101B700041542B4950523D313135323030265700D7
:101B800041542B4350494E3F0D0A00002B4350490E
:101B90004E00000041542B4350494E3F00000000CE
:101BA00041542B435245473F0D0A00002B435245F9
:101BB0004700000041542B435245473F00000000BE
:101BC00041542B4353510D0A000000002B43535145
:101BD0000000000041542B435351000041542B435B
:101BE0004D47463D310D0A0041542B434D47463D7C
:101BF0003100000041542B435343533D2247534D82
:101C0000220D0A0041542B435343533D2247534D69
:101C10002200000041542B434E4D493D322C320DE1
:101C20000A00000041542B434E4D493D322C3200F6
:101C30008D43002041542B5149435347503D312C93
:101C4000222573220D0A000041542B514946474377
:101C50004E543D300D0A000041542B514946474334
:101C60004E543D30000000002573000041542B51BC
:101C7000494D55583D310D0A0000000041542B518B
:101C8000494D55583D31000000F0A5FC0120FFF7FB
:101C900060FDD5480078022802D1D4A00CF02EF8BF
:101CA0004FF47A72AFF28811D4A0FFF763FD4FF4BE
:101CB000FA7000F090FC0120FFF74BFDCA48007855
:101CC000022802D1D0A00CF019F84FF49672AFF2AE
:101CD000B011D0A0FFF74EFD4FF4FA7000F07BFC7E
:101CE0000120FFF736FD09B000BD2DE9F0479EB099
:101CF00005460E461746984603244FF4167A64218B
:101D000005A80CF069FA0020029003900490814627
:101D100000BFC348CDE9006750F825304246C1A155
:101D200005A80BF0F7FFB0480078022804D105A9F8
:101D3000AFF220200BF0E2FF4FF47A7105A8FFF715
:101D400053FD8146B9F1000F07D04FF4967000F0B3
:101D500042FC00201EB0BDE8F087601EC4B20CB982
:101D60000120F7E720E040F6B83000F034FC4246AE
:101D7000B3A102A80BF0CEFF9B480078022804D143
:101D800002A9AFF270200BF0B9FF41F28832AFF236
:101D9000702102A8FFF7EEFC4FF4FA7000F01BFC74
:101DA0000120FFF7D6FCB4E7002CDCD1642000F062
:101DB00012FC0120CEE7F0B599B005460E46144658
:101DC0000027642168460CF007FA2A46AFF2BC21CE
:101DD00068460BF09FFF6846FEF7C7FD96B18CB1D1
:101DE00009E00A2300221146104606F0D7FF984862
:101DF000007800B103E0601E80B20400F1D100BFA2
:101E000004B90127002092490870384619B0F0BD86
:101E10002DE9F04106468FA130460CF021F9074626
:101E200057B171480078022803D131468AA00BF0DF
:101E300065FF01208649087089A130460CF010F931
:101E4000044684B168480078022803D1314682A054
:101E50000BF054FF84A130460CF002F9054615B191
:101E6000012083490870BDE8F081F0B585B00646D1
:101E70000D461746684608B905B0F0BD142200218A
:101E8000684600F0D3FB2B463A467AA168460BF031
:101E900041FF55480078022807D170A00BF02EFFB3
:101EA0006946AFF290300BF029FF4FF4487269A1F8
:101EB0006846FFF780FFA0B94B48007802280CD194
:101EC00066A00BF01BFF002405E0315D6DA00BF058
:101ED00015FF601CC4B2AC42F7DB29463046FEF762
:101EE00025FD0A2000F077FB00BFC5E770B504466A
:101EF000002506E00A2000F06EFB5D48007800B186
:101F000003E0601E80B20400F4D100BF00205849F5
:101F1000087004B90125284670BDF0B599B0044693
:101F20000F460025642168460CF056F9002657A19B
:101F300020460CF095F8054615B92046FFF768FFD6
:101F400019B0F0BD10B50124FFF7CEFBFFF7B2FCCE
:101F5000FFF782FD504991F83400002301F112028D
:101F6000891CFFF7C2FE044614B901204B490870D2
:101F7000204610BDF8B54A480078052190FBF1F0E5
:101F8000C5B24748007890FBF1F201FB1200C6B2DF
:101F90009EB901240DE0052322462946684607F034
:101FA00080FC00229DF800103E48FFF75EFF601C99
:101FB000C4B2681C8442EEDB12E001240DE033461B
:101FC0002246691C684607F06CFC00229DF8001050
:101FD0003448FFF74AFF601CC4B2A81C8442EEDB01
:101FE000012031490870F8BD4800002041542B51B0
:101FF000494D4F44453D300D0A00000041542B51DE
:10200000494D4F44453D300041542B5149535441B3
:10201000540D0A0041542B514953544154000000BF
:102020002800002041542B51494F50454E3D256416
:102030002C222573222C222573222C2573000000CC
:1020400041542B5149434C4F53453D2564000000FA
:10205000320000203E0000000D0A25730D0A00002A
:1020600053454E440000000053454E44204F4B0062
:102070003300002041542B514953454E443D2564C3
:102080002C25640025303258000000002B524543B7
:1020900045495645000000007543002031000020EE
:1020A00020550020C05300204B00002010B5002414
:1020B0000020D44908604FF090000BF018FC00207D
:1020C0000BF015FC00200BF012FC00200BF00FFCB5
:1020D000FF200BF00CFC44EA0024FF200BF007FC6F
:1020E00004430120C849C1F8A802204610BD1CB510
:1020F00001210A2002F0FAF84FF4806000900120DC
:102100008DF8040000208DF8060003208DF80500EE
:1021100001208DF807006946BC4801F049FE012006
:10212000B84908600BF0FCFB00200BF056FCFFF7F1
:10213000BDFFB74908801CBD10B500240020B1497F
:1021400008604FF005000BF0D2FBFF200BF0CFFB37
:1021500004460120AC49C1F8A802204610BD10B5C4
:1021600004460020A74908604FF001000BF0BFFBB8
:1021700020460BF0BCFB0120A349C1F8A80210BD0A
:1021800010B500209F4908604FF006000BF0AFFB30
:1021900001209D49C1F8A80210BD10B50020994941
:1021A00008604FF004000BF0A2FB01209649C1F833
:1021B000A80210BD2DE9F04106460C461746002046
:1021C000904908604FF003000BF091FBC4F3074007
:1021D0000BF08DFBC4F307200BF089FBE0B20BF092
:1021E00086FB002505E0FF200BF081FB7055681C85
:1021F00085B2BD42F7DB012082490860BDE8F0816D
:1022000010B500BFFFF798FF10F0010FFAD110BD15
:102210002DE9F04106460C461746FFF7B1FF0020B6
:10222000784908604FF002000BF061FBC4F30740EF
:102230000BF05DFBC4F307200BF059FBE0B20BF091
:1022400056FB002504E0705D0BF051FB681C85B265
:10225000BD42F8DB01206B490860FFF7D1FFBDE804
:10226000F0812DE9F04107460E461446F0B2C0F564
:102270008075AC4200DC254612E02A4631463846DD
:10228000FFF7C6FFAC4200D10BE02F442E44601B89
:1022900084B2B4F5807F02DD4FF4807500E02546FE
:1022A000EBE700BFBDE8F08110B504462403FFF75B
:1022B00067FFFFF7A5FF0020524908604FF020009C
:1022C0000BF015FBC4F307400BF011FBC4F3072020
:1022D0000BF00DFBE0B20BF00AFB01204A49C1F8FC
:1022E000A802FFF78DFF10BD2DE9F05F81460F4674
:1022F0001646DFF820B14FEA1738C7F30B0ACAF5C4
:102300008054A64200DC344644E04FEA08314FF4E2
:1023100080525846FFF74EFF002508E00AEB050003
:102320001BF80000FF2800D003E0681C85B2A5421E
:10233000F4DB00BFA54216DA4046FFF7B5FF0025E3
:1023400007E019F8050005EB0A010BF80100681C0D
:1023500085B2A542F5DB4FEA08314FF4805258466A
:10236000FFF77FFF04E0224639464846FFF779FF32
:10237000A64200D10FE008F101084FF0000AA14485
:102380002744301B86B2B6F5805F02DD4FF48054DF
:1023900000E03446B9E700BFBDE8F09F10B5FFF795
:1023A000EFFEFFF72DFF0020164908604FF0C70031
:1023B0000BF09DFA01201449C1F8A802FFF720FF95
:1023C00010BD10B500200F4908604FF0B9000BF0A8
:1023D0008EFA01200C49C1F8A802032000F0D0F8C1
:1023E00010BD10B50020074908604FF0AB000BF09E
:1023F0007EFA01200449C1F8A802032000F0C0F8C9
:1024000010BD0000A882414200804142000C024001
:1024100038000020763200201CB50121FF2001F099
:1024200065FF03208DF804008DF8050000208DF86D
:1024300007004FF6FF70009069462A4801F0B8FC8B
:102440006946294801F0B4FC6946284801F0B0FC0F
:102450006946274801F0ACFC6946264801F0A8FC13
:102460006946254801F0A4FC6946244801F0A0FC17
:102470006946234801F09CFC0021FF2001F036FF53
:10248000012004F086F80121084604F08EF81CBDF6
:1024900010B500241B48048821460420FEF714FFD1
:1024A0000121164801F000FD4FF480410E4801F073
:1024B000FDFC4FF400510C4801F0F8FC4FF4805142
:1024C000094801F0F3FC4FF40061074801F0EEFC0D
:1024D0000D480078022802D10CA00BF00FFCFFF78A
:1024E0009BFF10BD00080240000C0240001002409B
:1024F000001C024000180240001402400004024088
:102500000000024075430020480000200D0A537966
:102510007374656D2048696265726E617465730DD0
:102520000A00000010B504F044FC04F088FD04F03B
:102530005BFC10BD70B504466FF0040001F093FB26
:10254000E11704EB5171C1F3C701344A1170E1176F
:1025500004EB5171CD1041F28830454305203049DC
:1025600008804FF0E020006940F002004FF0E021C9
:10257000086108464561006940F00100086170BDCE
:102580002DE9F047074600264FF0E020D0F81490E0
:102590002248007807FB00F800BF04F05DFC4FF014
:1025A000E020856911E04FF0E0208469AC420CD056
:1025B000AC4202D2281B064403E0A9EB04002844E5
:1025C00006442546464500D300E0ECE700BF04F092
:1025D00088FCBDE8F08770B50446124800780128F1
:1025E00014D11148007888B90D480088844206DB70
:1025F0000B48008894FBF0F5284606F09DFB084840
:10260000008894FBF0F100FB114084B24FF47A7122
:1026100004FB01F0FFF7B4FF70BD00003A0000209A
:102620003C000020920000208600002030B50346C8
:1026300001E003F8011B1400A2F10102F9D130BD41
:10264000AC48AD490860704710B5044641222146A8
:10265000AA48FEF71DFD10BD70B50446002506F022
:1026600061FF054641222146A448FEF7C0FC2846EA
:1026700006F05CFF70BD10B5044640F6621264219E
:102680002046FFF797FD10BD70B50446002506F003
:1026900049FF054640F6621264212046FFF724FEFA
:1026A000284606F043FF70BD10B504461122944938
:1026B0002046FFF77FFD10BD70B50446002506F0EB
:1026C00031FF054611228E492046FFF70DFE2846B0
:1026D00006F02CFF70BD10B58A48FFF7E5FF89486A
:1026E000007C0A281AD04FF4165086490860002052
:1026F0000871087348734872072048810C20A1F8BC
:10270000070040F2B110A1F805000120C8731420A1
:1027100088730A2008740846FFF7CEFF10BD0EB577
:1027200079A00BF0EBFA8048FFF78EFF7E4890F817
:1027300040000A2834D064207B4908807BA17A4875
:10274000801C0BF0E7FA7DA1774812300BF0E2FA1B
:102750007CA1754824300BF0DDFA7DA17248183059
:102760000BF0D8FA0120704981F834000A20C1F832
:102770003500002081F8390081F83A0081F83B00EB
:102780000021694880F83C1080F83D100A20664915
:1027900081F840000846FFF75FFF07F0A2FE40E027
:1027A0006D48FEF75CFE0A20FFF715FF6A48FEF74A
:1027B0005FFE6948807868494978674A1278CDE9B0
:1027C000002102906448C3798279818863A00BF06C
:1027D00095FA554924316BA00BF090FA524A123207
:1027E000A2F110016AA00BF089FA4F4918316BA0D1
:1027F0000BF084FA4C4890F834006B4A52F82010E1
:102800006AA00BF07BFA484801886DA00BF076FABD
:10281000454890F839106DA00BF070FA6F48FFF73B
:102820002AFF414890F83B006D4908733E4890F8F4
:102830003C106B4841733C4890F83D1068488173E8
:102840000020684908700EBD10B50A20654908705F
:10285000FEF75CFF4FF4FA70FFF7BDFEFFF7F0FEE6
:1028600010BD10B508F0DCF95F4908600968086818
:10287000804707F052FE10BD70B505460E462A4847
:1028800090F83900E8B9584800683146026928468E
:1028900090470120554908700EE05349096848697E
:1028A0008047C4B2042C04D14F4909688868804726
:1028B00003E00A20FFF78FFEEFE700BF00204B493F
:1028C0000870194890F83900012803D1314628468C
:1028D000FEF75CF970BD10B54FF4E130FDF7CDFFA8
:1028E000FEF77CFEFFF703FC0AF080FF0BF020F9F7
:1028F00010BD00000400FA050CED00E000800708A0
:102900008BFFFF07285F00202B574C572D53544D4A
:10291000333246342056657273696F6E20312E3023
:102920002D300D0A00000000754300203139322E91
:102930003136382E312E31303000000038383838FA
:1029400000000000303030303030303030000000D7
:10295000636D6E65740000006C3200202B74696D2D
:10296000653D253034642D253032642D25303264A8
:1029700020253032643A253032643A253032640DF5
:102980000A0000002B534E2025730D0A00000000A2
:102990002B69702025732025730D0A002B61706E42
:1029A0002025730D0A000000280000202B7463709E
:1029B0002D756470206D6F64653A25730D0A0000F3
:1029C0002B68616E642025640D0A00002B6461741D
:1029D000616D6F64652025640D0A0000205500209C
:1029E000845E002049000020440000204C000020AC
:1029F000014600BF704700BFFE4A128812F0400F28
:102A0000FAD0C2B2FB4B9A80704710B588B004462A
:102A10000121084601F06AFC0121102001F0C0FCF0
:102A200007220921F44801F04EFA07220A21F24850
:102A300001F049FA4FF4C060069002208DF81C00A6
:102A40008DF81D0000208DF81E0001208DF81F005C
:102A500006A9E94801F0ACF902940020ADF80C0099
:102A6000ADF80E00ADF81000ADF814000C20ADF874
:102A7000120002A9DF4801F0F4FD0121DD4801F058
:102A800078FE4021DB4801F05CFF012240F2255135
:102A9000D84801F024FF25208DF8040003208DF88C
:102AA00005008DF8060001208DF8070001A801F04F
:102AB0008CF808B010BD10B504F07BF940F2255138
:102AC000CC4801F047FF10B3CA4801F081FEC4B200
:102AD000CA48008810F4004F2BD1C848008810F471
:102AE000804F0CD00A2C03D00020C449088020E07D
:102AF000C248008840F40040C049088019E00D2C0D
:102B000006D1BE48008840F48040BC49088010E0EF
:102B1000BA480088C0F30D00B9490C54B748008882
:102B2000401CB649088008460088C72801DD0020FF
:102B3000088004F059F910BD70B505460C46042212
:102B400000212846FFF772FD00E0641C2078202851
:102B5000FBD1641C214628460BF094FA70BD014657
:102B60000120704770B505460C460020286000E043
:102B7000641C20783D28FBD1641C214628460BF0BC
:102B800081FA70BD0146012070470146012070475F
:102B90000146032901D3002070470120FCE70146CC
:102BA000B1F5FA7F01D300207047B1F5C87F01D29B
:102BB0000020F9E70120F7E70146032901D30020AF
:102BC00070470120FCE70146B1F5966F14D0B1F5CE
:102BD000166F11D0B1F5965F0ED0B1F5165F0BD020
:102BE000B1F5964F08D0B1F5164F05D0B1F5614F4C
:102BF00002D0B1F5E13F01D1012070470020FCE790
:102C00002DE9F04782460E4690461C46B146554691
:102C100030460BF05BFA0746B84501DDA7EB040828
:102C2000002C00DA0024BC4202DD0020BDE8F08761
:102C3000A14403E019F8010B05F8010B5FEA080055
:102C4000A8F10108F6D105F8010B5046EEE72DE991
:102C5000F84304460E4617469846002000906D46FD
:102C600003E0207828706D1C641C20782D28F8D192
:102C7000641C0A22002168460BF0BAF93080032256
:102C800000216846FFF7D2FC6D4603E020782870EB
:102C90006D1C641C20782D28F8D1641C0A220021A8
:102CA00068460BF0A5F938700A22002120460BF087
:102CB0009FF988F80000BDE8F8832DE9F04F87B050
:102CC00005460E4617469846DDE910AB129C0020DB
:102CD0000490059006900190029003900DF1040974
:102CE000009000E0641C20782028FBD1641C05E0E3
:102CF000207889F80000641C09F101092078202857
:102D0000F6D1641C3B463246294601A8FFF79FFFD7
:102D1000214604A80BF0B6F90023022204A9684654
:102D2000FFF76EFF0A22002168460BF061F988F870
:102D300000000323022204A96846FFF761FF0A226C
:102D4000002168460BF054F98AF80000062302229D
:102D500004A96846FFF754FF0A22002168460BF0D9
:102D600047F98BF8000007B0BDE8F08F2DE9F04F70
:102D70008BB08246142103A80BF02EFA4FF0000905
:102D8000C84620A150460BF06BF905462DB1022034
:102D90001F4908701FA00AF0B1FF22A150460BF096
:102DA0005FF905462DB104201949087020A00AF0EA
:102DB000A5FF24A150460BF053F905462DB105207F
:102DC0001349087022A00AF099FF26A150460BF083
:102DD00047F905462DB100200D49087024A00AF0DE
:102DE0008DFF26A150460BF03BF9054605B149E0A1
:102DF00059E0000000100140000002405000002097
:102E0000B643002024246465627567203200000008
:102E10004800002044454255475F47534D5F4F4EA1
:102E20000D0A0000242464656275672034000000E8
:102E300044454255475F52533438355F4F4E0D0A73
:102E400000000000242464656275672035000000DE
:102E500044454255475F50726F746F636F6C5F4FAC
:102E60004E0D0A002424646562756720300000005E
:102E700044454255475F4F46460D0A00247365742A
:102E80006970000010220021FE48FFF7CFFB2946A1
:102E9000FC48FFF751FEFB48801EFFF7DDFBF949B8
:102EA000F9A00AF02BFFFBA150460BF0D9F805461C
:102EB0009DB106220021F3481030FFF7B7FB2946E9
:102EC000F0481030FFF738FEEE48801EFFF7C4FBD5
:102ED000EC491031F1A00AF011FFF3A150460BF0BC
:102EE000BFF805469DB10C220021E6481630FFF7D9
:102EF0009DFB2946E3481630FFF71EFEE148801E81
:102F0000FFF7AAFBDF491631E9A00AF0F7FEEBA1B3
:102F100050460BF0A5F80546FDB10A22002108A88D
:102F2000FFF784FB294608A8FFF706FE0A220021C6
:102F300008A80BF05DF8D349891E08800846FFF702
:102F40008BFB0120DF4948730020DF490860CD4832
:102F5000801E0188DDA00AF0D1FEDFA150460BF0F3
:102F60007FF805469DB110220021C6482230FFF7A8
:102F70005DFB2946C3482230FFF7DEFDC148801EB5
:102F8000FFF76AFBBF492231D5A00AF0B7FED7A1EF
:102F900050460BF065F80546002D44D0D548FEF7A5
:102FA0005EFA1420FFF717FBD248FEF761FAD1480A
:102FB0008078D0494978CF4A1278CDE90021029033
:102FC000CC48C37982798188CBA00AF097FEAD49BD
:102FD0002231C3A00AF092FEAA4A1032A949D0A019
:102FE0000AF08CFEA7491631D0A00AF087FEA5484A
:102FF000801E90F83400D04A52F82010CFA00AF07A
:103000007DFEA048801E0188D1A00AF077FE9D4871
:10301000801E90F83910D1A00AF070FEAA4801680D
:10302000D2A00AF06BFED5A150460BF019F8054668
:10303000002D33D0D4A150460BF012F80746002FD4
:103040002CD0AC48801C411E831E421DCDE90105D9
:103050000091011D801CFFF730FEA6488078A5492D
:103060004978DFF890C2CDE900109CF800309CF858
:1030700007209CF80610BCF80400FEF7D2F99D4822
:10308000817840789B4A1278CDE9002002919948D6
:10309000C3798279818898A00AF030FEBBA150469E
:1030A0000AF0DEFF054665B1BA48007830B9012064
:1030B000B8490870B8A00AF021FE02E0B9A00AF0F1
:1030C0001DFEBCA150460AF0CBFF0546D5B10A2231
:1030D000002108A8FFF7AAFA294608A8FFF72CFD47
:1030E0000A22002108A80AF083FF6649891E81F898
:1030F0003400084690F834008F4A52F82010AFA0F0
:103100000AF0FCFDB2A150460AF0AAFF0546DDB167
:103110000A22002108A8FFF789FA294608A8FFF724
:103120000BFD0A22002108A80AF062FF5549891EFA
:10313000C1F835000846FFF78FFA5248801ED0F8D4
:103140003510A6A00AF0DAFDA8A150460AF088FFC3
:103150000546DDB10A22002108A8FFF767FA2946D3
:1031600008A8FFF7E9FC0A22002108A80AF040FF9E
:103170004449891E81F839000846FFF76DFA414835
:10318000801E90F8391075A00AF0B8FD9AA150463B
:103190000AF066FF0546DDB10A22002108A8FFF704
:1031A00045FA294608A8FFF7C7FC0A22002108A80B
:1031B0000AF01EFF3349891E81F83A000846FFF7DE
:1031C0004BFA3048801E90F83A108EA00AF096FD17
:1031D00090A150460AF044FF0446002C20D031A0B4
:1031E0000AF08CFD8DA00AF089FD90A00AF086FD02
:1031F00091A00AF083FD94A00AF080FD96A00AF049
:103200007DFD99A00AF07AFD9AA00AF077FD9CA0B6
:103210000AF074FD9EA00AF071FDA1A00AF06EFDF7
:10322000A1A150460AF01CFF0446002C27D0A1A102
:1032300050460AF015FF044654B11AA00AF05EFD8C
:103240009F4801689FA00AF059FD95A00AF056FD1D
:10325000A0A150460AF004FF044684B1514603A8D9
:10326000FFF780FC0A22002103A80AF0C1FE804675
:103270004046FFF7A8FC064616B1914830E143E10D
:103280003BE10000774300202B49502025730D0AB5
:103290000000000024736574706F74002B504F524F
:1032A000542025730D0A00002473657461706E004C
:1032B0002B41504E2025730D0A00000024736574C5
:1032C000686E6400C8540020540000202B48414E12
:1032D000442025640D0A000024736574736E000099
:1032E0002B534E2025730D0A0000000024696E66E2
:1032F0006F0000006C3200202B74696D653D253035
:1033000034642D253032642D25303264202530324E
:10331000643A253032643A253032640D0A000000E8
:103320002B69702025732025730D0A002B61706EA8
:103330002025730D0A000000280000202B74637004
:103340002D756470206D6F64653A25730D0A000059
:103350002B68616E642025640D0A00002B64617483
:10336000616D6F64652025640D0A00002B6A697326
:103370006869682025640D0A0000000024736574E4
:1033800074696D65000000002D00000024726573F3
:1033900065740000490000202B5265736574204F4E
:1033A0006B0D0A002B5265736574204572726F7243
:1033B0000D0A000024746370000000002B74637019
:1033C0002D756470206D6F64653A2025730D0A00B9
:1033D0002473657464656C61797400002B64656C9A
:1033E000617974696D652025640D0A002473657424
:1033F000646174616D6F640024736574776F726BC0
:103400006D6F64002B776F726B6D6F646520256440
:103410000D0A000041542B2B0000000041542B5397
:103420005842444154450D0A0000000041542B53BA
:10343000585041520D0A000041542B5358524652E5
:1034400046450D0A0000000041542B535852464D8A
:103450004F44450D0A00000041542B535852464634
:1034600041430D0A0000000041542B53585246427C
:10347000570D0A0041542B5358435449440D0A0038
:1034800041542B53584E455449440D0A0000000046
:1034900041542B5358504F5745520D0A000000001D
:1034A0000D0A2B4F4B0D0A0041542B5358424441F7
:1034B0005445000041542B535842444154453F0069
:1034C000285F00202B535842444154453A25640D4F
:1034D0000A00000041542B535842444154453D00DA
:1034E000C0F80080FFF7E8F8AFF248200AF006FCC9
:1034F000AFF254000AF002FC06E0AFF258200AF0E6
:10350000FDFBFCA00AF0FAFBFDA150460AF0A8FD65
:103510000446002C3AD0FDA150460AF0A1FD044615
:103520005CB1F6A00AF0EAFBFB480179FBA00AF0C7
:10353000E5FBAFF294000AF0E1FBFBA150460AF074
:103540008FFD044614B3514603A8FFF70BFB0A2274
:10355000002103A80AF04CFD80464046FFF72CFBF3
:1035600006466EB1EC4981F804800846FFF7A4F8DE
:10357000E2A00AF0C3FBAFF2D8000AF0BFFB05E0FF
:10358000DEA00AF0BBFBDBA00AF0B8FBE9A15046C5
:103590000AF066FD0446002C3BD0E9A150460AF033
:1035A0005FFD044664B1D5A00AF0A8FBDA48B0F884
:1035B0000510E6A00AF0A2FBAFF21C100AF09EFB79
:1035C000E6A150460AF04CFD044614B3514603A848
:1035D000FFF7C8FA0A22002103A80AF009FD804675
:1035E0004046FFF7DCFA06466EB1CB49A1F80580EC
:1035F0000846FFF761F8C1A00AF080FBAFF2601047
:103600000AF07CFB05E0BDA00AF078FBB9A00AF047
:1036100075FBD5A150460AF023FD0446002C3AD094
:10362000D4A150460AF01CFD04465CB1B3A00AF0D8
:1036300065FBB948417AD3A00AF060FBAFF2A01055
:103640000AF05CFBD3A150460AF00AFD044614B30D
:10365000514603A8FFF786FA0A22002103A80AF0C0
:10366000C7FC80464046FFF793FA06466EB1AA496A
:1036700081F809800846FFF71FF8A0A00AF03EFB7A
:10368000AFF2E4100AF03AFB05E09CA00AF036FB2A
:1036900098A00AF033FBC3A150460AF0E1FC0446AF
:1036A000002C3BD0C2A150460AF0DAFC044664B1BB
:1036B00092A00AF023FB9848B0F80710BFA00AF0C8
:1036C0001DFBAFF224200AF019FBC0A150460AF0FE
:1036D000C7FC044614B3514603A8FFF743FA0A2275
:1036E000002103A80AF084FC80464046FFF74DFA0B
:1036F00006466EB18849A1F807800846FEF7DCFF50
:103700007EA00AF0FBFAAFF268200AF0F7FA05E0B3
:103710007AA00AF0F3FA77A00AF0F0FAAEA15046C8
:103720000AF09EFC0446002C3AD0AEA150460AF0A6
:1037300097FC04465CB171A00AF0E0FA7648418932
:10374000ABA00AF0DBFAAFF2A8200AF0D7FAACA1DE
:1037500050460AF085FC044614B3514603A8FFF70F
:1037600001FA0A22002103A80AF042FC80464046E2
:10377000FFF708FA06466EB16749A1F80A800846C5
:10378000FEF79AFF5DA00AF0B9FAAFF2EC200AF05A
:10379000B5FA05E059A00AF0B1FA56A00AF0AEFA5F
:1037A0009AA150460AF05CFC0446002C3AD09BA13A
:1037B00050460AF055FC04465CB150A00AF09EFA4F
:1037C0005548817B99A00AF099FAAFF22C300AF0A3
:1037D00095FA9AA150460AF043FC044614B35146A8
:1037E00003A8FFF7BFF90A22002103A80AF000FC92
:1037F00080464046FFF7B3F906466EB1464981F868
:103800000E800846FEF758FF3CA00AF077FAAFF2A8
:1038100070300AF073FA05E038A00AF06FFA35A0AC
:103820000AF06CFA89A150460AF01AFC04466CB101
:1038300032A00AF063FA08F0D4FF8346594686A006
:103840000AF05CFAAFF2A8300AF058FA86A15046A6
:103850000AF006FC07465FB30A22002108A8FEF71B
:10386000E5FE394608A8FFF767F91022002108A8ED
:103870000AF0BEFB81464FEA19407F4908734FEAC0
:1038800019217D48417380F80E90007B7B4981F8B7
:103890003B007948417B794880F83C107648817B31
:1038A000764880F83D10FEF7D7FE75A00AF026FA9C
:1038B00078A150460AF0D4FB0746AFB10A22002196
:1038C00008A8FEF7B3FE394608A8FFF735F910221D
:1038D000002108A80AF08CFB8146C9F307461FFAAD
:1038E00089F1304606F0C9FD6DA150460AF0B8FBDB
:1038F0000746DDE00D0A2B4552524F520D0A0000DB
:1039000041542B53585041520000000041542B5356
:10391000585041523F000000285F00202B53585060
:1039200041523A25640D0A0041542B5358504152DC
:103930003D00000041542B5358524652464500006A
:1039400041542B535852465246453F002B53585230
:10395000465246453A25640D0A00000041542B5357
:103960005852465246453D0041542B535852464DFD
:103970004F44450041542B535852464D4F44453F08
:10398000000000002B535852464D4F44453A2564E1
:103990000D0A000041542B535852464D4F44453DAB
:1039A0000000000041542B5358524646414300004A
:1039B00041542B535852464641433F002B535852D3
:1039C000464641433A25640D0A00000041542B53FA
:1039D0005852464641433D0041542B5358524642AB
:1039E0005700000041542B5358524642573F0000A5
:1039F0002B5358524642573A25640D0A00000000E6
:103A000041542B5358524642573D000041542B53CA
:103A1000585246504F5745520000000041542B5316
:103A2000585246504F5745523F0000002B535852B2
:103A300046504F5745523A25640D0A0041542B53C6
:103A4000585246504F5745523D00000041542B53A9
:103A50005852464353513F002B53585246435351FB
:103A60003A2D25640D0A00002473657463656E7435
:103A70006572696400000000845E002075430020C8
:103A80002B73657463656E7465726964206F6B0D6A
:103A90000A00000024736574737873656E696400AE
:103AA00024636C656172737873656E6964000000ED
:103AB00027B106F016FD23A00AF020F926A15046F2
:103AC0000AF0CEFA07462FB103202649087026A037
:103AD0000AF014F90BB0BDE8F08F30B589B00025BD
:103AE0000024202101A80AF077FB2248008810F466
:103AF000004F1BD01F4805781E2D0FDC00BF0BE0C8
:103B00001D48005D01A9085500BF1C48008810F041
:103B1000400FFAD0601CC4B2AC42F1DB0020154962
:103B2000088001A9085501A8FFF720F909B030BDA8
:103B300001460120704701460120704701460120DF
:103B4000704700002B636C656172737873656E69F2
:103B500064206F6B0D0A0000247365746D33356F3C
:103B60006E0000004C0000202B7365746D33356FC0
:103B70006E0D0A0050000020B643002000100140E6
:103B80000948804709480047FEE7FEE7FEE7FEE7F1
:103B9000FEE7FEE7FEE7FEE7FEE7FEE7044805492D
:103BA000054A064B70470000170700088901000806
:103BB000A0610020A0670020A0630020A063002077
:103BC00033490143334A1160704770B50021002327
:103BD0000F22C47824B32F4C246804F4E064C4F5A5
:103BE000E064C4F30721C1F10404E3B20A4144785C
:103BF0009C40E1B28478144021430C07210E264CEE
:103C000005786155047804F01F050124AC4005785F
:103C10006D114FF0E02606EB8505C5F8004109E07F
:103C2000047804F01F040125A5401C4C0678761189
:103C300044F8265070BD1A4A0A400243154B1B1F18
:103C40001A60704739B1134A121D12680243114BB2
:103C50001B1D1A6006E00F4A121D126882430D4BAD
:103C60001B1D1A607047042808D14FF0E021096934
:103C700041F004014FF0E022116107E04FF0E02134
:103C8000096921F004014FF0E02211617047000042
:103C90000000FA050CED00E000E400E080E100E047
:103CA00080FFFF1F10B504469848844208D10121C7
:103CB000084600F086FB0021012000F082FB76E040
:103CC0009348844208D10121022000F07AFB0021B0
:103CD000022000F076FB6AE08E48844208D1012180
:103CE000042000F06EFB0021042000F06AFB5EE07F
:103CF0008948844208D10121082000F062FB00219C
:103D0000082000F05EFB52E08448844208D1012183
:103D1000102000F056FB0021102000F052FB46E07E
:103D20007F48844208D10121202000F04AFB002175
:103D3000202000F046FB3AE07A48844208D1012175
:103D4000402000F03EFB0021402000F03AFB2EE036
:103D50007548844208D10121802000F032FB002107
:103D6000802000F02EFB22E07048844208D101211F
:103D7000801500F026FB0021A01500F022FB16E0C4
:103D80006B48844208D10121401500F01AFB002144
:103D9000601500F016FB0AE06648844207D1012155
:103DA000001500F00EFB0021201500F00AFB10BDED
:103DB000F0B50A4600210023002400BF3DE00125A4
:103DC00005FA01F3156805EA03049C4234D105683D
:103DD0004F000326BE40B543056015794E00B5403F
:103DE0000668354305601579012D02D01579022D3D
:103DF00016D185684F000326BE40B54385605579CE
:103E00004E00B540866835438560456801268E4082
:103E1000B5434560456896798E40B6B235434560F6
:103E2000C5684F000326BE40B543C560D5794E0036
:103E3000B540C6683543C560491C1029BFD3F0BDE5
:103E40004FF6FF7101600021017141718171C171F3
:103E5000704708B54FF480320092009A0A430092EE
:103E6000009AC261C161009AC261C2690092C269CE
:103E7000009208BD0246002013690B4201D00120C8
:103E800000E0002070470146086980B27047024692
:103E9000002053690B4201D0012000E00020704750
:103EA0000146486980B2704701837047418370477B
:103EB0000AB1018300E04183704741617047426964
:103EC0004A4042617047F0B5002300244D07ED0ED3
:103ED00002FA05F3CE1000F1200555F826504E07E2
:103EE000F70E0F26BE40B543CF1000F1200646F86E
:103EF0002750CE1000F1200555F8265045EA03045E
:103F0000CE1000F1200545F82640F0BD000002402B
:103F10000004024000080240000C02400010024071
:103F20000014024000180240001C02400020024021
:103F30000024024000280240F948006840F00100D7
:103F4000F74908600020F64908310860F448006825
:103F5000F4490840F2490860F348091D0860F34835
:103F6000EF4984310860F0481038091D0860EC48BA
:103F7000006820F48020EA4908600020E8490C31FC
:103F80000860E7498C31086070470021E44A921CC0
:103F9000117011460870704710B5014600220023C9
:103FA00000204A11012A02D1DD4C236808E0022AD0
:103FB00003D1DB4C7034236802E0D94C743423689D
:103FC00001F01F02012494401C4201D0012000E0B6
:103FD000002010BD38B5002000900024002500BF4F
:103FE0003120FFF7D9FF05460098401C009000984B
:103FF000B0F5A04F01D0002DF2D03120FFF7CCFF5B
:1040000008B1012400E00024204638BD014600200C
:10401000C34A106820F0F80040EAC1001060704701
:10402000C349086070470021BD4A70321170117099
:10403000012802D004280AD104E00121B84A7032D4
:10404000117005E00521B64A7032117000E000BF22
:1040500000BF7047B7490860704770B5049C41EADB
:1040600082150126C6EB530645EA0645054345EA97
:104070000465AB4E361D356070BDAD4908667047AE
:10408000820142EA0172A64B84331A607047A84944
:104090008866704710B5830143EA016343EA0273FF
:1040A0009F4C8834236010BDA14908677047A04920
:1040B000C864704702460020994B0833186820F006
:1040C000EC6042EA01031843954B083318607047CF
:1040D00002460020924B0833186820F0784042EAEC
:1040E000010318438E4B08331860704701460020C7
:1040F0008B4A0832106820F00300084310607047B4
:1041000087480830006800F00C0070470146002026
:10411000834A0832106820F0F000084310607047AE
:10412000014600207E4A0832106820F4E05008431F
:104130001060704701460020794A0832106820F468
:10414000604040EAC10010607047F0B500210022D5
:104150000024022500260223714F08373F6807F02C
:104160000C0121B1042905D0082937D105E0724F8F
:10417000076036E0714F076033E0694F3F1D3F68CD
:10418000C7F38056664F3F1D3F6807F03F036EB18F
:104190006A4FB7FBF3F7DFF888C10CF1040CDCF8C9
:1041A00000C0CCF3881C07FB0CF40CE0624FB7FB9B
:1041B000F3F7DFF86CC10CF1040CDCF800C0CCF3B1
:1041C000881C07FB0CF4564F3F1D3F68C7F301479F
:1041D0007F1C7D00B4FBF5F7076002E0564F0760D7
:1041E00000BF00BF4E4F08373F6807F0F0010909D4
:1041F000534F7A5C0768D7404760494F08373F689C
:1042000007F4E051890A4E4F7A5C4768D7408760CF
:10421000434F08373F6807F46041490B484F7A5CC9
:104220004768D740C760F0BD002100F44072B2F586
:10423000407F0AD13A4A0832116821F4F811414A04
:1042400002401143364A08321160354A7032126812
:10425000C0F30B031A43324B70331A607047354971
:10426000443908607047334940390860704736491F
:104270000860704701460020294A8C32106820F0FF
:104280001F004A1E1043264A8C32106070470146B8
:104290000020234A8C32106820F4F8504A1E40EA6D
:1042A00002201F4A8C3210607047014600201C4AD1
:1042B0008C32106820F440100843106070470146AB
:1042C0000020174A8C32106820F440000843106028
:1042D000704701460020124A8C32106820F44030AA
:1042E00008431060704719490860704739B10C4A9B
:1042F0003032126802430A4B30331A6006E0084A33
:10430000303212688243064B30331A607047F9B17D
:10431000034A343212680243014B34331A601CE002
:1043200000380240FFFFF6EA103000240030002081
:1043300000004742800E47420024F40040787D018F
:104340005C000020FFFCFF0F5C014742E011474288
:104350008F4A126882438E4B1A60704739B18C4A7B
:10436000121D126802438A4B1B1D1A6006E0884A20
:10437000121D12688243864B1B1D1A60704739B1AB
:10438000834A0C3212680243814B0C331A6006E0F8
:104390007F4A0C32126882437D4B0C331A6070479F
:1043A00039B17B4A103212680243794B10331A60DC
:1043B00006E0774A103212688243754B10331A6058
:1043C000704739B1724A243A12680243704B243B59
:1043D0001A6006E06E4A243A126882436C4B243B12
:1043E0001A60704739B16A4A203A12680243684B32
:1043F000203B1A6006E0664A203A12688243644B0A
:10440000203B1A60704739B1614A1C3A1268024376
:104410005F4B1C3B1A6006E05D4A1C3A12688243FF
:104420005B4B1C3B1A60704739B1594A143A126809
:104430000243574B143B1A6006E0554A143A12687F
:104440008243534B143B1A60704739B1504A103ABB
:10445000126802434E4B103B1A6006E04C4A103A79
:10446000126882434A4B103B1A60704739B1484A80
:104470001C3212680243464B1C331A6006E0444A61
:104480001C3212688243424B1C331A60704739B1A8
:104490003F4A2032126802433D4B20331A6006E047
:1044A0003B4A203212688243394B20331A607047EE
:1044B00039B1374A243212680243354B24331A602B
:1044C00006E0334A243212688243314B24331A60A7
:1044D000704739B12E4A2C32126802432C4B2C33D0
:1044E0001A6006E02A4A2C3212688243284B2C3389
:1044F0001A60704739B1264A303212680243244BA1
:1045000030331A6006E0224A303212688243204B70
:1045100030331A607047012808D11D493C310968C1
:1045200041F008011A4A3C32116007E018493C3159
:10453000096821F00801164A3C321160704739B110
:10454000134A273A12780243114B273B1A7006E0B0
:104550000F4A273A127882430D4B273B1A70704757
:104560000B484030006840F08070094940310860D5
:10457000704701460020064A283A12680A4201D0D4
:10458000012000E00020704701492639087070477B
:104590003438024010B50446FA48844208D101215B
:1045A0001020FFF752FF00211020FFF74EFF57E0C9
:1045B000F548844209D101214804FFF735FF002165
:1045C0004FF40030FFF730FF4AE0F048844209D151
:1045D00001218804FFF728FF00214FF48020FFF716
:1045E00023FF3DE0EA48844209D10121C804FFF7D6
:1045F0001BFF00214FF40020FFF716FF30E0E548D5
:10460000844209D101210805FFF70EFF00214FF474
:104610008010FFF709FF23E0DF48844208D1012121
:104620002020FFF712FF00212020FFF70EFF17E0E8
:10463000DA48844209D101218807FFF7F5FE0021FD
:104640004FF08040FFF7F0FE0AE0D548844207D1E2
:1046500001214005FFF7E8FE00216005FFF7E4FEB9
:1046600010BD2DE9FF4705460E460024A14600BFB8
:10467000A046B08900B100BF2C8A24F44054F088D1
:1046800004432C82AC8941F20C608443B0883189A8
:104690000843718908430443AC81AC8A24F4407414
:1046A000B0890443AC826846FFF74FFDB5488542A8
:1046B00002D0B948854202D1DDF80C9001E0DDF866
:1046C0000890A88910F4004F08D009EBC90000EB4E
:1046D000091031684900B0FBF1F707E009EBC900A8
:1046E00000EB091031688900B0FBF1F76420B7FBDB
:1046F000F0F004012009642101FB1078A88910F46E
:10470000004F08D0322000EBC800B0FBF1F000F001
:104710000700044308E0322000EB08106421B0FBDE
:10472000F1F000F00F0004432C81BDE8FF874FF447
:104730001651016000218180C18001810C214181DD
:1047400000218181704710B502460020108A20F4B4
:1047500070600B884C8823438C882343CC88234388
:104760001843108210BD0021018041808180C180EA
:10477000704721B1828942F40052828104E082892B
:104780004DF6FF731A4082817047028B02F47F421C
:104790000283028B0A430283704721B1828942F46B
:1047A0000042828103E08289C2F30E028281704757
:1047B00021B1828A42F40062828204E0828A4FF24E
:1047C000FF731A4082827047C1F3080282807047EB
:1047D00001468888C0F308007047028A4FF6F073DC
:1047E0001A400282028A0A430282704721B18289FA
:1047F00042F00202828104E082894FF6FD731A4082
:104800008281704782894FF2FF731A4082818289C8
:104810000A4382817047028A4FF6DF731A40028290
:10482000028A0A430282704721B1028A42F480421E
:10483000028204E0028A4BF6FF731A40028270473C
:10484000818941F001018181704721B1828A42F062
:104850000802828204E0828A4FF6F7731A4082824D
:104860007047028BD2B20283028B42EA012202839A
:10487000704721B1828A42F02002828204E0828A5B
:104880004FF6DF731A408282704721B1828A42F06C
:104890001002828204E0828A4FF6EF731A4082820D
:1048A0007047828A4FF6FB731A408282828A0A43DB
:1048B0008282704721B1828A42F00202828204E041
:1048C000828A4FF6FD731A40828270471AB1838A3A
:1048D0000B43838202E0838A8B4383827047F0B567
:1048E00003460024002600250020A1F510676A3F3A
:1048F00000D100BF1846C1F3421401F01F06012782
:1049000007FA06F5012C01D10C3004E0022C01D18C
:10491000103000E014301AB107682F43076002E03E
:104920000768AF430760F0BD02460020B1F5007F85
:1049300000D100BF13880B4201D0012000E000200D
:10494000704701F40072B2F5007F00D100BFCA4386
:104950000280704770B50246002400230025002025
:10496000A1F510666A3E00D100BFC1F3421501F007
:104970001F03012606FA03F3012D13D19689334054
:1049800017E00000001001400044004000480040D3
:10499000004C0040005000400014014000780040EE
:1049A000007C0040022D02D1168A334001E0968A35
:1049B00033400C12012606FA04F41688344013B171
:1049C0000CB1012000E0002070BD10B500220023D2
:1049D000A1F510646A3C00D100BF0A120124944082
:1049E000A3B2DC43048010BD10B50446FE488442E7
:1049F00008D101210846FFF728FD00210120FFF71B
:104A000024FD9DE0B4F1804F08D101210846FFF755
:104A10000BFD00210120FFF707FD91E0F3488442E0
:104A200008D101210220FFF7FFFC00210220FFF73F
:104A3000FBFC85E0EE48844208D101210420FFF709
:104A4000F3FC00210420FFF7EFFC79E0E948844201
:104A500008D101210820FFF7E7FC00210820FFF71B
:104A6000E3FC6DE0E448844208D101211020FFF707
:104A7000DBFC00211020FFF7D7FC61E0DF48844217
:104A800008D101212020FFF7CFFC00212020FFF7D3
:104A9000CBFC55E0DA48844208D101210220FFF71F
:104AA000D4FC00210220FFF7D0FC49E0D548844225
:104AB00009D101210804FFF7C8FC00214FF4803020
:104AC000FFF7C3FC3CE0D048844209D101214804EF
:104AD000FFF7BBFC00214FF40030FFF7B6FC2FE0DE
:104AE000CA48844209D101218804FFF7AEFC0021A5
:104AF0004FF48020FFF7A9FC22E0C548844208D18A
:104B000001214020FFF790FC00214020FFF78CFCA2
:104B100016E0C048844208D101218020FFF784FCC0
:104B200000218020FFF780FC0AE0BB48844207D1C7
:104B300001218015FFF778FC0021A015FFF774FC18
:104B400010BD00220288A84B98420ED0AC4B984270
:104B50000BD0B0F1804F08D0A44B984205D0A44BA5
:104B6000984202D0A34B984204D14FF68F731A405B
:104B70004B881A43A04B984207D0A04B984204D0D0
:104B80004FF6FF431A400B891A4302804B68C362F9
:104B90000B880385944B984202D0994B984201D1DF
:104BA0008B7A03860123838270474FF0FF31416087
:104BB00000210180018141808172704701858282DC
:104BC00070470A46002101884FF68F731940114340
:104BD0000180704741627047C16270470146486A70
:104BE00070470146088D704721B1028842F00202E9
:104BF000028004E002884FF6FD731A40028070477D
:104C000021B1028842F00402028004E002884FF6DB
:104C1000FB731A400280704721B1028842F0800283
:104C2000028004E002884FF67F731A4002807047CA
:104C300002884FF6F7731A40028002880A43028006
:104C4000704702884FF6FF431A40028002880A43E9
:104C50000280704721B1028842F00102028004E024
:104C600002884FF6FE731A400280704770B5002428
:104C700000220023058C4FF6FE7635400584028C19
:104C80008388048B4FF68F752C40B51E2C400D8801
:104C90002C43751E2A408D892A434D882A43524D44
:104CA000A84202D0564DA84213D14FF6F7752A40BC
:104CB000CD892A434FF6FB752A408D882A434FF64B
:104CC000FF652B404FF6FF552B400D8A2B434D8A35
:104CD0002B43838004838D684563028470BD70B567
:104CE000002400220023058C4FF6EF763540058422
:104CF000028C8388048B48F6FF752C404FF6FF45E5
:104D00002C400D884FF6FF7606EA05252C434FF61A
:104D1000DF752A408D8906EA05152A434D8806EA83
:104D200005152A43304DA84202D0354DA8421DD169
:104D30004FF67F752A40CD894FF6FF7606EA0515B6
:104D40002A434FF6BF752A408D8806EA05152A4387
:104D50004FF6FF352B404FF2FF752B400D8A06EAC8
:104D600085052B434D8A06EA85052B438380048302
:104D70008D688563028470BD70B500240022002315
:104D8000058C4FF6FF6635400584028C8388848B42
:104D90004FF68F752C404FF6FC752C400D882C4338
:104DA0004FF6FF552A408D894FF6FF7606EA052516
:104DB0002A434D8806EA05252A430B4DA84202D016
:104DC0000F4DA84238D14FF2FF752A40CD894FF6DA
:104DD000FF7606EA05252A434FF6FF352A408D88DF
:104DE00006EA05252A4319E00000014000040040BE
:104DF00000080040000C004000100040001400407B
:104E000000040140004001400044014000480140CE
:104E100000180040001C0040002000404EF6FF75C6
:104E20002B404DF6FF752B400D8A06EA05152B43E6
:104E30004D8A06EA05152B43838084838D68C563FC
:104E4000028470BD70B5002200230024058C4EF64C
:104E5000FF7635400584038C8488828B48F6FF7585
:104E60002A404FF6FF452A400D884FF6FF7606EAA6
:104E700005252A434DF6FF752B408D8906EA053539
:104E80002B434D8806EA05352B43FE4DA84202D040
:104E9000FD4DA84208D14BF6FF752C400D8A4FF608
:104EA000FF7606EA85152C43848082838D6805642D
:104EB000038470BD002101804180818081608181F7
:104EC000C18101824182704770B5034600200024F1
:104ED0001846183001258D40ACB21D8CA5431D84A9
:104EE00009B108290AD100EB610005684FF68F76F9
:104EF000354005600568154305600FE00D1FC5F3DB
:104F00004E052844056848F6FF763540056005687B
:104F10004FF6FF7606EA02263543056070BD416311
:104F2000704781637047C1637047016470470A46E8
:104F30000021018B4FF68F73194011430183704795
:104F40000A460021018B48F6FF7319404FF6FF73A4
:104F500003EA02231943018370470A460021818B2B
:104F60004FF68F7319401143818370470A46002121
:104F7000818B48F6FF7319404FF6FF7303EA022353
:104F80001943818370470A460021018B4FF6F7735E
:104F900019401143018370470A460021018B4FF2EB
:104FA000FF7319404FF6FF7303EA0223194301838D
:104FB00070470A460021818B4FF6F7731940114361
:104FC000818370470A460021818B4FF2FF7319409D
:104FD0004FF6FF7303EA02231943818370470A46A1
:104FE0000021018B4FF6FB73194011430183704779
:104FF0000A460021018B4FF6FF3319404FF6FF732D
:1050000003EA02231943018370470A460021818B7A
:105010004FF6FB7319401143818370470A46002104
:10502000818B4FF6FF3319404FF6FF7303EA0223DB
:105030001943818370470A460021018B4FF67F7325
:1050400019401143018370470A460021018BC1F3C7
:105050000E014FF6FF7303EA0223194301837047E1
:105060000A460021818B4FF67F73194011438183DB
:1050700070470A460021818BC1F30E014FF6FF7382
:1050800003EA02231943818370470A460021018CF9
:105090004FF6FD7319401143018470470A46002101
:1050A000018C4FF6F77319401143018470470A468B
:1050B0000021018C4FF6DF7319404FF6FF7303EAAE
:1050C00002131943018470470A460021018C4FF6F0
:1050D0007F7319404FF6FF7303EA021319430184EB
:1050E00070470A460021018C4FF6FF5319404FF6D6
:1050F000FF7303EA02231943018470470A46002123
:10510000018C4FF2FF7319404FF6FF7303EA02233D
:105110001943018470470A460021018C4DF6FF7344
:1051200019404FF6FF7303EA0233194301847047B5
:1051300030B5002301248C40A3B2048C9C4304842A
:10514000048C02FA01F5ADB22C43048430BD30B5B5
:10515000002304248C40A3B2048C9C430484048C5C
:1051600002FA01F5ADB22C43048430BD828B4FF2BC
:10517000FF331A408283828B4FF6FF7303EA0123C9
:105180001A4382837047F0B50C4615460021002271
:105190000026078C4EF6FF7C07EA0C070784818BFC
:1051A000028C4FF6FF7707EA043640F6FF47394096
:1051B0004FF6FF7707EA052739434FF6FF7707EAEF
:1051C0000337394345F6FF773A4046F480573A4370
:1051D00081830284F0BD828B4FF6F3731A40828381
:1051E000828B0A4382837047F0B50C461546002136
:1051F00000220026078C4FF6FF6C07EA0C07078495
:10520000818B028C4FF6FF7707EA04264FF60C7766
:1052100039404FF6FF7707EA03172F4339434FF220
:10522000FF573A4046F480773A4381830284F0BDC9
:10523000028B4FF2FF331A400283028B4FF6FF734B
:1052400003EA01231A4302837047F0B50C46154662
:10525000002100220026078C4FF6EF7C07EA0C079E
:105260000784018B028C4FF6FF7707EA041640F69D
:10527000FF4739404FF6FF7707EA033739434FF6C8
:10528000FF7703E0000001400004014007EA052722
:1052900039434FF65F773A4046F010073A430183AF
:1052A0000284F0BD028B4FF6F3731A400283028B27
:1052B0000A4302837047F0B50C46154600210022D0
:1052C000068C4FF6FE773E400684018B028C4FF62B
:1052D0000C7631407E1C06EA03162E4331434FF60E
:1052E000F576324044F00106324301830284F0BD7A
:1052F00070B505460C46208850B92389A28861887C
:105300002846FFF7D8FFE1882846FFF7CBFF25E0C6
:10531000208804280AD12389A28861882846FFF7BB
:1053200094FFE1882846FFF783FF17E020880828CC
:105330000AD12389A28861882846FFF755FFE188B2
:105340002846FFF748FF09E02389A288618828469C
:10535000FFF719FFE1882846FFF708FF70BD00211D
:1053600001804180012181800021C180018170473D
:105370002DE9F04105460C4600260127608808B952
:10538000022600E00026A088012801D1022700E0C3
:1053900001272088A0B92389A28861882846FFF7C1
:1053A0008AFFE1882846FFF77DFF23893A46314688
:1053B0002846FFF74AFFE1882846FFF739FF13E048
:1053C0002389A28861882846FFF73FFFE1882846A5
:1053D000FFF72EFF23893A4631462846FFF76BFF39
:1053E000E1882846FFF75EFFBDE8F0810146486B83
:1053F00070470146886B70470146C86B704701468D
:10540000086C70470A884B881A438B881A43CB88EC
:105410001A430B891A434B891A438B891A43A0F804
:10542000442070470021018041808180C18001813A
:1054300041818181704731B1B0F8442042F400428B
:10544000A0F8442005E0B0F84420C2F30E02A0F812
:105450004420704721B1828842F00402828004E037
:1054600082884FF6FB731A408280704721B1828890
:1054700042F00102828004E082884FF6FE731A40F7
:10548000828070471AB183890B43838102E083894C
:105490008B43838170478182704702460020138AC4
:1054A0000B4201D0012000E000207047CA43028275
:1054B000704730B50246002000230024158A05EA13
:1054C0000103958905EA010413B10CB1012000E044
:1054D000002030BDCA430282704741EA0203A0F8AF
:1054E000483070471AB183890B43838102E0838976
:1054F0008B438381704721B1828842F00802828009
:1055000004E082884FF6F7731A4082807047018961
:105510004FF6F8721140018170470A460021018957
:105520004FF68F73194011430181704730B504461F
:105530000D4629462046FFF7F0FF208940F007007E
:10554000208130BD2DE9F04104460D4616461F4628
:10555000602D06D13B46012231462046FFF775FEFD
:1055600005E03B46012231462046FFF7A4FE2946CE
:105570002046FFF7D2FF208940F007002081BDE8D8
:10558000F08130B50C4600210189C9B24FF6FF7594
:1055900005EA0325154325432943018130BD2DE943
:1055A000F04105460E4617469846002443463A46C3
:1055B00031462846FFF7E5FF2C894FF6F870044086
:1055C00044F007044FF68F70044044F070042C81BF
:1055D000BDE8F081F0B504460D4616461F463B4631
:1055E000324629462046FFF7CCFF208940F4804010
:1055F0002081F0BD82884FF68F731A4082808288A6
:105600000A438280704702894FF6F8731A4002817C
:1056100002890A430281704702894FF67F731A405C
:10562000028102890A4302817047F0B50C46154693
:105630001E460021002200230189028B038C4FF6B5
:10564000F877394021434FF6FC473A4040F20117C2
:105650003A434FF6DD773B404FF6FF7707EA0617F0
:105660002F433B43018102830384F0BD21B1828833
:1056700042F08002828004E082884FF67F731A40F5
:1056800082807047A0F850107047000008B50022D3
:10569000009200200021CA22F94B1A6053221A609E
:1056A000F74A183A126822F0A002F54B183B1A602C
:1056B00000BFF34A183A126802F02001009A521C07
:1056C0000092009AB2F5003F01D00029F1D0EC4AD7
:1056D000183A126812F0200F01D0012000E00020DB
:1056E000FF22E74B1A6008BD08B500220092002097
:1056F0000021E34A183A126812F0400F1CD1421EF2
:10570000DF4B183B1A6000BFDD4A183A126802F0FE
:105710004001009A521C0092009AB2F5803F01D0DD
:105720000029F1D0D64A183A126812F0400F01D081
:10573000012002E0002000E0012008BD38B5002073
:10574000009000240025CA20CD490860532008603D
:10575000FFF7CAFF00B952E00020C94924390860A8
:1057600042F20110091D0860081D006800F00700E2
:10577000091D086000BFC2481838006800F0040422
:105780000098401C00900098B0F5803F01D0002C9C
:10579000F1D0BB481838006810F0040F01D1002583
:1057A0002DE0B7481C3800680020B5491C39086056
:1057B0004FF6FF70B24910390860B248091F0860FF
:1057C0000020AF490C390860091D0860091D0860F8
:1057D000AB4908310860AA4918310860A84920314E
:1057E0000860091D0860A64918390860A4491C31E1
:1057F0000860FFF74BFF08B9002500E00125FF20F6
:105800009F490860284638BD9D481838006820F038
:1058100080009B4918390860704730B50446002560
:10582000CA209749086053200860FFF75DFF00B960
:105830001DE093481C38006820F0400090491C3956
:10584000086008460068216808438D491C390860D3
:105850008B491439A068086008460068A18840EAAE
:105860000140874914390860FFF7CEFF0125FF206A
:1058700083490860284630BD002101607F214160D6
:10588000FF218160704718B1FF217D4A116004E05B
:10589000CA217B4A116053211160704730B504461C
:1058A0000025CA207649086053200860FFF71CFFD6
:1058B00000B914E044B172481C38006840F0100090
:1058C0006F491C39086007E06D481C38006820F0FB
:1058D00010006B491C390860FFF796FF0125FF2077
:1058E00067490860284630BDCA21654A11605321C6
:1058F000116040B162491C39096841F02001604AD9
:105900001C3A116007E05E491C39096801F0DF01AB
:105910005B4A1C3A1160FF21594A116070470146E9
:10592000002204E0501CC2B2A1F10A00C1B20A294F
:10593000F8DA100741EA10607047014600BF080915
:1059400000EB8000420001F00F001044C0B270472D
:105950002DE9F04105460C460026002755B9484878
:105960001C38006810F0400F00D002E00020E0700A
:1059700000BF0EE042481C38006810F0400F04D011
:105980002078FFF7DAFF064602E00020E07000BF53
:1059900000BF55B120780004617840EA0120A17869
:1059A0000843E17840EA014611E02078FFF7B7FFAD
:1059B0004FEA00486078FFF7B2FF48EA0028A07875
:1059C000FFF7ADFF48EA0008E07848EA0046CA2041
:1059D0002B49086053200860FFF786FE08B90027AE
:1059E00014E029483040264924390860FFF70CFFAD
:1059F00023481C38006810F0200F06D1FFF746FE40
:105A000008B9002702E0012700E00127FF201C4918
:105A100008603846BDE8F0810021C1700170417016
:105A20008170704770B506460C460025144824382E
:105A30000068154900EA0105C5F305402070C5F36B
:105A40000620607005F07F00A07005F48000000C57
:105A5000E0705EB92078FFF770FF20706078FFF784
:105A60006CFF6070A078FFF768FFA07070BD002029
:105A70000349091D08680249203909687047000078
:105A800024280040FF007F007F7F7F002DE9F04148
:105A900005460C46002600274DB9607800F010003E
:105AA000102804D1607820F010000A30607005B929
:105AB00008E06078FFF741FF0646A078FFF73DFF5A
:105AC000064600BF55B1E0780004617840EA012045
:105AD000A1780843217840EA413611E0E078FFF7E9
