:020000040800F2
:1000000018680020413E0008890600088D05000898
:100010008B0600088F060008930600080000000009
:10002000000000000000000000000000970600082B
:100030009906000800000000359800086D260008A9
:100040005B3E00085B3E00085B3E0008C1130008F1
:100050005B3E00085B3E00085B3E00085B3E00081C
:100060005B3E00085B3E00085B3E00085B3E00080C
:100070005B3E00085B3E00085B3E00085B3E0008FC
:100080005B3E00085B3E00085B3E00085B3E0008EC
:100090005B3E00085B3E00085B3E00085B3E0008DC
:1000A0005B3E00085B3E00085B3E00085B3E0008CC
:1000B0005B3E000809DD00085B3E00085B3E00086F
:1000C0005B3E00085B3E00085B3E00085B3E0008AC
:1000D0005B3E00082F2C0008950C0008B10A0008B0
:1000E0005B3E0008951300085B3E00085B3E00087D
:1000F0005B3E00085B3E00085B3E00085B3E00087C
:100100005B3E00085B3E00085B3E00085B3E00086B
:100110005B3E00085B3E00085B3E00085B3E00085B
:100120005B3E00085B3E00085B3E00085B3E00084B
:100130005B3E00085B3E00085B3E00085B3E00083B
:100140005B3E00085B3E00085B3E00085B3E00082B
:100150005B3E00085B3E00085B3E0008A908000803
:100160005B3E00085B3E00085B3E00085B3E00080B
:100170005B3E00085B3E00085B3E00085B3E0008FB
:100180005B3E00085B3E000800F002F800F070F8EB
:100190000AA090E8000C82448344AAF10107DA45E2
:1001A00001D100F065F8AFF2090EBAE80F0013F0C4
:1001B000010F18BFFB1A43F0010318473407010071
:1001C000540701000A444FF0000C10F8013B13F0F3
:1001D000070408BF10F8014B1D1108BF10F8015BA0
:1001E000641E05D010F8016B641E01F8016BF9D193
:1001F00013F0080F1EBF10F8014BAD1C0C1B09D1EA
:100200006D1E58BF01F801CBFAD505E014F8016B5B
:1002100001F8016B6D1EF9D59142D6D370470000ED
:100220000023002400250026103A28BF78C1FBD8FF
:10023000520728BF30C148BF0B60704764290DF0DA
:10024000218778290DF05A8773290EF0E681002066
:1002500070471FB510F0FEF80EF07CFA0400002085
:1002600000210FF0ADFA401C60601FBD10B510BD3D
:100270000EF086FA1146FFF7ECFF00F058F90EF089
:10028000A4FA03B4FFF7F2FF03BC02F06DFC000018
:10029000002419E00A2002F042FACB48007898B115
:1002A000CA4890F83A00012805D101F07BFE0446C7
:1002B0000CB901F08FFEC54890F83A0008B901F07A
:1002C00089FE0020C0490870E4E700244FE01420B4
:1002D00002F025FABE480078022848D1BA480078D2
:1002E000002844D1B94890F83A00012812D1B94801
:1002F000007801280ED10020B649087002F0A8FB52
:10030000B5480078022802D1B4A00DF049FE0120C2
:10031000AD490870AD4890F83A00A8B9B3480068F4
:10032000401CB2490860A948008800EBC00101EBFD
:100330000010AE490968B1EB400F05D10020AB4970
:1003400008600120A0490870A948007801280ED152
:10035000601CC4B2C82C0AD100240020A549087032
:1003600001F004FA0320A249087002F0C1F8AEE7D8
:1003700002E00A2002F0D3F9FBE702E00A2002F0D3
:10038000CEF9FBE700254AE00A2002F0C8F99048C0
:10039000007838B96D1CA5F59C40203802D18C49F5
:1003A000087000258A480078012838D1874890F8DD
:1003B0003A0050BB00BF01F0C7F901F0ABFA01F001
:1003C0007BFB824991F83400002301F11202891C61
:1003D00001F0BBFC04461CB901208649087014E0FA
:1003E00000208449087040F6B83002F098F97A4845
:1003F0000078022802D180A00DF0D2FD01F0B6F9FC
:1004000041F2707002F08BF9D5E7704890F83A002D
:10041000012801D102F06CF802206D490870B3E7A1
:100420008AB0202102A80EF029F824E00A2002F068
:1004300076F96548007808B10AF08AFC73480078BC
:10044000C8B101A902A800F0F6FB9DF8040090B124
:100450006FA00DF0A5FD002406E002A8015D71A0CB
:100460000DF09EFD601CC4B29DF804008442F4DBD4
:1004700065A00DF095FDD9E70AE00A2002F04FF9DA
:1004800003F011FC5B480078012801D100F0F1FA7B
:10049000F3E703E04FF47A7002F041F9FAE770B540
:1004A0000446002500BF06F00BFF09F09BF9054646
:1004B00007235E4A0021AFF2250008F052FA062316
:1004C0005B4A0021AFF24F0008F04BFA0523594A6E
:1004D0000021AFF2B30008F044FA0423564A002189
:1004E000AFF25F1008F03DFA0323544A0021AFF247
:1004F000751008F036FA0223514A0021AFF28F102E
:1005000008F02FFA08234F4A0021AFF2412008F0EB
:1005100028FA09234C4A0021AFF28B2008F021FA77
:100520000A2008F0A2FC284609F060F970BD10B559
:100530004FF4A06003F0A4FCA82002F09FF84FF451
:10054000165002F01EFB4FF4E13000F0C6F901F046
:1005500075F801F0FCFD02F09FF902F079F90DF059
:1005600097FA3A49086800F039FB00F049FE02F0BA
:1005700035FA06F066FD0A23354A0021AFF2E100A4
:1005800008F0EFF906F084FE002010BD10B53148E8
:100590000468214630A00DF003FD2E48001D0468BC
:1005A000214630A00DF0FCFC2A48083004682146A2
:1005B0002FA00DF0F5FC27481430046821462FA029
:1005C0000DF0EEFC10BD00004A000020EE430020BC
:1005D0004900002023000020480000207379737434
:1005E000656D2077616B6575700D0A005400002001
:1005F0004B00002031000020495020436F6E6E6395
:100600006574206167696E650D0A0000580000205E
:1006100052533438355F5265636976655F4461745F
:10062000610D0A00253032582000000074080020B7
:10063000740C002074140020741C0020741E002010
:10064000742000207428002074300020A05F002057
:100650007404002028ED00E0434653523A253858F0
:100660000D0A0000484653523A2538580D0A00003A
:10067000444653523A2538580D0A00004146535219
:100680003A2538580D0A0000704700BFFEE700BF4A
:10069000FEE700BFFEE77047704700000CB5002082
:1006A000019000907548006840F4803073490860FC
:1006B00000BF7248006800F4003000900198401CB0
:1006C0000190009818B90198B0F5A04FF1D16B488E
:1006D000006810F4003F02D00120009001E00020EB
:1006E00000900098012845D164484030006840F0EF
:1006F00080506249403108606148006840F44040E1
:100700005F4908605D48083000685C49083108604E
:100710000846006840F4004008600846006840F45D
:10072000A05008605748091F0860081F006840F083
:100730008070091F086000BF5048006810F0007FFB
:10074000FAD040F20560504908604C480830006813
:1007500020F003004949083108600846006840F06D
:100760000200086000BF45480830006800F00C0037
:100770000828F8D10CBD10B54448006840F470005A
:10078000424908603D48006840F001003B4908606C
:1007900000203A4908310860384800683C49084060
:1007A000364908603B48091D0860081F006820F4AE
:1007B0008020091F0860002030490C310860FFF7D5
:1007C0006DFF4FF0006031498039086010BD70B591
:1007D00000200022022300240221284D08352D6824
:1007E00005F00C0020B1042806D0082834D107E019
:1007F000294D2A4E356033E0294D284E35602FE0D3
:100800001E4D2D1D2D68C5F380541C4D2D1D2D68CA
:1008100005F03F0154B1224DB5FBF1F5174E361DE1
:100820003668C6F3881605FB06F209E01A4DB5FBDB
:10083000F1F5124E361D3668C6F3881605FB06F232
:100840000E4D2D1D2D68C5F301456D1C6B00B2FBCF
:10085000F3F5124E356003E00F4D104E356000BFCA
:1008600000BF064D08352D68C5F303150D4E705DAC
:100870000A4D2D68C540094E356070BD00380240F4
:100880000070004019544007003C024088ED00E031
:10089000FFFFF6FE103000240024F40000000020CA
:1008A00040787D010400002010B540F225517B48BE
:1008B00004F0B0F980B1794804F0EAF8C4B278489D
:1008C0000088642808DA77487549098844547448D0
:1008D0000088401C7249088010BD10B588B00446DD
:1008E0000121042003F062FE0121202003F0B8FE64
:1008F000082206216C4803F046FC082207216A48BA
:1009000003F041FCC020069002208DF81C008DF8F9
:100910001D0000208DF81E0001208DF81F0006A983
:10092000614803F0A5FB02940020ADF80C00ADF87F
:100930000E00ADF81000ADF814000C20ADF8120058
:1009400002A9564803F0EDFF0121544804F071F864
:100950004021524804F055F9012240F225514F48F8
:1009600004F01DF947208DF8040001208DF80500E2
:1009700003208DF8060001208DF8070001A803F080
:1009800084FA00204649088008B010BD70B50546BD
:100990000E4600240CE000BF4021404804F024F93A
:1009A0000028F9D0295D3D4804F06EF8601CC4B2FF
:1009B000B442F0DB00BF4021384804F015F90028AC
:1009C000F9D000203649088070BD10B504460BE010
:1009D0002178324804F058F800BF80212F4804F0F5
:1009E00003F90028F9D0641C20780028F0D110BD4C
:1009F0002DE9F04107460D462948067800240020DD
:100A000028700A2001F08BFE2548008886420FD10D
:100A100076B100BF04E02348005D3855601CC4B2C5
:100A2000B442F8DB1E480078287000201C4908807A
:100A3000BDE8F0812DE9F04107460D4618480678DB
:100A40000024002028700A2001F069FE1448008864
:100A500086420CD15EB100BF04E01248005D3855FB
:100A6000601CC4B2B442F8DB0D4800782870BDE8C1
:100A7000F08108B500200090642200210B4801F0AD
:100A800079FE69460948FFF7B3FF9DF8000020B1E1
:100A90009DF80010054801F070FA08BD00140140EF
:100AA000140000207830002000080240DC300020D4
:100AB00010B540F22551714804F0ACF880B16F4890
:100AC00003F0E6FFC4B26E480088642808DA6D4877
:100AD0006B49098844546A480088401C684908806A
:100AE00010BD1CB50121022003F060FD4FF4004051
:100AF000009001208DF8040000208DF806000320EE
:100B00008DF8050001208DF8070069465E4803F066
:100B1000AFFA4FF400415C4803F028FB1CBD10B550
:100B200088B00446554803F095FE0121082003F0E3
:100B30003DFD0121880403F082FD4FF440700590D3
:100B400002208DF818008DF8190000208DF81A0089
:100B500001208DF81B0005A94C4803F089FA0722F3
:100B600008214A4803F00FFB07220921474803F0F8
:100B70000AFB01940020ADF80800ADF80A00ADF8BA
:100B80000C00ADF810000C20ADF80E0001A93B4898
:100B900003F0C7FE012240F22551384803F0FFFF61
:100BA0000121364803F045FF4021344804F029F87C
:100BB00027208DF81C0002208DF81D0003208DF8E1
:100BC0001E0001208DF81F0007A803F05EF9002029
:100BD0002B4908802E49086008B010BD10B50446A6
:100BE000FFF77FFF2046FFF79AFF10BD70B505465F
:100BF0000E460120264908604FF000040CE000BFBB
:100C000040211E4803F0F0FF0028F9D0295D1B4861
:100C100003F03AFF601CC4B2B442F0DB00BF4021D5
:100C2000164803F0E1FF0028F9D00020144908809D
:100C30001749086070BD2DE9F04107460D46104880
:100C400006880024002028700A2001F068FD0C4866
:100C5000008886420FD176B100BF04E00948005DEC
:100C60003855601C84B2B442F8DB0548008828700F
:100C7000002003490880BDE8F081000000480040E2
:100C8000160000204031002000040240000C024009
:100C9000BC82404210B540F22551764803F0BAFFBD
:100CA00080B1744803F0F4FEC4B27348007864283D
:100CB00008DA72487049097844546F480078401C3B
:100CC0006D49087010BD10B588B004460121082098
:100CD00003F06CFC0121480403F0B1FC072205215C
:100CE000674803F050FA07220621654803F04BFAE3
:100CF0006020069002208DF81C0003208DF81D0056
:100D000000208DF81E0001208DF81F0006A95C4808
:100D100003F0AEF902940020ADF80C00ADF80E001F
:100D2000ADF81000ADF814000C20ADF8120002A9C7
:100D3000504803F0F6FD01214E4803F07AFE4021B1
:100D40004C4803F05EFF012240F22551494803F070
:100D500026FF26208DF8040003208DF805008DF86D
:100D6000060001208DF8070001A803F08EF808B0F6
:100D700010BD70B505460E4600240CE000BF4021B2
:100D80003C4803F031FF0028F9D0295D394803F0D1
:100D90007BFE601CC4B2B442F0DB00BF402135488A
:100DA00003F022FF0028F9D000203349087070BDFD
:100DB00010B504460BE021782E4803F065FE00BF15
:100DC00080212C4803F010FF0028F9D0641C207803
:100DD0000028F0D110BD2DE9F04107460D46264808
:100DE00006780024002028700A2001F098FC224890
:100DF000007886420FD176B100BF04E01F48005D45
:100E00003855601CC4B2B442F8DB1B480078287027
:100E1000002019490870BDE8F0812DE9F04107462E
:100E20000D46154806780024002028700A2001F09D
:100E300076FC1148007886420CD15EB100BF04E018
:100E40000E48005D3855601CC4B2B442F8DB0A4855
:100E500000782870BDE8F08108B500200090642279
:100E60000021084801F086FC69460648FFF7B3FFF9
:100E700008BD00000044004022000020A4310020F2
:100E8000000C024008320020A548A6490860A64888
:100E900008607047A3480C30006840F00040A1494A
:100EA0000C310860704700219E480830016811F439
:100EB000803F01D00120704711F0100F01D00220B7
:100EC000F9E711F0200F01D00220F4E711F0400FF4
:100ED00001D00220EFE711F0800F01D00220EAE7F5
:100EE0000020E8E770B5044600BFFFF7DCFF0546C9
:100EF000012D00D005E00A2001F0E6FB641E002C65
:100F0000F3D100BF04B9FF25284670BD70B5054672
:100F100000248648FFF7E6FF044674BB81480C3086
:100F2000006820F440707F490C3108600846006872
:100F300040F4007008600846006820F0F80008607F
:100F40000846006840EAC50008600846006840F0AE
:100F5000020008600846006840F48030086073486A
:100F6000FFF7C0FF0446012C07D06E480C30006824
:100F700020F002006B490C310860204670BD70B54E
:100F800005460E46FF20FFF7ADFF044604BB65484B
:100F90000C30006820F4407062490C31086008464B
:100FA000006840F4007008600846006840F00100E6
:100FB00008602E60FF20FFF795FF0446012C07D044
:100FC00058480C30006820F0010056490C31086088
:100FD000204670BD0146086870470146544881426A
:100FE00001D2002070475348814201D20120F9E725
:100FF0005148814201D20220F4E75048814201D297
:101000000320EFE74E48814201D20420EAE74D4831
:10101000814201D20520E5E74B48814201D20620FA
:10102000E0E74A48814201D20720DBE74848814295
:1010300001D20820D6E74748814201D20920D1E7F2
:101040004548814201D20A20CCE70B20CAE72DE9AE
:10105000F04704460E4617464FF000080025A94603
:10106000B4F1006F02D314F0030F01D0BDE8F08794
:10107000FFF70AFF2B48001F006820F48060294911
:10108000091F0860254604EB87093448854214D2BD
:1010900010E02846FFF79EFF401C0AD02846FFF7C5
:1010A0009CFF8246FFF732FF8046B8F1000F01D067
:1010B00002E02D1D4D45ECD300BFB8F1000F0BD160
:1010C00007E020463168FFF75AFF00B103E0241D16
:1010D000361D4C45F5D300BF1248001F006840F490
:1010E00080601049091F0860FFF7D4FE00BFBDE70C
:1010F00030B503460C461546002206E01846FFF7B9
:1011000069FF44F822001B1D521CAA42F6D330BDD1
:1011100013B50446012201A92046FFF798FF1CBD24
:1011200023016745043C0240AB89EFCD400D03002D
:10113000004000080080000800C00008000001080E
:10114000000002080000040800000608000008086B
:1011500000000A0800000C0800000E080000FF1F35
:10116000F8B504460D4617461E468DF800408DF82A
:1011700001508DF802708DF803606946002004F07C
:1011800047FDF8BDF8B504460D4617461E468DF8D6
:1011900002708DF801508DF800608DF803406946AB
:1011A000002004F0D3FDF8BDF8B507460C461546FF
:1011B0001E466946002004F095FD9DF80000387039
:1011C0009DF8010020709DF8020028709DF8030032
:1011D0003070F8BDF8B507460C4615461E46694600
:1011E000002004F019FE9DF8030038709DF80100FE
:1011F00020709DF8020028709DF800003070F8BD46
:101200003EB541F6FF740121080703F018FA0120EA
:1012100005F0E3FA002005F057F9A0F5A041503998
:1012200031D0012003F05FF804E0601C84B20A2092
:1012300001F075FA412003F00FF80028F5D00CB941
:1012400001203EBD4FF4807003F04EF9012003F001
:1012500066F97F200190FF200290002000906846F0
:1012600004F03BFC002338223B211720FFF778FFD6
:101270000623052211460E20FFF784FF45F2500198
:10128000002005F014F90020DBE7F0B587B0044634
:101290000D4616461F4600214FF4807004F096FE5E
:1012A0008DF800508DF801608DF8027000208DF8E7
:1012B00003008DF810404FF0804003900020029012
:1012C0000098019001AA4FF48071002004F0C7FD3E
:1012D0004FF4805005F0DAF94FF4003005F069FA68
:1012E0000121080305F066F90121080204F06EFEF1
:1012F0004FF40030059000208DF8180008208DF87C
:10130000190001208DF81A0005A805F0E1F929203F
:10131000B84908700220487088700120C8700846DB
:1013200002F0B3FD07B0F0BD7CB505460C460020C9
:1013300004F0D1FE284604F0A9FE204604F0BBFECE
:101340004FF4804005F0A2F94FF4800005F031FA27
:101350000121880305F02EF9012004F0BCFE4FF4B2
:101360008000009000208DF8040008208DF8050012
:1013700001208DF80600684605F0AAF903209D4972
:1013800008700220487088700120C870084602F07A
:101390007CFD7CBD10B505F06CFE4FF4807005F04F
:1013A00038F9012805D1000205F043F992A00CF0AC
:1013B000F7FD4FF4003005F0FCF905F075FE10BDA7
:1013C00010B505F056FE4FF4806005F022F90128B3
:1013D00002D1800205F02DF94FF4800005F0E9F903
:1013E000FFF7C9F9A82001F049F94FF4165001F0B0
:1013F000C8FBFFF705FF002004F06DFE01208149C6
:10140000087005F051FE10BDF0B503460C461546B8
:10141000642093FBF0F0C6B2642093FBF0F700FB6E
:101420001730C1B2132E02DD01F16400C1B20846CB
:10143000CF1701EB977701EBA707BAB2072092FB12
:10144000F0F700FB172082B25719601EDFF8B8C111
:101450001CF80000384482B2CF1701EB9777BF1019
:10146000B1EB870703D1032C01DA501E82B20720AB
:1014700092FBF0F700FB172082B202B90722D0B22C
:10148000F0BD2DE9F04704460E4617461D46DDE93E
:10149000088900234A4641462846FFF761FE3A463E
:1014A00031462046FFF7B0FF8246A4F5FA61C8B284
:1014B00053463A463146FFF765FEBDE8F08738B53A
:1014C00004466B46A21C611C2046FFF76DFE38BD2A
:1014D00038B5044604F10803E21DA11D6846FFF774
:1014E00079FE9DF8000000F5FA604849888038BD13
:1014F000F0B587B006460020039004900590069052
:10150000002507E005F10A00305C303803A9485592
:10151000681CC5B20E2DF5DB9DF80C004FF47A71F6
:1015200010FB01F09DF80D1001EBC10202EB01115F
:1015300000EB81009DF80E1001EB810100EB4100F2
:101540009DF80F10441831498C809DF811009DF8CA
:10155000101001EB810100EB41042C498C719DF8C6
:1015600013009DF8121001EB810100EB41042749A3
:10157000CC719DF815009DF8141001EB810100EB72
:10158000410422490C709DF817009DF8161001EBDC
:10159000810100EB41041D494C709DF819009DF834
:1015A000181001EB810100EB410418498C700846CA
:1015B00080784978154FCDE900103B78FA79B979F0
:1015C000B888FFF75EFF1248007802280FD138462E
:1015D0008078394649783A461278CDE90021029060
:1015E0003846C379827981880AA00CF0D9FC07B00B
:1015F000F0BD000024000020414C41524D2041210B
:101600000D0A0000230000204E0501086C32002066
:10161000480000202B74696D653D253034642D250C
:101620003032642D2530326420253032643A253042
:1016300032643A253032640D0A0000001CB50121E5
:101640001E2002F0B3FF4120009001208DF804001D
:1016500000208DF8060003208DF8050001208DF88C
:1016600007006946344802F003FD4121324802F088
:101670007BFD4021304802F079FD4FF4005000908E
:1016800001208DF8040000208DF8060003208DF85D
:10169000050001208DF807006946284802F0E8FCA3
:1016A0004FF40051254802F061FD4FF4784000905E
:1016B00001208DF8040000208DF8060003208DF82D
:1016C000050001208DF8070069461D4802F0D0FC96
:1016D0004FF478411A4802F049FD4FF40060009041
:1016E00001208DF8040000208DF8060003208DF8FD
:1016F000050001208DF807006946124802F0B8FC89
:101700004FF400610F4802F02FFD1CBD70B5054677
:101710000C4645F2555005F00DF9284605F00DF937
:10172000204605F00DF905F00EF905F011F970BD30
:1017300010B505F008F910BD000402400008024091
:10174000000C02400010024010B54FF40051FE485A
:1017500002F00AFD40F2DC5000F0E1FFFB480078A7
:10176000022802D1FAA00CF01BFC10BD10B5002419
:101770004FF40051F44802F0F9FCF44800780228D4
:1017800002D1F7A00CF00CFC002404E0642000F06F
:10179000C6FF601CC4B2282CF8DB10BD70B504462F
:1017A0000D460026294620460CF0ACFD0646304684
:1017B00070BD10B50446E5480078022803D1EC4915
:1017C000ECA00CF0EDFB24B164220021E84800F00D
:1017D000D1FF10BD2DE9F0419AB005460E461446E2
:1017E0000027642168460CF049FEB8460020E34912
:1017F00008802A46DFA168460CF0DEFB07F0F2FF06
:1018000080466846FFF7E1F8404607F0EFFFBEB1BB
:10181000B4B10EE019A9D648FFF7EAF83146D4482A
:10182000FFF7BCFF00B108E064220021D04800F0BF
:10183000A1FF601E80B20400ECD100BF04B90127F3
:1018400038461AB0BDE8F0812DE9F0419AB005465E
:101850000E460024642168460CF010FE3746A04670
:101860000020C64908802A46C2A168460CF0A4FBA5
:1018700007F0B8FF80466846FFF7A7F8404607F034
:10188000B5FF3EE0781E87B219A9B948FFF7B0F856
:10189000BBA1B7480CF036FD0446002C31D0B9A1ED
:1018A000B3480CF02FFD0446002C2AD0A74800783E
:1018B000022803D1AE49AFA00CF072FBB3A1AC4833
:1018C0000CF020FD044644B164220021A84800F039
:1018D00051FF20461AB0BDE8F081AFA1A4480CF03A
:1018E00011FD044634B164220021A14800F042FFFA
:1018F0002046EFE7642200219D4800F03BFF0020D6
:10190000E8E7002FBED164220021994800F032FFA1
:101910002046DFE710B542F2107000F000FF0A2405
:101920008A480078022802D19DA00CF039FB17E00C
:10193000601EC4B24FF4967000F0F1FE8348007848
:10194000022802D196A00CF02BFB4CB90A24FFF719
:101950000DFF4FF4FA7000F0E2FE00F015FF07E013
:101960004FF4967286A190A0FFF734FF0028DFD1D4
:1019700000BF0120FFF71DFF74480078022802D144
:101980008AA00CF00DFB4FF47A727DA189A0FFF7BD
:1019900021FF4FF4FA7000F0C2FE0120FFF709FFAB
:1019A0006A480078022802D184A00CF0F9FA4FF4BA
:1019B000967273A186A0FFF70DFF4FF4FA7000F046
:1019C000AEFE0120FFF7F5FE60480078022802D144
:1019D00083A00CF0E5FA41F2883284A185A0FFF7DC
:1019E000F9FE4FF4FA7000F09AFE0120FFF7E1FED5
:1019F00056480078022802D181A00CF0D1FA4FF4A9
:101A00007A7282A183A0FFF7E5FE4FF4FA7000F02E
:101A100086FE0120FFF7CDFE4C480078022802D157
:101A20007FA00CF0BDFA4FF47A7280A181A0FFF77D
:101A3000D1FE4FF4FA7000F072FE0120FFF7B9FEFC
:101A400042480078022802D17CA00CF0A9FA4FF499
:101A500096724BA17CA0FFF7BDFE4FF4FA7000F028
:101A60005EFE0120FFF7A5FE38480078022802D16B
:101A700078A00CF095FAC82241A17AA0FFF7AAFE3F
:101A80004FF4FA7000F04BFE0120FFF792FE2F4852
:101A90000078022802D177A00CF082FA40F2DC52E2
:101AA00037A178A0FFF796FE4FF4FA7000F037FEEA
:101AB0000120FFF77EFE10BD00B589B024216846E5
:101AC0000CF0DCFC724A73A168460CF075FA4FF416
:101AD0007A7000F024FE1D480078022802D172A01E
:101AE0000CF05EFA4FF4967225A173A0FFF772FE18
:101AF0004FF4FA7000F013FE0120FFF75AFE13486E
:101B00000078022803D169466FA00CF049FA4FF41F
:101B1000FA721BA16846FFF75DFE4FF4FA7000F001
:101B2000FEFD0120FFF745FE08480078022802D19B
:101B300066A00CF035FA4FF47A7211A167A0FFF796
:101B400049FE4FF4FA70CFE0000802404800002040
:101B50004D3335506F7765724F4E0D0A000000000F
:101B60004D3335506F7765724F66660D0A00000081
:101B7000DC30002025730D0A000000001400002056
:101B80004F4B0000434F4E4E45435400434F4E4E83
:101B9000454354204F4B0000414C524541445900AD
:101BA00041540D0A000000004154000041544530EA
:101BB0000D0A0000415445300000000041542B49FB
:101BC00050523D31313532303026570D0A00000079
:101BD00041542B4950523D31313532303026570077
:101BE00041542B4350494E3F0D0A00002B435049AE
:101BF0004E00000041542B4350494E3F000000006E
:101C000041542B435245473F0D0A00002B43524598
:101C10004700000041542B435245473F000000005D
:101C200041542B4353510D0A000000002B435351E4
:101C30000000000041542B435351000041542B43FA
:101C40004D47463D310D0A0041542B434D47463D1B
:101C50003100000041542B435343533D2247534D21
:101C6000220D0A0041542B435343533D2247534D09
:101C70002200000041542B434E4D493D322C320D81
:101C80000A00000041542B434E4D493D322C320096
:101C90000644002041542B5149435347503D312CB9
:101CA000222573220000000041542B51494647432E
:101CB0004E543D300D0A000041542B5149464743D4
:101CC0004E543D30000000002573000041542B515C
:101CD000494D55583D310D0A0000000041542B512B
:101CE000494D55583D31000000F019FD0120FFF726
:101CF00060FDD5480078022802D1D4A00CF050F93C
:101D00004FF47A72AFF28811D4A0FFF763FD4FF45D
:101D1000FA7000F004FD0120FFF74BFDCA4800787F
:101D2000022802D1D0A00CF03BF94FF49672AFF22A
:101D3000B011D0A0FFF74EFD4FF4FA7000F0EFFCA9
:101D40000120FFF736FD09B000BD2DE9F0479EB038
:101D500005460E461746984603244FF4167A64212A
:101D600005A80CF08BFB00200290039004908146A4
:101D700000BFC348CDE9006750F825304246C1A1F5
:101D800005A80CF019F9B0480078022804D105A97B
:101D9000AFF220200CF004F94FF47A7105A8FFF798
:101DA00053FD8146B9F1000F07D04FF4967000F053
:101DB000B6FC00201EB0BDE8F087601EC4B20CB9AE
:101DC0000120F7E720E040F6B83000F0A8FC4246DA
:101DD000B3A102A80CF0F0F89B480078022804D1C7
:101DE00002A9AFF270200CF0DBF841F28832AFF2BA
:101DF000702102A8FFF7EEFC4FF4FA7000F08FFCA0
:101E00000120FFF7D6FCB4E7002CDCD1642000F001
:101E100086FC0120CEE7F0B599B005460E46144683
:101E20000027642168460CF029FB2A46AFF2BC214A
:101E300068460CF0C1F86846FEF7C7FD96B18CB154
:101E400009E00A2300221146104607F007F99848D6
:101E5000007800B103E0601E80B20400F1D100BF41
:101E600004B90127002092490870384619B0F0BD26
:101E70002DE9F04106468FA130460CF043FA0746A3
:101E800057B171480078022803D131468AA00CF07E
:101E900087F801208649087089A130460CF032FA93
:101EA000044684B168480078022803D1314682A0F4
:101EB0000CF076F884A130460CF024FA054615B1F2
:101EC000012083490870BDE8F081F0B585B0064671
:101ED0000D461746684608B905B0F0BD142200212A
:101EE000684600F047FC2B463A467AA168460CF05B
:101EF00063F855480078022807D170A00CF050F81C
:101F00006946AFF290300CF04BF84FF4487269A17B
:101F10006846FFF780FFA0B94B48007802280CD133
:101F200066A00CF03DF8002405E0315D6DA00CF0DA
:101F300037F8601CC4B2AC42F7DB29463046FEF7E6
:101F400025FD0A2000F0EBFB00BFC5E770B5044695
:101F5000002506E00A2000F0E2FB5D48007800B1B1
:101F600003E0601E80B20400F4D100BF0020584995
:101F7000087004B90125284670BDF0B599B0044633
:101F80000F460025642168460CF078FA002657A118
:101F900020460CF0B7F9054615B92046FFF768FF53
:101FA00019B0F0BD10B50124FFF7CEFBFFF7B2FC6E
:101FB000FFF782FD504991F83400002301F112022D
:101FC000891CFFF7C2FE044614B901204B49087072
:101FD000204610BDF8B54A480078052190FBF1F085
:101FE000C5B24748007890FBF1F201FB1200C6B27F
:101FF0009EB901240DE0052322462946684607F0D4
:10200000A7FD00229DF800103E48FFF75EFF601C10
:10201000C4B2681C8442EEDB12E001240DE03346BA
:102020002246691C684607F093FD00229DF80010C7
:102030003448FFF74AFF601CC4B2A81C8442EEDBA0
:10204000012031490870F8BD4800002041542B514F
:10205000494D4F44453D300D0A00000041542B517D
:10206000494D4F44453D300041542B514953544153
:10207000540D0A0041542B5149535441540000005F
:102080002800002041542B51494F50454E3D2564B6
:102090002C222573222C222573222C25730000006C
:1020A00041542B5149434C4F53453D25640000009A
:1020B000320000203E0000000D0A25730D0A0000CA
:1020C00053454E440000000053454E44204F4B0002
:1020D0003300002041542B514953454E443D256463
:1020E0002C25640025303258000000002B52454357
:1020F0004549564500000000EE4300203100002015
:1021000098550020385400204B00002010B50024C2
:102110000020D44908604FF090000BF03AFD0020F9
:102120000BF037FD00200BF034FD00200BF031FDEB
:10213000FF200BF02EFD44EA0024FF200BF029FDC8
:1021400004430120C849C1F8A802204610BD1CB5AF
:1021500001210A2002F02AFA4FF480600090012049
:102160008DF8040000208DF8060003208DF805008E
:1021700001208DF807006946BC4801F079FF012075
:10218000B84908600BF01EFD00200BF078FDFFF74A
:10219000BDFFB74908801CBD10B500240020B1491F
:1021A00008604FF005000BF0F4FCFF200BF0F1FC91
:1021B00004460120AC49C1F8A802204610BD10B564
:1021C00004460020A74908604FF001000BF0E1FC35
:1021D00020460BF0DEFC0120A349C1F8A80210BD87
:1021E00010B500209F4908604FF006000BF0D1FCAD
:1021F00001209D49C1F8A80210BD10B500209949E1
:1022000008604FF004000BF0C4FC01209649C1F8AF
:10221000A80210BD2DE9F04106460C4617460020E5
:10222000904908604FF003000BF0B3FCC4F3074083
:102230000BF0AFFCC4F307200BF0ABFCE0B20BF0EB
:10224000A8FC002505E0FF200BF0A3FC7055681CDE
:1022500085B2BD42F7DB012082490860BDE8F0810C
:1022600010B500BFFFF798FF10F0010FFAD110BDB5
:102270002DE9F04106460C461746FFF7B1FF002056
:10228000784908604FF002000BF083FCC4F307406C
:102290000BF07FFCC4F307200BF07BFCE0B20BF0EB
:1022A00078FC002504E0705D0BF073FC681C85B2BF
:1022B000BD42F8DB01206B490860FFF7D1FFBDE8A4
:1022C000F0812DE9F04107460E461446F0B2C0F504
:1022D0008075AC4200DC254612E02A46314638467D
:1022E000FFF7C6FFAC4200D10BE02F442E44601B29
:1022F00084B2B4F5807F02DD4FF4807500E025469E
:10230000EBE700BFBDE8F08110B504462403FFF7FA
:1023100067FFFFF7A5FF0020524908604FF020003B
:102320000BF037FCC4F307400BF033FCC4F3072079
:102330000BF02FFCE0B20BF02CFC01204A49C1F855
:10234000A802FFF78DFF10BD2DE9F05F81460F4613
:102350001646DFF820B14FEA1738C7F30B0ACAF563
:102360008054A64200DC344644E04FEA08314FF482
:1023700080525846FFF74EFF002508E00AEB0500A3
:102380001BF80000FF2800D003E0681C85B2A542BE
:10239000F4DB00BFA54216DA4046FFF7B5FF002583
:1023A00007E019F8050005EB0A010BF80100681CAD
:1023B00085B2A542F5DB4FEA08314FF4805258460A
:1023C000FFF77FFF04E0224639464846FFF779FFD2
:1023D000A64200D10FE008F101084FF0000AA14425
:1023E0002744301B86B2B6F5805F02DD4FF480547F
:1023F00000E03446B9E700BFBDE8F09F10B5FFF735
:10240000EFFEFFF72DFF0020164908604FF0C700D0
:102410000BF0BFFB01201449C1F8A802FFF720FF11
:1024200010BD10B500200F4908604FF0B9000BF047
:10243000B0FB01200C49C1F8A802032000F044F9C8
:1024400010BD10B50020074908604FF0AB000BF03D
:10245000A0FB01200449C1F8A802032000F034F9D0
:1024600010BD0000A882414200804142000C0240A1
:1024700038000020763200201CB50121FF2002F038
:1024800095F803208DF804008DF8050000208DF8E4
:1024900007004FF6FF70009069462A4801F0E8FDFA
:1024A0006946294801F0E4FD6946284801F0E0FD4D
:1024B0006946274801F0DCFD6946264801F0D8FD51
:1024C0006946254801F0D4FD6946244801F0D0FD55
:1024D0006946234801F0CCFD0021FF2002F066F898
:1024E000012004F0B6F90121084604F0BEF91CBD34
:1024F00010B500241B48048821460420FEF714FF71
:102500000121164801F030FE4FF480410E4801F0E1
:102510002DFE4FF400510C4801F028FE4FF480517D
:10252000094801F023FE4FF40061074801F01EFE48
:102530000D480078022802D10CA00BF031FDFFF706
:102540009BFF10BD00080240000C0240001002403A
:10255000001C024000180240001402400004024027
:1025600000000240EE430020480000200D0A53798D
:102570007374656D2048696265726E617465730D70
:102580000A00000010B502460B460024002103E0BB
:10259000505C4440481CC1B29942F9DBE043C0B2F0
:1025A00010BD2DE9F04107461022002138460BF0FE
:1025B00071FE04462C4800F01BF9002525E0260E8C
:1025C0002948401C10F82500B0421CD1C4F307462E
:1025D0002548401C00EB85004078B04213D1C4F37D
:1025E00007262148401C00EB85008078B0420AD1C4
:1025F000E6B21D48401C00EB8500C078B04202D115
:102600000120BDE8F081681CC5B217480078A842D7
:10261000D5DC210E14480278401C00F82210210C51
:10262000401E0278401C00EB82004170210A0E48D7
:102630000278401C00EB820081700B480278401C3D
:1026400000EB8200C47008480078401C06490870FE
:10265000084600781E2801DB00200870024800F0C0
:10266000D0F80020CDE700007642002010B504F03D
:1026700000FD04F044FE04F017FD10BD70B50446E3
:102680006FF0040001F04FFCE11704EB5171C1F34E
:10269000C701344A1170E11704EB5171CD1041F2BA
:1026A000883045430520304908804FF0E02000691C
:1026B00040F002004FF0E0210861084645610069E2
:1026C00040F00100086170BD2DE9F0470746002683
:1026D0004FF0E020D0F814902248007807FB00F873
:1026E00000BF04F019FD4FF0E020856911E04FF0C4
:1026F000E0208469AC420CD0AC4202D2281B0644D4
:1027000003E0A9EB0400284406442546464500D3CF
:1027100000E0ECE700BF04F044FDBDE8F08770B5D1
:10272000044612480078012814D11148007888B96D
:102730000D480088844206DB0B48008894FBF0F5C6
:10274000284606F059FC0848008894FBF0F100FB8D
:10275000114084B24FF47A7104FB01F0FFF7B4FF2B
:1027600070BD00003A0000203C00002096000020D0
:102770008A00002030B5034601E003F8011B140075
:10278000A2F10102F9D130BDB848B94908607047DB
:1027900010B5044641222146B648FEF7A9FC10BDFB
:1027A00070B50446002507F01DF805464122214674
:1027B000B048FEF74CFC284607F018F870BD10B57D
:1027C000044640F6621264212046FFF723FD10BD47
:1027D00070B50446002507F005F8054640F662127C
:1027E00064212046FFF7B0FD284606F0FFFF70BDCC
:1027F00010B50446792240F62A212046FFF70AFD4B
:1028000010BD70B50446002506F0ECFF05467922A0
:1028100040F62A212046FFF797FD284606F0E6FFFE
:1028200070BD10B50446112293492046FFF7F2FC13
:1028300010BD70B50446002506F0D4FF05461122F0
:102840008D492046FFF780FD284606F0CFFF70BD7A
:1028500010B58A48FFF7E5FF8848007C0A281AD09F
:102860004FF41650854908600020087108734873BA
:102870004872072048810C20A1F8070040F2B110EF
:10288000A1F805000120C873142088730A20087479
:102890000846FFF7CEFF10BD0EB579A00BF080FB08
:1028A0007F48FFF775FF7E4890F840000A2834D033
:1028B00064207B4908807BA17948801C0BF07CFB5D
:1028C0007CA1774812300BF077FB7CA17448243050
:1028D0000BF072FB7CA1724818300BF06DFB0120ED
:1028E0006F4981F834000A20C1F83500002081F8D2
:1028F000390081F83A0081F83B000021684880F8EF
:102900003C1080F83D100A20654981F840000846D7
:10291000FFF746FF07F037FF40E06D48FEF7CFFDB9
:102920000A20FFF7FCFE6A48FEF7D2FD684880786F
:1029300067494978664A1278CDE9002102906448D7
:10294000C3798279818863A00BF02AFB5449243132
:102950006AA00BF025FB524A1232A2F110016AA0C4
:102960000BF01EFB4E4918316AA00BF019FB4C48C6
:1029700090F834006A4A52F820106AA00BF010FB5D
:10298000474801886CA00BF00BFB454890F83910C4
:102990006CA00BF005FB6F48FFF711FF404890F863
:1029A0003B006D4908733E4890F83C106A484173FB
:1029B0003B4890F83D1068488173002067490870D3
:1029C0000EBD10B50A2065490870FEF7CFFE4FF422
:1029D000FA70FFF7A4FEFFF7D7FE10BD10B508F0A0
:1029E00071FA5F49086009680868804707F0E7FEE8
:1029F00010BD70B505460E46294890F83900E8B973
:102A000057480068314602692846904701205549D9
:102A100008700EE05249096848698047C4B2042C26
:102A200004D14F4909688868804703E00A20FFF70E
:102A300076FEEFE700BF00204A490870184890F87A
:102A40003900012803D131462846FEF7CFF870BD82
:102A500010B54FF4E130FDF740FFFEF7EFFDFFF753
:102A600076FB0BF015F80BF0B5F910BD0400FA0574
:102A70000CED00E0008007088BFFFF07A05F00203F
:102A80002B574C572D53544D3332463420566572D4
:102A900073696F6E20312E302D300D0A000000005A
:102AA000EE4300203139322E3136382E312E31307E
:102AB0003000000038383838000000003030303046
:102AC0003030303030000000636D6E6574000000FF
:102AD0006C3200202B74696D653D253034642D25E2
:102AE0003032642D2530326420253032643A25306E
:102AF00032643A253032640D0A0000002B534E2018
:102B000025730D0A000000002B6970202573202515
:102B1000730D0A002B61706E2025730D0A000000F2
:102B2000280000202B7463702D756470206D6F6415
:102B3000653A25730D0A00002B68616E64202564D8
:102B40000D0A00002B646174616D6F64652025645B
:102B50000D0A000098550020FC5E0020490000206E
:102B6000440000204C000020014600BF704700BF19
:102B7000FE4A128812F0400FFAD0C2B2FB4B9A8084
:102B8000704710B588B004460121084601F00EFDDB
:102B90000121102001F064FD07220921F44801F011
:102BA000F2FA07220A21F24801F0EDFA4FF4C06070
:102BB000069002208DF81C008DF81D0000208DF875
:102BC0001E0001208DF81F0006A9E94801F050FA07
:102BD00002940020ADF80C00ADF80E00ADF8100026
:102BE000ADF814000C20ADF8120002A9DF4801F086
:102BF00098FE0121DD4801F01CFF4021DB4802F076
:102C000000F8012240F22551D84801F0C8FF2520E4
:102C10008DF8040003208DF805008DF806000120D2
:102C20008DF8070001A801F030F908B010BD10B50B
:102C300004F01FFA40F22551CC4801F0EBFF0028C8
:102C40004AD0CA4801F024FFC4B2CA48007878B11B
:102C5000242C0DD0C848008864283DDAC748C649EE
:102C600009884454C4480088401CC349088033E0A4
:102C70000020C0490870C048008810F4004F2BD1D4
:102C8000BD48008810F4804F0CD00A2C03D00020DF
:102C9000B949088020E0B848008840F40040B649AF
:102CA000088019E00D2C06D1B348008840F480401C
:102CB000B149088010E0B0480088C0F30D00AF496A
:102CC0000C54AD480088401CAB4908800846008879
:102CD000C72801DD0020088004F0E6F910BD70B5BA
:102CE00005460C46042200212846FFF743FD00E07C
:102CF000641C20782028FBD1641C214628460BF058
:102D000013FB70BD01460120704770B505460C46A7
:102D10000020286000E0641C20783D28FBD1641C62
:102D2000214628460BF000FB70BD0146012070478C
:102D30000146012070470146032901D30020704756
:102D40000120FCE70146B1F5FA7F01D3002070476E
:102D5000B1F5C87F01D20020F9E70120F7E701466D
:102D6000032901D3002070470120FCE70146B1F59B
:102D7000966F14D0B1F5166F11D0B1F5965F0ED0E5
:102D8000B1F5165F0BD0B1F5964F08D0B1F5164FDF
:102D900005D0B1F5614F02D0B1F5E13F01D101207D
:102DA00070470020FCE72DE9F04782460E4690462A
:102DB0001C46B146554630460BF0DAFA0746B84590
:102DC00001DDA7EB0408002C00DA0024BC4202DD80
:102DD0000020BDE8F087A14403E019F8010B05F8D5
:102DE000010B5FEA0800A8F10108F6D105F8010B14
:102DF0005046EEE72DE9F84304460E46174698463E
:102E0000002000906D4603E0207828706D1C641C43
:102E100020782D28F8D1641C0A22002168460BF086
:102E200039FA3080032200216846FFF7A3FC6D4683
:102E300003E0207828706D1C641C20782D28F8D1C0
:102E4000641C0A22002168460BF024FA38700A221A
:102E5000002120460BF01EFA88F80000BDE8F88338
:102E60002DE9F04F87B005460E4617469846DDE936
:102E700010AB129C002004900590069001900290E7
:102E800003900DF10409009000E0641C20782028D4
:102E9000FBD1641C05E0207889F80000641C09F16E
:102EA000010920782028F6D1641C3B463246294689
:102EB00001A8FFF79FFF214604A80BF035FA002375
:102EC000022204A96846FFF76EFF0A220021684625
:102ED0000BF0E0F988F800000323022204A96846F9
:102EE000FFF761FF0A22002168460BF0D3F98AF848
:102EF00000000623022204A96846FFF754FF0A22B5
:102F0000002168460BF0C6F98BF8000007B0BDE859
:102F1000F08F2DE9F04F8BB08246142103A80BF0FF
:102F2000ADFA4FF00009C84615A150460BF0EAF97A
:102F300005462DB102201549087015A00BF030F898
:102F400017A150460BF0DEF905462DB104200F49BC
:102F5000087016A00BF024F819A150460BF0D2F916
:102F600005469DB305200949087030E00010014076
:102F70000000024058000020500000202F44002094
:102F80002424646562756720320000004800002038
:102F900044454255475F47534D5F4F4E0D0A000071
:102FA000242464656275672034000000444542555E
:102FB000475F52533438355F4F4E0D0A0000000012
:102FC00024246465627567203500000002E0FAA0E1
:102FD0000AF0E6FFFDA150460BF094F905462DB12D
:102FE0000020FD490870FDA00AF0DAFFFEA150465E
:102FF0000BF088F9054685B110220021FC48FFF747
:10300000B9FB2946FA48FFF76AFEF948801EFFF728
:10301000C7FBF749F7A00AF0C3FFF9A150460BF030
:1030200071F905469DB106220021F1481030FFF7E5
:10303000A1FB2946EE481030FFF751FEEC48801EF8
:10304000FFF7AEFBEA491031EFA00AF0A9FFF1A1AA
:1030500050460BF057F905469DB10C220021E4487B
:103060001630FFF787FB2946E1481630FFF737FE99
:10307000DF48801EFFF794FBDD491631E7A00AF018
:103080008FFFE9A150460BF03DF90546FDB10A223C
:10309000002108A8FFF76EFB294608A8FFF71FFECE
:1030A0000A22002108A80BF0F5F8D149891E0880F2
:1030B0000846FFF775FB0120DD4948730020DD4914
:1030C0000860CB48801E0188DBA00AF069FFDDA103
:1030D00050460BF017F905469DB110220021C44857
:1030E0002230FFF747FB2946C1482230FFF7F7FDA2
:1030F000BF48801EFFF754FBBD492231D3A00AF020
:103100004FFFD5A150460BF0FDF80546002D44D0E9
:10311000D348FEF7D4F91420FFF701FBD048FEF79F
:10312000D7F9CF488078CE494978CD4A1278CDE991
:1031300000210290CA48C37982798188C9A00AF027
:103140002FFFAB492231C1A00AF02AFFA84A103252
:10315000A749CEA00AF024FFA5491631CEA00AF057
:103160001FFFA348801E90F83400CE4A52F820106A
:10317000CDA00AF015FF9E48801E0188CFA00AF05E
:103180000FFF9B48801E90F83910CFA00AF008FF6F
:10319000A8480168D0A00AF003FFD3A150460BF065
:1031A000B1F80546002D34D0D2A150460BF0AAF854
:1031B0000746002F2DD0AA48801C411E831E421DA9
:1031C000CDE901050091011D801CFFF749FEA448CF
:1031D0008078A3494978DFF888C2CDE900109CF8CF
:1031E00000309CF807209CF80610BCF80400FEF79D
:1031F00048F99B4880789A494978994A1278CDE9EC
:10320000002102909648C3798279818895A00AF0BE
:10321000C7FEB9A150460BF075F8054665B1B84830
:10322000007830B90120B6490870B6A00AF0B8FE9F
:1032300002E0B7A00AF0B4FEB9A150460BF062F864
:103240000546D5B10A22002108A8FFF793FA2946BE
:1032500008A8FFF744FD0A22002108A80BF01AF87D
:103260006349891E81F83400084690F834008D4A7D
:1032700052F82010ACA00AF093FEB0A150460BF01B
:1032800041F80546DDB10A22002108A8FFF772FACD
:10329000294608A8FFF723FD0A22002108A80AF002
:1032A000F9FF5349891EC1F835000846FFF778FA3F
:1032B0004F48801ED0F83510A3A00AF071FEA6A1D9
:1032C00050460BF01FF80546DDB10A22002108A880
:1032D000FFF750FA294608A8FFF701FD0A2200214E
:1032E00008A80AF0D7FF4249891E81F8390008462C
:1032F000FFF756FA3E48801E90F8391072A00AF087
:103300004FFE98A150460AF0FDFF0546DDB10A22A6
:10331000002108A8FFF72EFA294608A8FFF7DFFCCE
:103320000A22002108A80AF0B5FF3149891E81F858
:103330003A000846FFF734FA2D48801E90F83A10FC
:103340008BA00AF02DFE8EA150460AF0DBFF04464A
:10335000002C20D02EA00AF023FE8BA00AF020FE25
:103360008DA00AF01DFE8FA00AF01AFE91A00AF0AF
:1033700017FE94A00AF014FE96A00AF011FE98A081
:103380000AF00EFE99A00AF00BFE9CA00AF008FEBF
:103390009EA00AF005FE9FA150460AF0B3FF044626
:1033A000002C08D09EA150460AF0ACFF04460CB198
:1033B00017A03BE145E16EE144454255475F50723D
:1033C0006F746F636F6C5F4F4E0D0A002424646549
:1033D00062756720300000004800002044454255D7
:1033E000475F4F46460D0A002473657469700000FC
:1033F000F04300202B49502025730D0A00000000E7
:1034000024736574706F74002B504F5254202573D1
:103410000D0A00002473657461706E002B41504EDC
:103420002025730D0A00000024736574686E640023
:1034300040550020540000202B48414E4420256474
:103440000D0A000024736574736E00002B534E2028
:1034500025730D0A0000000024696E666F000000ED
:103460006C3200202B74696D653D253034642D2548
:103470003032642D2530326420253032643A2530D4
:1034800032643A253032640D0A0000002B69702046
:1034900025732025730D0A002B61706E2025730D96
:1034A0000A000000280000202B7463702D756470E2
:1034B000206D6F64653A25730D0A00002B68616EFC
:1034C000642025640D0A00002B646174616D6F64D3
:1034D000652025640D0A00002B6A697368696820FD
:1034E00025640D0A000000002473657474696D651D
:1034F000000000002D000000247265736574000058
:10350000490000202B5265736574204F6B0D0A0033
:103510002B5265736574204572726F720D0A00003C
:1035200024746370000000002B7463702D75647048
:10353000206D6F64653A2025730D0A00247365744D
:1035400064656C61797400002B64656C61797469E1
:103550006D652025640D0A002473657464617461CF
:103560006D6F640024736574776F726B6D6F6400A8
:103570002B776F726B6D6F64652025640D0A0000F8
:1035800041542B2B0000000041542B53584244411E
:1035900054450D0A0000000041542B53585041522D
:1035A0000D0A000041542B535852465246450D0A0D
:1035B0000000000041542B535852464D4F44450DD6
:1035C0000A00000041542B535852464641430D0A0D
:1035D0000000000041542B5358524642570D0A0038
:1035E00041542B5358435449440D0A0041542B5322
:1035F000584E455449440D0A0000000041542B53D5
:1036000058504F5745520D0A000000000D0A2B4F2D
:103610004B0D0A0041542B5358424441544500007D
:1036200041542B535842444154453F000AF0B8FCE2
:10363000FD480168FDA00AF0B3FCAFF230000AF0CB
:10364000AFFCFEA150460AF05DFE04461CB3514695
:1036500003A8FFF75AFB0A22002103A80AF01AFE6A
:1036600080464046FFF782FB06466EB1EE48C0F842
:103670000080FFF7DEF8AFF268200AF091FCAFF2AD
:1036800074000AF08DFC06E0AFF27C200AF088FCA2
:10369000EDA00AF085FCEFA150460AF033FE044687
:1036A000002C3AD0EEA150460AF02CFE04465CB144
:1036B000E7A00AF075FCDC480179ECA00AF070FC88
:1036C000AFF2B8000AF06CFCEBA150460AF01AFE0B
:1036D000044614B3514603A8FFF717FB0A22002142
:1036E00003A80AF0D7FD80464046FFF738FB0646A0
:1036F0006EB1CD4981F804800846FFF79AF8D4A04E
:103700000AF04EFCAFF2FC000AF04AFC05E0D0A043
:103710000AF046FCCCA00AF043FCDAA150460AF0BD
:10372000F1FD0446002C3BD0D9A150460AF0EAFD39
:10373000044664B1C6A00AF033FCBB48B0F80510DB
:10374000D6A00AF02DFCAFF23C100AF029FCD7A15C
:1037500050460AF0D7FD044614B3514603A8FFF7BC
:10376000D4FA0A22002103A80AF094FD80464046BC
:10377000FFF7E8FA06466EB1AB49A1F805800846A6
:10378000FFF757F8B2A00AF00BFCAFF280100AF076
:1037900007FC05E0AEA00AF003FCABA00AF000FCB9
:1037A000C5A150460AF0AEFD0446002C3AD0C5A192
:1037B00050460AF0A7FD04465CB1A5A00AF0F0FB54
:1037C0009948417AC3A00AF0EBFBAFF2C0100AF0AF
:1037D000E7FBC4A150460AF095FD044614B35146D8
:1037E00003A8FFF792FA0A22002103A80AF052FD6B
:1037F00080464046FFF79FFA06466EB18A4981F837
:1038000009800846FFF715F891A00AF0C9FBAFF24E
:1038100004200AF0C5FB05E08DA00AF0C1FB8AA0D8
:103820000AF0BEFBB3A150460AF06CFD0446002C22
:103830003BD0B3A150460AF065FD044664B184A0B4
:103840000AF0AEFB7848B0F80710B0A00AF0A8FB69
:10385000AFF248200AF0A4FBB0A150460AF052FD96
:10386000044614B3514603A8FFF74FFA0A22002179
:1038700003A80AF00FFD80464046FFF759FA0646B6
:103880006EB16949A1F807800846FEF7D2FF70A023
:103890000AF086FBAFF28C200AF082FB05E06CA0F8
:1038A0000AF07EFB68A00AF07BFB9FA150460AF05D
:1038B00029FD0446002C3AD09EA150460AF022FD74
:1038C00004465CB162A00AF06BFB574841899CA09A
:1038D0000AF066FBAFF2CC200AF062FB9CA15046D6
:1038E0000AF010FD044614B3514603A8FFF70DFA81
:1038F0000A22002103A80AF0CDFC80464046FFF7CB
:1039000014FA06466EB14849A1F80A800846FEF747
:1039100090FF4FA00AF044FBAFF210300AF040FBDA
:1039200005E04BA00AF03CFB47A00AF039FB8BA155
:1039300050460AF0E7FC0446002C3AD08BA15046D2
:103940000AF0E0FC04465CB141A00AF029FB3648CD
:10395000817B8AA00AF024FBAFF250300AF020FBF2
:103960008AA150460AF0CEFC044614B3514603A87F
:10397000FFF7CBF90A22002103A80AF08BFC80464E
:103980004046FFF7BFF906466EB1274981F80E8021
:103990000846FEF74EFF2EA00AF002FBAFF294306D
:1039A0000AF0FEFA05E02AA00AF0FAFA26A00AF0C8
:1039B000F7FA7AA150460AF0A5FC04466CB124A09F
:1039C0000AF0EEFA09F05FF88346594676A00AF04D
:1039D000E7FAAFF2C8300AF0E3FA77A150460AF0EE
:1039E00091FC0746F7B10A22002108A8FEF7C2FEA3
:1039F000394608A8FFF773F91022002108A80AF039
:103A000049FC81464FEA19406F4908734FEA192172
:103A10006D48417380F80E90007B6C4981F83B0043
:103A20006948D5E0E2E00000A05F00202B53584237
:103A3000444154453A25640D0A00000041542B537B
:103A40005842444154453D000D0A2B4552524F52B5
:103A50000D0A000041542B53585041520000000001
:103A600041542B53585041523F0000002B535850A3
:103A700041523A25640D0A0041542B53585041528B
:103A80003D00000041542B53585246524645000019
:103A900041542B535852465246453F002B535852DF
:103AA000465246453A25640D0A00000041542B5306
:103AB0005852465246453D0041542B535852464DAC
:103AC0004F44450041542B535852464D4F44453FB7
:103AD000000000002B535852464D4F44453A256490
:103AE0000D0A000041542B535852464D4F44453D5A
:103AF0000000000041542B535852464641430000F9
:103B000041542B535852464641433F002B53585281
:103B1000464641433A25640D0A00000041542B53A8
:103B20005852464641433D0041542B535852464259
:103B30005700000041542B5358524642573F000053
:103B40002B5358524642573A25640D0A0000000094
:103B500041542B5358524642573D000041542B5379
:103B6000585246504F5745520000000041542B53C5
:103B7000585246504F5745523F0000002B53585261
:103B800046504F5745523A25640D0A0041542B5375
:103B9000585246504F5745523D00000041542B5358
:103BA0005852464353513F002B53585246435351AA
:103BB0003A2D25640D0A00002473657463656E74E4
:103BC0006572696400000000FC5E0020EE43002086
:103BD000417B634880F83C106248817B604880F8F4
:103BE0003D10FEF7DDFD60A00AF0DAF963A1504652
:103BF0000AF088FB0746AFB10A22002108A8FEF7A9
:103C0000B9FD394608A8FFF76AF81022002108A874
:103C10000AF040FB8146C9F307461FFA89F1304696
:103C200006F07DFD58A150460AF06CFB074627B10F
:103C300006F0A9FD58A00AF0B3F95CA150460AF0BD
:103C400061FB07462FB103205B4908705BA00AF0B7
:103C5000A7F95DA150460AF055FB07462FB1012098
:103C60005C4908705CA00AF09BF95EA150460AF01E
:103C700049FB0746A7B10A22002108A8FEF77AFDF2
:103C8000394608A8FFF72BF808A8FEF78AFC064675
:103C90001EB157A00AF084F902E05AA00AF080F998
:103CA0000BB0BDE8F08F30B589B04A4800780028E5
:103CB00023D05948048800250A20FEF730FD5648D5
:103CC0000088844218D1BCB121465448FCF78EFFCD
:103CD00053A00AF065F900BF06E05048415D55A0C9
:103CE0000AF05EF9681C85B2A542F6DB2EA00AF048
:103CF00057F900204849088027E0002500242021AA
:103D000001A80AF0BBFB4448008810F4004F1BD008
:103D1000414805781E2D0FDC00BF0BE03F48005DD9
:103D200001A9085500BF4548008810F0400FFAD09F
:103D3000601CC4B2AC42F1DB00203749088001A905
:103D4000085501A8FFF7E5F800BF09B030BD0146EE
:103D5000012070470146012070470146012070474D
:103D6000EE430020FC5E00202B73657463656E7467
:103D700065726964206F6B0D0A000000247365741E
:103D8000737873656E69640024636C65617273781F
:103D900073656E69640000002B636C6561727378F3
:103DA00073656E6964206F6B0D0A0000247365747F
:103DB0006D33356F6E0000004C0000202B7365746E
:103DC0006D33356F6E0D0A0024746573746C6C6FFF
:103DD0006E000000580000202B746573746C6C6FCB
:103DE0006E0D0A002473657476616C7665696400F3
:103DF00073657476616C76656964206572726F7242
:103E00000D0A000073657476616C766569642073D1
:103E100075636573730D0A00500000202F44002065
:103E200052533438355F53656E645F446174610D7D
:103E30000A00000025303258200000000010014028
:103E40000948804709480047FEE7FEE7FEE7FEE72E
:103E5000FEE7FEE7FEE7FEE7FEE7FEE7044805496A
:103E6000054A064B704700007707000889010008E3
:103E700018620020186800201864002018640020D0
:103E800033490143334A1160704770B50021002364
:103E90000F22C47824B32F4C246804F4E064C4F5E2
:103EA000E064C4F30721C1F10404E3B20A41447899
:103EB0009C40E1B28478144021430C07210E264C2B
:103EC00005786155047804F01F050124AC4005789D
:103ED0006D114FF0E02606EB8505C5F8004109E0BD
:103EE000047804F01F040125A5401C4C06787611C7
:103EF00044F8265070BD1A4A0A400243154B1B1F56
:103F00001A60704739B1134A121D12680243114BEF
:103F10001B1D1A6006E00F4A121D126882430D4BEA
:103F20001B1D1A607047042808D14FF0E021096971
:103F300041F004014FF0E022116107E04FF0E02171
:103F4000096921F004014FF0E0221161704700007F
:103F50000000FA050CED00E000E400E080E100E084
:103F600080FFFF1F10B504469848844208D1012104
:103F7000084600F086FB0021012000F082FB76E07D
:103F80009348844208D10121022000F07AFB0021ED
:103F9000022000F076FB6AE08E48844208D10121BD
:103FA000042000F06EFB0021042000F06AFB5EE0BC
:103FB0008948844208D10121082000F062FB0021D9
:103FC000082000F05EFB52E08448844208D10121C1
:103FD000102000F056FB0021102000F052FB46E0BC
:103FE0007F48844208D10121202000F04AFB0021B3
:103FF000202000F046FB3AE07A48844208D10121B3
:10400000402000F03EFB0021402000F03AFB2EE073
:104010007548844208D10121802000F032FB002144
:10402000802000F02EFB22E07048844208D101215C
:10403000801500F026FB0021A01500F022FB16E001
:104040006B48844208D10121401500F01AFB002181
:10405000601500F016FB0AE06648844207D1012192
:10406000001500F00EFB0021201500F00AFB10BD2A
:10407000F0B50A4600210023002400BF3DE00125E1
:1040800005FA01F3156805EA03049C4234D105687A
:104090004F000326BE40B543056015794E00B5407C
:1040A0000668354305601579012D02D01579022D7A
:1040B00016D185684F000326BE40B543856055790B
:1040C0004E00B540866835438560456801268E40C0
:1040D000B5434560456896798E40B6B23543456034
:1040E000C5684F000326BE40B543C560D5794E0074
:1040F000B540C6683543C560491C1029BFD3F0BD23
:104100004FF6FF7101600021017141718171C17130
:10411000704708B54FF480320092009A0A4300922B
:10412000009AC261C161009AC261C2690092C2690B
:10413000009208BD0246002013690B4201D0012005
:1041400000E0002070470146086980B270470246CF
:10415000002053690B4201D0012000E0002070478D
:104160000146486980B270470183704741837047B8
:104170000AB1018300E041837047416170474269A1
:104180004A4042617047F0B5002300244D07ED0E10
:1041900002FA05F3CE1000F1200555F826504E071F
:1041A000F70E0F26BE40B543CF1000F1200646F8AB
:1041B0002750CE1000F1200555F8265045EA03049B
:1041C000CE1000F1200545F82640F0BD0000024069
:1041D0000004024000080240000C024000100240AF
:1041E0000014024000180240001C0240002002405F
:1041F0000024024000280240F948006840F0010015
:10420000F74908600020F64908310860F448006862
:10421000F4490840F2490860F348091D0860F34872
:10422000EF4984310860F0481038091D0860EC48F7
:10423000006820F48020EA4908600020E8490C3139
:104240000860E7498C31086070470021E44A921CFD
:10425000117011460870704710B501460022002306
:1042600000204A11012A02D1DD4C236808E0022A0D
:1042700003D1DB4C7034236802E0D94C74342368DA
:1042800001F01F02012494401C4201D0012000E0F3
:10429000002010BD38B5002000900024002500BF8C
:1042A0003120FFF7D9FF05460098401C0090009888
:1042B000B0F5A04F01D0002DF2D03120FFF7CCFF98
:1042C00008B1012400E00024204638BD014600204A
:1042D000C34A106820F0F80040EAC100106070473F
:1042E000C349086070470021BD4A703211701170D7
:1042F000012802D004280AD104E00121B84A703212
:10430000117005E00521B64A7032117000E000BF5F
:1043100000BF7047B7490860704770B5049C41EA18
:1043200082150126C6EB530645EA0645054345EAD4
:104330000465AB4E361D356070BDAD4908667047EB
:10434000820142EA0172A64B84331A607047A84981
:104350008866704710B5830143EA016343EA02733C
:104360009F4C8834236010BDA14908677047A0495D
:10437000C864704702460020994B0833186820F043
:10438000EC6042EA01031843954B0833186070470C
:1043900002460020924B0833186820F0784042EA29
:1043A000010318438E4B0833186070470146002004
:1043B0008B4A0832106820F00300084310607047F1
:1043C00087480830006800F00C0070470146002064
:1043D000834A0832106820F0F000084310607047EC
:1043E000014600207E4A0832106820F4E05008435D
:1043F0001060704701460020794A0832106820F4A6
:10440000604040EAC10010607047F0B50021002212
:104410000024022500260223714F08373F6807F069
:104420000C0121B1042905D0082937D105E0724FCC
:10443000076036E0714F076033E0694F3F1D3F680A
:10444000C7F38056664F3F1D3F6807F03F036EB1CC
:104450006A4FB7FBF3F7DFF888C10CF1040CDCF806
:1044600000C0CCF3881C07FB0CF40CE0624FB7FBD8
:10447000F3F7DFF86CC10CF1040CDCF800C0CCF3EE
:10448000881C07FB0CF4564F3F1D3F68C7F30147DC
:104490007F1C7D00B4FBF5F7076002E0564F076014
:1044A00000BF00BF4E4F08373F6807F0F001090911
:1044B000534F7A5C0768D7404760494F08373F68D9
:1044C00007F4E051890A4E4F7A5C4768D74087600D
:1044D000434F08373F6807F46041490B484F7A5C07
:1044E0004768D740C760F0BD002100F44072B2F5C4
:1044F000407F0AD13A4A0832116821F4F811414A42
:1045000002401143364A08321160354A703212684F
:10451000C0F30B031A43324B70331A6070473549AE
:10452000443908607047334940390860704736495C
:104530000860704701460020294A8C32106820F03C
:104540001F004A1E1043264A8C32106070470146F5
:104550000020234A8C32106820F4F8504A1E40EAAA
:1045600002201F4A8C3210607047014600201C4A0E
:104570008C32106820F440100843106070470146E8
:104580000020174A8C32106820F440000843106065
:10459000704701460020124A8C32106820F44030E7
:1045A00008431060704719490860704739B10C4AD8
:1045B0003032126802430A4B30331A6006E0084A70
:1045C000303212688243064B30331A607047F9B1BB
:1045D000034A343212680243014B34331A601CE040
:1045E00000380240FFFFF6EA1030002400300020BF
:1045F00000004742800E47420024F40040787D01CD
:1046000060000020FFFCFF0F5C014742E0114742C1
:104610008F4A126882438E4B1A60704739B18C4AB8
:10462000121D126802438A4B1B1D1A6006E0884A5D
:10463000121D12688243864B1B1D1A60704739B1E8
:10464000834A0C3212680243814B0C331A6006E035
:104650007F4A0C32126882437D4B0C331A607047DC
:1046600039B17B4A103212680243794B10331A6019
:1046700006E0774A103212688243754B10331A6095
:10468000704739B1724A243A12680243704B243B96
:104690001A6006E06E4A243A126882436C4B243B4F
:1046A0001A60704739B16A4A203A12680243684B6F
:1046B000203B1A6006E0664A203A12688243644B47
:1046C000203B1A60704739B1614A1C3A12680243B4
:1046D0005F4B1C3B1A6006E05D4A1C3A126882433D
:1046E0005B4B1C3B1A60704739B1594A143A126847
:1046F0000243574B143B1A6006E0554A143A1268BD
:104700008243534B143B1A60704739B1504A103AF8
:10471000126802434E4B103B1A6006E04C4A103AB6
:10472000126882434A4B103B1A60704739B1484ABD
:104730001C3212680243464B1C331A6006E0444A9E
:104740001C3212688243424B1C331A60704739B1E5
:104750003F4A2032126802433D4B20331A6006E084
:104760003B4A203212688243394B20331A6070472B
:1047700039B1374A243212680243354B24331A6068
:1047800006E0334A243212688243314B24331A60E4
:10479000704739B12E4A2C32126802432C4B2C330D
:1047A0001A6006E02A4A2C3212688243284B2C33C6
:1047B0001A60704739B1264A303212680243244BDE
:1047C00030331A6006E0224A303212688243204BAE
:1047D00030331A607047012808D11D493C310968FF
:1047E00041F008011A4A3C32116007E018493C3197
:1047F000096821F00801164A3C321160704739B14E
:10480000134A273A12780243114B273B1A7006E0ED
:104810000F4A273A127882430D4B273B1A70704794
:104820000B484030006840F0807009494031086012
:10483000704701460020064A283A12680A4201D011
:10484000012000E0002070470149263908707047B8
:104850003438024010B50446FA48844208D1012198
:104860001020FFF752FF00211020FFF74EFF57E006
:10487000F548844209D101214804FFF735FF0021A2
:104880004FF40030FFF730FF4AE0F048844209D18E
:1048900001218804FFF728FF00214FF48020FFF753
:1048A00023FF3DE0EA48844209D10121C804FFF713
:1048B0001BFF00214FF40020FFF716FF30E0E54812
:1048C000844209D101210805FFF70EFF00214FF4B2
:1048D0008010FFF709FF23E0DF48844208D101215F
:1048E0002020FFF712FF00212020FFF70EFF17E026
:1048F000DA48844209D101218807FFF7F5FE00213B
:104900004FF08040FFF7F0FE0AE0D548844207D11F
:1049100001214005FFF7E8FE00216005FFF7E4FEF6
:1049200010BD2DE9FF4705460E460024A14600BFF5
:10493000A046B08900B100BF2C8A24F44054F0880E
:1049400004432C82AC8941F20C608443B0883189E5
:104950000843718908430443AC81AC8A24F4407451
:10496000B0890443AC826846FFF74FFDB5488542E5
:1049700002D0B948854202D1DDF80C9001E0DDF8A3
:104980000890A88910F4004F08D009EBC90000EB8B
:10499000091031684900B0FBF1F707E009EBC900E5
:1049A00000EB091031688900B0FBF1F76420B7FB18
:1049B000F0F004012009642101FB1078A88910F4AB
:1049C000004F08D0322000EBC800B0FBF1F000F03F
:1049D0000700044308E0322000EB08106421B0FB1C
:1049E000F1F000F00F0004432C81BDE8FF874FF485
:1049F0001651016000218180C18001810C2141811B
:104A000000218181704710B502460020108A20F4F1
:104A100070600B884C8823438C882343CC882343C5
:104A20001843108210BD0021018041808180C18027
:104A3000704721B1828942F40052828104E0828968
:104A40004DF6FF731A4082817047028B02F47F4259
:104A50000283028B0A430283704721B1828942F4A8
:104A60000042828103E08289C2F30E028281704794
:104A700021B1828A42F40062828204E0828A4FF28B
:104A8000FF731A4082827047C1F308028280704728
:104A900001468888C0F308007047028A4FF6F07319
:104AA0001A400282028A0A430282704721B1828937
:104AB00042F00202828104E082894FF6FD731A40BF
:104AC0008281704782894FF2FF731A408281828906
:104AD0000A4382817047028A4FF6DF731A400282CE
:104AE000028A0A430282704721B1028A42F480425C
:104AF000028204E0028A4BF6FF731A40028270477A
:104B0000818941F001018181704721B1828A42F09F
:104B10000802828204E0828A4FF6F7731A4082828A
:104B20007047028BD2B20283028B42EA01220283D7
:104B3000704721B1828A42F02002828204E0828A98
:104B40004FF6DF731A408282704721B1828A42F0A9
:104B50001002828204E0828A4FF6EF731A4082824A
:104B60007047828A4FF6FB731A408282828A0A4318
:104B70008282704721B1828A42F00202828204E07E
:104B8000828A4FF6FD731A40828270471AB1838A77
:104B90000B43838202E0838A8B4383827047F0B5A4
:104BA00003460024002600250020A1F510676A3F77
:104BB00000D100BF1846C1F3421401F01F060127BF
:104BC00007FA06F5012C01D10C3004E0022C01D1CA
:104BD000103000E014301AB107682F43076002E07C
:104BE0000768AF430760F0BD02460020B1F5007FC3
:104BF00000D100BF13880B4201D0012000E000204B
:104C0000704701F40072B2F5007F00D100BFCA43C3
:104C10000280704770B50246002400230025002062
:104C2000A1F510666A3E00D100BFC1F3421501F044
:104C30001F03012606FA03F3012D13D19689334091
:104C400017E0000000100140004400400048004010
:104C5000004C00400050004000140140007800402B
:104C6000007C0040022D02D1168A334001E0968A72
:104C700033400C12012606FA04F41688344013B1AE
:104C80000CB1012000E0002070BD10B5002200230F
:104C9000A1F510646A3C00D100BF0A1201249440BF
:104CA000A3B2DC43048010BD10B50446FE48844224
:104CB00008D101210846FFF728FD00210120FFF758
:104CC00024FD9DE0B4F1804F08D101210846FFF793
:104CD0000BFD00210120FFF707FD91E0F34884421E
:104CE00008D101210220FFF7FFFC00210220FFF77D
:104CF000FBFC85E0EE48844208D101210420FFF747
:104D0000F3FC00210420FFF7EFFC79E0E94884423E
:104D100008D101210820FFF7E7FC00210820FFF758
:104D2000E3FC6DE0E448844208D101211020FFF744
:104D3000DBFC00211020FFF7D7FC61E0DF48844254
:104D400008D101212020FFF7CFFC00212020FFF710
:104D5000CBFC55E0DA48844208D101210220FFF75C
:104D6000D4FC00210220FFF7D0FC49E0D548844262
:104D700009D101210804FFF7C8FC00214FF480305D
:104D8000FFF7C3FC3CE0D048844209D1012148042C
:104D9000FFF7BBFC00214FF40030FFF7B6FC2FE01B
:104DA000CA48844209D101218804FFF7AEFC0021E2
:104DB0004FF48020FFF7A9FC22E0C548844208D1C7
:104DC00001214020FFF790FC00214020FFF78CFCE0
:104DD00016E0C048844208D101218020FFF784FCFE
:104DE00000218020FFF780FC0AE0BB48844207D105
:104DF00001218015FFF778FC0021A015FFF774FC56
:104E000010BD00220288A84B98420ED0AC4B9842AD
:104E10000BD0B0F1804F08D0A44B984205D0A44BE2
:104E2000984202D0A34B984204D14FF68F731A4098
:104E30004B881A43A04B984207D0A04B984204D00D
:104E40004FF6FF431A400B891A4302804B68C36236
:104E50000B880385944B984202D0994B984201D11C
:104E60008B7A03860123838270474FF0FF314160C4
:104E70000021018001814180817270470185828219
:104E800070470A46002101884FF68F73194011437D
:104E90000180704741627047C16270470146486AAD
:104EA00070470146088D704721B1028842F0020226
:104EB000028004E002884FF6FD731A4002807047BA
:104EC00021B1028842F00402028004E002884FF619
:104ED000FB731A400280704721B1028842F08002C1
:104EE000028004E002884FF67F731A400280704708
:104EF00002884FF6F7731A40028002880A43028044
:104F0000704702884FF6FF431A40028002880A4326
:104F10000280704721B1028842F00102028004E061
:104F200002884FF6FE731A400280704770B5002465
:104F300000220023058C4FF6FE7635400584028C56
:104F40008388048B4FF68F752C40B51E2C400D883E
:104F50002C43751E2A408D892A434D882A43524D81
:104F6000A84202D0564DA84213D14FF6F7752A40F9
:104F7000CD892A434FF6FB752A408D882A434FF688
:104F8000FF652B404FF6FF552B400D8A2B434D8A72
:104F90002B43838004838D684563028470BD70B5A4
:104FA000002400220023058C4FF6EF76354005845F
:104FB000028C8388048B48F6FF752C404FF6FF4522
:104FC0002C400D884FF6FF7606EA05252C434FF658
:104FD000DF752A408D8906EA05152A434D8806EAC1
:104FE00005152A43304DA84202D0354DA8421DD1A7
:104FF0004FF67F752A40CD894FF6FF7606EA0515F4
:105000002A434FF6BF752A408D8806EA05152A43C4
:105010004FF6FF352B404FF2FF752B400D8A06EA05
:1050200085052B434D8A06EA85052B43838004833F
:105030008D688563028470BD70B500240022002352
:10504000058C4FF6FF6635400584028C8388848B7F
:105050004FF68F752C404FF6FC752C400D882C4375
:105060004FF6FF552A408D894FF6FF7606EA052553
:105070002A434D8806EA05252A430B4DA84202D053
:105080000F4DA84238D14FF2FF752A40CD894FF617
:10509000FF7606EA05252A434FF6FF352A408D881C
:1050A00006EA05252A4319E00000014000040040FB
:1050B00000080040000C00400010004000140040B8
:1050C000000401400040014000440140004801400C
:1050D00000180040001C0040002000404EF6FF7504
:1050E0002B404DF6FF752B400D8A06EA05152B4324
:1050F0004D8A06EA05152B43838084838D68C5633A
:10510000028470BD70B5002200230024058C4EF689
:10511000FF7635400584038C8488828B48F6FF75C2
:105120002A404FF6FF452A400D884FF6FF7606EAE3
:1051300005252A434DF6FF752B408D8906EA053576
:105140002B434D8806EA05352B43FE4DA84202D07D
:10515000FD4DA84208D14BF6FF752C400D8A4FF645
:10516000FF7606EA85152C43848082838D6805646A
:10517000038470BD00210180418081808160818134
:10518000C18101824182704770B50346002000242E
:105190001846183001258D40ACB21D8CA5431D84E6
:1051A00009B108290AD100EB610005684FF68F7636
:1051B000354005600568154305600FE00D1FC5F318
:1051C0004E052844056848F6FF76354005600568B9
:1051D0004FF6FF7606EA02263543056070BD41634F
:1051E000704781637047C1637047016470470A4626
:1051F0000021018B4FF68F731940114301837047D3
:105200000A460021018B48F6FF7319404FF6FF73E1
:1052100003EA02231943018370470A460021818B68
:105220004FF68F7319401143818370470A4600215E
:10523000818B48F6FF7319404FF6FF7303EA022390
:105240001943818370470A460021018B4FF6F7739B
:1052500019401143018370470A460021018B4FF228
:10526000FF7319404FF6FF7303EA022319430183CA
:1052700070470A460021818B4FF6F773194011439E
:10528000818370470A460021818B4FF2FF731940DA
:105290004FF6FF7303EA02231943818370470A46DE
:1052A0000021018B4FF6FB731940114301837047B6
:1052B0000A460021018B4FF6FF3319404FF6FF736A
:1052C00003EA02231943018370470A460021818BB8
:1052D0004FF6FB7319401143818370470A46002142
:1052E000818B4FF6FF3319404FF6FF7303EA022319
:1052F0001943818370470A460021018B4FF67F7363
:1053000019401143018370470A460021018BC1F304
:105310000E014FF6FF7303EA02231943018370471E
:105320000A460021818B4FF67F7319401143818318
:1053300070470A460021818BC1F30E014FF6FF73BF
:1053400003EA02231943818370470A460021018C36
:105350004FF6FD7319401143018470470A4600213E
:10536000018C4FF6F77319401143018470470A46C8
:105370000021018C4FF6DF7319404FF6FF7303EAEB
:1053800002131943018470470A460021018C4FF62D
:105390007F7319404FF6FF7303EA02131943018428
:1053A00070470A460021018C4FF6FF5319404FF613
:1053B000FF7303EA02231943018470470A46002160
:1053C000018C4FF2FF7319404FF6FF7303EA02237B
:1053D0001943018470470A460021018C4DF6FF7382
:1053E00019404FF6FF7303EA0233194301847047F3
:1053F00030B5002301248C40A3B2048C9C43048468
:10540000048C02FA01F5ADB22C43048430BD30B5F2
:10541000002304248C40A3B2048C9C430484048C99
:1054200002FA01F5ADB22C43048430BD828B4FF2F9
:10543000FF331A408283828B4FF6FF7303EA012306
:105440001A4382837047F0B50C46154600210022AE
:105450000026078C4EF6FF7C07EA0C070784818B39
:10546000028C4FF6FF7707EA043640F6FF473940D3
:105470004FF6FF7707EA052739434FF6FF7707EA2C
:105480000337394345F6FF773A4046F480573A43AD
:1054900081830284F0BD828B4FF6F3731A408283BE
:1054A000828B0A4382837047F0B50C461546002173
:1054B00000220026078C4FF6FF6C07EA0C070784D2
:1054C000818B028C4FF6FF7707EA04264FF60C77A4
:1054D00039404FF6FF7707EA03172F4339434FF25E
:1054E000FF573A4046F480773A4381830284F0BD07
:1054F000028B4FF2FF331A400283028B4FF6FF7389
:1055000003EA01231A4302837047F0B50C4615469F
:10551000002100220026078C4FF6EF7C07EA0C07DB
:105520000784018B028C4FF6FF7707EA041640F6DA
:10553000FF4739404FF6FF7707EA033739434FF605
:10554000FF7703E0000001400004014007EA05275F
:1055500039434FF65F773A4046F010073A430183EC
:105560000284F0BD028B4FF6F3731A400283028B64
:105570000A4302837047F0B50C461546002100220D
:10558000068C4FF6FE773E400684018B028C4FF668
:105590000C7631407E1C06EA03162E4331434FF64B
:1055A000F576324044F00106324301830284F0BDB7
:1055B00070B505460C46208850B92389A2886188B9
:1055C0002846FFF7D8FFE1882846FFF7CBFF25E004
:1055D000208804280AD12389A28861882846FFF7F9
:1055E00094FFE1882846FFF783FF17E0208808280A
:1055F0000AD12389A28861882846FFF755FFE188F0
:105600002846FFF748FF09E02389A28861882846D9
:10561000FFF719FFE1882846FFF708FF70BD00215A
:1056200001804180012181800021C180018170477A
:105630002DE9F04105460C4600260127608808B98F
:10564000022600E00026A088012801D1022700E000
:1056500001272088A0B92389A28861882846FFF7FE
:105660008AFFE1882846FFF77DFF23893A463146C5
:105670002846FFF74AFFE1882846FFF739FF13E085
:105680002389A28861882846FFF73FFFE1882846E2
:10569000FFF72EFF23893A4631462846FFF76BFF76
:1056A000E1882846FFF75EFFBDE8F0810146486BC0
:1056B00070470146886B70470146C86B70470146CA
:1056C000086C70470A884B881A438B881A43CB882A
:1056D0001A430B891A434B891A438B891A43A0F842
:1056E000442070470021018041808180C180018178
:1056F00041818181704731B1B0F8442042F40042C9
:10570000A0F8442005E0B0F84420C2F30E02A0F84F
:105710004420704721B1828842F00402828004E074
:1057200082884FF6FB731A408280704721B18288CD
:1057300042F00102828004E082884FF6FE731A4034
:10574000828070471AB183890B43838102E0838989
:105750008B43838170478182704702460020138A01
:105760000B4201D0012000E000207047CA430282B2
:10577000704730B50246002000230024158A05EA50
:105780000103958905EA010413B10CB1012000E081
:10579000002030BDCA430282704741EA0203A0F8EC
:1057A000483070471AB183890B43838102E08389B3
:1057B0008B438381704721B1828842F00802828046
:1057C00004E082884FF6F7731A408280704701899F
:1057D0004FF6F8721140018170470A460021018995
:1057E0004FF68F73194011430181704730B504465D
:1057F0000D4629462046FFF7F0FF208940F00700BC
:10580000208130BD2DE9F04104460D4616461F4665
:10581000602D06D13B46012231462046FFF775FE3A
:1058200005E03B46012231462046FFF7A4FE29460B
:105830002046FFF7D2FF208940F007002081BDE815
:10584000F08130B50C4600210189C9B24FF6FF75D1
:1058500005EA0325154325432943018130BD2DE980
:10586000F04105460E4617469846002443463A4600
:1058700031462846FFF7E5FF2C894FF6F8700440C3
:1058800044F007044FF68F70044044F070042C81FC
:10589000BDE8F081F0B504460D4616461F463B466E
:1058A000324629462046FFF7CCFF208940F480404D
:1058B0002081F0BD82884FF68F731A4082808288E3
:1058C0000A438280704702894FF6F8731A400281BA
:1058D00002890A430281704702894FF67F731A409A
:1058E000028102890A4302817047F0B50C461546D1
:1058F0001E460021002200230189028B038C4FF6F3
:10590000F877394021434FF6FC473A4040F20117FF
:105910003A434FF6DD773B404FF6FF7707EA06172D
:105920002F433B43018102830384F0BD21B1828870
:1059300042F08002828004E082884FF67F731A4032
:1059400082807047A0F850107047000008B5002210
:10595000009200200021CA22F94B1A6053221A60DB
:10596000F74A183A126822F0A002F54B183B1A6069
:1059700000BFF34A183A126802F02001009A521C44
:105980000092009AB2F5003F01D00029F1D0EC4A14
:10599000183A126812F0200F01D0012000E0002018
:1059A000FF22E74B1A6008BD08B5002200920020D4
:1059B0000021E34A183A126812F0400F1CD1421E2F
:1059C000DF4B183B1A6000BFDD4A183A126802F03C
:1059D0004001009A521C0092009AB2F5803F01D01B
:1059E0000029F1D0D64A183A126812F0400F01D0BF
:1059F000012002E0002000E0012008BD38B50020B1
:105A0000009000240025CA20CD490860532008607A
:105A1000FFF7CAFF00B952E00020C94924390860E5
:105A200042F20110091D0860081D006800F007001F
:105A3000091D086000BFC2481838006800F004045F
:105A40000098401C00900098B0F5803F01D0002CD9
:105A5000F1D0BB481838006810F0040F01D10025C0
:105A60002DE0B7481C3800680020B5491C39086093
:105A70004FF6FF70B24910390860B248091F08603C
:105A80000020AF490C390860091D0860091D086035
:105A9000AB4908310860AA4918310860A84920318B
:105AA0000860091D0860A64918390860A4491C311E
:105AB0000860FFF74BFF08B9002500E00125FF2033
:105AC0009F490860284638BD9D481838006820F076
:105AD00080009B4918390860704730B5044600259E
