:020000040800F2
:1000000038680020A54000087D0600088705000824
:100010007F0600088306000887060008000000002D
:100020000000000000000000000000008B06000837
:100030008D06000800000000999A00085529000864
:10004000BF400008BF400008BF400008B5130008CB
:10005000BF400008BF400008BF400008BF40000884
:10006000BF400008BF400008BF400008BF40000874
:10007000BF400008BF400008BF400008BF40000864
:10008000BF400008BF400008BF400008BF40000854
:10009000BF400008BF400008BF400008BF40000844
:1000A000BF400008BF400008BF400008BF40000834
:1000B000BF4000086DDF0008BF400008BF400008D7
:1000C000BF400008BF400008BF400008BF40000814
:1000D000BF400008272F0008890C0008A50A000867
:1000E000BF40000889130008BF400008BF40000857
:1000F000BF400008BF400008BF400008BF400008E4
:10010000BF400008BF400008BF400008BF400008D3
:10011000BF400008BF400008BF400008BF400008C3
:10012000BF400008BF400008BF400008BF400008B3
:10013000BF400008BF400008BF400008BF400008A3
:10014000BF400008BF400008BF400008BF40000893
:10015000BF400008BF400008BF4000089D080008DD
:10016000BF400008BF400008BF400008BF40000873
:10017000BF400008BF400008BF400008BF40000863
:10018000BF400008BF40000800F002F800F070F81F
:100190000AA090E8000C82448344AAF10107DA45E2
:1001A00001D100F065F8AFF2090EBAE80F0013F0C4
:1001B000010F18BFFB1A43F001031847940901000F
:1001C000B40901000A444FF0000C10F8013B13F091
:1001D000070408BF10F8014B1D1108BF10F8015BA0
:1001E000641E05D010F8016B641E01F8016BF9D193
:1001F00013F0080F1EBF10F8014BAD1C0C1B09D1EA
:100200006D1E58BF01F801CBFAD505E014F8016B5B
:1002100001F8016B6D1EF9D59142D6D370470000ED
:100220000023002400250026103A28BF78C1FBD8FF
:10023000520728BF30C148BF0B60704764290EF0D9
:10024000538078290EF08C8073290EF018830020DB
:1002500070471FB510F02EFA0EF0AEFB0400002020
:1002600000210FF0DDFB401C60601FBD10B510BD0C
:100270000EF0B8FB1146FFF7ECFF00F055F90EF059
:10028000D6FB03B4FFF7F2FF03BC02F0E9FD000068
:10029000002419E00A2002F0B6FBC948007898B1A2
:1002A000C84890F83A00012805D101F075FE0446CF
:1002B0000CB901F089FEC34890F83A0008B901F082
:1002C00083FE0020BE490870E4E700244FE01420BC
:1002D00002F099FBBC480078022848D1B848007861
:1002E000002844D1B74890F83A00012812D1B74805
:1002F000007801280ED10020B449087002F021FDD9
:10030000B3480078022802D1B2A00DF07BFF012093
:10031000AB490870AB4890F83A00A8B9B1480068FA
:10032000401CB0490860A748008800EBC00101EB01
:100330000010AC490968B1EB400F05D10020A94974
:10034000086001209E490870A748007801280ED156
:10035000601CC4B2C82C0AD100240020A349087034
:1003600001F0FEF90320A049087002F0BBF8AEE7E7
:1003700002E00A2002F047FBFBE702E00A2002F05D
:1003800042FBFBE700254AE00A2002F03CFB8E48D6
:10039000007838B96D1CA5F59C40203802D18A49F7
:1003A0000870002588480078012838D1854890F8E1
:1003B0003A0050BB00BF01F0C1F901F0A5FA01F00D
:1003C00075FB804991F83400002301F11202891C69
:1003D00001F0B5FC04461CB901208449087014E002
:1003E00000208249087040F6B83002F00CFB7848D3
:1003F0000078022802D17EA00DF004FF01F0B0F9D0
:1004000041F2707002F0FFFAD5E76E4890F83A00BA
:10041000012801D102F066F802206B490870B3E7A9
:100420008AB0202102A80EF05BF921E00A2002F038
:10043000EAFA6348007808B10AF0BCFD01A902A8F5
:1004400000F0F3FB9DF8040090B16EA00DF0DAFE11
:10045000002406E002A8015D6FA00DF0D3FE601C31
:10046000C4B29DF804008442F4DB65A00DF0CAFE1E
:10047000DCE70AE00A2002F0C6FA03F06CFD5B48F4
:100480000078012801D100F0EEFAF3E703E04FF421
:100490007A7002F0B8FAFAE770B50446002500BF9A
:1004A00007F040F809F0D0FA054607235C4A00211E
:1004B000AFF2270008F087FB06235A4A0021AFF26B
:1004C0004D0008F080FB0523574A0021AFF2AF0032
:1004D00008F079FB0423554A0021AFF2571008F0C9
:1004E00072FB0323524A0021AFF2711008F06BFB3C
:1004F0000223504A0021AFF2871008F064FB082362
:100500004D4A0021AFF23D2008F05DFB09234B4A24
:100510000021AFF2832008F056FB0A2008F0D7FD37
:10052000284609F095FA70BD10B54FF4A06003F0AD
:10053000D9FDA82002F016FA4FF4165002F09DFCE7
:100540004FF4E13000F0C3F901F072F801F0F9FD69
:1005500002F016FB02F0F0FA0DF0CCFB3849086807
:1005600000F036FB00F046FE02F0B1FB06F09BFE09
:100570000A23344A0021AFF2DF0008F024FB06F022
:10058000B9FF002010BD10B52F48046821462FA0E8
:100590000DF038FE2C48001D046821462EA00DF0F9
:1005A00031FE29480830046821462EA00DF02AFEAD
:1005B00025481430046821462DA00DF023FE10BDFF
:1005C0004A0000200E4400204900002023000020A3
:1005D0004800002073797374656D2077616B6575D1
:1005E000700D0A00540000204B0000203100002054
:1005F000495020436F6E6E636574206167696E6554
:100600000D0A000052533438355F526563697665D0
:100610005F446174610D0A002530325820000000EB
:1006200074080020740C002074140020741C002036
:10063000741E0020742000207428002074300020D4
:10064000C05F00207404002028ED00E043465352B0
:100650003A2538580D0A0000484653523A25385872
:100660000D0A0000444653523A2538580D0A00003E
:10067000414653523A2538580D0A0000704700BFD2
:10068000FEE700BFFEE700BFFEE7704770470000CF
:100690000CB50020019000907548006840F480304F
:1006A0007349086000BF7248006800F40030009091
:1006B0000198401C0190009818B90198B0F5A04F1E
:1006C000F1D16B48006810F4003F02D00120009087
:1006D00001E0002000900098012845D16448403096
:1006E000006840F08050624940310860614800680D
:1006F00040F440405F4908605D48083000685C494C
:10070000083108600846006840F400400860084668
:10071000006840F4A05008605748091F0860081F8F
:10072000006840F08070091F086000BF50480068F2
:1007300010F0007FFAD040F20560504908604C4844
:100740000830006820F00300494908310860084675
:10075000006840F00200086000BF454808300068AB
:1007600000F00C000828F8D10CBD10B54448006812
:1007700040F47000424908603D48006840F00100C4
:100780003B49086000203A49083108603848006851
:100790003C490840364908603B48091D0860081F6D
:1007A000006820F48020091F0860002030490C31C7
:1007B0000860FFF76DFF4FF0006031498039086035
:1007C00010BD70B500200022022300240221284D14
:1007D00008352D6805F00C0020B1042806D0082843
:1007E00034D107E0294D2A4E356033E0294D284E9B
:1007F00035602FE01E4D2D1D2D68C5F380541C4D16
:100800002D1D2D6805F03F0154B1224DB5FBF1F5CA
:10081000174E361D3668C6F3881605FB06F209E04A
:100820001A4DB5FBF1F5124E361D3668C6F3881623
:1008300005FB06F20E4D2D1D2D68C5F301456D1CFF
:100840006B00B2FBF3F5124E356003E00F4D104E16
:10085000356000BF00BF064D08352D68C5F3031590
:100860000D4E705D0A4D2D68C540094E356070BD56
:10087000003802400070004019544007003C02401C
:1008800088ED00E0FFFFF6FE103000240024F400A5
:100890000000002040787D010400002010B540F2E7
:1008A00025517B4804F0E8FA80B1794804F022FA37
:1008B000C4B278480088642808DA774875490988FE
:1008C000445474480088401C7249088010BD10B51B
:1008D00088B004460121042003F09AFF0121202062
:1008E00003F0F0FF082206216C4803F07EFD082289
:1008F00007216A4803F079FDC020069002208DF898
:100900001C008DF81D0000208DF81E0001208DF8C0
:100910001F0006A9614803F0DDFC02940020ADF839
:100920000C00ADF80E00ADF81000ADF814000C206E
:10093000ADF8120002A9564804F025F901215448E7
:1009400004F0A9F94021524804F08DFA012240F246
:1009500025514F4804F055FA47208DF80400012036
:100960008DF8050003208DF8060001208DF80700A2
:1009700001A803F0BCFB00204649088008B010BD68
:1009800070B505460E4600240CE000BF40214048EB
:1009900004F05CFA0028F9D0295D3D4804F0A6F97E
:1009A000601CC4B2B442F0DB00BF4021384804F000
:1009B0004DFA0028F9D000203649088070BD10B5E6
:1009C00004460BE02178324804F090F900BF802102
:1009D0002F4804F03BFA0028F9D0641C2078002846
:1009E000F0D110BD2DE9F04107460D4629480678A3
:1009F0000024002028700A2002F005F8254800880D
:100A000086420FD176B100BF04E02348005D38551F
:100A1000601CC4B2B442F8DB1E4800782870002085
:100A20001C490880BDE8F0812DE9F04107460D46DC
:100A3000184806780024002028700A2001F0E3FFFF
:100A40001448008886420CD15EB100BF04E0124811
:100A5000005D3855601CC4B2B442F8DB0D48007824
:100A60002870BDE8F08108B50020009064220021C4
:100A70000B4801F0F3FF69460948FFF7B3FF9DF803
:100A8000000020B19DF80010054801F070FA08BD83
:100A900000140140140000207830002000080240BB
:100AA000DC30002010B540F22551714804F0E4F923
:100AB00080B16F4804F01EF9C4B26E480088642803
:100AC00008DA6D486B49098844546A480088401C1C
:100AD0006849088010BD1CB50121022003F098FE72
:100AE0004FF40040009001208DF8040000208DF8A4
:100AF000060003208DF8050001208DF807006946E7
:100B00005E4803F0E7FB4FF400415C4803F060FCF3
:100B10001CBD10B588B00446554803F0CDFF012137
:100B2000082003F075FE0121880403F0BAFE4FF49B
:100B30004070059002208DF818008DF819000020F3
:100B40008DF81A0001208DF81B0005A94C4803F010
:100B5000C1FB072208214A4803F047FC072209216C
:100B6000474803F042FC01940020ADF80800ADF8BE
:100B70000A00ADF80C00ADF810000C20ADF80E0026
:100B800001A93B4803F0FFFF012240F225513848FC
:100B900004F037F90121364804F07DF8402134484B
:100BA00004F061F927208DF81C0002208DF81D004B
:100BB00003208DF81E0001208DF81F0007A803F008
:100BC00096FA00202B4908802E49086008B010BD15
:100BD00010B50446FFF77FFF2046FFF79AFF10BDD0
:100BE00070B505460E460120264908604FF0000406
:100BF0000CE000BF40211E4804F028F90028F9D07D
:100C0000295D1B4804F072F8601CC4B2B442F0DBEA
:100C100000BF4021164804F019F90028F9D000203F
:100C2000144908801749086070BD2DE9F041074656
:100C30000D46104806880024002028700A2001F084
:100C4000E2FE0C48008886420FD176B100BF04E076
:100C50000948005D3855601C84B2B442F8DB054891
:100C600000882870002003490880BDE8F08100005A
:100C700000480040160000204031002000040240DF
:100C8000000C0240BC82404210B540F2255176482B
:100C900004F0F2F880B1744804F02CF8C4B2734840
:100CA0000078642808DA72487049097844546F481B
:100CB0000078401C6D49087010BD10B588B004461E
:100CC0000121082003F0A4FD0121480403F0E9FDFF
:100CD00007220521674803F088FB072206216548A3
:100CE00003F083FB6020069002208DF81C00032097
:100CF0008DF81D0000208DF81E0001208DF81F00CA
:100D000006A95C4803F0E6FA02940020ADF80C0056
:100D1000ADF80E00ADF81000ADF814000C20ADF8E1
:100D2000120002A9504803F02EFF01214E4803F0A3
:100D3000B2FF40214C4804F096F8012240F22551C0
:100D4000494804F05EF826208DF8040003208DF851
:100D500005008DF8060001208DF8070001A803F0BA
:100D6000C6F908B010BD70B505460E4600240CE06B
:100D700000BF40213C4804F069F80028F9D0295D03
:100D8000394803F0B3FF601CC4B2B442F0DB00BFCB
:100D90004021354804F05AF80028F9D000203349A2
:100DA000087070BD10B504460BE021782E4803F0A2
:100DB0009DFF00BF80212C4804F048F80028F9D09E
:100DC000641C20780028F0D110BD2DE9F0410746C1
:100DD0000D46264806780024002028700A2001F0DD
:100DE00012FE2248007886420FD176B100BF04E09F
:100DF0001F48005D3855601CC4B2B442F8DB1B4884
:100E000000782870002019490870BDE8F0812DE9AC
:100E1000F04107460D46154806780024002028704A
:100E20000A2001F0F0FD1148007886420CD15EB135
:100E300000BF04E00E48005D3855601CC4B2B442E7
:100E4000F8DB0A4800782870BDE8F08108B500207A
:100E5000009064220021084801F000FE694606481F
:100E6000FFF7B3FF08BD000000440040220000204F
:100E7000A4310020000C024008320020A548A649F9
:100E80000860A64808607047A3480C30006840F02E
:100E90000040A1490C310860704700219E4808308D
:100EA000016811F4803F01D00120704711F0100F4C
:100EB00001D00220F9E711F0200F01D00220F4E761
:100EC00011F0400F01D00220EFE711F0800F01D0A8
:100ED0000220EAE70020E8E770B5044600BFFFF70C
:100EE000DCFF0546012D00D005E00A2001F060FD81
:100EF000641E002CF3D100BF04B9FF25284670BD45
:100F000070B5054600248648FFF7E6FF044674BB2B
:100F100081480C30006820F440707F490C31086033
:100F20000846006840F4007008600846006820F039
:100F3000F80008600846006840EAC50008600846F6
:100F4000006840F0020008600846006840F4803005
:100F500008607348FFF7C0FF0446012C07D06E48B5
:100F60000C30006820F002006B490C31086020460C
:100F700070BD70B505460E46FF20FFF7ADFF044675
:100F800004BB65480C30006820F4407062490C31A5
:100F900008600846006840F4007008600846006871
:100FA00040F0010008602E60FF20FFF795FF044627
:100FB000012C07D058480C30006820F00100564939
:100FC0000C310860204670BD014608687047014634
:100FD0005448814201D2002070475348814201D2D7
:100FE0000120F9E75148814201D20220F4E750483C
:100FF000814201D20320EFE74E48814201D2042012
:10100000EAE74D48814201D20520E5E74B4881429D
:1010100001D20620E0E74A48814201D20720DBE7FF
:101020004848814201D20820D6E74748814201D290
:101030000920D1E74548814201D20A20CCE70B20A4
:10104000CAE72DE9F04704460E4617464FF0000860
:101050000025A946B4F1006F02D314F0030F01D0AC
:10106000BDE8F087FFF70AFF2B48001F006820F457
:1010700080602949091F0860254604EB8709344828
:10108000854214D210E02846FFF79EFF401C0AD08C
:101090002846FFF79CFF8246FFF732FF8046B8F1F3
:1010A000000F01D002E02D1D4D45ECD300BFB8F17B
:1010B000000F0BD107E020463168FFF75AFF00B15F
:1010C00003E0241D361D4C45F5D300BF1248001F18
:1010D000006840F480601049091F0860FFF7D4FEE3
:1010E00000BFBDE730B503460C461546002206E0BA
:1010F0001846FFF769FF44F822001B1D521CAA4244
:10110000F6D330BD13B50446012201A92046FFF7EE
:1011100098FF1CBD23016745043C0240AB89EFCD1D
:10112000400D0300004000080080000800C00008D7
:101130000000010800000208000004080000060882
:101140000000080800000A0800000C0800000E0853
:101150000000FF1FF8B504460D4617461E468DF8E1
:1011600000408DF801508DF802708DF803606946DB
:10117000002004F07FFEF8BDF8B504460D46174682
:101180001E468DF802708DF801508DF800608DF8C4
:1011900003406946002004F00BFFF8BDF8B5074690
:1011A0000C4615461E466946002004F0CDFE9DF80B
:1011B000000038709DF8010020709DF80200287032
:1011C0009DF803003070F8BDF8B507460C4615468B
:1011D0001E466946002004F051FF9DF80300387058
:1011E0009DF8010020709DF8020028709DF8000015
:1011F0003070F8BD3EB541F6FF740121080703F0D9
:1012000050FB012005F01BFC002005F08FFAA0F533
:10121000A041503931D0012003F097F904E0601C5F
:1012200084B20A2001F0EFFB412003F047F90028C7
:10123000F5D00CB901203EBD4FF4807003F086FA62
:10124000012003F09EFA7F200190FF2002900020F1
:101250000090684604F073FD002338223B211720DC
:10126000FFF778FF0623052211460E20FFF784FFC3
:1012700045F25001002005F04CFA0020DBE7F0B504
:1012800087B004460D4616461F4600214FF4807075
:1012900004F0CEFF8DF800508DF801608DF80270DB
:1012A00000208DF803008DF810404FF0804003902F
:1012B000002002900098019001AA4FF48071002054
:1012C00004F0FFFE4FF4805005F012FB4FF40030A5
:1012D00005F0A1FB0121080305F09EFA0121080297
:1012E00004F0A6FF4FF40030059000208DF81800A0
:1012F00008208DF8190001208DF81A0005A805F0C6
:1013000019FB2920B8490870022048708870012014
:10131000C870084602F0EBFE07B0F0BD7CB505468C
:101320000C46002005F009F8284604F0E1FF2046AD
:1013300004F0F3FF4FF4804005F0DAFA4FF4800038
:1013400005F069FB0121880305F066FA012004F02D
:10135000F4FF4FF48000009000208DF80400082076
:101360008DF8050001208DF80600684605F0E2FAC8
:1013700003209D4908700220487088700120C870C1
:10138000084602F0B4FE7CBD10B505F0A4FF4FF492
:10139000807005F070FA012805D1000205F07BFA93
:1013A00092A00CF02FFF4FF4003005F034FB05F055
:1013B000ADFF10BD10B505F08EFF4FF4806005F055
:1013C0005AFA012802D1800205F065FA4FF4800034
:1013D00005F021FBFFF7C9F9A82001F0C3FA4FF48B
:1013E000165001F04AFDFFF705FF002004F0A5FFAD
:1013F00001208149087005F089FF10BDF0B5034652
:101400000C461546642093FBF0F0C6B2642093FBB3
:10141000F0F700FB1730C1B2132E02DD01F16400BA
:10142000C1B20846CF1701EB977701EBA707BAB215
:10143000072092FBF0F700FB172082B25719601EBD
:10144000DFF8B8C11CF80000384482B2CF1701EBB6
:101450009777BF10B1EB870703D1032C01DA501E39
:1014600082B2072092FBF0F700FB172082B202B98C
:101470000722D0B2F0BD2DE9F04704460E461746CC
:101480001D46DDE9088900234A4641462846FFF704
:1014900061FE3A4631462046FFF7B0FF8246A4F58A
:1014A000FA61C8B253463A463146FFF765FEBDE8D9
:1014B000F08738B504466B46A21C611C2046FFF736
:1014C0006DFE38BD38B5044604F10803E21DA11DC8
:1014D0006846FFF779FE9DF8000000F5FA6048497C
:1014E000888038BDF0B587B0064600200390049090
:1014F00005900690002507E005F10A00305C3038C1
:1015000003A94855681CC5B20E2DF5DB9DF80C00EB
:101510004FF47A7110FB01F09DF80D1001EBC10240
:1015200002EB011100EB81009DF80E1001EB81012F
:1015300000EB41009DF80F10441831498C809DF854
:1015400011009DF8101001EB810100EB41042C49C2
:101550008C719DF813009DF8121001EB810100EBD6
:1015600041042749CC719DF815009DF8141001EB3A
:10157000810100EB410422490C709DF817009DF891
:10158000161001EB810100EB41041D494C709DF8E0
:1015900019009DF8181001EB810100EB4104184976
:1015A0008C70084680784978154FCDE900103B785B
:1015B000FA79B979B888FFF75EFF124800780228F7
:1015C0000FD138468078394649783A461278CDE9C5
:1015D000002102903846C379827981880AA00CF0F4
:1015E00011FE07B0F0BD000024000020414C415224
:1015F0004D2041210D0A000023000020AE07010804
:101600006C320020480000202B74696D653D253048
:1016100034642D253032642D25303264202530325B
:10162000643A253032643A253032640D0A000000F5
:101630001CB501211E2003F0EBF841200090012091
:101640008DF8040000208DF8060003208DF80500B9
:1016500001208DF807006946344802F03BFE412125
:10166000324802F0B3FE4021304802F0B1FE4FF4A0
:101670000050009001208DF8040000208DF8060035
:1016800003208DF8050001208DF8070069462848E1
:1016900002F020FE4FF40051254802F099FE4FF46D
:1016A0007840009001208DF8040000208DF806009D
:1016B00003208DF8050001208DF8070069461D48BC
:1016C00002F008FE4FF478411A4802F081FE4FF410
:1016D0000060009001208DF8040000208DF80600C5
:1016E00003208DF8050001208DF807006946124897
:1016F00002F0F0FD4FF400610F4802F067FE1CBDE0
:1017000070B505460C4645F2555005F045FA284699
:1017100005F045FA204605F045FA05F046FA05F0D1
:1017200049FA70BD10B505F040FA10BD0004024042
:1017300000080240000C02400010024010B54FF4B7
:101740000051FE4802F042FE40F2DC5001F05BF92D
:10175000FB480078022802D1FAA00CF053FD10BD1E
:1017600010B500244FF40051F44802F031FEF44863
:101770000078022802D1F7A00CF044FD002404E018
:10178000642001F040F9601CC4B2282CF8DB10BDC5
:1017900070B504460D460026294620460CF0E4FEAE
:1017A0000646304670BD10B50446E548007802286C
:1017B00003D1EC49ECA00CF025FD24B164220021FA
:1017C000E84801F04BF910BD2DE9F0419AB005460B
:1017D0000E4614460027642168460CF081FFB84687
:1017E0000020E34908802A46DFA168460CF016FD78
:1017F00008F02AF980466846FFF7E1F8404608F00D
:1018000027F9BEB1B4B10EE019A9D648FFF7EAF83E
:101810003146D448FFF7BCFF00B108E06422002144
:10182000D04801F01BF9601E80B20400ECD100BF6B
:1018300004B9012738461AB0BDE8F0812DE9F0411E
:101840009AB005460E460024642168460CF048FF15
:101850003746A0460020C64908802A46C2A16846ED
:101860000CF0DCFC08F0F0F880466846FFF7A7F8BB
:10187000404608F0EDF83EE0781E87B219A9B94855
:10188000FFF7B0F8BBA1B7480CF06EFE0446002C81
:1018900031D0B9A1B3480CF067FE0446002C2AD021
:1018A000A7480078022803D1AE49AFA00CF0AAFCEB
:1018B000B3A1AC480CF058FE044644B164220021A8
:1018C000A84801F0CBF820461AB0BDE8F081AFA1DE
:1018D000A4480CF049FE044634B164220021A1481A
:1018E00001F0BCF82046EFE7642200219D4801F09A
:1018F000B5F80020E8E7002FBED164220021994806
:1019000001F0ACF82046DFE710B542F2107001F0AC
:101910007AF80A248A480078022802D19DA00CF0A7
:1019200071FC17E0601EC4B24FF4967001F06BF8C2
:1019300083480078022802D196A00CF063FC4CB9D1
:101940000A24FFF70DFF4FF4FA7001F05CF801F084
:101950008FF807E04FF4967286A190A0FFF734FF4E
:101960000028DFD100BF0120FFF71DFF7448007879
:10197000022802D18AA00CF045FC4FF47A727DA1B6
:1019800089A0FFF721FF4FF4FA7001F03CF8012025
:10199000FFF709FF6A480078022802D184A00CF002
:1019A00031FC4FF4967273A186A0FFF70DFF4FF440
:1019B000FA7001F028F80120FFF7F5FE6048007882
:1019C000022802D183A00CF01DFC41F2883284A1D0
:1019D00085A0FFF7F9FE4FF4FA7001F014F801202A
:1019E000FFF7E1FE56480078022802D181A00CF0F2
:1019F00009FC4FF47A7282A183A0FFF7E5FE4FF451
:101A0000FA7001F000F80120FFF7CDFE4C48007895
:101A1000022802D17FA00CF0F5FB4FF47A7280A16E
:101A200081A0FFF7D1FE4FF4FA7000F0ECFF012027
:101A3000FFF7B9FE42480078022802D17CA00CF0E2
:101A4000E1FB4FF496724BA17CA0FFF7BDFE4FF473
:101A5000FA7000F0D8FF0120FFF7A5FE38480078A3
:101A6000022802D178A00CF0CDFBC82241A17AA0B7
:101A7000FFF7AAFE4FF4FA7000F0C5FF0120FFF750
:101A800092FE2F480078022802D177A00CF0BAFB12
:101A900040F2DC5237A178A0FFF796FE4FF4FA70BF
:101AA00000F0B1FF0120FFF77EFE10BD00B589B048
:101AB000242168460CF014FE724A73A168460CF0AB
:101AC000ADFB4FF47A7000F09EFF1D4800780228AD
:101AD00002D172A00CF096FB4FF4967225A173A070
:101AE000FFF772FE4FF4FA7000F08DFF0120FFF750
:101AF0005AFE13480078022803D169466FA00CF003
:101B000081FB4FF4FA721BA16846FFF75DFE4FF4AC
:101B1000FA7000F078FF0120FFF745FE08480078D2
:101B2000022802D166A00CF06DFB4FF47A7211A16D
:101B300067A0FFF749FE4FF4FA70CFE000080240BB
:101B4000480000204D3335506F7765724F4E0D0AB7
:101B5000000000004D3335506F7765724F66660D9B
:101B60000A000000DC30002025730D0A0000000090
:101B7000140000204F4B0000434F4E4E454354008D
:101B8000434F4E4E454354204F4B0000414C52456D
:101B90004144590041540D0A000000004154000026
:101BA000415445300D0A000041544530000000000A
:101BB00041542B4950523D31313532303026570D8A
:101BC0000A00000041542B4950523D31313532302A
:101BD0003026570041542B4350494E3F0D0A000018
:101BE0002B4350494E00000041542B4350494E3F77
:101BF0000000000041542B435245473F0D0A0000AE
:101C00002B4352454700000041542B435245473F68
:101C10000000000041542B4353510D0A0000000006
:101C20002B4353510000000041542B4353510000FB
:101C300041542B434D47463D310D0A0041542B433F
:101C40004D47463D3100000041542B435343533D23
:101C50002247534D220D0A0041542B435343533D19
:101C60002247534D2200000041542B434E4D493D25
:101C7000322C320D0A00000041542B434E4D493D99
:101C8000322C32002644002041542B514943534703
:101C9000503D312C222573220000000041542B516D
:101CA000494647434E543D300D0A000041542B51E4
:101CB000494647434E543D30000000002573000064
:101CC00041542B51494D55583D310D0A000000003B
:101CD00041542B51494D55583D31000000F093FEC1
:101CE0000120FFF760FDD5480078022802D1D4A07A
:101CF0000CF088FA4FF47A72AFF28811D4A0FFF793
:101D000063FD4FF4FA7000F07EFE0120FFF74BFDFB
:101D1000CA480078022802D1D0A00CF073FA4FF420
:101D20009672AFF2B011D0A0FFF74EFD4FF4FA70EB
:101D300000F069FE0120FFF736FD09B000BD2DE976
:101D4000F0479EB005460E461746984603244FF4CA
:101D5000167A642105A80CF0C3FC002002900390C1
:101D60000490814600BFC348CDE9006750F8253094
:101D70004246C1A105A80CF051FAB04800780228EB
:101D800004D105A9AFF220200CF03CFA4FF47A718F
:101D900005A8FFF753FD8146B9F1000F07D04FF4B6
:101DA000967000F030FE00201EB0BDE8F087601E87
:101DB000C4B20CB90120F7E720E040F6B83000F0DB
:101DC00022FE4246B3A102A80CF028FA9B480078F4
:101DD000022804D102A9AFF270200CF013FA41F2EC
:101DE0008832AFF2702102A8FFF7EEFC4FF4FA70D0
:101DF00000F009FE0120FFF7D6FCB4E7002CDCD18F
:101E0000642000F000FE0120CEE7F0B599B0054651
:101E10000E4614460027642168460CF061FC2A46F1
:101E2000AFF2BC2168460CF0F9F96846FEF7C7FD31
:101E300096B18CB109E00A2300221146104607F042
:101E40003FFA9848007800B103E0601E80B20400B9
:101E5000F1D100BF04B9012700209249087038462B
:101E600019B0F0BD2DE9F04106468FA130460CF0C7
:101E70007BFB074657B171480078022803D13146F1
:101E80008AA00CF0BFF901208649087089A130466C
:101E90000CF06AFB044684B168480078022803D13C
:101EA000314682A00CF0AEF984A130460CF05CFB08
:101EB000054615B1012083490870BDE8F081F0B5F1
:101EC00085B006460D461746684608B905B0F0BD10
:101ED00014220021684600F0C1FD2B463A467AA143
:101EE00068460CF09BF955480078022807D170A08D
:101EF0000CF088F96946AFF290300CF083F94FF49A
:101F0000487269A16846FFF780FFA0B94B48007886
:101F100002280CD166A00CF075F9002405E0315DB3
:101F20006DA00CF06FF9601CC4B2AC42F7DB29461F
:101F30003046FEF725FD0A2000F065FD00BFC5E72D
:101F400070B50446002506E00A2000F05CFD5D48FF
:101F5000007800B103E0601E80B20400F4D100BF3D
:101F600000205849087004B90125284670BDF0B515
:101F700099B004460F460025642168460CF0B0FB7A
:101F8000002657A120460CF0EFFA054615B9204669
:101F9000FFF768FF19B0F0BD10B50124FFF7CEFBC5
:101FA000FFF7B2FCFFF782FD504991F8340000239F
:101FB00001F11202891CFFF7C2FE044614B9012088
:101FC0004B490870204610BDF8B54A4800780521F5
:101FD00090FBF1F0C5B24748007890FBF1F201FBAD
:101FE0001200C6B29EB901240DE0052322462946FF
:101FF000684607F0DFFE00229DF800103E48FFF71C
:102000005EFF601CC4B2681C8442EEDB12E0012457
:102010000DE033462246691C684607F0CBFE0022DD
:102020009DF800103448FFF74AFF601CC4B2A81C9A
:102030008442EEDB012031490870F8BD48000020E1
:1020400041542B51494D4F44453D300D0A0000008D
:1020500041542B51494D4F44453D300041542B5183
:1020600049535441540D0A0041542B514953544192
:10207000540000002800002041542B51494F504586
:102080004E3D25642C222573222C222573222C25DB
:102090007300000041542B5149434C4F53453D259B
:1020A00064000000320000203E0000000D0A25738D
:1020B0000D0A000053454E440000000053454E44B5
:1020C000204F4B003300002041542B514953454EC3
:1020D000443D25642C256400253032580000000062
:1020E0002B52454345495645000000000E44002050
:1020F00031000020B8550020585400204B0000202B
:1021000010B500240020D44908604FF090000BF077
:1021100072FE00200BF06FFE00200BF06CFE002022
:102120000BF069FEFF200BF066FE44EA0024FF205E
:102130000BF061FE04430120C849C1F8A802204603
:1021400010BD1CB501210A2002F062FB4FF4806033
:10215000009001208DF8040000208DF80600032077
:102160008DF8050001208DF807006946BC4802F093
:10217000B1F80120B84908600BF056FE00200BF0C2
:10218000B0FEFFF7BDFFB74908801CBD10B50024A5
:102190000020B14908604FF005000BF02CFEFF2035
:1021A0000BF029FE04460120AC49C1F8A8022046E4
:1021B00010BD10B504460020A74908604FF001008B
:1021C0000BF019FE20460BF016FE0120A349C1F8C2
:1021D000A80210BD10B500209F4908604FF006000E
:1021E0000BF009FE01209D49C1F8A80210BD10B5F1
:1021F0000020994908604FF004000BF0FCFD01201D
:102200009649C1F8A80210BD2DE9F04106460C46DA
:1022100017460020904908604FF003000BF0EBFDDB
:10222000C4F307400BF0E7FDC4F307200BF0E3FD18
:10223000E0B20BF0E0FD002505E0FF200BF0DBFD38
:102240007055681C85B2BD42F7DB012082490860E9
:10225000BDE8F08110B500BFFFF798FF10F0010F47
:10226000FAD110BD2DE9F04106460C461746FFF79E
:10227000B1FF0020784908604FF002000BF0BBFD71
:10228000C4F307400BF0B7FDC4F307200BF0B3FD18
:10229000E0B20BF0B0FD002504E0705D0BF0ABFD8B
:1022A000681C85B2BD42F8DB01206B490860FFF76E
:1022B000D1FFBDE8F0812DE9F04107460E461446F6
:1022C000F0B2C0F58075AC4200DC254612E02A462B
:1022D00031463846FFF7C6FFAC4200D10BE02F4431
:1022E0002E44601B84B2B4F5807F02DD4FF480750C
:1022F00000E02546EBE700BFBDE8F08110B50446DD
:102300002403FFF767FFFFF7A5FF0020524908608D
:102310004FF020000BF06FFDC4F307400BF06BFD96
:10232000C4F307200BF067FDE0B20BF064FD012061
:102330004A49C1F8A802FFF78DFF10BD2DE9F05FF3
:1023400081460F461646DFF820B14FEA1738C7F32B
:102350000B0ACAF58054A64200DC344644E04FEA3A
:1023600008314FF480525846FFF74EFF002508E031
:102370000AEB05001BF80000FF2800D003E0681CF2
:1023800085B2A542F4DB00BFA54216DA4046FFF74E
:10239000B5FF002507E019F8050005EB0A010BF869
:1023A0000100681C85B2A542F5DB4FEA08314FF405
:1023B00080525846FFF77FFF04E0224639464846E0
:1023C000FFF779FFA64200D10FE008F101084FF0B6
:1023D000000AA1442744301B86B2B6F5805F02DDB7
:1023E0004FF4805400E03446B9E700BFBDE8F09FE9
:1023F00010B5FFF7EFFEFFF72DFF0020164908602C
:102400004FF0C7000BF0F7FC01201449C1F8A802F7
:10241000FFF720FF10BD10B500200F4908604FF0F6
:10242000B9000BF0E8FC01200C49C1F8A802032018
:1024300000F0BEFA10BD10B50020074908604FF04B
:10244000AB000BF0D8FC01200449C1F8A80203201E
:1024500000F0AEFA10BD0000A88241420080414267
:10246000000C024038000020763200201CB501210B
:10247000FF2002F0CDF903208DF804008DF805004F
:1024800000208DF807004FF6FF70009069462A483B
:1024900001F020FF6946294801F01CFF69462848E1
:1024A00001F018FF6946274801F014FF69462648E5
:1024B00001F010FF6946254801F00CFF69462448E9
:1024C00001F008FF6946234801F004FF0021FF20C6
:1024D00002F09EF9012004F0EEFA0121084604F012
:1024E000F6FA1CBD10B500241B48048821460420C0
:1024F000FEF714FF0121164801F068FF4FF48041F8
:102500000E4801F065FF4FF400510C4801F060FFE8
:102510004FF48051094801F05BFF4FF40061074818
:1025200001F056FF0D480078022802D10CA00BF0F4
:1025300069FEFFF79BFF10BD00080240000C02403F
:1025400000100240001C024000180240001402402B
:1025500000040240000002400E4400204800002019
:102560000D0A53797374656D2048696265726E61F6
:102570007465730D0A00000070B50020BA49087137
:10258000002404E00020B8490855601CC4B2042CA3
:10259000F8DB00240DE0002507E00021B248401DD3
:1025A00000EB84004155681CC5B2042DF5DB601CAE
:1025B000C4B21E2CEFDBAC4800F097FA70BD10B52A
:1025C00002460B460024002103E0505C4440481CB6
:1025D000C1B29942F9DBE043C0B210BD2DE9F04130
:1025E00007461022002138460BF086FF04469E481D
:1025F00000F072FA002525E0260E9B48401D10F8D9
:102600002500B0421CD1C4F307469748401D00EB9B
:1026100085004078B04213D1C4F307269248401D8C
:1026200000EB85008078B0420AD1E6B28E48401DAA
:1026300000EB8500C078B04202D10120BDE8F081F6
:10264000681CC5B288480079A842D5DC210E8648AE
:102650000279401D00F82210210C401F0279401D14
:1026600000EB82004170210A7F480279401D00EB97
:10267000820081707C480279401D00EB8200C470AA
:1026800079480079401C78490871084600791E286D
:1026900001DB00200871744800F027FA0020CDE724
:1026A0002DE9F04105460E461746FF206F49087098
:1026B0004870002405E0295DA01C6C4A1154601C80
:1026C000C4B2042CF7DB69488671002405E00021C0
:1026D000E01D664A1154601CC4B20C2CF7DB0024C8
:1026E00006E0395D04F11300604A1154601CC4B265
:1026F000042CF6DB002406E0002104F117005B4AFD
:102700001154601CC4B2042CF6DB1B215748FFF7A0
:1027100056FF5649C876BDE8F0812DE9FE43804654
:1027200053A140460BF020FF06462EB1012054492C
:10273000087054A00BF066FD56A140460BF014FF44
:102740000646A6B10A220021684600F087F9314604
:10275000684600F040FC6846FFF740FF07461FB19F
:102760004FA00BF04FFD02E052A00BF04BFD56A125
:1027700040460BF0F9FE0646002E35D056A00BF071
:1027800041FD012038490870FF2048700020887002
:10279000C870002421E03449491D01EB84004A1F20
:1027A0002321FFF77DFF51A00BF02CFD002506E053
:1027B0002E48415D52A00BF025FD681CC5B21C2DB2
:1027C000F6DB33A00BF01EFD1C212848FEF708FAAB
:1027D000C82000F018F9601CC4B223480079A04258
:1027E000D9DC49A00BF00EFD4CA140460BF0BCFE1D
:1027F0000646002E35D04DA00BF004FD00201A49EE
:102800000870FF20487000208870C870002421E004
:102810001549491D01EB84004A1F2321FFF740FFA2
:1028200032A00BF0EFFC002506E01048415D34A01B
:102830000BF0E8FC681CC5B21C2DF6DB14A00BF0F5
:10284000E1FC1C210948FEF7CBF9C82000F0DBF8B9
:10285000601CC4B204480079A042D9DC38A00BF057
:10286000D1FCBDE8FE83000076420020F342002048
:10287000247465737476616C762B2B2B000000003A
:10288000580000202B7465737476616C76206F6E2F
:102890000D0A00002473657476616C7665696400C6
:1028A00073657476616C76656964206572726F72A7
:1028B0000D0A000073657476616C76656964207337
:1028C00075636573730D0A002473657476616C76A5
:1028D000616C6C6F6E00000076616C76616C6C20D0
:1028E0006F6E202E2E2E2E2E0D0A000052533438DD
:1028F000355F53656E645F446174610D0A000000CA
:10290000253032582000000076616C76616C6C20B6
:102910006F6E206F6B210D0A000000002473657438
:1029200076616C76616C6C6F6666000076616C76C1
:10293000616C6C206F6666202E2E2E2E2E0D0A00E6
:1029400076616C76616C6C206F6666206F6B210D12
:102950000A00000010B504F0BEFC04F002FE04F012
:10296000D5FC10BD70B504466FF0040001F00DFCFD
:10297000E11704EB5171C1F3C701344A1170E1173B
:1029800004EB5171CD1041F28830454305203049A8
:1029900008804FF0E020006940F002004FF0E02195
:1029A000086108464561006940F00100086170BD9A
:1029B0002DE9F047074600264FF0E020D0F81490AC
:1029C0002248007807FB00F800BF04F0D7FC4FF066
:1029D000E020856911E04FF0E0208469AC420CD022
:1029E000AC4202D2281B064403E0A9EB04002844B1
:1029F00006442546464500D300E0ECE700BF04F05E
:102A000002FDBDE8F08770B5044612480078012841
:102A100014D11148007888B90D480088844206DB3B
:102A20000B48008894FBF0F5284606F017FC084890
:102A3000008894FBF0F100FB114084B24FF47A71EE
:102A400004FB01F0FFF7B4FF70BD00003A00002066
:102A50003C000020960000208A00002030B503468C
:102A600001E003F8011B1400A2F10102F9D130BD0D
:102A7000BB48BC490860704710B504464122214656
:102A8000B948FEF72FFB10BD70B50446002506F0CF
:102A9000DBFF054641222146B348FEF7D2FA28461D
:102AA00006F0D6FF70BD10B5044640F662126421F0
:102AB0002046FFF7A9FB10BD70B50446002506F0BF
:102AC000C3FF054640F6621264212046FFF736FC3C
:102AD000284606F0BDFF70BD10B504467D2240F6C5
:102AE0002A212046FFF790FB10BD70B50446002553
:102AF00006F0AAFF05467D2240F62A212046FFF770
:102B00001DFC284606F0A4FF70BD10B50446112236
:102B100096492046FFF778FB10BD70B504460025A6
:102B200006F092FF0546112290492046FFF706FC69
:102B3000284606F08DFF70BD10B58D48FFF7E5FF04
:102B40008B48007C0A281AD04FF416508849086038
:102B500000200871087348734872072048810C20D0
:102B6000A1F8070040F2B110A1F805000120C873D8
:102B7000142088730A2008740846FFF7CEFF10BDA2
:102B80000EB57CA00BF03EFB8248FFF775FF814835
:102B900090F840000A2836D064207E4908807EA143
:102BA0007C48801C0BF03AFB7FA17A4812300BF076
:102BB00035FB7FA1774824300BF030FB7FA17548AF
:102BC00018300BF02BFB0120724981F834000A20E9
:102BD000C1F83500002081F8390081F83A0081F809
:102BE0003B0000216B4880F83C1080F83D100A2023
:102BF000684981F840000846FFF746FF07F0F5FEF8
:102C0000FFF7BAFC43E06F48FEF753FC0A20FFF7DA
:102C1000FAFE6C48FEF756FC6A48807869494978A4
:102C2000684A1278CDE9002102906648C37982791A
:102C3000818865A00BF0E6FA564924316CA00BF0B0
:102C4000E1FA544A1232A2F110016CA00BF0DAFA48
:102C5000504918316CA00BF0D5FA4E4890F834006A
:102C60006C4A52F820106CA00BF0CCFA494801884D
:102C70006EA00BF0C7FA474890F839106EA00BF021
:102C8000C1FA7148FFF70FFF7048FFF725FF414871
:102C900090F83B006E4908733E4890F83C106C4831
:102CA00041733C4890F83D106948817300206949A0
:102CB00008700EBD10B50A2066490870FEF750FD79
:102CC0004FF4FA70FFF79FFEFFF7D2FE10BD10B56C
:102CD00008F02AFA6049086009680868804707F028
:102CE000A0FE10BD70B505460E462A4890F8390082
:102CF000E8B95948006831460269284690470120E2
:102D0000564908700EE05449096848698047C4B2C2
:102D1000042C04D1504909688868804703E00A20E0
:102D2000FFF771FEEFE700BF00204C49087019481B
:102D300090F83900012803D131462846FDF750FFAD
:102D400070BD10B54FF4E130FDF7C1FDFEF770FC2A
:102D5000FFF7F7F90AF0CEFF0BF06EF910BD000097
:102D60000400FA050CED00E0008007088BFFFF0768
:102D7000C05F00202B574C572D53544D33324634EF
:102D80002056657273696F6E20312E302D300D0A1A
:102D9000000000000E4400203139322E3136382E2A
:102DA000312E313030000000383838380000000053
:102DB000303030303030303030000000636D6E65C0
:102DC000740000006C3200202B74696D653D253065
:102DD00034642D253032642D253032642025303284
:102DE000643A253032643A253032640D0A0000001E
:102DF0002B534E2025730D0A000000002B69702014
:102E000025732025730D0A002B61706E2025730D2C
:102E10000A000000280000202B7463702D75647078
:102E2000206D6F64653A25730D0A00002B68616E92
:102E3000642025640D0A00002B646174616D6F6469
:102E4000652025640D0A0000B85500207642002058
:102E50001C5F002049000020440000204C0000209E
:102E6000014600BF704700BFFE4A128812F0400FB3
:102E7000FAD0C2B2FB4B9A80704710B588B00446B6
:102E80000121084601F0C4FC0121102001F01AFDC7
:102E900007220921F44801F0A8FA07220A21F24882
:102EA00001F0A3FA4FF4C060069002208DF81C00D8
:102EB0008DF81D0000208DF81E0001208DF81F00E8
:102EC00006A9E94801F006FA02940020ADF80C00CA
:102ED000ADF80E00ADF81000ADF814000C20ADF800
:102EE000120002A9DF4801F04EFE0121DD4801F089
:102EF000D2FE4021DB4801F0B6FF012240F225510D
:102F0000D84801F07EFF25208DF8040003208DF8BD
:102F100005008DF8060001208DF8070001A801F0DA
:102F2000E6F808B010BD10B504F0D5F940F225510F
:102F3000CC4801F0A1FF00284AD0CA4801F0DAFECF
:102F4000C4B2CA48007878B1242C0DD0C848008893
:102F500064283DDAC748C64909884454C4480088F3
:102F6000401CC349088033E00020C0490870C048B5
:102F7000008810F4004F2BD1BD48008810F4804F1A
:102F80000CD00A2C03D00020B949088020E0B848B2
:102F9000008840F40040B649088019E00D2C06D1A5
:102FA000B348008840F48040B149088010E0B04840
:102FB0000088C0F30D00AF490C54AD480088401C98
:102FC000AB49088008460088C72801DD002008803A
:102FD00004F09CF910BD70B505460C460422002192
:102FE0002846FFF73BFD00E0641C20782028FBD139
:102FF000641C214628460BF0C9FA70BD0146012029
:10300000704770B505460C460020286000E0641C3F
:1030100020783D28FBD1641C214628460BF0B6FAE7
:1030200070BD0146012070470146012070470146EE
:10303000032901D3002070470120FCE70146B1F5C8
:10304000FA7F01D300207047B1F5C87F01D200207C
:10305000F9E70120F7E70146032901D30020704773
:103060000120FCE70146B1F5966F14D0B1F5166F5B
:1030700011D0B1F5965F0ED0B1F5165F0BD0B1F55A
:10308000964F08D0B1F5164F05D0B1F5614F02D07B
:10309000B1F5E13F01D1012070470020FCE72DE9A7
:1030A000F04782460E4690461C46B146554630468D
:1030B0000BF090FA0746B84501DDA7EB0408002C99
:1030C00000DA0024BC4202DD0020BDE8F087A14404
:1030D00003E019F8010B05F8010B5FEA0800A8F1FD
:1030E0000108F6D105F8010B5046EEE72DE9F8434B
:1030F00004460E4617469846002000906D4603E0B1
:10310000207828706D1C641C20782D28F8D1641C50
:103110000A22002168460BF0EFF9308003220021DB
:103120006846FFF79BFC6D4603E0207828706D1C15
:10313000641C20782D28F8D1641C0A2200216846DE
:103140000BF0DAF938700A22002120460BF0D4F98E
:1031500088F80000BDE8F8832DE9F04F87B00546F8
:103160000E4617469846DDE910AB129C00200490ED
:10317000059006900190029003900DF104090090D3
:1031800000E0641C20782028FBD1641C05E0207836
:1031900089F80000641C09F1010920782028F6D183
:1031A000641C3B463246294601A8FFF79FFF214693
:1031B00004A80BF0EBF90023022204A96846FFF7EC
:1031C0006EFF0A22002168460BF096F988F800008D
:1031D0000323022204A96846FFF761FF0A220021A7
:1031E00068460BF089F98AF800000623022204A938
:1031F0006846FFF754FF0A22002168460BF07CF96D
:103200008BF8000007B0BDE8F08F2DE9F04F8BB0D0
:103210008246142103A80BF063FA4FF00009C84658
:1032200015A150460BF0A0F905462DB10220154915
:10323000087015A00AF0E6FF17A150460BF094F9AC
:1032400005462DB104200F49087016A00AF0DAFFD8
:1032500019A150460BF088F905469DB30520094990
:10326000087030E0001001400000024058000020CB
:10327000500000204F4400202424646562756720BC
:10328000320000004800002044454255475F475344
:103290004D5F4F4E0D0A000024246465627567205F
:1032A0003400000044454255475F52533438355F7F
:1032B0004F4E0D0A000000002424646562756720EB
:1032C0003500000002E0FAA00AF09CFFFDA1504684
:1032D0000BF04AF905462DB10020FD490870FDA00C
:1032E0000AF090FFFEA150460BF03EF9054685B16D
:1032F00010220021FC48FFF7B1FB2946FA48FFF7EE
:103300006AFEF948801EFFF7BFFBF749F7A00AF0F5
:1033100079FFF9A150460BF027F905469DB1062229
:103320000021F1481030FFF799FB2946EE48103094
:10333000FFF751FEEC48801EFFF7A6FBEA4910316B
:10334000EFA00AF05FFFF1A150460BF00DF9054622
:103350009DB10C220021E4481630FFF77FFB29467F
:10336000E1481630FFF737FEDF48801EFFF78CFB81
:10337000DD491631E7A00AF045FFE9A150460BF000
:10338000F3F80546FDB10A22002108A8FFF766FB05
:10339000294608A8FFF71FFE0A22002108A80BF003
:1033A000ABF8D149891E08800846FFF76DFB012064
:1033B000DD4948730020DD490860CB48801E018844
:1033C000DBA00AF01FFFDDA150460BF0CDF805464B
:1033D0009DB110220021C4482230FFF73FFB29464F
:1033E000C1482230FFF7F7FDBF48801EFFF74CFBB6
:1033F000BD492231D3A00AF005FFD5A150460BF0FC
:10340000B3F80546002D44D0D348FEF752F81420F7
:10341000FFF7F9FAD048FEF755F8CF488078CE4943
:103420004978CD4A1278CDE900210290CA48C37983
:1034300082798188C9A00AF0E5FEAB492231C1A09A
:103440000AF0E0FEA84A1032A749CEA00AF0DAFE40
:10345000A5491631CEA00AF0D5FEA348801E90F8EB
:103460003400CE4A52F82010CDA00AF0CBFE9E4880
:10347000801E0188CFA00AF0C5FE9B48801E90F8F0
:103480003910CFA00AF0BEFEA8480168D0A00AF00B
:10349000B9FED3A150460BF067F80546002D33D096
:1034A000D2A150460BF060F80746002F2CD0AA4856
:1034B000801C411E831E421DCDE901050091011DA6
:1034C000801CFFF749FEA4488078A3494978DFF8BB
:1034D00088C2CDE900109CF800309CF807209CF8C9
:1034E0000610BCF80400FDF7C6FF9B4881784078C1
:1034F000994A1278CDE9002002919748C3798279E0
:10350000818896A00AF07EFEB9A150460BF02CF8F7
:10351000054665B1B848007830B90120B649087051
:10352000B6A00AF06FFE02E0B7A00AF06BFEBAA1E7
:1035300050460BF019F80546D5B10A22002108A81B
:10354000FFF78CFA294608A8FFF745FD0A2200215B
:1035500008A80AF0D1FF6449891E81F834000846A2
:1035600090F834008D4A52F82010ADA00AF04AFEBF
:10357000B0A150460AF0F8FF0546DDB10A2200214D
:1035800008A8FFF76BFA294608A8FFF724FD0A22CE
:10359000002108A80AF0B0FF5349891EC1F8350080
:1035A0000846FFF771FA5048801ED0F83510A4A0E5
:1035B0000AF028FEA6A150460AF0D6FF0546DDB166
:1035C0000A22002108A8FFF749FA294608A8FFF7B0
:1035D00002FD0A22002108A80AF08EFF4249891E36
:1035E00081F839000846FFF74FFA3F48801E90F8EF
:1035F000391073A00AF006FE98A150460AF0B4FFF5
:103600000546DDB10A22002108A8FFF727FA29465E
:1036100008A8FFF7E0FC0A22002108A80AF06CFFC6
:103620003149891E81F83A000846FFF72DFA2E48E5
:10363000801E90F83A108CA00AF0E4FD8EA150464E
:103640000AF092FF0446002C20D02FA00AF0DAFDE9
:103650008BA00AF0D7FD8EA00AF0D4FD8FA00AF04F
:10366000D1FD92A00AF0CEFD94A00AF0CBFD97A068
:103670000AF0C8FD98A00AF0C5FD9AA00AF0C2FDA4
:103680009CA00AF0BFFD9FA00AF0BCFD9FA1504680
:103690000AF06AFF0446002C08D09FA150460AF0A9
:1036A00063FF04460CB118A03CE146E16FE1000065
:1036B00044454255475F50726F746F636F6C5F4F44
:1036C0004E0D0A00242464656275672030000000F6
:1036D0004800002044454255475F4F46460D0A00CA
:1036E0002473657469700000104400202B49502039
:1036F00025730D0A0000000024736574706F740058
:103700002B504F52542025730D0A0000247365740A
:1037100061706E002B41504E2025730D0A00000091
:1037200024736574686E64006055002054000020A6
:103730002B48414E442025640D0A00002473657413
:10374000736E00002B534E2025730D0A00000000FD
:1037500024696E666F0000006C3200202B74696D66
:10376000653D253034642D253032642D253032649A
:1037700020253032643A253032643A253032640DE7
:103780000A0000002B69702025732025730D0A00A4
:103790002B61706E2025730D0A00000028000020A8
:1037A0002B7463702D756470206D6F64653A25739A
:1037B0000D0A00002B68616E642025640D0A00006C
:1037C0002B646174616D6F64652025640D0A0000CF
:1037D0002B6A69736869682025640D0A000000007F
:1037E0002473657474696D65000000002D0000008D
:1037F0002472657365740000490000202B526573C4
:103800006574204F6B0D0A002B526573657420455B
:1038100072726F720D0A0000247463700000000061
:103820002B7463702D756470206D6F64653A20256C
:10383000730D0A002473657464656C61797400000B
:103840002B64656C617974696D652025640D0A00CF
:1038500024736574646174616D6F640024736574AE
:10386000776F726B6D6F64002B776F726B6D6F6427
:10387000652025640D0A000041542B2B0000000038
:1038800041542B535842444154450D0A0000000056
:1038900041542B53585041520D0A000041542B53B0
:1038A0005852465246450D0A0000000041542B5321
:1038B0005852464D4F44450D0A00000041542B53C9
:1038C0005852464641430D0A0000000041542B5314
:1038D00058524642570D0A0041542B5358435449FD
:1038E000440D0A0041542B53584E455449440D0A87
:1038F0000000000041542B5358504F5745520D0AB9
:10390000000000000D0A2B4F4B0D0A0041542B53B1
:10391000584244415445000041542B5358424441BD
:1039200054453F000AF06EFCFD480168FDA00AF016
:1039300069FCAFF230000AF065FCFEA150460AF0C7
:1039400013FE04461CB3514603A8FFF75AFB0A2294
:10395000002103A80AF0D0FD80464046FFF782FB15
:1039600006466EB1EE48C0F80080FFF7D6F8AFF219
:1039700068200AF047FCAFF274000AF043FC06E04E
:10398000AFF27C200AF03EFCEDA00AF03BFCEFA178
:1039900050460AF0E9FD0446002C3AD0EEA150460C
:1039A0000AF0E2FD04465CB1E7A00AF02BFCDC481B
:1039B0000179ECA00AF026FCAFF2B8000AF022FC74
:1039C000EBA150460AF0D0FD044614B3514603A8BB
:1039D000FFF717FB0A22002103A80AF08DFD80469D
:1039E0004046FFF738FB06466EB1CD4981F80480AA
:1039F0000846FFF792F8D4A00AF004FCAFF2FC00EE
:103A00000AF000FC05E0D0A00AF0FCFBCCA00AF014
:103A1000F9FBDAA150460AF0A7FD0446002C3BD082
:103A2000D9A150460AF0A0FD044664B1C6A00AF030
:103A3000E9FBBB48B0F80510D6A00AF0E3FBAFF2F3
:103A40003C100AF0DFFBD7A150460AF08DFD04467A
:103A500014B3514603A8FFF7D4FA0A22002103A8A1
:103A60000AF04AFD80464046FFF7E8FA06466EB186
:103A7000AB49A1F805800846FFF74FF8B2A00AF05D
:103A8000C1FBAFF280100AF0BDFB05E0AEA00AF06A
:103A9000B9FBABA00AF0B6FBC5A150460AF064FD25
:103AA0000446002C3AD0C5A150460AF05DFD0446FC
:103AB0005CB1A5A00AF0A6FB9948417AC3A00AF020
:103AC000A1FBAFF2C0100AF09DFBC4A150460AF062
:103AD0004BFD044614B3514603A8FFF792FA0A229D
:103AE000002103A80AF008FD80464046FFF79FFA30
:103AF00006466EB18A4981F809800846FFF70DF83D
:103B000091A00AF07FFBAFF204200AF07BFB05E0F6
:103B10008DA00AF077FB8AA00AF074FBB3A150468F
:103B20000AF022FD0446002C3BD0B3A150460AF017
:103B30001BFD044664B184A00AF064FB7848B0F829
:103B40000710B0A00AF05EFBAFF248200AF05AFB63
:103B5000B0A150460AF008FD044614B3514603A82C
:103B6000FFF74FFA0A22002103A80AF0C5FC80469D
:103B70004046FFF759FA06466EB16949A1F8078039
:103B80000846FEF7CAFF70A00AF03CFBAFF28C209B
:103B90000AF038FB05E06CA00AF034FB68A00AF0DC
:103BA00031FB9FA150460AF0DFFC0446002C3AD0BE
:103BB0009EA150460AF0D8FC04465CB162A00AF00F
:103BC00021FB574841899CA00AF01CFBAFF2CC2096
:103BD0000AF018FB9CA150460AF0C6FC044614B338
:103BE000514603A8FFF70DFA0A22002103A80AF0A4
:103BF00083FC80464046FFF714FA06466EB14849FA
:103C0000A1F80A800846FEF788FF4FA00AF0FAFAEA
:103C1000AFF210300AF0F6FA05E04BA00AF0F2FA23
:103C200047A00AF0EFFA8BA150460AF09DFC04462B
:103C3000002C3AD08BA150460AF096FC04465CB1A9
:103C400041A00AF0DFFA3648817B8AA00AF0DAFA4E
:103C5000AFF250300AF0D6FA8AA150460AF084FC3E
:103C6000044614B3514603A8FFF7CBF90A220021FA
:103C700003A80AF041FC80464046FFF7BFF906461C
:103C80006EB1274981F80E800846FEF746FF2EA048
:103C90000AF0B8FAAFF294300AF0B4FA05E02AA0BC
:103CA0000AF0B0FA26A00AF0ADFA7AA150460AF05E
:103CB0005BFC04466CB124A00AF0A4FA09F015F8E4
:103CC0008346594676A00AF09DFAAFF2C8300AF052
:103CD00099FA77A150460AF047FC0746F7B10A2245
:103CE000002108A8FEF7BAFE394608A8FFF773F9C5
:103CF0001022002108A80AF0FFFB81464FEA194074
:103D00006F4908734FEA19216D48417380F80E908E
:103D1000007B6C4981F83B006948D5E0E2E0000097
:103D2000C05F00202B535842444154453A25640D4E
:103D30000A00000041542B535842444154453D0071
:103D40000D0A2B4552524F520D0A000041542B537D
:103D5000585041520000000041542B5358504152DA
:103D60003F0000002B53585041523A25640D0A0081
:103D700041542B53585041523D00000041542B53A5
:103D8000585246524645000041542B535852465211
:103D900046453F002B535852465246453A25640D3E
:103DA0000A00000041542B535852465246453D00EC
:103DB00041542B535852464D4F44450041542B53C8
:103DC0005852464D4F44453F000000002B53585277
:103DD000464D4F44453A25640D0A000041542B538B
:103DE0005852464D4F44453D0000000041542B536E
:103DF000585246464143000041542B5358524646C0
:103E000041433F002B535852464641433A25640DE7
:103E10000A00000041542B535852464641433D008E
:103E200041542B53585246425700000041542B53E3
:103E300058524642573F00002B5358524642573A79
:103E400025640D0A0000000041542B53585246428D
:103E5000573D000041542B53585246504F5745523E
:103E60000000000041542B53585246504F574552C2
:103E70003F0000002B53585246504F5745523A25A9
:103E8000640D0A0041542B53585246504F57455227
:103E90003D00000041542B535852464353513F00BC
:103EA0002B535852464353513A2D25640D0A0000B6
:103EB0002473657463656E74657269640000000044
:103EC0001C5F00200E440020417B514880F83C10CC
:103ED0005048817B4E4880F83D10FEF7D5FD4EA03E
:103EE0000AF090F951A150460AF03EFB0746AFB1E7
:103EF0000A22002108A8FEF7B1FD394608A8FFF7FD
:103F00006AF81022002108A80AF0F6FA8146C9F3DF
:103F100007461FFA89F1304606F033FD46A15046A8
:103F20000AF022FB074627B106F05FFD46A00AF023
:103F300069F94AA150460AF017FB07462FB1032042
:103F40004949087049A00AF05DF95046FEF7E5FBC3
:103F50000BB0BDE8F08F30B589B047480078002835
:103F600023D04648048800250A20FEF74CFD43482C
:103F70000088844218D1BCB121464148FCF730FE8C
:103F800040A00AF03FF900BF06E03D48415D42A075
:103F90000AF038F9681C85B2A542F6DB2EA00AF0BB
:103FA00031F900203549088027E000250024202130
:103FB00001A80AF095FB3148008810F4004F1BD08F
:103FC0002E4805781E2D0FDC00BF0BE02C48005D4D
:103FD00001A9085500BF3248008810F0400FFAD000
:103FE000601CC4B2AC42F1DB00202449088001A966
:103FF000085501A8FFF709F900BF09B030BD014617
:10400000012070470146012070470146012070479A
:104010000E4400201C5F00202B73657463656E7472
:1040200065726964206F6B0D0A000000247365746B
:10403000737873656E69640024636C65617273786C
:1040400073656E69640000002B636C656172737840
:1040500073656E6964206F6B0D0A000024736574CC
:104060006D33356F6E0000004C0000202B736574BB
:104070006D33356F6E0D0A0058000020500000208F
:104080004F44002052533438355F53656E645F44AB
:104090006174610D0A0000002530325820000000D4
:1040A000001001400948804709480047FEE7FEE745
:1040B000FEE7FEE7FEE7FEE7FEE7FEE7FEE7FEE7D8
:1040C00004480549054A064B704700006B07000885
:1040D0008901000838620020386800203864002018
:1040E0003864002033490143334A1160704770B58A
:1040F000002100230F22C47824B32F4C246804F439
:10410000E064C4F5E064C4F30721C1F10404E3B240
:104110000A4144789C40E1B28478144021430C0762
:10412000210E264C05786155047804F01F05012402
:10413000AC4005786D114FF0E02606EB8505C5F81B
:10414000004109E0047804F01F040125A5401C4C3F
:104150000678761144F8265070BD1A4A0A40024388
:10416000154B1B1F1A60704739B1134A121D126894
:104170000243114B1B1D1A6006E00F4A121D126804
:1041800082430D4B1B1D1A607047042808D14FF065
:10419000E021096941F004014FF0E022116107E0DC
:1041A0004FF0E021096921F004014FF0E022116194
:1041B000704700000000FA050CED00E000E400E0AC
:1041C00080E100E080FFFF1F10B50446984884425C
:1041D00008D10121084600F086FB0021012000F0F3
:1041E00082FB76E09348844208D10121022000F04E
:1041F0007AFB0021022000F076FB6AE08E488442C0
:1042000008D10121042000F06EFB0021042000F001
:104210006AFB5EE08948844208D10121082000F051
:1042200062FB0021082000F05EFB52E084488442DB
:1042300008D10121102000F056FB0021102000F0D1
:1042400052FB46E07F48844208D10121202000F043
:104250004AFB0021202000F046FB3AE07A488442E5
:1042600008D10121402000F03EFB0021402000F059
:104270003AFB2EE07548844208D10121802000F0ED
:1042800032FB0021802000F02EFB22E070488442A7
:1042900008D10121801500F026FB0021A01500F0B7
:1042A00022FB16E06B48844208D10121401500F042
:1042B0001AFB0021601500F016FB0AE066488442F4
:1042C00007D10121001500F00EFB0021201500F0A0
:1042D0000AFB10BDF0B50A4600210023002400BFF0
:1042E0003DE0012505FA01F3156805EA03049C4247
:1042F00034D105684F000326BE40B54305601579EB
:104300004E00B5400668354305601579012D02D091
:104310001579022D16D185684F000326BE40B5439E
:10432000856055794E00B54086683543856045689F
:1043300001268E40B5434560456896798E40B6B2F9
:1043400035434560C5684F000326BE40B543C56090
:10435000D5794E00B540C6683543C560491C102963
:10436000BFD3F0BD4FF6FF710160002101714171B3
:104370008171C171704708B54FF480320092009A84
:104380000A430092009AC261C161009AC261C26987
:104390000092C269009208BD0246002013690B42D8
:1043A00001D0012000E0002070470146086980B27A
:1043B00070470246002053690B4201D0012000E003
:1043C000002070470146486980B2704701837047FA
:1043D000418370470AB1018300E041837047416126
:1043E000704742694A4042617047F0B5002300249B
:1043F0004D07ED0E02FA05F3CE1000F1200555F839
:1044000026504E07F70E0F26BE40B543CF1000F1E1
:10441000200646F82750CE1000F1200555F826500A
:1044200045EA0304CE1000F1200545F82640F0BD12
:10443000000002400004024000080240000C02405C
:10444000001002400014024000180240001C02400C
:10445000002002400024024000280240F948006881
:1044600040F00100F74908600020F6490831086073
:10447000F4480068F4490840F2490860F348091D0F
:104480000860F348EF4984310860F0481038091D8E
:104490000860EC48006820F48020EA4908600020A9
:1044A000E8490C310860E7498C3108607047002109
:1044B000E44A921C117011460870704710B501460D
:1044C0000022002300204A11012A02D1DD4C23687A
:1044D00008E0022A03D1DB4C7034236802E0D94C97
:1044E0007434236801F01F02012494401C4201D05F
:1044F000012000E0002010BD38B50020009000240D
:10450000002500BF3120FFF7D9FF05460098401C69
:1045100000900098B0F5A04F01D0002DF2D03120CE
:10452000FFF7CCFF08B1012400E00024204638BD8D
:1045300001460020C34A106820F0F80040EAC1009C
:1045400010607047C349086070470021BD4A70324F
:1045500011701170012802D004280AD104E0012151
:10456000B84A7032117005E00521B64A70321170F8
:1045700000E000BF00BF7047B7490860704770B5E2
:10458000049C41EA82150126C6EB530645EA06451E
:10459000054345EA0465AB4E361D356070BDAD4937
:1045A00008667047820142EA0172A64B84331A60A2
:1045B0007047A8498866704710B5830143EA0163D4
:1045C00043EA02739F4C8834236010BDA1490867F9
:1045D0007047A049C864704702460020994B0833D1
:1045E000186820F0EC6042EA01031843954B083349
:1045F0001860704702460020924B0833186820F07C
:10460000784042EA010318438E4B08331860704724
:10461000014600208B4A0832106820F0030008434E
:104620001060704787480830006800F00C00704741
:1046300001460020834A0832106820F0F000084349
:1046400010607047014600207E4A0832106820F44E
:10465000E05008431060704701460020794A083254
:10466000106820F4604040EAC10010607047F0B567
:10467000002100220024022500260223714F083762
:104680003F6807F00C0121B1042905D0082937D172
:1046900005E0724F076036E0714F076033E0694F05
:1046A0003F1D3F68C7F38056664F3F1D3F6807F0C8
:1046B0003F036EB16A4FB7FBF3F7DFF888C10CF127
:1046C000040CDCF800C0CCF3881C07FB0CF40CE0F5
:1046D000624FB7FBF3F7DFF86CC10CF1040CDCF8A8
:1046E00000C0CCF3881C07FB0CF4564F3F1D3F68FD
:1046F000C7F301477F1C7D00B4FBF5F7076002E0BC
:10470000564F076000BF00BF4E4F08373F6807F0A5
:10471000F0010909534F7A5C0768D7404760494F59
:1047200008373F6807F4E051890A4E4F7A5C4768C2
:10473000D7408760434F08373F6807F46041490B13
:10474000484F7A5C4768D740C760F0BD002100F44D
:104750004072B2F5407F0AD13A4A0832116821F41A
:10476000F811414A02401143364A08321160354A75
:1047700070321268C0F30B031A43324B70331A6065
:1047800070473549443908607047334940390860FB
:10479000704736490860704701460020294A8C322C
:1047A000106820F01F004A1E1043264A8C32106009
:1047B000704701460020234A8C32106820F4F850DC
:1047C0004A1E40EA02201F4A8C32106070470146A0
:1047D00000201C4A8C32106820F4401008431060FE
:1047E000704701460020174A8C32106820F44000C0
:1047F00008431060704701460020124A8C3210684E
:1048000020F4403008431060704719490860704731
:1048100039B10C4A3032126802430A4B30331A6005
:1048200006E0084A303212688243064B30331A6081
:104830007047F9B1034A343212680243014B3433F2
:104840001A601CE000380240FFFFF6EA1030002436
:104850000030002000004742800E47420024F40050
:1048600040787D0160000020FFFCFF0F5C014742A3
:10487000E01147428F4A126882438E4B1A6070479C
:1048800039B18C4A121D126802438A4B1B1D1A60F3
:1048900006E0884A121D12688243864B1B1D1A606F
:1048A000704739B1834A0C3212680243814B0C3392
:1048B0001A6006E07F4A0C32126882437D4B0C334B
:1048C0001A60704739B17B4A103212680243794B43
:1048D00010331A6006E0774A103212688243754B33
:1048E00010331A60704739B1724A243A1268024391
:1048F000704B243B1A6006E06E4A243A12688243E9
:104900006C4B243B1A60704739B16A4A203A1268EE
:104910000243684B203B1A6006E0664A203A126860
:104920008243644B203B1A60704739B1614A1C3A9C
:10493000126802435F4B1C3B1A6006E05D4A1C3A5A
:10494000126882435B4B1C3B1A60704739B1594A6D
:10495000143A12680243574B143B1A6006E0554A5A
:10496000143A12688243534B143B1A60704739B1B2
:10497000504A103A126802434E4B103B1A6006E050
:104980004C4A103A126882434A4B103B1A607047F7
:1049900039B1484A1C3212680243464B1C331A6034
:1049A00006E0444A1C3212688243424B1C331A60B0
:1049B000704739B13F4A2032126802433D4B2033E1
:1049C0001A6006E03B4A203212688243394B20339A
:1049D0001A60704739B1374A243212680243354BA6
:1049E00024331A6006E0334A243212688243314B82
:1049F00024331A60704739B12E4A2C3212680243B0
:104A00002C4B2C331A6006E02A4A2C32126882435F
:104A1000284B2C331A60704739B1264A303212685D
:104A20000243244B30331A6006E0224A30321268C7
:104A30008243204B30331A607047012808D11D494A
:104A40003C31096841F008011A4A3C32116007E024
:104A500018493C31096821F00801164A3C321160BE
:104A6000704739B1134A273A12780243114B273B5A
:104A70001A7006E00F4A273A127882430D4B273B03
:104A80001A7070470B484030006840F08070094948
:104A900040310860704701460020064A283A1268F3
:104AA0000A4201D0012000E0002070470149263968
:104AB000087070473438024010B50446FA48844202
:104AC00008D101211020FFF752FF00211020FFF72D
:104AD0004EFF57E0F548844209D101214804FFF711
:104AE00035FF00214FF40030FFF730FF4AE0F04877
:104AF000844209D101218804FFF728FF00214FF4E7
:104B00008020FFF723FF3DE0EA48844209D10121DC
:104B1000C804FFF71BFF00214FF40020FFF716FF2A
:104B200030E0E548844209D101210805FFF70EFF76
:104B300000214FF48010FFF709FF23E0DF48844293
:104B400008D101212020FFF712FF00212020FFF7CC
:104B50000EFF17E0DA48844209D101218807FFF7E8
:104B6000F5FE00214FF08040FFF7F0FE0AE0D54847
:104B7000844207D101214005FFF7E8FE00216005CE
:104B8000FFF7E4FE10BD2DE9FF4705460E46002461
:104B9000A14600BFA046B08900B100BF2C8A24F412
:104BA0004054F08804432C82AC8941F20C60844369
:104BB000B08831890843718908430443AC81AC8AC9
:104BC00024F44074B0890443AC826846FFF74FFD7B
:104BD000B548854202D0B948854202D1DDF80C9033
:104BE00001E0DDF80890A88910F4004F08D009EB27
:104BF000C90000EB091031684900B0FBF1F707E08C
:104C000009EBC90000EB091031688900B0FBF1F72E
:104C10006420B7FBF0F004012009642101FB107847
:104C2000A88910F4004F08D0322000EBC800B0FB78
:104C3000F1F000F00700044308E0322000EB081018
:104C40006421B0FBF1F000F00F0004432C81BDE8BB
:104C5000FF874FF41651016000218180C1800181DE
:104C60000C21418100218181704710B5024600204E
:104C7000108A20F470600B884C8823438C8823436F
:104C8000CC8823431843108210BD0021018041804D
:104C90008180C180704721B1828942F400528281B3
:104CA00004E082894DF6FF731A4082817047028BBF
:104CB00002F47F420283028B0A430283704721B1D0
:104CC000828942F40042828103E08289C2F30E02AB
:104CD0008281704721B1828A42F40062828204E0BC
:104CE000828A4FF2FF731A4082827047C1F3080232
:104CF0008280704701468888C0F308007047028AA6
:104D00004FF6F0731A400282028A0A430282704709
:104D100021B1828942F00202828104E082894FF649
:104D2000FD731A408281704782894FF2FF731A40E7
:104D3000828182890A4382817047028A4FF6DF733B
:104D40001A400282028A0A430282704721B1028A13
:104D500042F48042028204E0028A4BF6FF731A405A
:104D600002827047818941F001018181704721B140
:104D7000828A42F00802828204E0828A4FF6F77348
:104D80001A4082827047028BD2B20283028B42EABF
:104D900001220283704721B1828A42F0200282827E
:104DA00004E0828A4FF6DF731A408282704721B195
:104DB000828A42F01002828204E0828A4FF6EF7308
:104DC0001A4082827047828A4FF6FB731A408282B1
:104DD000828A0A438282704721B1828A42F00202AB
:104DE000828204E0828A4FF6FD731A408282704705
:104DF0001AB1838A0B43838202E0838A8B438382C6
:104E00007047F0B503460024002600250020A1F5D8
:104E100010676A3F00D100BF1846C1F3421401F089
:104E20001F06012707FA06F5012C01D10C3004E01A
:104E3000022C01D1103000E014301AB107682F4362
:104E4000076002E00768AF430760F0BD024600203C
:104E5000B1F5007F00D100BF13880B4201D00120C3
:104E600000E00020704701F40072B2F5007F00D12D
:104E700000BFCA430280704770B502460024002379
:104E800000250020A1F510666A3E00D100BFC1F3E5
:104E9000421501F01F03012606FA03F3012D13D179
:104EA0009689334017E000000010014000440040A4
:104EB00000480040004C00400050004000140140F9
:104EC00000780040007C0040022D02D1168A334059
:104ED00001E0968A33400C12012606FA04F4168883
:104EE000344013B10CB1012000E0002070BD10B5BA
:104EF00000220023A1F510646A3C00D100BF0A1211
:104F000001249440A3B2DC43048010BD10B50446D4
:104F1000FE48844208D101210846FFF728FD002100
:104F20000120FFF724FD9DE0B4F1804F08D101215D
:104F30000846FFF70BFD00210120FFF707FD91E078
:104F4000F348844208D101210220FFF7FFFC002131
:104F50000220FFF7FBFC85E0EE48844208D10121E6
:104F60000420FFF7F3FC00210420FFF7EFFC79E0B9
:104F7000E948844208D101210820FFF7E7FC00211D
:104F80000820FFF7E3FC6DE0E448844208D10121EA
:104F90001020FFF7DBFC00211020FFF7D7FC61E0B9
:104FA000DF48844208D101212020FFF7CFFC0021F7
:104FB0002020FFF7CBFC55E0DA48844208D10121DC
:104FC0000220FFF7D4FC00210220FFF7D0FC49E0CB
:104FD000D548844209D101210804FFF7C8FC00210B
:104FE0004FF48030FFF7C3FC3CE0D048844209D145
:104FF00001214804FFF7BBFC00214FF40030FFF70C
:10500000B6FC2FE0CA48844209D101218804FFF789
:10501000AEFC00214FF48020FFF7A9FC22E0C54838
:10502000844208D101214020FFF790FC002140205C
:10503000FFF78CFC16E0C048844208D10121802093
:10504000FFF784FC00218020FFF780FC0AE0BB48CA
:10505000844207D101218015FFF778FC0021A015BB
:10506000FFF774FC10BD00220288A84B98420ED0B6
:10507000AC4B98420BD0B0F1804F08D0A44B984273
:1050800005D0A44B984202D0A34B984204D14FF6CE
:105090008F731A404B881A43A04B984207D0A04BFD
:1050A000984204D04FF6FF431A400B891A430280FE
:1050B0004B68C3620B880385944B984202D0994B8E
:1050C000984201D18B7A03860123838270474FF087
:1050D000FF31416000210180018141808172704770
:1050E0000185828270470A46002101884FF68F733E
:1050F000194011430180704741627047C162704797
:105100000146486A70470146088D704721B1028800
:1051100042F00202028004E002884FF6FD731A405A
:105120000280704721B1028842F00402028004E04C
:1051300002884FF6FB731A400280704721B1028843
:1051400042F08002028004E002884FF67F731A402A
:105150000280704702884FF6F7731A400280028877
:105160000A430280704702884FF6FF431A400280CC
:1051700002880A430280704721B1028842F001028E
:10518000028004E002884FF6FE731A4002807047E6
:1051900070B5002400220023058C4FF6FE763540C2
:1051A0000584028C8388048B4FF68F752C40B51EC6
:1051B0002C400D882C43751E2A408D892A434D882A
:1051C0002A43524DA84202D0564DA84213D14FF661
:1051D000F7752A40CD892A434FF6FB752A408D8802
:1051E0002A434FF6FF652B404FF6FF552B400D8AA3
:1051F0002B434D8A2B43838004838D68456302844F
:1052000070BD70B5002400220023058C4FF6EF76A8
:1052100035400584028C8388048B48F6FF752C404A
:105220004FF6FF452C400D884FF6FF7606EA052520
:105230002C434FF6DF752A408D8906EA05152A436F
:105240004D8806EA05152A43304DA84202D0354D57
:10525000A8421DD14FF67F752A40CD894FF6FF76C3
:1052600006EA05152A434FF6BF752A408D8806EADF
:1052700005152A434FF6FF352B404FF2FF752B40A3
:105280000D8A06EA85052B434D8A06EA85052B43E0
:10529000838004838D688563028470BD70B50024AB
:1052A00000220023058C4FF6FF6635400584028CF2
:1052B0008388848B4FF68F752C404FF6FC752C40FD
:1052C0000D882C434FF6FF552A408D894FF6FF7607
:1052D00006EA05252A434D8806EA05252A430B4D93
:1052E000A84202D00F4DA84238D14FF2FF752A4094
:1052F000CD894FF6FF7606EA05252A434FF6FF359E
:105300002A408D8806EA05252A4319E0000001405D
:105310000004004000080040000C00400010004065
:1053200000140040000401400040014000440140DE
:105330000048014000180040001C004000200040D0
:105340004EF6FF752B404DF6FF752B400D8A06EA91
:1053500005152B434D8A06EA05152B43838084836C
:105360008D68C563028470BD70B5002200230024DF
:10537000058C4EF6FF7635400584038C8488828B3D
:1053800048F6FF752A404FF6FF452A400D884FF634
:10539000FF7606EA05252A434DF6FF752B408D89D9
:1053A00006EA05352B434D8806EA05352B43FE4DAD
:1053B000A84202D0FD4DA84208D14BF6FF752C4003
:1053C0000D8A4FF6FF7606EA85152C43848082838A
:1053D0008D680564038470BD002101804180818057
:1053E00081608181C18101824182704770B503462D
:1053F000002000241846183001258D40ACB21D8CC9
:10540000A5431D8409B108290AD100EB6100056894
:105410004FF68F76354005600568154305600FE04F
:105420000D1FC5F34E052844056848F6FF76354044
:10543000056005684FF6FF7606EA022635430560EB
:1054400070BD4163704781637047C16370470164F9
:1054500070470A460021018B4FF68F7319401143A4
:10546000018370470A460021018B48F6FF731940FB
:105470004FF6FF7303EA02231943018370470A467C
:105480000021818B4FF68F73194011438183704740
:105490000A460021818B48F6FF7319404FF6FF73CF
:1054A00003EA02231943818370470A460021018BD6
:1054B0004FF6F77319401143018370470A460021E4
:1054C000018B4FF2FF7319404FF6FF7303EA02237B
:1054D0001943018370470A460021818B4FF6F77309
:1054E00019401143818370470A460021818B4FF296
:1054F000FF7319404FF6FF7303EA022319438183B8
:1055000070470A460021018B4FF6FB731940114387
:10551000018370470A460021018B4FF6FF33194083
:105520004FF6FF7303EA02231943018370470A46CB
:105530000021818B4FF6FB73194011438183704723
:105540000A460021818B4FF6FF3319404FF6FF7357
:1055500003EA02231943818370470A460021018B25
:105560004FF67F7319401143018370470A460021AB
:10557000018BC1F30E014FF6FF7303EA02231943B7
:10558000018370470A460021818B4FF67F731940D3
:105590001143818370470A460021818BC1F30E01BC
:1055A0004FF6FF7303EA02231943818370470A46CB
:1055B0000021018C4FF6FD7319401143018470479F
:1055C0000A460021018C4FF6F773194011430184FC
:1055D00070470A460021018C4FF6DF7319404FF6E1
:1055E000FF7303EA02131943018470470A4600213E
:1055F000018C4FF67F7319404FF6FF7303EA0213D5
:105600001943018470470A460021018C4FF6FF536D
:1056100019404FF6FF7303EA0223194301847047D0
:105620000A460021018C4FF2FF7319404FF6FF73B9
:1056300003EA02231943018470470A460021018CC2
:105640004DF6FF7319404FF6FF7303EA0233194317
:105650000184704730B5002301248C40A3B2048C30
:105660009C430484048C02FA01F5ADB22C430484FB
:1056700030BD30B5002304248C40A3B2048C9C437D
:105680000484048C02FA01F5ADB22C43048430BDCD
:10569000828B4FF2FF331A408283828B4FF6FF7367
:1056A00003EA01231A4382837047F0B50C4615467E
:1056B000002100220026078C4EF6FF7C07EA0C072B
:1056C0000784818B028C4FF6FF7707EA043640F699
:1056D000FF4739404FF6FF7707EA052739434FF672
:1056E000FF7707EA0337394345F6FF773A4046F438
:1056F00080573A4381830284F0BD828B4FF6F37367
:105700001A408283828B0A4382837047F0B50C462D
:105710001546002100220026078C4FF6FF6C07EA91
:105720000C070784818B028C4FF6FF7707EA04266B
:105730004FF60C7739404FF6FF7707EA03172F43F0
:1057400039434FF2FF573A4046F480773A4381831A
:105750000284F0BD028B4FF2FF331A400283028BAA
:105760004FF6FF7303EA01231A4302837047F0B533
:105770000C461546002100220026078C4FF6EF7CD0
:1057800007EA0C070784018B028C4FF6FF7707EAC4
:10579000041640F6FF4739404FF6FF7707EA033714
:1057A00039434FF6FF7703E0000001400004014059
:1057B00007EA052739434FF65F773A4046F010076E
:1057C0003A4301830284F0BD028B4FF6F3731A4013
:1057D0000283028B0A4302837047F0B50C461546DC
:1057E00000210022068C4FF6FE773E400684018B96
:1057F000028C4FF60C7631407E1C06EA03162E43CF
:1058000031434FF6F576324044F0010632430183CE
:105810000284F0BD70B505460C46208850B9238936
:10582000A28861882846FFF7D8FFE1882846FFF75D
:10583000CBFF25E0208804280AD12389A28861882B
:105840002846FFF794FFE1882846FFF783FF17E01B
:10585000208808280AD12389A28861882846FFF772
:1058600055FFE1882846FFF748FF09E02389A28811
:1058700061882846FFF719FFE1882846FFF708FFEF
:1058800070BD002101804180012181800021C18003
:10589000018170472DE9F04105460C46002601279D
:1058A000608808B9022600E00026A088012801D1FE
:1058B000022700E001272088A0B92389A2886188F7
:1058C0002846FFF78AFFE1882846FFF77DFF2389F6
:1058D0003A4631462846FFF74AFFE1882846FFF757
:1058E00039FF13E02389A28861882846FFF73FFF2C
:1058F000E1882846FFF72EFF23893A46314628469D
:10590000FFF76BFFE1882846FFF75EFFBDE8F081F7
:105910000146486B70470146886B70470146C86B6B
:1059200070470146086C70470A884B881A438B8879
:105930001A43CB881A430B891A434B891A438B8924
:105940001A43A0F8442070470021018041808180E3
:10595000C180018141818181704731B1B0F844201B
:1059600042F40042A0F8442005E0B0F84420C2F31D
:105970000E02A0F84420704721B1828842F0040250
:10598000828004E082884FF6FB731A408280704761
:1059900021B1828842F00102828004E082884FF6C1
:1059A000FE731A40828070471AB183890B4383814A
:1059B00002E083898B43838170478182704702466E
:1059C0000020138A0B4201D0012000E00020704724
:1059D000CA430282704730B50246002000230024EB
:1059E000158A05EA0103958905EA010413B10CB192
:1059F000012000E0002030BDCA430282704741EA26
:105A00000203A0F8483070471AB183890B438381A1
:105A100002E083898B438381704721B1828842F001
:105A20000802828004E082884FF6F7731A40828071
:105A3000704701894FF6F8721140018170470A469C
:105A4000002101894FF68F7319401143018170477E
:105A500030B504460D4629462046FFF7F0FF208961
:105A600040F00700208130BD2DE9F04104460D468D
:105A700016461F46602D06D13B4601223146204680
:105A8000FFF775FE05E03B46012231462046FFF751
:105A9000A4FE29462046FFF7D2FF208940F00700E8
:105AA0002081BDE8F08130B50C4600210189C9B2E2
:105AB0004FF6FF7505EA0325154325432943018168
:105AC00030BD2DE9F04105460E46174698460024A4
:105AD00043463A4631462846FFF7E5FF2C894FF604
