:020000040800F2
:1000000038680020C9420008350600085905000874
:10001000370600083B0600083F0600080000000005
:10002000000000000000000000000000430600087F
:100030004506000800000000BD9C0008792B000860
:10004000E3420008E3420008E34200086D130008A1
:10005000E3420008E3420008E3420008E3420008EC
:10006000E3420008E3420008E3420008E3420008DC
:10007000E3420008E3420008E3420008E3420008CC
:10008000E3420008E3420008E3420008E3420008BC
:10009000E3420008E3420008E3420008E3420008AC
:1000A000E3420008E3420008E3420008E34200089C
:1000B000E342000831E80008E3420008E342000898
:1000C000E3420008E3420008E3420008E34200087C
:1000D000E34200084B310008410C00085D0A0008AB
:1000E000E342000841130008E3420008E34200082D
:1000F000E3420008E3420008E3420008E34200084C
:10010000E3420008E3420008E3420008E34200083B
:10011000E3420008E3420008E3420008E34200082B
:10012000E3420008E3420008E3420008E34200081B
:10013000E3420008E3420008E3420008E34200080B
:10014000E3420008E3420008E3420008E3420008FB
:10015000E3420008E3420008E342000855080008B3
:10016000E3420008E3420008E3420008E3420008DB
:10017000E3420008E3420008E3420008E3420008CB
:10018000E3420008E342000800F002F800F070F8D3
:100190000AA090E8000C82448344AAF10107DA45E2
:1001A00001D100F065F8AFF2090EBAE80F0013F0C4
:1001B000010F18BFFB1A43F0010318475C1201003E
:1001C0007C1201000A444FF0000C10F8013B13F0C0
:1001D000070408BF10F8014B1D1108BF10F8015BA0
:1001E000641E05D010F8016B641E01F8016BF9D193
:1001F00013F0080F1EBF10F8014BAD1C0C1B09D1EA
:100200006D1E58BF01F801CBFAD505E014F8016B5B
:1002100001F8016B6D1EF9D59142D6D370470000ED
:100220000023002400250026103A28BF78C1FBD8FF
:10023000520728BF30C148BF0B60704764290EF0D9
:10024000B58478290EF0EE8473290EF07A870020A9
:1002500070471FB510F092FE0FF010F80400002058
:10026000002110F041F8401C60601FBD10B510BDAA
:100270000FF01AF81146FFF7ECFF00F03EF90FF00F
:1002800038F803B4FFF7F2FF03BC02F0FBFE0000F6
:1002900000241BE00A2002F0C8FCBE480078A8B188
:1002A0000BF04DFABC4890F83A00012805D101F056
:1002B000ACFE04460CB901F0C0FEB74890F83A0015
:1002C00008B901F0BAFE0020B2490870E2E7002444
:1002D0004FE0142002F0A9FCB0480078022848D171
:1002E000AC480078002844D1AB4890F83A00012887
:1002F00012D1AB48007801280ED10020A84908701F
:1003000002F031FEA7480078022802D1A6A00EF024
:10031000DBFB01209F4908709F4890F83A00A8B97C
:10032000A5480068401CA44908609B48008800EB71
:10033000C00101EB0010A0490968B1EB400F05D1E5
:1003400000209D4908600120924908709B48007870
:1003500001280ED1601CC4B2C82C0AD10024002090
:100360009749087001F0D8F903209449087002F009
:1003700019F9AEE702E00A2002F057FCFBE702E0C1
:100380000A2002F052FCFBE700254BE00A2002F0B5
:100390004CFC8248007840B96D1CA5F59C40203883
:1003A00003D101207D49087000257C480078012890
:1003B00038D1794890F83A0050BB00BF01F09AF963
:1003C00001F07EFA01F04EFB734991F834000023EE
:1003D00001F11202891C01F08DFC04461CB90120B8
:1003E0007749087014E000207549087040F6B8306D
:1003F00002F01BFC6B480078022802D171A00EF0BD
:1004000063FB01F089F941F2707002F00EFCD5E750
:10041000614890F83A00012801D102F0C3F80220A7
:100420005E490870B2E788B0202168460EF0BAFD38
:1004300007E00A2002F0F9FB5648007808B10BF0FB
:100440001CFAF6E70AE00A2002F0EFFB03F095FE43
:100450005B480078012801D100F0E1FAF3E703E0FE
:100460004FF47A7002F0E1FBFAE770B5044600251C
:1004700000BF07F069F909F0F9FB05460723564A62
:100480000021AFF2250008F0B0FC0623534A0021FA
:10049000AFF24F0008F0A9FC0523514A0021AFF24A
:1004A000790008F0A2FC04234E4A0021AFF2271085
:1004B00008F09BFC03234C4A0021AFF23D1008F0EA
:1004C00094FC0223494A0021AFF2571008F08DFC3A
:1004D0000823474A0021AFF2092008F086FC0923CF
:1004E000444A0021AFF2572008F07FFC0A2008F0B0
:1004F00000FF284609F0BEFB70BD10B54FF4A060A8
:1005000003F002FFA82002F03FFB4FF4165002F068
:10051000C6FD4FF4E13000F0B6F901F065F801F0E6
:1005200070FE02F03FFC02F019FC0EF045F8324973
:10053000086800F029FB00F039FE02F0DAFC06F052
:10054000C4FF0A232D4A0021AFF2E10008F04DFC60
:1005500007F0E2F8002010BD10B5294804682146D4
:1005600028A00EF0B1FA2648001D0468214628A0F4
:100570000EF0AAFA224808300468214627A00EF09F
:10058000A3FA1F4814300468214627A00EF09CFAF5
:1005900010BD00004A0000200E4400204900002049
:1005A000230000204800002073797374656D207764
:1005B000616B6575700D0A00540000204B0000202F
:1005C00031000020495020436F6E6E6365742061D6
:1005D00067696E650D0A000074080020740C002025
:1005E00074140020741C0020741E0020742000204D
:1005F0007428002074300020C45F002074040020A0
:1006000028ED00E0434653523A2538580D0A0000C1
:10061000484653523A2538580D0A00004446535272
:100620003A2538580D0A0000414653523A253858A9
:100630000D0A0000704700BFFEE700BFFEE700BFE5
:10064000FEE77047704700000CB500200190009055
:100650007548006840F480307349086000BF7248F4
:10066000006800F4003000900198401C0190009850
:1006700018B90198B0F5A04FF1D16B48006810F49B
:10068000003F02D00120009001E00020009000987F
:10069000012845D164484030006840F080506249EC
:1006A000403108606148006840F440405F4908609C
:1006B0005D48083000685C490831086008460068F9
:1006C00040F4004008600846006840F4A05008600C
:1006D0005748091F0860081F006840F08070091F14
:1006E000086000BF5048006810F0007FFAD040F268
:1006F0000560504908604C480830006820F003004D
:100700004949083108600846006840F00200086066
:1007100000BF45480830006800F00C000828F8D1F8
:100720000CBD10B54448006840F4700042490860B0
:100730003D48006840F001003B49086000203A490C
:1007400008310860384800683C490840364908606C
:100750003B48091D0860081F006820F48020091F1D
:100760000860002030490C310860FFF76DFF4FF042
:10077000006031498039086010BD70B5002000224A
:10078000022300240221284D08352D6805F00C00B5
:1007900020B1042806D0082834D107E0294D2A4E7C
:1007A000356033E0294D284E35602FE01E4D2D1D5C
:1007B0002D68C5F380541C4D2D1D2D6805F03F019B
:1007C00054B1224DB5FBF1F5174E361D3668C6F310
:1007D000881605FB06F209E01A4DB5FBF1F5124E3D
:1007E000361D3668C6F3881605FB06F20E4D2D1D24
:1007F0002D68C5F301456D1C6B00B2FBF3F5124E7D
:10080000356003E00F4D104E356000BF00BF064D50
:1008100008352D68C5F303150D4E705D0A4D2D6822
:10082000C540094E356070BD003802400070004080
:1008300019544007003C024088ED00E0FFFFF6FE3F
:10084000103000240024F4000000002040787D01D6
:100850000400002010B540F225517B4804F01EFC36
:1008600080B1794804F058FBC4B278480088642805
:1008700008DA774875490988445474480088401C50
:100880007249088010BD10B588B0044601210420CB
:1008900004F0D0F80121202004F026F908220621D6
:1008A0006C4803F0B4FE082207216A4803F0AFFE4B
:1008B000C020069002208DF81C008DF81D0000203D
:1008C0008DF81E0001208DF81F0006A9614803F075
:1008D00013FE02940020ADF80C00ADF80E00ADF848
:1008E0001000ADF814000C20ADF8120002A9564813
:1008F00004F05BFA0121544804F0DFFA4021524829
:1009000004F0C3FB012240F225514F4804F08BFB59
:1009100047208DF8040001208DF8050003208DF894
:10092000060001208DF8070001A803F0F2FC00206A
:100930004649088008B010BD70B505460E46002433
:100940000CE000BF4021404804F092FB0028F9D0A1
:10095000295D3D4804F0DCFA601CC4B2B442F0DB0F
:1009600000BF4021384804F083FB0028F9D0002064
:100970003649088070BD10B504460BE02178324836
:1009800004F0C6FA00BF80212F4804F071FB002854
:10099000F9D0641C20780028F0D110BD2DE9F04179
:1009A00007460D46294806780024002028700A20B2
:1009B00002F03BF92548008886420FD176B100BF8E
:1009C00004E02348005D3855601CC4B2B442F8DB33
:1009D0001E480078287000201C490880BDE8F0817E
:1009E0002DE9F04107460D461848067800240020FE
:1009F00028700A2002F019F91448008886420CD1A8
:100A00005EB100BF04E01248005D3855601CC4B2FE
:100A1000B442F8DB0D4800782870BDE8F08108B5D5
:100A200000200090642200210B4802F029F9694659
:100A30000948FFF7B3FF9DF8000020B19DF80010B2
:100A4000054801F0ABFA08BD001401401400002075
:100A50007830002000080240DC30002010B540F261
:100A60002551714804F01AFB80B16F4804F054FA24
:100A7000C4B26E480088642808DA6D486B4909885A
:100A800044546A480088401C6849088010BD1CB561
:100A90000121022003F0CEFF4FF40040009001201E
:100AA0008DF8040000208DF8060003208DF8050065
:100AB00001208DF8070069465E4803F01DFD4FF4E4
:100AC00000415C4803F096FD1CBD10B588B004469B
:100AD000554804F003F90121082003F0ABFF012180
:100AE000880403F0F0FF4FF44070059002208DF869
:100AF00018008DF8190000208DF81A0001208DF8DB
:100B00001B0005A94C4803F0F7FC072208214A48BE
:100B100003F07DFD07220921474803F078FD019489
:100B20000020ADF80800ADF80A00ADF80C00ADF8F3
:100B300010000C20ADF80E0001A93B4804F035F977
:100B4000012240F22551384804F06DFA012136485F
:100B500004F0B3F94021344804F097FA27208DF8C7
:100B60001C0002208DF81D0003208DF81E000120BE
:100B70008DF81F0007A803F0CCFB00202B4908804C
:100B80002E49086008B010BD10B50446FFF77FFF7E
:100B90002046FFF79AFF10BD70B505460E460120AE
:100BA000264908604FF000040CE000BF40211E48B9
:100BB00004F05EFA0028F9D0295D1B4804F0A8F97A
:100BC000601CC4B2B442F0DB00BF4021164804F000
:100BD0004FFA0028F9D0002014490880174908600E
:100BE00070BD2DE9F04107460D46104806880024E7
:100BF000002028700A2002F018F80C48008886426D
:100C00000FD176B100BF04E00948005D3855601C83
:100C100084B2B442F8DB05480088287000200349FC
:100C20000880BDE8F0810000004800401600002068
:100C30004031002000040240000C0240BC824042CF
:100C400010B540F22551764804F028FA80B1744876
:100C500004F062F9C4B273480078642808DA724874
:100C60007049097844546F480078401C6D490870F9
:100C700010BD10B588B004460121082003F0DAFE4B
:100C80000121480403F01FFF07220521674803F0F4
:100C9000BEFC07220621654803F0B9FC60200690DF
:100CA00002208DF81C0003208DF81D0000208DF817
:100CB0001E0001208DF81F0006A95C4803F01CFCF3
:100CC00002940020ADF80C00ADF80E00ADF8100055
:100CD000ADF814000C20ADF8120002A9504804F041
:100CE00064F801214E4804F0E8F840214C4804F033
:100CF000CCF9012240F22551494804F094F926200C
:100D00008DF8040003208DF805008DF80600012001
:100D10008DF8070001A803F0FCFA08B010BD70B50B
:100D200005460E4600240CE000BF40213C4804F07C
:100D30009FF90028F9D0295D394804F0E9F8601CD2
:100D4000C4B2B442F0DB00BF4021354804F090F952
:100D50000028F9D000203349087070BD10B5044652
:100D60000BE021782E4804F0D3F800BF80212C48F6
:100D700004F07EF90028F9D0641C20780028F0D116
:100D800010BD2DE9F04107460D462648067800249F
:100D9000002028700A2001F048FF2248007886428F
:100DA0000FD176B100BF04E01F48005D3855601CCC
:100DB000C4B2B442F8DB1B480078287000201949FF
:100DC0000870BDE8F0812DE9F04107460D46154851
:100DD00006780024002028700A2001F026FF114820
:100DE000007886420CD15EB100BF04E00E48005D81
:100DF0003855601CC4B2B442F8DB0A480078287049
:100E0000BDE8F08108B50020009064220021084868
:100E100001F036FF69460648FFF7B3FF08BD000042
:100E20000044004022000020A4310020000C0240B9
:100E300008320020A548A6490860A6480860704707
:100E4000A3480C30006840F00040A1490C31086014
:100E5000704700219E480830016811F4803F01D09E
:100E60000120704711F0100F01D00220F9E711F0B6
:100E7000200F01D00220F4E711F0400F01D0022032
:100E8000EFE711F0800F01D00220EAE70020E8E749
:100E900070B5044600BFFFF7DCFF0546012D00D00A
:100EA00005E00A2001F096FE641E002CF3D100BF7D
:100EB00004B9FF25284670BD70B505460024864854
:100EC000FFF7E6FF044674BB81480C30006820F44D
:100ED00040707F490C3108600846006840F400709B
:100EE00008600846006820F0F800086008460068BE
:100EF00040EAC50008600846006840F0020008604B
:100F00000846006840F4803008607348FFF7C0FF6F
:100F10000446012C07D06E480C30006820F0020017
:100F20006B490C310860204670BD70B505460E4611
:100F3000FF20FFF7ADFF044604BB65480C30006896
:100F400020F4407062490C3108600846006840F4A3
:100F5000007008600846006840F0010008602E60DC
:100F6000FF20FFF795FF0446012C07D058480C30AE
:100F7000006820F0010056490C310860204670BD21
:100F800001460868704701465448814201D200205A
:100F900070475348814201D20120F9E7514881420C
:100FA00001D20220F4E75048814201D20320EFE74A
:100FB0004E48814201D20420EAE74D48814201D2E5
:100FC0000520E5E74B48814201D20620E0E74A4888
:100FD000814201D20720DBE74848814201D2082044
:100FE000D6E74748814201D20920D1E745488142EE
:100FF00001D20A20CCE70B20CAE72DE9F0470446CE
:101000000E4617464FF000080025A946B4F1006FC0
:1010100002D314F0030F01D0BDE8F087FFF70AFFF9
:101020002B48001F006820F480602949091F0860D0
:10103000254604EB87093448854214D210E028463F
:10104000FFF79EFF401C0AD02846FFF79CFF824610
:10105000FFF732FF8046B8F1000F01D002E02D1DEE
:101060004D45ECD300BFB8F1000F0BD107E020468F
:101070003168FFF75AFF00B103E0241D361D4C45CF
:10108000F5D300BF1248001F006840F4806010498B
:10109000091F0860FFF7D4FE00BFBDE730B5034667
:1010A0000C461546002206E01846FFF769FF44F893
:1010B00022001B1D521CAA42F6D330BD13B50446B4
:1010C000012201A92046FFF798FF1CBD23016745B7
:1010D000043C0240AB89EFCD400D03000040000806
:1010E0000080000800C0000800000108000002089D
:1010F00000000408000006080000080800000A08B4
:1011000000000C0800000E080000FF1FF8B50446A0
:101110000D4617461E468DF800408DF801508DF89B
:1011200002708DF803606946002004F0B5FFF8BD39
:10113000F8B504460D4617461E468DF802708DF828
:1011400001508DF800608DF803406946002005F0DD
:1011500041F8F8BDF8B507460C4615461E466946E7
:10116000002005F003F89DF8000038709DF801009C
:1011700020709DF8020028709DF803003070F8BDC3
:10118000F8B507460C4615461E466946002005F090
:1011900087F89DF8030038709DF8010020709DF8D5
:1011A000020028709DF800003070F8BD3EB541F691
:1011B000FF740121080703F086FC012005F051FDB2
:1011C000002005F0C5FBA0F5A041503931D0012029
:1011D00003F0CDFA04E0601C84B20A2001F025FD82
:1011E000412003F07DFA0028F5D00CB901203EBD66
:1011F0004FF4807003F0BCFB012003F0D4FB7F2090
:101200000190FF20029000200090684604F0A9FEA3
:10121000002338223B211720FFF778FF0623052201
:1012200011460E20FFF784FF45F25001002005F023
:1012300082FB0020DBE7F0B587B004460D4616467A
:101240001F4600214FF4807005F004F98DF800501E
:101250008DF801608DF8027000208DF803008DF884
:1012600010404FF0804003900020029000980190C1
:1012700001AA4FF48071002005F035F84FF480503A
:1012800005F048FC4FF4003005F0D7FC01210803BD
:1012900005F0D4FB0121080205F0DCF84FF4003022
:1012A000059000208DF8180008208DF81900012005
:1012B0008DF81A0005A805F04FFC2920B8490870E0
:1012C0000220487088700120C870084603F021F899
:1012D00007B0F0BD7CB505460C46002005F03FF98F
:1012E000284605F017F9204605F029F94FF480400B
:1012F00005F010FC4FF4800005F09FFC01218803ED
:1013000005F09CFB012005F02AF94FF480000090C5
:1013100000208DF8040008208DF8050001208DF8CC
:101320000600684605F018FC03209D49087002205D
:10133000487088700120C870084602F0EAFF7CBD42
:1013400010B506F0DAF84FF4807005F0A6FB01281E
:1013500005D1000205F0B1FB92A00DF0B5FB4FF4F2
:10136000003005F06AFC06F0E3F810BD10B506F099
:10137000C4F84FF4806005F090FB012802D1800290
:1013800005F09BFB4FF4800005F057FCFFF7C9F90F
:10139000A82001F0F9FB4FF4165001F080FEFFF792
:1013A00005FF002005F0DBF801208149087006F0F8
:1013B000BFF810BDF0B503460C461546642093FBFC
:1013C000F0F0C6B2642093FBF0F700FB1730C1B217
:1013D000132E02DD01F16400C1B20846CF1701EB04
:1013E000977701EBA707BAB2072092FBF0F700FB53
:1013F000172082B25719601EDFF8B8C11CF8000030
:10140000384482B2CF1701EB9777BF10B1EB870753
:1014100003D1032C01DA501E82B2072092FBF0F7B1
:1014200000FB172082B202B90722D0B2F0BD2DE92D
:10143000F04704460E4617461D46DDE9088900239D
:101440004A4641462846FFF761FE3A463146204665
:10145000FFF7B0FF8246A4F5FA61C8B253463A4698
:101460003146FFF765FEBDE8F08738B504466B46A8
:10147000A21C611C2046FFF76DFE38BD38B504463E
:1014800004F10803E21DA11D6846FFF779FE9DF8EF
:10149000000000F5FA604849888038BDF0B587B093
:1014A000064600200390049005900690002507E072
:1014B00005F10A00305C303803A94855681CC5B2F4
:1014C0000E2DF5DB9DF80C004FF47A7110FB01F046
:1014D0009DF80D1001EBC10202EB011100EB810040
:1014E0009DF80E1001EB810100EB41009DF80F10FB
:1014F000441831498C809DF811009DF8101001EBC3
:10150000810100EB41042C498C719DF813009DF87A
:10151000121001EB810100EB41042749CC719DF8C9
:1015200015009DF8141001EB810100EB41042249E4
:101530000C709DF817009DF8161001EB810100EB6F
:1015400041041D494C709DF819009DF8181001EBDD
:10155000810100EB410418498C7008468078497875
:10156000154FCDE900103B78FA79B979B888FFF7C3
:101570005EFF1248007802280FD13846807839463D
:1015800049783A461278CDE9002102903846C3796D
:10159000827981880AA00DF097FA07B0F0BD0000AB
:1015A00024000020414C41524D2041210D0A0000F1
:1015B00023000020761001086C3200204800002033
:1015C0002B74696D653D253034642D253032642DD2
:1015D0002530326420253032643A253032643A2591
:1015E0003032640D0A0000001CB501211E2003F0FA
:1015F00021FA4120009001208DF8040000208DF890
:10160000060003208DF8050001208DF807006946CB
:10161000344802F071FF4121324802F0E9FF4021D5
:10162000304802F0E7FF4FF40050009001208DF8A1
:10163000040000208DF8060003208DF8050001202D
:101640008DF807006946284802F056FF4FF4005114
:10165000254802F0CFFF4FF47840009001208DF82C
:10166000040000208DF8060003208DF805000120FD
:101670008DF8070069461D4802F03EFF4FF478419F
:101680001A4802F0B7FF4FF40060009001208DF877
:10169000040000208DF8060003208DF805000120CD
:1016A0008DF807006946124802F026FF4FF40061EA
:1016B0000F4802F09DFF1CBD70B505460C4645F273
:1016C000555005F07BFB284605F07BFB204605F0D6
:1016D0007BFB05F07CFB05F07FFB70BD10B505F0D2
:1016E00076FB10BD0004024000080240000C0240DE
:1016F0000010024010B54FF40051FE4802F078FF90
:1017000040F2DC5001F091FAFB480078022802D147
:10171000FAA00DF0D9F910BD10B500244FF4005116
:10172000F44802F067FFF4480078022802D1F7A0DD
:101730000DF0CAF9002404E0642001F076FA601C80
:10174000C4B2282CF8DB10BD70B504460D46002647
:10175000294620460DF06AFB0646304670BD10B59E
:101760000446E5480078022803D1EC49ECA00DF0CE
:10177000ABF924B164220021E84801F081FA10BDE0
:101780002DE9F0419AB005460E4614460027642123
:1017900068460DF007FCB8460020E34908802A4659
:1017A000DFA168460DF09CF908F060FA80466846B3
:1017B000FFF7E1F8404608F05DFABEB1B4B10EE0C3
:1017C00019A9D648FFF7EAF83146D448FFF7BCFF1D
:1017D00000B108E064220021D04801F051FA601EF7
:1017E00080B20400ECD100BF04B9012738461AB01A
:1017F000BDE8F0812DE9F0419AB005460E4600247F
:10180000642168460DF0CEFB3746A0460020C6494D
:1018100008802A46C2A168460DF062F908F026FA4F
:1018200080466846FFF7A7F8404608F023FA3EE0F6
:10183000781E87B219A9B948FFF7B0F8BBA1B7481D
:101840000DF0F4FA0446002C31D0B9A1B3480DF0E4
:10185000EDFA0446002C2AD0A7480078022803D1CC
:10186000AE49AFA00DF030F9B3A1AC480DF0DEFAEF
:10187000044644B164220021A84801F001FA204640
:101880001AB0BDE8F081AFA1A4480DF0CFFA04462C
:1018900034B164220021A14801F0F2F92046EFE7BB
:1018A000642200219D4801F0EBF90020E8E7002FB9
:1018B000BED164220021994801F0E2F92046DFE719
:1018C00010B542F2107001F0B0F90A248A4800788D
:1018D000022802D19DA00DF0F7F817E0601EC4B2F7
:1018E0004FF4967001F0A1F983480078022802D1E4
:1018F00096A00DF0E9F84CB90A24FFF70DFF4FF45C
:10190000FA7001F092F901F0C5F907E04FF4967210
:1019100086A190A0FFF734FF0028DFD100BF01208F
:10192000FFF71DFF74480078022802D18AA00DF04D
:10193000CBF84FF47A727DA189A0FFF721FF4FF415
:10194000FA7001F072F90120FFF709FF6A48007888
:10195000022802D184A00DF0B7F84FF4967273A15B
:1019600086A0FFF70DFF4FF4FA7001F05EF9012039
:10197000FFF7F5FE60480078022802D183A00DF041
:10198000A3F841F2883284A185A0FFF7F9FE4FF455
:10199000FA7001F04AF90120FFF7E1FE564800789D
:1019A000022802D181A00DF08FF84FF47A7282A143
:1019B00083A0FFF7E5FE4FF4FA7001F036F901203D
:1019C000FFF7CDFE4C480078022802D17FA00DF031
:1019D0007BF84FF47A7280A181A0FFF7D1FE4FF41B
:1019E000FA7001F022F90120FFF7B9FE42480078B1
:1019F000022802D17CA00DF067F84FF496724BA13B
:101A00007CA0FFF7BDFE4FF4FA7001F00EF9012043
:101A1000FFF7A5FE38480078022802D178A00DF023
:101A200053F8C82241A17AA0FFF7AAFE4FF4FA703A
:101A300001F0FBF80120FFF792FE2F480078022802
:101A400002D177A00DF040F840F2DC5237A178A027
:101A5000FFF796FE4FF4FA7001F0E7F80120FFF768
:101A60007EFE10BD00B589B0242168460DF09AFABB
:101A7000724A73A168460DF033F84FF47A7001F0A2
:101A8000D4F81D480078022802D172A00DF01CF88D
:101A90004FF4967225A173A0FFF772FE4FF4FA700F
:101AA00001F0C3F80120FFF75AFE1348007802281E
:101AB00003D169466FA00DF007F84FF4FA721BA12D
:101AC0006846FFF75DFE4FF4FA7001F0AEF80120B2
:101AD000FFF745FE08480078022802D166A00CF006
:101AE000F3FF4FF47A7211A167A0FFF749FE4FF49C
:101AF000FA70CFE000080240480000204D33355016
:101B00006F7765724F4E0D0A000000004D3335505F
:101B10006F7765724F66660D0A000000DC300020AA
:101B200025730D0A00000000140000204F4B000038
:101B3000434F4E4E45435400434F4E4E4543542071
:101B40004F4B0000414C52454144590041540D0A4D
:101B50000000000041540000415445300D0A0000CF
:101B6000415445300000000041542B4950523D3152
:101B7000313532303026570D0A00000041542B49D0
:101B800050523D31313532303026570041542B43CD
:101B900050494E3F0D0A00002B4350494E000000B3
:101BA00041542B4350494E3F0000000041542B4309
:101BB0005245473F0D0A00002B43524547000000A5
:101BC00041542B435245473F0000000041542B43F2
:101BD00053510D0A000000002B4353510000000038
:101BE00041542B435351000041542B434D47463D34
:101BF000310D0A0041542B434D47463D3100000052
:101C000041542B435343533D2247534D220D0A0069
:101C100041542B435343533D2247534D2200000070
:101C200041542B434E4D493D322C320D0A000000E9
:101C300041542B434E4D493D322C32002644002066
:101C400041542B5149435347503D312C2225732297
:101C50000000000041542B51494647434E543D304B
:101C60000D0A000041542B51494647434E543D3024
:101C7000000000002573000041542B51494D555878
:101C80003D310D0A0000000041542B51494D55587B
:101C90003D31000000F0C9FF0120FFF760FDF8486A
:101CA0000078022802D1F7A00CF00EFF4FF47A72F0
:101CB000AFF28811F7A0FFF763FD4FF4FA7000F060
:101CC000B4FF0120FFF74BFDED480078022802D158
:101CD000F3A00CF0F9FE4FF41672F4A1F5A0FFF793
:101CE0004FFD4FF4FA7000F0A0FF0120FFF737FD21
:101CF00009B000BD2DE9F0479EB005460E461746D7
:101D0000984603244FF4167A642105A80DF04AF989
:101D10000020029003900490814600BFE848CDE97E
:101D2000006750F825304246E6A105A80CF0D8FE21
:101D3000D3480078022804D105A9AFF21C200CF08A
:101D4000C3FE4FF47A7105A8FFF754FD8146B9F13F
:101D5000000F07D04FF4967000F067FF00201EB010
:101D6000BDE8F087601EC4B20CB90120F7E720E09F
:101D700040F6B83000F059FF4246D9A102A80CF055
:101D8000AFFEBF480078022804D102A9AFF270204C
:101D90000CF09AFE4FF47A72AFF2702102A8FFF7AE
:101DA000EFFC4FF4FA7000F040FF0120FFF7D7FC82
:101DB000B4E7002CDCD1642000F037FF0120CEE72F
:101DC000F0B599B005460E461446002764216846D2
:101DD0000DF0E8F82A46AFF2B82168460CF080FE14
:101DE0006846FEF7C8FD96B18CB109E00A230022CF
:101DF0001146104607F076FBBD48007800B103E0BD
:101E0000601E80B20400F1D100BF04B90127002098
:101E1000B7490870384619B0F0BD2DE9F0410646C3
:101E2000B4A130460DF002F8074657B19448007847
:101E3000022803D13146B0A00CF046FE0120AC4987
:101E40000870AFA130460CF0F1FF044684B18C4815
:101E50000078022803D13146A7A00CF035FEAAA1D4
:101E600030460CF0E3FF054615B10120A849087083
:101E7000BDE8F0812DE9F04186B006460D461746D3
:101E80004FF0000801A818B9484606B0BDE8F08137
:101E90001422002101A800F0F3FE2B463A469DA132
:101EA00001A80CF01DFE76480078022807D193A007
:101EB0000CF00AFE01A9AFF298300CF005FE4FF4C9
:101EC00048728CA101A8FFF77BFFA8B96C48007885
:101ED00002280CD189A00CF0F7FD002405E0315D4B
:101EE00090A00CF0F1FD601CC4B2AC42F7DB2946B7
:101EF0003046FEF721FD03E04FF00108FFF70CFC30
:101F00000A2000F092FE4046BFE770B50446002567
:101F100006E00A2000F089FE7D48007800B103E069
:101F2000601E80B20400F4D100BF00207849087020
:101F300004B90125284670BD2DE9FC4704460D462D
:101F40001646002000900190E84600E0641C2078CE
:101F50002C28FBD1641C05E0207888F80000641C64
:101F600008F1010820780D28F6D10A2200216846E0
:101F70000CF024FF3080B6F8009000E0641C20785C
:101F80007E28FBD1002705E0207828706D1C641C9A
:101F9000781C87B24F45F7DBBDE8FC87F0B5B3B0DE
:101FA00005460F460026C82101A80CF0FBFF0020C3
:101FB00000905EA128460CF039FF064606B36A463B
:101FC00001A92846FFF7B8FF2D480078022812D152
:101FD00059A00CF079FD002406E001A8015D51A094
:101FE0000CF072FD601C84B2BDF800008442F4DB8A
:101FF00042A00CF069FD524901A808F0E5FC02E09E
:102000002846FFF70AFF33B0F0BD10B50124FFF7F3
:1020100071FBFFF755FCFFF725FD4A4991F83400A5
:10202000002301F11202891CFFF764FE044614B973
:10203000012045490870204610BDF8B54348007896
:10204000052190FBF1F0C6B24048007890FBF1F218
:1020500001FB1200C7B287B9012484E005232246A0
:102060003146684607F0B9FF00229DF80010384855
:10207000FFF700FF05460DB179E079E06AE0000066
:102080004800002041542B51494D4F44453D300DEF
:102090000A00000041542B51494D4F44453D30004A
:1020A00041542B5149535441540D0A005149535442
:1020B0004154000041542B514953544154000000F5
:1020C0002800002041542B51494F50454E3D256476
:1020D0002C222573222C222573222C25730000002C
:1020E00041542B5149434C4F53453D25640000005A
:1020F000320000203E0000000D0A25730D0A00008A
:1021000053454E440000000053454E44204F4B00C1
:102110003300002041542B514953454E443D256422
:102120002C25640025303258000000002B52454316
:10213000454956450000000052453A0D0A0000008E
:102140004B0000200E44002031000020BC55002030
:10215000585400204FF4FA70FFF7D7FE054605B13A
:1021600005E0601CC4B2701C8442FFF677AF1DE02E
:10217000012417E03B462246711C684607F02DFFFC
:1021800000229DF800100C48FFF774FE054605B1CB
:102190000BE04FF4FA70FFF7B8FE054605B104E016
:1021A000601CC4B2B01C8442E4DB00BF15B1012046
:1021B00002490870F8BD0000585400204900002072
:1021C00010B500240020D44908604FF090000CF0B6
:1021D00074FA00200CF071FA00200CF06EFA002066
:1021E0000CF06BFAFF200CF068FA44EA0024FF20A0
:1021F0000CF063FA04430120C849C1F8A802204644
:1022000010BD1CB501210A2002F014FC4FF48060BF
:10221000009001208DF8040000208DF806000320B6
:102220008DF8050001208DF807006946BC4802F0D2
:1022300063F90120B84908600CF058FA00200CF04E
:10224000B2FAFFF7BDFFB74908801CBD10B50024E6
:102250000020B14908604FF005000CF02EFAFF2075
:102260000CF02BFA04460120AC49C1F8A802204624
:1022700010BD10B504460020A74908604FF00100CA
:102280000CF01BFA20460CF018FA0120A349C1F803
:10229000A80210BD10B500209F4908604FF006004D
:1022A0000CF00BFA01209D49C1F8A80210BD10B531
:1022B0000020994908604FF004000CF0FEF901205D
:1022C0009649C1F8A80210BD2DE9F04106460C461A
:1022D00017460020904908604FF003000CF0EDF91C
:1022E000C4F307400CF0E9F9C4F307200CF0E5F95A
:1022F000E0B20CF0E2F9002505E0FF200CF0DDF97A
:102300007055681C85B2BD42F7DB01208249086028
:10231000BDE8F08110B500BFFFF798FF10F0010F86
:10232000FAD110BD2DE9F04106460C461746FFF7DD
:10233000B1FF0020784908604FF002000CF0BDF9B1
:10234000C4F307400CF0B9F9C4F307200CF0B5F959
:10235000E0B20CF0B2F9002504E0705D0CF0ADF9CC
:10236000681C85B2BD42F8DB01206B490860FFF7AD
:10237000D1FFBDE8F0812DE9F04107460E46144635
:10238000F0B2C0F58075AC4200DC254612E02A466A
:1023900031463846FFF7C6FFAC4200D10BE02F4470
:1023A0002E44601B84B2B4F5807F02DD4FF480754B
:1023B00000E02546EBE700BFBDE8F08110B504461C
:1023C0002403FFF767FFFFF7A5FF002052490860CD
:1023D0004FF020000CF071F9C4F307400CF06DF9D8
:1023E000C4F307200CF069F9E0B20CF066F90120A3
:1023F0004A49C1F8A802FFF78DFF10BD2DE9F05F33
:1024000081460F461646DFF820B14FEA1738C7F36A
:102410000B0ACAF58054A64200DC344644E04FEA79
:1024200008314FF480525846FFF74EFF002508E070
:102430000AEB05001BF80000FF2800D003E0681C31
:1024400085B2A542F4DB00BFA54216DA4046FFF78D
:10245000B5FF002507E019F8050005EB0A010BF8A8
:102460000100681C85B2A542F5DB4FEA08314FF444
:1024700080525846FFF77FFF04E02246394648461F
:10248000FFF779FFA64200D10FE008F101084FF0F5
:10249000000AA1442744301B86B2B6F5805F02DDF6
:1024A0004FF4805400E03446B9E700BFBDE8F09F28
:1024B00010B5FFF7EFFEFFF72DFF0020164908606B
:1024C0004FF0C7000CF0F9F801201449C1F8A80238
:1024D000FFF720FF10BD10B500200F4908604FF036
:1024E000B9000CF0EAF801200C49C1F8A802032059
:1024F00000F070FB10BD10B50020074908604FF0D8
:10250000AB000CF0DAF801200449C1F8A80203205E
:1025100000F060FB10BD0000A882414200804142F3
:10252000000C024038000020763200201CB501214A
:10253000FF2002F07FFA03208DF804008DF80500DB
:1025400000208DF807004FF6FF70009069462A487A
:1025500001F0D2FF6946294801F0CEFF69462848BC
:1025600001F0CAFF6946274801F0C6FF69462648C0
:1025700001F0C2FF6946254801F0BEFF69462448C4
:1025800001F0BAFF6946234801F0B6FF0021FF20A1
:1025900002F050FA012004F0A0FB0121084604F0EB
:1025A000A8FB1CBD10B500241B480488214604204C
:1025B000FEF790FE0121164802F01AF84FF4804110
:1025C0000E4802F017F84FF400510C4802F012F8D0
:1025D0004FF48051094802F00DF84FF400610748AC
:1025E00002F008F80D480078022802D10CA00CF087
:1025F0006BFAFFF79BFF10BD00080240000C024081
:1026000000100240001C024000180240001402406A
:1026100000040240000002400E4400204800002058
:102620000D0A53797374656D2048696265726E6135
:102630007465730D0A00000070B50020F849087138
:10264000002404E00020F6490855601CC4B2042CA4
:10265000F8DB00240DE0002507E00021F048401DD4
:1026600000EB84004155681CC5B2042DF5DB601CED
:10267000C4B21E2CEFDBEA4800F049FB70BD10B578
:1026800002460B460024002103E0505C4440481CF5
:10269000C1B29942F9DBE043C0B210BD2DE9F0416F
:1026A00007461022002138460CF088FB0446DC481F
:1026B00000F024FB002525E0260ED948401D10F827
:1026C0002500B0421CD1C4F30746D548401D00EB9D
:1026D00085004078B04213D1C4F30726D048401D8E
:1026E00000EB85008078B0420AD1E6B2CC48401DAC
:1026F00000EB8500C078B04202D10120BDE8F08136
:10270000681CC5B2C6480079A842D5DC210EC44871
:102710000279401D00F82210210C401F0279401D53
:1027200000EB82004170210ABD480279401D00EB98
:1027300082008170BA480279401D00EB8200C470AB
:10274000B7480079401CB6490871084600791E2830
:1027500001DB00200871B24800F0D9FA0020CDE773
:102760002DE9F04105460E461746FF20AD49087099
:102770004870002405E0295DA01CAA4A1154601C81
:10278000C4B2042CF7DBA7488671002405E00021C1
:10279000E01DA44A1154601CC4B20C2CF7DB0024C9
:1027A00006E0395D04F113009E4A1154601CC4B266
:1027B000042CF6DB002406E0002104F11700994AFE
:1027C0001154601CC4B2042CF6DB1B219548FFF7A2
:1027D00056FF9449C876BDE8F0812DE9FE43804656
:1027E00091A140460CF022FB06462EB101209249F1
:1027F000087092A00CF068F994A140460CF016FB0A
:102800000646A6B10A220021684600F039FA314690
:10281000684600F0F2FC6846FFF740FF07461FB12C
:102820008DA00CF051F902E090A00CF04DF994A1AC
:1028300040460CF0FBFA0646002E36D094A00CF071
:1028400043F9012076490870FF2048700020887005
:10285000C870002422E07249491D01EB84004A1F20
:102860002321FFF77DFF8FA00CF02EF9002506E055
:102870006C48415D90A00CF027F9681CC5B21C2D76
:10288000F6DB71A00CF020F91C216648FEF784F9F4
:102890004FF4FA6000F0C9F9601CC4B260480079D6
:1028A000A042D8DC86A00CF00FF98AA140460CF0BB
:1028B000BDFA0646002E36D08AA00CF005F900209D
:1028C00057490870FF20487000208870C8700024A5
:1028D00022E05349491D01EB84004A1F2321FFF7E1
:1028E0003FFF70A00CF0F0F8002506E04D48415D78
:1028F00071A00CF0E9F8681CC5B21C2DF6DB52A0E3
:102900000CF0E2F81C214748FEF746F94FF4FA6054
:1029100000F08BF9601CC4B241480079A042D8DCB9
:1029200075A00CF0D1F879A140460CF07FFA06466C
:10293000002E36D079A00CF0C7F811203849087065
:1029400000204870FF208870C870002422E03449BD
:10295000491D01EB84004A1F2221FFF701FF51A00E
:102960000CF0B2F8002506E02E48415D52A00CF0B4
:10297000ABF8681CC5B21C2DF6DB33A00CF0A4F834
:102980001C212848FEF708F94FF4FA6000F04DF9D1
:10299000601CC4B222480079A042D8DC64A00CF0CC
:1029A00093F868A140460CF041FA0646002E34D058
:1029B00068A00CF089F800201949087048708870E8
:1029C000C870002422E01649491D01EB84004A1F0B
:1029D000EE21FFF7C5FE33A00CF076F8002506E0E7
:1029E0001048415D34A00CF06FF8681CC5B21C2D76
:1029F000F6DB15A00CF068F81C210A48FEF7CCF8AD
:102A00004FF4FA6000F011F9601CC4B20448007978
:102A1000A042D8DC54A00CF057F8BDE8FE830000BB
:102A200076420020F3420020247465737476616C52
:102A3000762B2B2B00000000580000202B746573B0
:102A40007476616C76206F6E0D0A000024736574D5
:102A500076616C766569640073657476616C766521
:102A60006964206572726F720D0A00007365747676
:102A7000616C76656964207375636573730D0A0014
:102A80002473657476616C76616C6C6F6E00000007
:102A900076616C76616C6C206F6E202E2E2E2E2E41
:102AA0000D0A000052533438355F53656E645F443D
:102AB0006174610D0A0000002530325820000000CA
:102AC00076616C76616C6C206F6E206F6B210D0AE5
:102AD000000000002473657476616C76616C6C6F25
:102AE0006666000076616C76616C6C206F666620AD
:102AF0002E2E2E2E2E0D0A0076616C76616C6C20C7
:102B00006F6666206F6B210D0A00000024736574E8
:102B1000696365616C6C6F6666000000696365617E
:102B20006C6C206F6666202E2E2E2E2E0D0A000055
:102B3000696365616C6C206F6666206F6B210D0A9E
:102B400000000000247365746368616765616C6CE4
:102B5000000000006368616765616C6C20202E2EA8
:102B60002E2E2E0D0A0000006368616765616C6C93
:102B700020206F6B210D0A0010B504F0BEFC04F09C
:102B800002FE04F0D5FC10BD70B504466FF00400E1
:102B900001F00DFCE11704EB5171C1F3C701344A98
:102BA0001170E11704EB5171CD1041F288304543AB
:102BB0000520304908804FF0E020006940F0020015
:102BC0004FF0E021086108464561006940F00100CE
:102BD000086170BD2DE9F047074600264FF0E02060
:102BE000D0F814902248007807FB00F800BF04F0EA
:102BF000D7FC4FF0E020856911E04FF0E0208469B8
:102C0000AC420CD0AC4202D2281B064403E0A9EB34
:102C10000400284406442546464500D300E0ECE77E
:102C200000BF04F002FDBDE8F08770B5044612480D
:102C30000078012814D11148007888B90D4800881F
:102C4000844206DB0B48008894FBF0F5284606F02A
:102C500017FC0848008894FBF0F100FB114084B297
:102C60004FF47A7104FB01F0FFF7B4FF70BD000070
:102C70003A0000203C000020960000208A0000203E
:102C800030B5034601E003F8011B1400A2F1010274
:102C9000F9D130BDBB48BC490860704710B5044647
:102CA00041222146B948FEF7F9F910BD70B5044636
:102CB000002506F0DBFF054641222146B348FEF71A
:102CC0009CF9284606F0D6FF70BD10B5044640F6C4
:102CD000621264212046FFF7F7FA10BD70B5044672
:102CE000002506F0C3FF054640F662126421204627
:102CF000FFF784FB284606F0BDFF70BD10B5044603
:102D00007D2240F62A212046FFF7DEFA10BD70B57D
:102D10000446002506F0AAFF05467D2240F62A213A
:102D20002046FFF76BFB284606F0A4FF70BD10B5E8
:102D30000446112296492046FFF7C6FA10BD70B529
:102D40000446002506F092FF0546112290492046D0
:102D5000FFF754FB284606F08DFF70BD10B58D4877
:102D6000FFF7E5FF8B48007C0A281AD04FF4165075
:102D7000884908600020087108734873487207206A
:102D800048810C20A1F8070040F2B110A1F805001D
:102D90000120C873142088730A2008740846FFF7BE
:102DA000CEFF10BD0EB57CA00BF08EFE8248FFF763
:102DB00075FF814890F840000A2836D064207E498B
:102DC00008807EA17C48801C0BF08AFE7FA17A4897
:102DD00012300BF085FE7FA1774824300BF080FE87
:102DE0007FA1754818300BF07BFE0120724981F8F5
:102DF00034000A20C1F83500002081F8390081F83C
:102E00003A0081F83B0000216B4880F83C1080F8C4
:102E10003D100A20684981F840000846FFF746FF48
:102E200008F045FAFFF708FC43E06F48FEF71DFB8A
:102E30000A20FFF7FAFE6C48FEF720FB6A4880780C
:102E400069494978684A1278CDE9002102906648BC
:102E5000C3798279818865A00BF036FE564924310A
:102E60006CA00BF031FE544A1232A2F110016CA09A
:102E70000BF02AFE504918316CA00BF025FE4E488D
:102E800090F834006C4A52F820106CA00BF01CFE35
:102E9000494801886EA00BF017FE474890F839109A
:102EA0006EA00BF011FE7148FFF70FFF7048FFF79F
:102EB00025FF414890F83B006E4908733E4890F862
:102EC0003C106C4841733C4890F83D106948817350
:102ED0000020694908700EBD10B50A2066490870C7
:102EE000FEF71AFC4FF4FA70FFF79FFEFFF7D2FED1
:102EF00010BD10B508F07AFD6049086009680868DF
:102F0000804708F0F0F910BD70B505460E462A4816
:102F100090F83900E8B959480068314602692846F6
:102F200090470120564908700EE0544909684869E5
:102F30008047C4B2042C04D150490968886880478E
:102F400003E00A20FFF771FEEFE700BF00204C49C5
:102F50000870194890F83900012803D131462846F5
:102F6000FDF71AFE70BD10B54FF4E130FDF78BFC94
:102F7000FEF73AFBFFF745F90BF01EFB0BF0BEFC2A
:102F800010BD00000400FA050CED00E00080070809
:102F90008BFFFF07C45F00202B574C572D53544D18
:102FA000333246342056657273696F6E20312E308D
:102FB0002D300D0A000000000E4400203139322E61
:102FC0003136382E312E3130300000003838383864
:102FD0000000000030303030303030303000000041
:102FE000636D6E65740000006C3200202B74696D97
:102FF000653D253034642D253032642D2530326412
:1030000020253032643A253032643A253032640D5E
:103010000A0000002B534E2025730D0A000000000B
:103020002B69702025732025730D0A002B61706EAB
:103030002025730D0A000000280000202B74637007
:103040002D756470206D6F64653A25730D0A00005C
:103050002B68616E642025640D0A00002B64617486
:10306000616D6F64652025640D0A0000BC55002069
:1030700076420020205F002049000020440000200C
:103080004C000020014600BF704700BFFE4A128876
:1030900012F0400FFAD0C2B2FB4B9A80704710B5C5
:1030A00088B004460121084601F0C4FC012110202B
:1030B00001F01AFD07220921F44801F0A8FA0722BD
:1030C0000A21F24801F0A3FA4FF4C06006900220F2
:1030D0008DF81C008DF81D0000208DF81E000120C9
:1030E0008DF81F0006A9E94801F006FA02940020B5
:1030F000ADF80C00ADF80E00ADF81000ADF81400FE
:103100000C20ADF8120002A9DF4801F04EFE0121AB
:10311000DD4801F0D2FE4021DB4801F0B6FF01227C
:1031200040F22551D84801F07EFF25208DF804009B
:1031300003208DF805008DF8060001208DF80700AA
:1031400001A801F0E6F808B010BD10B504F0D5F9FB
:1031500040F22551CC4801F0A1FF00284AD0CA48CE
:1031600001F0DAFEC4B2CA48007878B1242C0DD040
:10317000C848008864283DDAC748C64909884454CD
:10318000C4480088401CC349088033E00020C0497F
:103190000870C048008810F4004F2BD1BD4800884B
:1031A00010F4804F0CD00A2C03D00020B9490880BD
:1031B00020E0B848008840F40040B649088019E093
:1031C0000D2C06D1B348008840F48040B1490880F6
:1031D00010E0B0480088C0F30D00AF490C54AD4872
:1031E0000088401CAB49088008460088C72801DDDC
:1031F0000020088004F09CF910BD70B505460C460F
:10320000042200212846FFF73BFD00E0641C2078E3
:103210002028FBD1641C214628460BF019FE70BD06
:1032200001460120704770B505460C460020286015
:1032300000E0641C20783D28FBD1641C2146284610
:103240000BF006FE70BD01460120704701460120CB
:1032500070470146032901D3002070470120FCE795
:103260000146B1F5FA7F01D300207047B1F5C87F60
:1032700001D20020F9E70120F7E70146032901D335
:10328000002070470120FCE70146B1F5966F14D08D
:10329000B1F5166F11D0B1F5965F0ED0B1F5165F8E
:1032A0000BD0B1F5964F08D0B1F5164F05D0B1F55A
:1032B000614F02D0B1F5E13F01D1012070470020FC
:1032C000FCE72DE9F04782460E4690461C46B14683
:1032D000554630460BF0E0FD0746B84501DDA7EB4B
:1032E0000408002C00DA0024BC4202DD0020BDE806
:1032F000F087A14403E019F8010B05F8010B5FEA20
:103300000800A8F10108F6D105F8010B5046EEE7D8
:103310002DE9F84304460E461746984600200090D3
:103320006D4603E0207828706D1C641C20782D28E1
:10333000F8D1641C0A22002168460BF03FFD308062
:10334000032200216846FFF79BFC6D4603E02078CE
:1033500028706D1C641C20782D28F8D1641C0A226A
:10336000002168460BF02AFD38700A220021204611
:103370000BF024FD88F80000BDE8F8832DE9F04F3C
:1033800087B005460E4617469846DDE910AB129CFD
:1033900000200490059006900190029003900DF19A
:1033A0000409009000E0641C20782028FBD1641CF4
:1033B00005E0207889F80000641C09F101092078F3
:1033C0002028F6D1641C3B463246294601A8FFF767
:1033D0009FFF214604A80BF03BFD0023022204A915
:1033E0006846FFF76EFF0A22002168460BF0E6FCF4
:1033F00088F800000323022204A96846FFF761FF52
:103400000A22002168460BF0D9FC8AF80000062346
:10341000022204A96846FFF754FF0A2200216846E9
:103420000BF0CCFC8BF8000007B0BDE8F08F2DE965
:10343000F04F8BB08246142103A80BF0B3FD4FF080
:103440000009C84615A150460BF0F0FC05462DB109
:1034500002201549087015A00BF036FB17A1504645
:103460000BF0E4FC05462DB104200F49087016A0AE
:103470000BF02AFB19A150460BF0D8FC05469DB372
:1034800005200949087030E00010014000000240AA
:1034900058000020500000204F4400202424646580
:1034A0006275672032000000480000204445425504
:1034B000475F47534D5F4F4E0D0A0000242464655B
:1034C000627567203400000044454255475F5253FF
:1034D0003438355F4F4E0D0A000000002424646527
:1034E000627567203500000002E0FAA00BF0ECFAEC
:1034F000FDA150460BF09AFC05462DB10020FD4978
:103500000870FDA00BF0E0FAFEA150460BF08EFC17
:10351000054685B110220021FC48FFF7B1FB294682
:10352000FA48FFF76AFEF948801EFFF7BFFBF7492C
:10353000F7A00BF0C9FAF9A150460BF077FC05464D
:103540009DB106220021F1481030FFF799FB294672
:10355000EE481030FFF751FEEC48801EFFF7A6FB47
:10356000EA491031EFA00BF0AFFAF1A150460BF091
:103570005DFC05469DB10C220021E4481630FFF7A2
:103580007FFB2946E1481630FFF737FEDF48801EF3
:10359000FFF78CFBDD491631E7A00BF095FAE9A1A6
:1035A00050460BF043FC0546FDB10A22002108A855
:1035B000FFF766FB294608A8FFF71FFE0A22002135
:1035C00008A80BF0FBFBD149891E08800846FFF7CD
:1035D0006DFB0120DD4948730020DD490860CB48C0
:1035E000801E0188DBA00BF06FFADDA150460BF0C6
:1035F0001DFC05469DB110220021C4482230FFF772
:103600003FFB2946C1482230FFF7F7FDBF48801E27
:10361000FFF74CFBBD492231D3A00BF055FAD5A1E1
:1036200050460BF003FC0546002D44D0D348FDF76F
:103630001CFF1420FFF7F9FAD048FDF71FFFCF4811
:103640008078CE494978CD4A1278CDE900210290A0
:10365000CA48C37982798188C9A00BF035FAAB4991
:103660002231C1A00BF030FAA84A1032A749CEA0EF
:103670000BF02AFAA5491631CEA00BF025FAA34883
:10368000801E90F83400CE4A52F82010CDA00BF0E6
:103690001BFA9E48801E0188CFA00BF015FA9B48AC
:1036A000801E90F83910CFA00BF00EFAA8480168E0
:1036B000D0A00BF009FAD3A150460BF0B7FB05469A
:1036C000002D33D0D2A150460BF0B0FB0746002F9F
:1036D0002CD0AA48801C411E831E421DCDE9010545
:1036E0000091011D801CFFF749FEA4488078A34982
:1036F0004978DFF888C2CDE900109CF800309CF8CA
:1037000007209CF80610BCF80400FDF790FE9B48CB
:1037100081784078994A1278CDE900200291974843
:10372000C3798279818896A00BF0CEF9B9A1504671
:103730000BF07CFB054665B1B848007830B9012034
:10374000B6490870B6A00BF0BFF902E0B7A00BF0C5
:10375000BBF9BAA150460BF069FB0546D5B10A2268
:10376000002108A8FFF78CFA294608A8FFF745FDB5
:103770000A22002108A80BF021FB6449891E81F868
:103780003400084690F834008D4A52F82010ADA05D
:103790000BF09AF9B0A150460BF048FB0546DDB19D
:1037A0000A22002108A8FFF76BFA294608A8FFF7AC
:1037B00024FD0A22002108A80BF000FB5349891EB2
:1037C000C1F835000846FFF771FA5048801ED0F85E
:1037D0003510A4A00BF078F9A6A150460BF026FBFB
:1037E0000546DDB10A22002108A8FFF749FA29465B
:1037F00008A8FFF702FD0A22002108A80BF0DEFA54
:103800004249891E81F839000846FFF74FFA3F48C0
:10381000801E90F8391073A00BF056F998A150460D
:103820000BF004FB0546DDB10A22002108A8FFF7D2
:1038300027FA294608A8FFF7E0FC0A22002108A879
:103840000BF0BCFA3149891E81F83A000846FFF7AF
:103850002DFA2E48801E90F83A108CA00BF034F907
:103860008EA150460BF0E2FA0446002C20D02FA087
:103870000BF02AF98BA00BF027F98EA00BF024F99E
:103880008FA00BF021F992A00BF01EF994A00BF081
:103890001BF997A00BF018F998A00BF015F99AA056
:1038A0000BF012F99CA00BF00FF99FA00BF00CF994
:1038B0009FA150460BF0BAFA0446002C08D09FA1F5
:1038C00050460BF0B3FA04460CB118A03CE146E1B7
:1038D0006FE1000044454255475F50726F746F635B
:1038E0006F6C5F4F4E0D0A0024246465627567207B
:1038F000300000004800002044454255475F4F46D5
:10390000460D0A002473657469700000104400209D
:103910002B49502025730D0A0000000024736574A4
:10392000706F74002B504F52542025730D0A000005
:103930002473657461706E002B41504E2025730D09
:103940000A00000024736574686E640060550020EE
:10395000540000202B48414E442025640D0A0000ED
:1039600024736574736E00002B534E2025730D0A6B
:103970000000000024696E666F0000006C320020B9
:103980002B74696D653D253034642D253032642DEE
:103990002530326420253032643A253032643A25AD
:1039A0003032640D0A0000002B6970202573202539
:1039B000730D0A002B61706E2025730D0A00000044
:1039C000280000202B7463702D756470206D6F6467
:1039D000653A25730D0A00002B68616E642025642A
:1039E0000D0A00002B646174616D6F6465202564AD
:1039F0000D0A00002B6A69736869682025640D0A46
:103A0000000000002473657474696D650000000097
:103A10002D000000247265736574000049000020C9
:103A20002B5265736574204F6B0D0A002B52657322
:103A30006574204572726F720D0A00002474637001
:103A4000000000002B7463702D756470206D6F642E
:103A5000653A2025730D0A002473657464656C61F2
:103A6000797400002B64656C617974696D6520253B
:103A7000640D0A0024736574646174616D6F640081
:103A800024736574776F726B6D6F64002B776F7240
:103A90006B6D6F64652025640D0A000041542B2B6B
:103AA0000000000041542B535842444154450D0A34
:103AB0000000000041542B53585041520D0A0000A1
:103AC00041542B535852465246450D0A00000000FF
:103AD00041542B535852464D4F44450D0A000000A7
:103AE00041542B535852464641430D0A00000000F2
:103AF00041542B5358524642570D0A0041542B5300
:103B000058435449440D0A0041542B53584E4554D0
:103B100049440D0A0000000041542B5358504F57A0
:103B200045520D0A000000000D0A2B4F4B0D0A00F4
:103B300041542B53584244415445000041542B53A7
:103B40005842444154453F000AF0BEFFFD48016819
:103B5000FDA00AF0B9FFAFF230000AF0B5FFFEA1F8
:103B600050460BF063F904461CB3514603A8FFF717
:103B70005AFB0A22002103A80BF020F98046404698
:103B8000FFF782FB06466EB1EE48C0F80080FFF7F3
:103B9000D6F8AFF268200AF097FFAFF274000AF08F
:103BA00093FF06E0AFF27C200AF08EFFEDA00AF052
:103BB0008BFFEFA150460BF039F90446002C3AD0A8
:103BC000EEA150460BF032F904465CB1E7A00AF0D2
:103BD0007BFFDC480179ECA00AF076FFAFF2B80079
:103BE0000AF072FFEBA150460BF020F9044614B323
:103BF000514603A8FFF717FB0A22002103A80BF088
:103C0000DDF880464046FFF738FB06466EB1CD49E9
:103C100081F804800846FFF792F8D4A00AF054FF18
:103C2000AFF2FC000AF050FF05E0D0A00AF04CFF14
:103C3000CCA00AF049FFDAA150460BF0F7F8044691
:103C4000002C3BD0D9A150460BF0F0F8044664B1EB
:103C5000C6A00AF039FFBB48B0F80510D6A00AF09C
:103C600033FFAFF23C100AF02FFFD7A150460BF004
:103C7000DDF8044614B3514603A8FFF7D4FA0A222C
:103C8000002103A80BF09AF880464046FFF7E8FAB7
:103C900006466EB1AB49A1F805800846FFF74FF81C
:103CA000B2A00AF011FFAFF280100AF00DFF05E09C
:103CB000AEA00AF009FFABA00AF006FFC5A150466E
:103CC0000BF0B4F80446002C3AD0C5A150460BF0D6
:103CD000ADF804465CB1A5A00AF0F6FE9948417A19
:103CE000C3A00AF0F1FEAFF2C0100AF0EDFEC4A1CD
:103CF00050460BF09BF8044614B3514603A8FFF757
:103D000092FA0A22002103A80BF058F88046404698
:103D1000FFF79FFA06466EB18A4981F80980084686
:103D2000FFF70DF891A00AF0CFFEAFF204200AF0E1
:103D3000CBFE05E08DA00AF0C7FE8AA00AF0C4FE03
:103D4000B3A150460BF072F80446002C3BD0B3A14F
:103D500050460BF06BF8044664B184A00AF0B4FE40
:103D60007848B0F80710B0A00AF0AEFEAFF24820D5
:103D70000AF0AAFEB0A150460BF058F8044614B35E
:103D8000514603A8FFF74FFA0A22002103A80BF0BF
:103D900015F880464046FFF759FA06466EB1694964
:103DA000A1F807800846FEF7CAFF70A00AF08CFE53
:103DB000AFF28C200AF088FE05E06CA00AF084FEC9
:103DC00068A00AF081FE9FA150460BF02FF8044630
:103DD000002C3AD09EA150460BF028F804465CB166
:103DE00062A00AF071FE574841899CA00AF06CFE5F
:103DF000AFF2CC200AF068FE9CA150460BF016F8FA
:103E0000044614B3514603A8FFF70DFA0A22002115
:103E100003A80AF0D3FF80464046FFF714FA06468F
:103E20006EB14849A1F80A800846FEF788FF4FA006
:103E30000AF04AFEAFF210300AF046FE05E04BA051
:103E40000AF042FE47A00AF03FFE8BA150460AF05E
:103E5000EDFF0446002C3AD08BA150460AF0E6FF55
:103E600004465CB141A00AF02FFE3648817B8AA04F
:103E70000AF02AFEAFF250300AF026FE8AA1504620
:103E80000AF0D4FF044614B3514603A8FFF7CBF958
:103E90000A22002103A80AF091FF80464046FFF75E
:103EA000BFF906466EB1274981F80E800846FEF735
:103EB00046FF2EA00AF008FEAFF294300AF004FE8E
:103EC00005E02AA00AF000FE26A00AF0FDFD7AA176
:103ED00050460AF0ABFF04466CB124A00AF0F4FD92
:103EE00009F065FB8346594676A00AF0EDFDAFF276
:103EF000C8300AF0E9FD77A150460AF097FF07465F
:103F0000F7B10A22002108A8FEF7BAFE394608A830
:103F1000FFF773F91022002108A80AF04FFF81462D
:103F20004FEA19406F4908734FEA19216D484173F0
:103F300080F80E90007B6C4981F83B006948D5E021
:103F4000E2E00000C45F00202B5358424441544536
:103F50003A25640D0A00000041542B535842444155
:103F600054453D000D0A2B4552524F520D0A000098
:103F700041542B53585041520000000041542B53E0
:103F8000585041523F0000002B53585041523A259F
:103F9000640D0A0041542B53585041523D0000001B
:103FA00041542B53585246524645000041542B531E
:103FB0005852465246453F002B53585246524645AA
:103FC0003A25640D0A00000041542B5358524652C2
:103FD00046453D0041542B535852464D4F444500F1
:103FE00041542B535852464D4F44453F000000006A
:103FF0002B535852464D4F44453A25640D0A000054
:1040000041542B535852464D4F44453D000000004B
:1040100041542B53585246464143000041542B53C0
:104020005852464641433F002B535852464641435F
:104030003A25640D0A00000041542B53585246465D
:1040400041433D0041542B53585246425700000013
:1040500041542B5358524642573F00002B5358525D
:104060004642573A25640D0A0000000041542B5384
:1040700058524642573D000041542B535852465027
:104080004F5745520000000041542B5358524650A0
:104090004F5745523F0000002B53585246504F5740
:1040A00045523A25640D0A0041542B53585246504C
:1040B0004F5745523D00000041542B535852464340
:1040C00053513F002B535852464353513A2D2564C8
:1040D0000D0A00002473657463656E74657269640B
:1040E00000000000205F00200E440020417B51486A
:1040F00080F83C105048817B4E4880F83D10FEF718
:10410000D5FD4EA00AF0E0FC51A150460AF08EFE0B
:104110000746AFB10A22002108A8FEF7B1FD3946D3
:1041200008A8FFF76AF81022002108A80AF046FE46
:104130008146C9F307461FFA89F1304607F083F834
:1041400046A150460AF072FE074627B107F0AFF8C5
:1041500046A00AF0B9FC4AA150460AF067FE07469D
:104160002FB103204949087049A00AF0ADFC504620
:10417000FEF733FB0BB0BDE8F08F30B589B0474890
:104180000078002823D04648048800250A20FEF73E
:104190004CFD43480088844218D1BCB121464148B7
:1041A000FCF7FAFC40A00AF08FFC00BF06E03D4897
:1041B000415D42A00AF088FC681C85B2A542F6DB8E
:1041C0002EA00AF081FC00203549088027E0002558
:1041D0000024202101A80AF0E5FE3148008810F4EF
:1041E000004F1BD02E4805781E2D0FDC00BF0BE0C2
:1041F0002C48005D01A9085500BF3248008810F026
:10420000400FFAD0601CC4B2AC42F1DB002024495C
:10421000088001A9085501A8FFF709F900BF09B0F6
:1042200030BD01460120704701460120704701461C
:10423000012070470E440020205F00202B7365741E
:1042400063656E7465726964206F6B0D0A0000000F
:1042500024736574737873656E69640024636C6598
:104260006172737873656E69640000002B636C651E
:104270006172737873656E6964206F6B0D0A00005C
:10428000247365746D33356F6E0000004C000020A0
:104290002B7365746D33356F6E0D0A005800002066
:1042A000500000204F44002052533438355F53658E
:1042B0006E645F446174610D0A000000253032585D
:1042C00020000000001001400948804709480047CD
:1042D000FEE7FEE7FEE7FEE7FEE7FEE7FEE7FEE7B6
:1042E000FEE7FEE704480549054A064B7047000013
:1042F0002307000889010008386200203868002080
:10430000386400203864002033490143334A116087
:10431000704770B5002100230F22C47824B32F4CBE
:10432000246804F4E064C4F5E064C4F30721C1F137
:104330000404E3B20A4144789C40E1B2847814401A
:1043400021430C07210E264C05786155047804F0B2
:104350001F050124AC4005786D114FF0E02606EBF7
:104360008505C5F8004109E0047804F01F04012523
:10437000A5401C4C0678761144F8265070BD1A4AA8
:104380000A400243154B1B1F1A60704739B1134A8C
:10439000121D12680243114B1B1D1A6006E00F4AE2
:1043A000121D126882430D4B1B1D1A6070470428B2
:1043B00008D14FF0E021096941F004014FF0E022FB
:1043C000116107E04FF0E021096921F004014FF08D
:1043D000E0221161704700000000FA050CED00E0DA
:1043E00000E400E080E100E080FFFF1F10B504461C
:1043F0009848844208D10121084600F086FB00213C
:10440000012000F082FB76E09348844208D101212C
:10441000022000F07AFB0021022000F076FB6AE027
:104420008E48844208D10121042000F06EFB002157
:10443000042000F06AFB5EE08948844208D1012133
:10444000082000F062FB0021082000F05EFB52E033
:104450008448844208D10121102000F056FB00213D
:10446000102000F052FB46E07F48844208D1012131
:10447000202000F04AFB0021202000F046FB3AE01B
:104480007A48844208D10121402000F03EFB0021FF
:10449000402000F03AFB2EE07548844208D101210B
:1044A000802000F032FB0021802000F02EFB22E073
:1044B0007048844208D10121801500F026FB0021BC
:1044C000A01500F022FB16E06B48844208D10121C0
:1044D000401500F01AFB0021601500F016FB0AE001
:1044E0006648844207D10121001500F00EFB00212F
:1044F000201500F00AFB10BDF0B50A46002100238C
:10450000002400BF3DE0012505FA01F3156805EA26
:1045100003049C4234D105684F000326BE40B543D6
:10452000056015794E00B54006683543056015797C
:10453000012D02D01579022D16D185684F00032672
:10454000BE40B543856055794E00B5408668354319
:104550008560456801268E40B5434560456896797B
:104560008E40B6B235434560C5684F000326BE4055
:10457000B543C560D5794E00B540C6683543C560C2
:10458000491C1029BFD3F0BD4FF6FF710160002117
:10459000017141718171C171704708B54FF480326A
:1045A0000092009A0A430092009AC261C161009A87
:1045B000C261C2690092C269009208BD0246002031
:1045C00013690B4201D0012000E000207047014632
:1045D000086980B270470246002053690B4201D03F
:1045E000012000E0002070470146486980B2704712
:1045F00001837047418370470AB1018300E0418322
:1046000070474161704742694A4042617047F0B566
:10461000002300244D07ED0E02FA05F3CE1000F141
:10462000200555F826504E07F70E0F26BE40B5431D
:10463000CF1000F1200646F82750CE1000F12005DB
:1046400055F8265045EA0304CE1000F1200545F840
:104650002640F0BD00000240000402400008024075
:10466000000C0240001002400014024000180240FA
:10467000001C0240002002400024024000280240AA
:10468000F948006840F00100F74908600020F64949
:1046900008310860F4480068F4490840F2490860AD
:1046A000F348091D0860F348EF4984310860F04879
:1046B0001038091D0860EC48006820F48020EA49A1
:1046C00008600020E8490C310860E7498C31086037
:1046D00070470021E44A921C11701146087070471F
:1046E00010B501460022002300204A11012A02D100
:1046F000DD4C236808E0022A03D1DB4C70342368C8
:1047000002E0D94C7434236801F01F020124944064
:104710001C4201D0012000E0002010BD38B500206F
:1047200000900024002500BF3120FFF7D9FF054687
:104730000098401C00900098B0F5A04F01D0002DCB
:10474000F2D03120FFF7CCFF08B1012400E00024B3
:10475000204638BD01460020C34A106820F0F8000A
:1047600040EAC10010607047C349086070470021EB
:10477000BD4A703211701170012802D004280AD18C
:1047800004E00121B84A7032117005E00521B64AF3
:104790007032117000E000BF00BF7047B749086079
:1047A000704770B5049C41EA82150126C6EB53069A
:1047B00045EA0645054345EA0465AB4E361D3560BE
:1047C00070BDAD4908667047820142EA0172A64B8E
:1047D00084331A607047A8498866704710B5830112
:1047E00043EA016343EA02739F4C8834236010BD9F
:1047F000A14908677047A049C86470470246002075
:10480000994B0833186820F0EC6042EA0103184322
:10481000954B08331860704702460020924B0833CE
:10482000186820F0784042EA010318438E4B0833A1
:1048300018607047014600208B4A0832106820F04B
:10484000030008431060704787480830006800F094
:104850000C00704701460020834A0832106820F09F
:10486000F000084310607047014600207E4A08327D
:10487000106820F4E05008431060704701460020A3
:10488000794A0832106820F4604040EAC1001060A4
:104890007047F0B5002100220024022500260223E3
:1048A000714F08373F6807F00C0121B1042905D08A
:1048B000082937D105E0724F076036E0714F076075
:1048C00033E0694F3F1D3F68C7F38056664F3F1D79
:1048D0003F6807F03F036EB16A4FB7FBF3F7DFF8AD
:1048E00088C10CF1040CDCF800C0CCF3881C07FB79
:1048F0000CF40CE0624FB7FBF3F7DFF86CC10CF17E
:10490000040CDCF800C0CCF3881C07FB0CF4564FF9
:104910003F1D3F68C7F301477F1C7D00B4FBF5F7DF
:10492000076002E0564F076000BF00BF4E4F0837D8
:104930003F6807F0F0010909534F7A5C0768D740D8
:104940004760494F08373F6807F4E051890A4E4FE6
:104950007A5C4768D7408760434F08373F6807F461
:104960006041490B484F7A5C4768D740C760F0BD4B
:10497000002100F44072B2F5407F0AD13A4A083271
:10498000116821F4F811414A02401143364A0832B5
:104990001160354A70321268C0F30B031A43324B70
:1049A00070331A607047354944390860704733499D
:1049B000403908607047364908607047014600205A
:1049C000294A8C32106820F01F004A1E1043264AE4
:1049D0008C321060704701460020234A8C321068E8
:1049E00020F4F8504A1E40EA02201F4A8C32106020
:1049F0007047014600201C4A8C32106820F4401099
:104A000008431060704701460020174A8C32106836
:104A100020F4400008431060704701460020124A0D
:104A20008C32106820F440300843106070471949F8
:104A30000860704739B10C4A3032126802430A4BA1
:104A400030331A6006E0084A303212688243064B5F
:104A500030331A607047F9B1034A343212680243A6
:104A6000014B34331A601CE000380240FFFFF6EAC5
:104A7000103000240030002000004742800E4742E2
:104A80000024F40040787D0160000020FFFCFF0F4F
:104A90005C014742E01147428F4A126882438E4BC5
:104AA0001A60704739B18C4A121D126802438A4B52
:104AB0001B1D1A6006E0884A121D12688243864B4D
:104AC0001B1D1A60704739B1834A0C3212680243C9
:104AD000814B0C331A6006E07F4A0C321268824325
:104AE0007D4B0C331A60704739B17B4A1032126823
:104AF0000243794B10331A6006E0774A103212688D
:104B00008243754B10331A60704739B1724A243AA8
:104B100012680243704B243B1A6006E06E4A243A46
:104B2000126882436C4B243B1A60704739B16A4A61
:104B3000203A12680243684B203B1A6006E0664A3E
:104B4000203A12688243644B203B1A60704739B1A7
:104B5000614A1C3A126802435F4B1C3B1A6006E034
:104B60005D4A1C3A126882435B4B1C3B1A607047DB
:104B700039B1594A143A12680243574B143B1A6030
:104B800006E0554A143A12688243534B143B1A60AC
:104B9000704739B1504A103A126802434E4B103BED
:104BA0001A6006E04C4A103A126882434A4B103BA6
:104BB0001A60704739B1484A1C3212680243464BAA
:104BC0001C331A6006E0444A1C3212688243424B8E
:104BD0001C331A60704739B13F4A203212680243D1
:104BE0003D4B20331A6006E03B4A20321268824374
:104BF000394B20331A60704739B1374A2432126872
:104C00000243354B24331A6006E0334A24321268DB
:104C10008243314B24331A60704739B12E4A2C320B
:104C2000126802432C4B2C331A6006E02A4A2C32BD
:104C300012688243284B2C331A60704739B1264AD8
:104C4000303212680243244B30331A6006E0224AA5
:104C5000303212688243204B30331A60704701288B
:104C600008D11D493C31096841F008011A4A3C321B
:104C7000116007E018493C31096821F00801164A23
:104C80003C321160704739B1134A273A1278024317
:104C9000114B273B1A7006E00F4A273A12788243DD
:104CA0000D4B273B1A7070470B484030006840F0AE
:104CB0008070094940310860704701460020064A6B
:104CC000283A12680A4201D0012000E00020704713
:104CD00001492639087070473438024010B504463F
:104CE000FA48844208D101211020FFF752FF002129
:104CF0001020FFF74EFF57E0F548844209D101210B
:104D00004804FFF735FF00214FF40030FFF730FF74
:104D10004AE0F048844209D101218804FFF728FFC6
:104D200000214FF48020FFF723FF3DE0EA48844252
:104D300009D10121C804FFF71BFF00214FF4002017
:104D4000FFF716FF30E0E548844209D1012108054C
:104D5000FFF70EFF00214FF48010FFF709FF23E05B
:104D6000DF48844208D101212020FFF712FF0021F3
:104D70002020FFF70EFF17E0DA48844209D1012115
:104D80008807FFF7F5FE00214FF08040FFF7F0FEA7
:104D90000AE0D548844207D101214005FFF7E8FE2B
:104DA00000216005FFF7E4FE10BD2DE9FF47054631
:104DB0000E460024A14600BFA046B08900B100BF46
:104DC0002C8A24F44054F08804432C82AC8941F2AC
:104DD0000C608443B08831890843718908430443D7
:104DE000AC81AC8A24F44074B0890443AC82684638
:104DF000FFF74FFDB548854202D0B948854202D140
:104E0000DDF80C9001E0DDF80890A88910F4004F5F
:104E100008D009EBC90000EB091031684900B0FB6C
:104E2000F1F707E009EBC90000EB091031688900D0
:104E3000B0FBF1F76420B7FBF0F004012009642116
:104E400001FB1078A88910F4004F08D0322000EB45
:104E5000C800B0FBF1F000F00700044308E0322086
:104E600000EB08106421B0FBF1F000F00F000443E8
:104E70002C81BDE8FF874FF416510160002181802D
:104E8000C18001810C21418100218181704710B5D1
:104E900002460020108A20F470600B884C8823435F
:104EA0008C882343CC8823431843108210BD0021F3
:104EB000018041808180C180704721B1828942F4A4
:104EC0000052828104E082894DF6FF731A4082818C
:104ED0007047028B02F47F420283028B0A430283F3
:104EE000704721B1828942F40042828103E08289C5
:104EF000C2F30E028281704721B1828A42F40062BD
:104F0000828204E0828A4FF2FF731A4082827047E5
:104F1000C1F308028280704701468888C0F3080008
:104F20007047028A4FF6F0731A400282028A0A43DF
:104F30000282704721B1828942F00202828104E03C
:104F400082894FF6FD731A408281704782894FF241
:104F5000FF731A40828182890A4382817047028AE4
:104F60004FF6DF731A400282028A0A4302827047B8
:104F700021B1028A42F48042028204E0028A4BF6A6
:104F8000FF731A4002827047818941F001018181DB
:104F9000704721B1828A42F00802828204E0828A4C
:104FA0004FF6F7731A4082827047028BD2B20283A7
:104FB000028B42EA01220283704721B1828A42F0C9
:104FC0002002828204E0828A4FF6DF731A408282D6
:104FD000704721B1828A42F01002828204E0828A04
:104FE0004FF6EF731A4082827047828A4FF6FB7346
:104FF0001A408282828A0A438282704721B1828A61
:1050000042F00202828204E0828A4FF6FD731A4067
:10501000828270471AB1838A0B43838202E0838ABB
:105020008B4383827047F0B5034600240026002599
:105030000020A1F510676A3F00D100BF1846C1F3F8
:10504000421401F01F06012707FA06F5012C01D1D1
:105050000C3004E0022C01D1103000E014301AB101
:1050600007682F43076002E00768AF430760F0BDA1
:1050700002460020B1F5007F00D100BF13880B422B
:1050800001D0012000E00020704701F40072B2F569
:10509000007F00D100BFCA430280704770B502464E
:1050A0000024002300250020A1F510666A3E00D1EF
:1050B00000BFC1F3421501F01F03012606FA03F3F6
:1050C000012D13D19689334017E0000000100140F4
:1050D0000044004000480040004C004000500040A8
:1050E0000014014000780040007C0040022D02D1F5
:1050F000168A334001E0968A33400C12012606FAE4
:1051000004F41688344013B10CB1012000E00020F3
:1051100070BD10B500220023A1F510646A3C00D1D7
:1051200000BF0A1201249440A3B2DC43048010BDE6
:1051300010B50446FE48844208D101210846FFF715
:1051400028FD00210120FFF724FD9DE0B4F1804FF0
:1051500008D101210846FFF70BFD00210120FFF7D0
:1051600007FD91E0F348844208D101210220FFF7B6
:10517000FFFC00210220FFF7FBFC85E0EE488442A3
:1051800008D101210420FFF7F3FC00210420FFF7E0
:10519000EFFC79E0E948844208D101210820FFF7BB
:1051A000E7FC00210820FFF7E3FC6DE0E4488442BF
:1051B00008D101211020FFF7DBFC00211020FFF7B0
:1051C000D7FC61E0DF48844208D101212020FFF7AD
:1051D000CFFC00212020FFF7CBFC55E0DA488442C9
:1051E00008D101210220FFF7D4FC00210220FFF7A3
:1051F000D0FC49E0D548844209D101210804FFF7D9
:10520000C8FC00214FF48030FFF7C3FC3CE0D048DD
:10521000844209D101214804FFF7BBFC00214FF46F
:105220000030FFF7B6FC2FE0CA48844209D10121C3
:105230008804FFF7AEFC00214FF48020FFF7A9FCA3
:1052400022E0C548844208D101214020FFF790FCAC
:1052500000214020FFF78CFC16E0C048844208D1B2
:1052600001218020FFF784FC00218020FFF780FCD3
:105270000AE0BB48844207D101218015FFF778FC82
:105280000021A015FFF774FC10BD00220288A84B76
:1052900098420ED0AC4B98420BD0B0F1804F08D062
:1052A000A44B984205D0A44B984202D0A34B9842FD
:1052B00004D14FF68F731A404B881A43A04B984283
:1052C00007D0A04B984204D04FF6FF431A400B89F9
:1052D0001A4302804B68C3620B880385944B984243
:1052E00002D0994B984201D18B7A038601238382A5
:1052F00070474FF0FF314160002101800181418002
:10530000817270470185828270470A4600210188B8
:105310004FF68F7319401143018070474162704707
:10532000C16270470146486A70470146088D704760
:1053300021B1028842F00202028004E002884FF6A6
:10534000FD731A400280704721B1028842F00402C6
:10535000028004E002884FF6FB731A400280704717
:1053600021B1028842F08002028004E002884FF6F8
:105370007F731A400280704702884FF6F7731A4015
:10538000028002880A430280704702884FF6FF437A
:105390001A40028002880A430280704721B10288C5
:1053A00042F00102028004E002884FF6FE731A40C8
:1053B0000280704770B5002400220023058C4FF650
:1053C000FE7635400584028C8388048B4FF68F75FA
:1053D0002C40B51E2C400D882C43751E2A408D890B
:1053E0002A434D882A43524DA84202D0564DA84226
:1053F00013D14FF6F7752A40CD892A434FF6FB7536
:105400002A408D882A434FF6FF652B404FF6FF5503
:105410002B400D8A2B434D8A2B43838004838D6858
:105420004563028470BD70B5002400220023058C02
:105430004FF6EF7635400584028C8388048B48F65E
:10544000FF752C404FF6FF452C400D884FF6FF7638
:1054500006EA05252C434FF6DF752A408D8906EABA
:1054600005152A434D8806EA05152A43304DA84202
:1054700002D0354DA8421DD14FF67F752A40CD8907
:105480004FF6FF7606EA05152A434FF6BF752A4008
:105490008D8806EA05152A434FF6FF352B404FF25B
:1054A000FF752B400D8A06EA85052B434D8A06EAD7
:1054B00085052B43838004838D688563028470BDDA
:1054C00070B5002400220023058C4FF6FF6635409E
:1054D0000584028C8388848B4FF68F752C404FF6A1
:1054E000FC752C400D882C434FF6FF552A408D89C2
:1054F0004FF6FF7606EA05252A434D8806EA05257C
:105500002A430B4DA84202D00F4DA84238D14FF28A
:10551000FF752A40CD894FF6FF7606EA05252A4316
:105520004FF6FF352A408D8806EA05252A4319E003
:10553000000001400004004000080040000C004052
:1055400000100040001400400004014000400140F1
:10555000004401400048014000180040001C004089
:10556000002000404EF6FF752B404DF6FF752B4096
:105570000D8A06EA05152B434D8A06EA05152B43CD
:10558000838084838D68C563028470BD70B50022FA
:1055900000230024058C4EF6FF7635400584038CED
:1055A0008488828B48F6FF752A404FF6FF452A40D3
:1055B0000D884FF6FF7606EA05252A434DF6FF755E
:1055C0002B408D8906EA05352B434D8806EA0535C3
:1055D0002B43FE4DA84202D0FD4DA84208D14BF608
:1055E000FF752C400D8A4FF6FF7606EA85152C4391
:1055F000848082838D680564038470BD00210180EE
:105600004180818081608181C181018241827047B6
:1056100070B50346002000241846183001258D403F
:10562000ACB21D8CA5431D8409B108290AD100EB39
:10563000610005684FF68F763540056005681543B3
:1056400005600FE00D1FC5F34E052844056848F6B8
:10565000FF763540056005684FF6FF7606EA0226BC
:105660003543056070BD4163704781637047C16316
:105670007047016470470A460021018B4FF68F7313
:1056800019401143018370470A460021018B48F6F7
:10569000FF7319404FF6FF7303EA02231943018396
:1056A00070470A460021818B4FF68F7319401143D2
:1056B000818370470A460021818B48F6FF731940A9
:1056C0004FF6FF7303EA02231943818370470A46AA
:1056D0000021018B4FF6F773194011430183704786
:1056E0000A460021018B4FF2FF7319404FF6FF73FA
:1056F00003EA02231943018370470A460021818B84
:105700004FF6F77319401143818370470A46002111
:10571000818B4FF2FF7319404FF6FF7303EA0223A8
:105720001943818370470A460021018B4FF6FB73B2
:1057300019401143018370470A460021018B4FF63F
:10574000FF3319404FF6FF7303EA02231943018325
:1057500070470A460021818B4FF6FB7319401143B5
:10576000818370470A460021818B4FF6FF33194031
:105770004FF6FF7303EA02231943818370470A46F9
:105780000021018B4FF67F7319401143018370474D
:105790000A460021018BC1F30E014FF6FF7303EAA5
:1057A00002231943018370470A460021818B4FF67B
:1057B0007F7319401143818370470A460021818B12
:1057C000C1F30E014FF6FF7303EA022319438183ED
:1057D00070470A460021018C4FF6FD7319401143B2
:1057E000018470470A460021018C4FF6F773194077
:1057F0001143018470470A460021018C4FF6DF7384
:1058000019404FF6FF7303EA0213194301847047EE
:105810000A460021018C4FF67F7319404FF6FF7343
:1058200003EA02131943018470470A460021018CE0
:105830004FF6FF5319404FF6FF7303EA0223194353
:10584000018470470A460021018C4FF2FF73194012
:105850004FF6FF7303EA02231943018470470A4697
:105860000021018C4DF6FF7319404FF6FF7303EAD8
:10587000023319430184704730B5002301248C4062
:10588000A3B2048C9C430484048C02FA01F5ADB2EB
:105890002C43048430BD30B5002304248C40A3B2D3
:1058A000048C9C430484048C02FA01F5ADB22C43B1
:1058B000048430BD828B4FF2FF331A408283828B87
:1058C0004FF6FF7303EA01231A4382837047F0B552
:1058D0000C461546002100220026078C4EF6FF7C60
:1058E00007EA0C070784818B028C4FF6FF7707EAE3
:1058F000043640F6FF4739404FF6FF7707EA0527A1
:1059000039434FF6FF7707EA0337394345F6FF7708
:105910003A4046F480573A4381830284F0BD828B3B
:105920004FF6F3731A408283828B0A438283704757
:10593000F0B50C461546002100220026078C4FF6D4
:10594000FF6C07EA0C070784818B028C4FF6FF7708
:1059500007EA04264FF60C7739404FF6FF7707EA3F
:1059600003172F4339434FF2FF573A4046F48077ED
:105970003A4381830284F0BD028B4FF2FF331A4019
:105980000283028B4FF6FF7303EA01231A4302835B
:105990007047F0B50C461546002100220026078C02
:1059A0004FF6EF7C07EA0C070784018B028C4FF659
:1059B000FF7707EA041640F6FF4739404FF6FF77B6
:1059C00007EA033739434FF6FF7703E00000014051
:1059D0000004014007EA052739434FF65F773A4054
:1059E00046F010073A4301830284F0BD028B4FF664
:1059F000F3731A400283028B0A4302837047F0B5A7
:105A00000C46154600210022068C4FF6FE773E40DC
:105A10000684018B028C4FF60C7631407E1C06EA20
:105A200003162E4331434FF6F576324044F001061B
:105A3000324301830284F0BD70B505460C462088D0
:105A400050B92389A28861882846FFF7D8FFE188EA
:105A50002846FFF7CBFF25E0208804280AD12389B8
:105A6000A28861882846FFF794FFE1882846FFF75F
:105A700083FF17E0208808280AD12389A28861883B
:105A80002846FFF755FFE1882846FFF748FF09E061
:105A90002389A28861882846FFF719FFE1882846F4
:105AA000FFF708FF70BD0021018041800121818046
:105AB0000021C180018170472DE9F04105460C4667
:105AC00000260127608808B9022600E00026A08889
:105AD000012801D1022700E001272088A0B92389ED
