:020000040800F2
:10000000F0690020A934000845040008A503000891
:10001000470400084B0400084F04000800000000DB
:100020000000000000000000000000005304000871
:100030005504000800000000ED810008F5280008C4
:10004000C3340008C3340008C33400085D1200083C
:10005000C3340008C3340008C3340008C3340008A4
:10006000C3340008C3340008C3340008C334000894
:10007000C3340008C3340008C3340008C334000884
:10008000C3340008C3340008C3340008C334000874
:10009000C3340008C3340008C3340008C334000864
:1000A000C3340008C3340008C3340008C334000854
:1000B000C3340008C3340008C3340008C334000844
:1000C000C3340008C3340008C3340008C334000834
:1000D000C3340008632B0008210B0008C108000886
:1000E000C334000831120008C3340008C3340008C8
:1000F000C3340008C3340008C3340008C334000804
:10010000C3340008C3340008C3340008C3340008F3
:10011000C3340008C3340008C3340008C3340008E3
:10012000C3340008C3340008C3340008C3340008D3
:10013000C3340008C3340008C3340008C3340008C3
:10014000C3340008C3340008C3340008C3340008B3
:10015000C3340008C3340008C3340008650600082F
:10016000C3340008C3340008C3340008C334000893
:10017000C3340008C3340008C3340008C334000883
:10018000C3340008C334000800F002F800F050F84F
:100190000AA090E8000C82448344AAF10107DA45E2
:1001A00001D100F045F8AFF2090EBAE80F0013F0E4
:1001B000010F18BFFB1A43F0010318479095000088
:1001C000B0950000103A24BF78C878C1FAD8520719
:1001D00024BF30C830C144BF04680C6070470000C1
:1001E0000023002400250026103A28BF78C1FBD840
:1001F000520728BF30C148BF0B607047642908F020
:100200009786782908F0D086732909F0E8800020C5
:1002100070471FB509F0EEF909F04CF90400002011
:10022000002109F0D1F9401C60601FBD10B510BD60
:1002300009F056F91146FFF7ECFF00F081F809F0DC
:1002400074F903B4FFF7F2FF03BC02F027FC0000CF
:1002500002E00A2002F0A7FBFBE702E00A2002F01E
:10026000A2FBFBE704E00A2002F09DFB01F050F93D
:10027000F9E702E00A2002F096FBFBE706E04FF404
:100280007A7002F090FB56A008F0E0FDF7E702E07C
:100290000A2002F088FBFBE704E00A2002F083FB5F
:1002A00002F0B3FFF9E702E0142002F07CFBFBE769
:1002B00070B50446002500BF05F0DEFC07F06EFFB8
:1002C00005460723494A0021AFF2250007F025F82B
:1002D0000623474A0021AFF23F0007F01EF805232E
:1002E000444A0021AFF2590007F017F80423424AAC
:1002F0000021AFF2770007F010F803233F4A0021F6
:10030000AFF2910007F009F802233D4A0021AFF255
:10031000AB0007F002F808233A4A0021AFF2C5000B
:1003200006F0FBFF0923384A0021AFF2DB0006F09C
:10033000F4FF0A2007F075FA284607F033FF70BD76
:1003400010B54FF4A06003F0CFF8A82002F0DAFA5D
:100350004FF4165002F0AFFB4FF4E13000F0F9FB20
:100360004FF4164000F0A5FB4FF4164000F06FFA72
:1003700001F09EF800F092FE02F04CFA40F6B8311F
:10038000052001F0B3F802F05EFB05F036FB0A230E
:100390001E4A0021AFF2E70006F0BFFF05F054FC53
:1003A000002010BD10B51A480468214619A008F0B5
:1003B0004DFD1748001D0468214619A008F046FDB0
:1003C000134808300468214618A008F03FFD104883
:1003D00014300468214618A008F038FD10BD000054
:1003E0006D61696E5F7461736B0D0A00C805002052
:1003F000C8090020C80D0020C8150020C81700201B
:10040000C8190020C8210020C8290020C8010020E8
:1004100028ED00E0434653523A2538580D0A0000B3
:10042000484653523A2538580D0A00004446535264
:100430003A2538580D0A0000414653523A2538589B
:100440000D0A0000704700BFFEE700BFFEE700BFD7
:10045000FEE77047704700000CB500200190009047
:100460007548006840F480307349086000BF7248E6
:10047000006800F4003000900198401C0190009842
:1004800018B90198B0F5A04FF1D16B48006810F48D
:10049000003F02D00120009001E000200090009871
:1004A000012845D164484030006840F080506249DE
:1004B000403108606148006840F440405F4908608E
:1004C0005D48083000685C490831086008460068EB
:1004D00040F4004008600846006840F4A0500860FE
:1004E0005748091F0860081F006840F08070091F06
:1004F000086000BF5048006810F0007FFAD040F25A
:100500000560504908604C480830006820F003003E
:100510004949083108600846006840F00200086058
:1005200000BF45480830006800F00C000828F8D1EA
:100530000CBD10B54448006840F4700042490860A2
:100540003D48006840F001003B49086000203A49FE
:1005500008310860384800683C490840364908605E
:100560003B48091D0860081F006820F48020091F0F
:100570000860002030490C310860FFF76DFF4FF034
:10058000006031498039086010BD70B5002000223C
:10059000022300240221284D08352D6805F00C00A7
:1005A00020B1042806D0082834D107E0294D2A4E6E
:1005B000356033E0294D284E35602FE01E4D2D1D4E
:1005C0002D68C5F380541C4D2D1D2D6805F03F018D
:1005D00054B1224DB5FBF1F5174E361D3668C6F302
:1005E000881605FB06F209E01A4DB5FBF1F5124E2F
:1005F000361D3668C6F3881605FB06F20E4D2D1D16
:100600002D68C5F301456D1C6B00B2FBF3F5124E6E
:10061000356003E00F4D104E356000BF00BF064D42
:1006200008352D68C5F303150D4E705D0A4D2D6814
:10063000C540094E356070BD003802400070004072
:1006400019544007003C024088ED00E0FFFFF6FE31
:10065000103000240024F4000000002040787D01C8
:100660000400002010B540F225517D4803F006FE3D
:1006700088B17B4803F040FDC4B27A480088B0F5E9
:10068000805F08DA784877490988445475480088BB
:10069000401C7449088010BD1CB50121082003F0DE
:1006A000B9FA4FF40040009001208DF804000020BA
:1006B0008DF8060003208DF8050001208DF8070055
:1006C00069466A4803F008F84FF40041674803F0B0
:1006D00081F81CBD10B588B004460121042003F048
:1006E00099FA0121202003F0EFFA08220621604840
:1006F00003F07DF8082207215D4803F078F8C02058
:10070000069002208DF81C008DF81D0000208DF849
:100710001E0001208DF81F0006A9554802F0DCFFDD
:1007200002940020ADF80C00ADF80E00ADF81000FA
:10073000ADF814000C20ADF8120002A9484803F0EF
:1007400024FC0121464803F0A8FC4021444803F062
:100750008CFD012240F22551414803F054FD472011
:100760008DF8040001208DF8050003208DF80600A7
:1007700001208DF8070001A802F0BBFE00203949D6
:1007800008803C49086008B010BD70B505460E46AB
:100790003948007804280FD138A008F057FB00240E
:1007A00005E0295D3BA008F051FB601CC4B2B442D7
:1007B000F7DB3AA008F04AFB01202E4908604FF011
:1007C00000040CE000BF4021254803F041FD002853
:1007D000F9D0295D224803F08BFC601CC4B2B442FE
:1007E000F0DB00BF40211E4803F032FD0028F9D0A5
:1007F00000201C4908801F49086070BD70B5194869
:10080000048800250A2002F0CEF8164800888442A9
:100810001CD1DCB118480078042810D120A008F0C1
:1008200015FB00BF06E01048415D1AA008F00EFB62
:10083000681C85B2A542F6DB18A008F007FB1F492B
:10084000094808F02AF900200649088070BD10B553
:100850000446FFF721FF2046FFF73CFF10BD0000D4
:100860000014014014000020CC290020000C02409C
:1008700000080240BC8241424A00002052533438F2
:100880003554574F5F53656E645F446174613A0D30
:100890000A00000025303258200000000D0A000038
:1008A000525334383554574F5F52656365697665E6
:1008B0005F446174613A0D0A00000000A85E0020E8
:1008C00010B540F225517F4803F0D8FC88B17D482F
:1008D00003F012FCC4B27C480088B0F5805F08DAEF
:1008E0007A4879490988445477480088401C7649F9
:1008F000088010BD1CB50121082003F08BF94FF4CE
:100900008060009001208DF8040000208DF8060022
:1009100003208DF8050001208DF8070069466C481A
:1009200002F0DAFE4FF48061694802F053FF1CBD0B
:1009300010B588B00446634803F0C0FA01210820CE
:1009400003F068F90121880403F0ADF94FF4407019
:10095000059002208DF818008DF8190000208DF800
:100960001A0001208DF81B0005A9594802F0B4FEB9
:1009700007220821564802F03AFF0722092154486D
:1009800002F035FF01940020ADF80800ADF80A0030
:10099000ADF80C00ADF810000C20ADF80E0001A968
:1009A000484803F0F2FA012240F22551454803F08D
:1009B0002AFC0121434803F070FB4021414803F029
:1009C00054FC27208DF81C0002208DF81D00032008
:1009D0008DF81E0001208DF81F0007A802F089FD88
:1009E0000020394908803B49086008B010BD70B547
:1009F00005460E463848007804280FD137A008F085
:100A000025FA002405E0295D3AA008F01FFA601CD1
:100A1000C4B2B442F7DB39A008F018FA01202D491E
:100A200008604FF000040CE000BF4021254803F0AF
:100A30000FFC0028F9D0295D224803F059FB601C07
:100A4000C4B2B442F0DB00BF40211E4803F000FCFA
:100A50000028F9D000201C4908801E49086070BD9C
:100A600070B51948048800250A2001F09CFF16483B
:100A7000008884421CD1DCB117480078042810D1CA
:100A80001FA008F0E3F900BF06E01048415D19A07F
:100A900008F0DCF9681C85B2A542F6DB17A008F067
:100AA000D5F91E49094807F0F8FF002006490880DB
:100AB00070BD10B50446FFF71DFF2046FFF738FF55
:100AC00010BD00000048004026000020CC39002066
:100AD000000C0240A88241424A00002052533438A0
:100AE000354F4E455F53656E645F446174613A0DE6
:100AF0000A00000025303258200000000D0A0000D6
:100B000052533438354F4E455F526563656976659B
:100B10005F446174613A0D0A000000001C5C002013
:100B200010B540F225517A4803F0A8FB80B178480F
:100B300003F0E2FAC4B277480078642808DA76480D
:100B400074490978445473480078401C714908700E
:100B500010BD10B588B004460121082003F05AF8F2
:100B60000121480403F09FF8072205216B4802F099
:100B70003EFE07220621694802F039FE60200690F9
:100B800002208DF81C0003208DF81D0000208DF838
:100B90001E0001208DF81F0006A9604802F09CFD90
:100BA00002940020ADF80C00ADF80E00ADF8100076
:100BB000ADF814000C20ADF8120002A9544803F05F
:100BC000E4F90121524803F068FA4021504803F04B
:100BD0004CFB012240F225514D4803F014FB262026
:100BE0008DF8040003208DF805008DF80600012023
:100BF0008DF8070001A802F07CFC08B010BD70B5AC
:100C000005460E4600240CE000BF4021404803F09A
:100C10001FFB0028F9D0295D3D4803F069FA601CEC
:100C2000C4B2B442F0DB00BF4021394803F010FBEE
:100C30000028F9D000203749087070BD10B504466F
:100C40000BE02178324803F053FA00BF802130488E
:100C500003F0FEFA0028F9D0641C20780028F0D1B7
:100C600010BD2DE9F04107460D462A4806780024BC
:100C7000002028700A2001F096FE2648007886425F
:100C80000FD176B100BF04E02348005D3855601CE9
:100C9000C4B2B442F8DB1F480078287000201D4918
:100CA0000870BDE8F0812DE9F04107460D4619486E
:100CB00006780024002028700A2001F074FE1548F0
:100CC000007886420CD15EB100BF04E01248005D9E
:100CD0003855601CC4B2B442F8DB0E480078287066
:100CE000BDE8F08108B500200090642200210C4886
:100CF00001F084FE69460A48FFF7B3FF9DF8000043
:100D000020B19DF80010064801F0C2FB08BD0000AC
:100D10000044004028000020CC490020000C024084
:100D2000304A0020A548A6490860A64808607047D8
:100D3000A3480C30006840F00040A1490C31086025
:100D4000704700219E480830016811F4803F01D0AF
:100D50000120704711F0100F01D00220F9E711F0C7
:100D6000200F01D00220F4E711F0400F01D0022043
:100D7000EFE711F0800F01D00220EAE70020E8E75A
:100D800070B5044600BFFFF7DCFF0546012D00D01B
:100D900005E00A2001F0DCFD641E002CF3D100BF49
:100DA00004B9FF25284670BD70B505460024864865
:100DB000FFF7E6FF044674BB81480C30006820F45E
:100DC00040707F490C3108600846006840F40070AC
:100DD00008600846006820F0F800086008460068CF
:100DE00040EAC50008600846006840F0020008605C
:100DF0000846006840F4803008607348FFF7C0FF81
:100E00000446012C07D06E480C30006820F0020028
:100E10006B490C310860204670BD70B505460E4622
:100E2000FF20FFF7ADFF044604BB65480C300068A7
:100E300020F4407062490C3108600846006840F4B4
:100E4000007008600846006840F0010008602E60ED
:100E5000FF20FFF795FF0446012C07D058480C30BF
:100E6000006820F0010056490C310860204670BD32
:100E700001460868704701465448814201D200206B
:100E800070475348814201D20120F9E7514881421D
:100E900001D20220F4E75048814201D20320EFE75B
:100EA0004E48814201D20420EAE74D48814201D2F6
:100EB0000520E5E74B48814201D20620E0E74A4899
:100EC000814201D20720DBE74848814201D2082055
:100ED000D6E74748814201D20920D1E745488142FF
:100EE00001D20A20CCE70B20CAE72DE9F0470446DF
:100EF0000E4617464FF000080025A946B4F1006FD2
:100F000002D314F0030F01D0BDE8F087FFF70AFF0A
:100F10002B48001F006820F480602949091F0860E1
:100F2000254604EB87093448854214D210E0284650
:100F3000FFF79EFF401C0AD02846FFF79CFF824621
:100F4000FFF732FF8046B8F1000F01D002E02D1DFF
:100F50004D45ECD300BFB8F1000F0BD107E02046A0
:100F60003168FFF75AFF00B103E0241D361D4C45E0
:100F7000F5D300BF1248001F006840F4806010499C
:100F8000091F0860FFF7D4FE00BFBDE730B5034678
:100F90000C461546002206E01846FFF769FF44F8A4
:100FA00022001B1D521CAA42F6D330BD13B50446C5
:100FB000012201A92046FFF798FF1CBD23016745C8
:100FC000043C0240AB89EFCD400D03000040000817
:100FD0000080000800C000080000010800000208AE
:100FE00000000408000006080000080800000A08C5
:100FF00000000C0800000E080000FF1FF8B50446B2
:101000000D4617461E468DF800408DF801508DF8AC
:1010100002708DF803606946002003F0DBFAF8BD2A
:10102000F8B504460D4617461E468DF802708DF839
:1010300001508DF800608DF803406946002003F0F0
:1010400067FBF8BDF8B507460C4615461E466946CF
:10105000002003F029FB9DF8000038709DF8010086
:1010600020709DF8020028709DF803003070F8BDD4
:10107000F8B507460C4615461E466946002003F0A3
:10108000ADFB9DF8030038709DF8010020709DF8BD
:10109000020028709DF800003070F8BD3EB541F6A2
:1010A000FF740121080702F0FEFD012004F077F82B
:1010B000002003F0EBFEA0F5A041503931D0012013
:1010C00002F045FC04E0601C84B20A2001F06BFCD5
:1010D000412002F0F5FB0028F5D00CB901203EBDFF
:1010E0004FF4807002F034FD012002F04CFD7F20AF
:1010F0000190FF20029000200090684603F0CFF995
:10110000002338223B211720FFF778FF0623052212
:1011100011460E20FFF784FF45F25001002003F036
:10112000A8FE0020DBE7F0B587B004460D46164662
:101130001F4600214FF4807003F02AFC8DF8005008
:101140008DF801608DF8027000208DF803008DF895
:1011500010404FF0804003900020029000980190D2
:1011600001AA4FF48071002003F05BFB4FF4805024
:1011700003F06EFF4FF4003003F0FDFF0121080380
:1011800003F0FAFE0121080203F002FC4FF40030E4
:10119000059000208DF8180008208DF81900012016
:1011A0008DF81A0005A803F075FF2920AF490870D3
:1011B0000220487088700120C870084602F099F932
:1011C00007B0F0BD7CB505460C46002003F065FC79
:1011D000284603F03DFC204603F04FFC4FF48040CE
:1011E00003F036FF4FF4800003F0C5FF01218803B0
:1011F00003F0C2FE012003F050FC4FF48000009089
:1012000000208DF8040008208DF8050001208DF8DD
:101210000600684603F03EFF032094490870022050
:10122000487088700120C870084602F062F97CBDE1
:1012300010B504F0FAFB4FF4807003F0CCFE0128E7
:1012400005D1000203F0D7FE89A007F0FFFD4FF49F
:10125000003003F090FF04F003FC10BD10B504F063
:10126000E4FB4FF4806003F0B6FE012802D1800257
:1012700003F0C1FE4FF4800003F07DFF04F0F0FBAB
:1012800010BDF0B503460C461546642093FBF0F004
:10129000C6B2642093FBF0F700FB1730C1B2132EE7
:1012A00002DD01F16400C1B20846CF1701EB977768
:1012B00001EBA707BAB2072092FBF0F700FB17205B
:1012C00082B25719601EDFF8B4C11CF80000384420
:1012D00082B2CF1701EB9777BF10B1EB870703D12D
:1012E000032C01DA501E82B2072092FBF0F700FBBC
:1012F000172082B202B90722D0B2F0BD2DE9F04723
:1013000004460E4617461D46DDE9088900234A4675
:1013100041462846FFF772FE3A4631462046FFF71F
:10132000B0FF8246A4F5FA61C8B253463A46314648
:10133000FFF776FEBDE8F08738B504466B46A21C81
:10134000611C2046FFF77EFE38BD38B5044604F127
:101350000803E21DA11D6846FFF78AFE9DF8000004
:1013600000F5FA604649888038BDF0B587B006467A
:1013700000200390049005900690002507E005F1F9
:101380000A00305C303803A94855681CC5B20E2DE0
:10139000F5DB9DF80C004FF47A7110FB01F09DF81D
:1013A0000D1001EBC10202EB011100EB81009DF871
:1013B0000E1001EB810100EB41009DF80F10441865
:1013C0002F498C809DF811009DF8101001EB8101D0
:1013D00000EB41042A498C719DF813009DF812100E
:1013E00001EB810100EB41042549CC719DF815000A
:1013F0009DF8141001EB810100EB410420490C70B1
:101400009DF817009DF8161001EB810100EB4104D7
:101410001B494C709DF819009DF8181001EB8101D3
:1014200000EB410416498C70084680784978144FC7
:10143000CDE900103B78FA79B979B888FFF75EFFFB
:101440001048007802280FD138468078394649780C
:101450003A461278CDE9002102903846C379827964
:10146000818809A007F0F2FC07B0F0BD3000002031
:10147000414C41524D2041210D0A0000FE950008CB
:10148000944A00204A0000202B74696D653D253088
:1014900034642D253032642D2530326420253032DD
:1014A000643A253032643A253032640D0A00000077
:1014B0001CB50121102002F0ADFB4FF40850009044
:1014C00001208DF8040000208DF8060003208DF81F
:1014D000050001208DF8070069460F4802F0FCF86E
:1014E0004FF408510C4802F075F91CBD70B5054663
:1014F0000C4645F2555003F0FFFE284603F0FFFE70
:10150000204603F0FFFE03F000FF03F003FF70BD71
:1015100010B503F0FAFE10BD0010024010B54FF4F4
:101520000071FE4802F054F940F2DC5001F03BFA41
:10153000FB480078022802D1FAA007F087FC10BD12
:1015400010B500244FF40071F44802F043F9F44858
:101550000078022802D1F7A007F078FC002405E00B
:1015600040F2DC5001F01FFA601CC4B2282CF7DBFB
:1015700010BD70B504460D4600262946204607F0EA
:1015800017FE0646304670BD10B50446E4480078A4
:10159000022803D1EB49ECA007F058FC24B16422E7
:1015A0000021E84801F02AFA10BD2DE9F0419AB077
:1015B00005460E46144600276421684607F04DFE96
:1015C000B8460020E24908702A46DFA1684607F0C5
:1015D00049FC06F0E3FD80466846FFF72FFB4046D6
:1015E00006F0E0FDBEB1B4B10EE019A9D548FFF791
:1015F00038FB3146D348FFF7BCFF00B108E0642256
:101600000021D04801F0FAF9601E80B20400ECD14C
:1016100000BF04B9012738461AB0BDE8F0812DE9B2
:10162000F0419AB005460E4600246421684607F052
:1016300014FE3746A0460020C54908702A46C2A1BC
:10164000684607F00FFC06F0A9FD80466846FFF7E4
:10165000F5FA404606F0A6FD3EE0781E87B219A9CD
:10166000B848FFF7FEFABBA1B64807F0A1FD044653
:10167000002C31D0B8A1B34807F09AFD0446002CE5
:101680002AD0A7480078022803D1AE49AEA007F0BF
:10169000DDFBB3A1AB4807F08BFD044644B16422E7
:1016A0000021A84801F0AAF920461AB0BDE8F0814F
:1016B000AEA1A44807F07CFD044634B164220021A9
:1016C000A04801F09BF92046EFE7642200219D48E5
:1016D00001F094F90020E8E7002FBED16422002138
:1016E000984801F08BF92046DFE710B542F2107000
:1016F00001F059F90A248A480078022802D19DA0F5
:1017000007F0A4FB17E0601EC4B24FF4967001F01E
:101710004AF983480078022802D196A007F096FB88
:101720004CB90A24FFF70CFF4FF4FA7001F03BF9B3
:1017300001F06EF907E04FF4967286A18FA0FFF7D3
:1017400034FF0028DFD100BF0120FFF71DFF7448E0
:101750000078022802D18AA007F078FB4FF47A7251
:101760007CA189A0FFF721FF4FF4FA7001F01BF96B
:101770000120FFF709FF6A480078022802D184A0FF
:1017800007F064FB4FF4967272A186A0FFF70DFF7D
:101790004FF4FA7001F007F90120FFF7F5FE6048F9
:1017A0000078022802D183A007F050FB41F2883272
:1017B00083A185A0FFF7F9FE4FF4FA7001F0F3F86A
:1017C0000120FFF7E1FE56480078022802D181A0EF
:1017D00007F03CFB4FF47A7281A183A0FFF7E5FE8E
:1017E0004FF4FA7001F0DFF80120FFF7CDFE4C480E
:1017F0000078022802D17FA007F028FB4FF47A720C
:101800007FA181A0FFF7D1FE4FF4FA7001F0CBF871
:101810000120FFF7B9FE42480078022802D17CA0DF
:1018200007F014FB4FF496724AA17CA0FFF7BDFEAF
:101830004FF4FA7001F0B7F80120FFF7A5FE384821
:101840000078022802D178A007F000FBC82241A14D
:1018500079A0FFF7AAFE4FF4FA7001F0A4F8012076
:10186000FFF792FE2E480078022802D176A007F0FA
:10187000EDFA4FF47A7237A176A0FFF796FE4FF497
:10188000FA7001F090F80120FFF77EFE24480078FE
:10189000022802D172A007F0D9FA40F2DC522DA141
:1018A00073A0FFF782FE4FF4FA7001F07CF801207C
:1018B000FFF76AFE10BD00B58DB03421684607F011
:1018C000CCFC6E4A6EA1684607F0CCFA4FF47A70F1
:1018D00001F069F812480078022802D16DA007F0E3
:1018E000B5FA4FF496721BA16EA0FFF75EFE4FF49F
:1018F000FA7001F058F80120FFF746FE084800781A
:10190000022803D169466BA007F0A0FA4FF4FA72DF
:1019100010A16846FFF749FECEE00000001002402B
:101920004A00002047433635506F7765724F4E0DA1
:101930000A00000047433635506F7765724F666680
:101940000D0A0000304A002025730D0A0000000037
:10195000280000204F4B0000434F4E4E454354009B
:10196000434F4E4E454354204F4B0000414C52458F
:101970004144590041540D0A000000004154000048
:10198000415445300D0A000041544530000000002C
:1019900041542B4950523D31313532303026570DAC
:1019A0000A00000041542B4950523D31313532304C
:1019B0003026570041542B4350494E3F0D0A00003A
:1019C0002B4350494E00000041542B4350494E3F99
:1019D0000000000041542B435245473F0D0A0000D0
:1019E0002B4352454700000041542B435245473F8B
:1019F0000000000041542B4353510D0A0000000029
:101A00002B4353510000000041542B43535100001D
:101A100041542B434D47463D310D0A0041542B4361
:101A20004D47463D3100000041542B435343533D45
:101A30002247534D220D0A0041542B435343533D3B
:101A40002247534D2200000041542B43534D533D38
:101A5000310D0A0041542B43534D533D31000000DA
:101A600041542B434E4D493D322C320D0A000000AB
:101A700041542B434E4D493D322C3200B64A002092
:101A800041542B5149435347503D312C2225732259
:101A90000D0A000041542B51494647434E543D30F6
:101AA0000D0A000041542B51494647434E543D30E6
:101AB00000000000257300004FF4FA7000F073FF7F
:101AC0000120FFF761FDFA480078022802D1F9A051
:101AD00007F0BCF94FF47A72AFF28811F9A0FFF762
:101AE00064FD4FF4FA7000F05EFF0120FFF74CFD3B
:101AF000EF480078022802D1F5A007F0A7F94FF4CB
:101B00007A72AFF2B011F6A0FFF74FFD4FF4FA7002
:101B100000F049FF0120FFF737FDE5480078022873
:101B200002D1F2A007F092F94FF47A72AFF2DC1111
:101B3000F1A0FFF73AFD4FF4FA7000F034FF0120F6
:101B4000FFF722FD0DB000BD2DE9F0439DB0054625
:101B50000E46174603244FF41679642104A807F0B3
:101B60007CFB0020019002900390804600BFD0488B
:101B70000078022802D1E3A007F068F90EE0CC4813
:101B80000078022802D1DFA007F060F9601EC4B21D
:101B900024B9032401201DB0BDE8F0834FF47A621C
:101BA000AFF25021DAA0FFF700FD0028E7D10120B5
:101BB000FFF7EAFCD948009750F825203346D8A112
:101BC00004A807F04FF9BA480078022804D104A904
:101BD000AFF28C2007F03AF94FF47A7104A8FFF7BE
:101BE0001EFD8046B8F1000F05D04FF4967000F04E
:101BF000DAFE0020CFE7601EC4B20CB90120CAE7AC
:101C000019E040F6B83000F0CEFEA948007802286E
:101C100002D1C9A007F01AF941F28832AFF2CC2103
:101C2000C9A0FFF7C2FC4FF4FA7000F0BCFE01201F
:101C3000FFF7AAFC9BE7002CE3D1642000F0B3FE81
:101C40000120A8E7F0B599B005460E4614460027D6
:101C50006421684607F001FB2A46AFF2143168465A
:101C600007F000F96846FEF7E9FF96B18CB109E08C
:101C70000A2300221146104605F0CCFEB548007834
:101C800000B103E0601E80B20400F1D100BF04B9CE
:101C900001270020AF490870384619B0F0BDF0B5F3
:101CA00085B006460D461746684608B905B0F0BD32
:101CB00014220021684600F0A1FE2B463A46A6A158
:101CC000684607F0CFF87A480078022807D18FA03D
:101CD00007F0BCF86946AFF2903007F0B7F84FF460
:101CE0004872A1A16846FFF7ADFFA0B9704800781F
:101CF00002280CD185A007F0A9F8002405E0315D89
:101D00009AA007F0A3F8601CC4B2AC42F7DB2946E6
:101D10003046FEF774FF0A2000F045FE00BFC5E71D
:101D200070B50446002508E0601E84B20A2000F069
:101D30003AFE9048007800B101E0002CF4D100BFD9
:101D400000208C49087004B90125284670BD2DE992
:101D5000F041064684A1304607F02AFA074657B1FB
:101D600053480078022803D1314683A007F06EF86B
:101D700001207849087082A1304607F019FA04461C
:101D800084B14B480078022803D131467AA007F08D
:101D90005DF87DA1304607F00BFA054615B101202C
:101DA00074490870BDE8F08170B50446002506E06E
:101DB0000A2000F0F8FD7648007800B103E0601ECC
:101DC00080B20400F4D100BF00207149087004B94A
:101DD0000125284670BD2DE9FC4704460D461646F0
:101DE000002000900190E84600E0641C20782C2838
:101DF000FBD1641C05E0207888F80000641C08F121
:101E0000010820780D28F6D10A220021684607F043
:101E100097F93080B6F8009004E02078232800D1AC
:101E200003E0641C20782328F7D100BF002705E0D9
:101E3000207828706D1C641C781C87B24F45F7DB36
:101E4000BDE8FC8710B51A48007802281CD151491A
:101E500051A006F0FBFF4F4A123AA2F1100151A027
:101E600006F0F4FF4B490C3951A006F0EFFF49484A
:101E70002438018851A006F0E9FF46482438D0F8FC
:101E8000351051A006F0E2FF10BD30B589B0044610
:101E90000D46202101A807F0E0F922464EA101A835
:101EA00006F0E0FF02480078022800D19CE09EE0A6
:101EB0004A00002041542B51494D55583D300D0AE0
:101EC0000000000041542B51494D55583D30000051
:101ED00041542B51494D4F44453D300D0A000000FF
:101EE00041542B51494D4F44453D300041542B51F5
:101EF00049535441540D0A0041542B514953544104
:101F00005400000041542B51494143540D0A000034
:101F100041542B514941435400000000340000203B
:101F200041542B51494F50454E3D222573222C22BE
:101F30002573222C2573000041542B5149444541FF
:101F400043540D0A0000000041542B5149444541BF
:101F5000435400003E00002041542B514953454E4C
:101F6000443D25642C2564003E0000002530325895
:101F7000000000003F0000200D0A25730D0A00003C
:101F800053454E440000000053454E44204F4B0043
:101F900040000020C24A00202B534E2025730D0A1A
:101FA000000000002B69702025732025730D0A00A6
:101FB0002B61706E2025730D0A0000002B68616E86
:101FC000642025640D0A00002B64656C61797469D6
:101FD0006D652025640D0A0041542B434D47533D48
:101FE0002225732200000000FEA006F02FFF4FF410
:101FF0009672AFF2A061AFF2DC50FFF7D6FA4FF461
:10200000FA7000F0D0FC0120FFF7BEFAF948007822
:10201000022802D1F8A006F019FF4FF49672AFF231
:10202000CC61FAA0FFF7C1FA4FF4FA7000F0BBFCE4
:102030000120FFF7A9FAEF480078022804D101A98E
:10204000AFF2A80006F002FF4FF49672AFF2E8017B
:1020500001A8FFF7AAFA4FF4FA7000F0A4FC0120DF
:10206000FFF792FA2846FEF7E9FD1A21EB4802F045
:102070003FF800BF8021E94802F0EAF80028F9D0D3
:102080004FF4FA7000F08FFCDA480078022804D18F
:102090002946AFF2F80006F0D9FE0120FFF774FAE6
:1020A00009B030BD70B504460D4603230B2221460E
:1020B000284600F0AAFD70BDC01C03E002780A703B
:1020C000401C491C02782C2AF8D100220A70704763
:1020D00000E0401C02782C2AFBD1401C03E002786F
:1020E0000A70401C491C02782C2AF8D100220A7080
:1020F000704700E0401C02782C2AFBD1401C00E015
:10210000401C02782C2AFBD1401C03E002780A70A4
:10211000401C491C02782C2AF8D100220A70704712
:1021200000E0401C02782C2AFBD1401C00E0401C3F
:1021300002782C2AFBD1401C00E0401C02782C2A9B
:10214000FBD1401C03E002780A70401C491C027855
:102150002C2AF8D100220A70704770B50546B0A14C
:10216000284607F025F806460EB1002070BDADA147
:10217000284607F01DF804460CB10120F6E70020C0
:10218000F4E77CB5044600260020009001906D46DF
:1021900000E0641C20782C28FBD1641C00E0641C47
:1021A00020782C28FBD1641C00E0641C20782C28AB
:1021B000FBD1641C00E0641C20782C28FBD1641C3B
:1021C00000E0641C20782C28FBD1641C03E02078FC
:1021D0002870641C6D1C20782C28F8D100202870F1
:1021E0000A220021684606F0ABFF064630467CBD59
:1021F0007CB5044600260020009001906D4600E06A
:10220000641C20782C28FBD1641C00E0641C20781E
:102210002C28FBD1641C00E0641C20782C28FBD106
:10222000641C00E0641C20782C28FBD1641C03E0B3
:1022300020782870641C6D1C20782C28F8D1002090
:1022400028700A220021684606F07AFF06463046CA
:102250007CBD7CB5044600260020009001906D46B0
:1022600000E0641C20782C28FBD1641C00E0641C76
:1022700020782C28FBD1641C00E0641C20782C28DA
:10228000FBD1641C00E0641C20782C28FBD1641C6A
:1022900000E0641C20782C28FBD1641C00E0641C46
:1022A00020782C28FBD1641C207828706D1C00201D
:1022B00028700A220021684606F042FF0646304692
:1022C0007CBD70B50446002510220021564800F060
:1022D00095FB062200215448103000F08FFB0C22A1
:1022E00000215148163000F089FB102200214E4891
:1022F000223000F083FB4C492046FFF7DDFE4A49BF
:1023000010312046FFF7E4FE474922312046FFF70F
:10231000F0FE454916312046FFF702FF2046FFF741
:1023200067FF4149891E08802046FFF72AFF3E4982
:10233000891EC1F835002046FFF78BFFC5B23A4829
:10234000801E00F071FB002038490860284670BDEF
:1023500070B586B0064600240025142101A806F0B9
:102360007CFF08E004F10A00305C01A94855601CBC
:10237000C4B2681CC5B204F10A00305C2C28F1D14B
:10238000002001A9485501AAAFF25841264806F09D
:1023900069FD1422002101A800F030FB601CC4B2CA
:1023A000002508E004F10A00305C01A94855601CD2
:1023B000C4B2681CC5B204F10A00305C2C28F1D10B
:1023C000002001A9485501AAAFF2984116481030E3
:1023D00006F048FD1422002101A800F00FFB601C4C
:1023E000C4B225E041542B434D47463D31200D0AF0
:1023F000000000004A00002041542B435343533D4A
:102400002247534D22200D0A0000000041542B4367
:102410005343533D2247534D2220000000440040C7
:102420007564700074637000A04A002050000020A2
:10243000002508E004F10A00305C01A94855601C41
:10244000C4B2681CC5B204F10A00305C0D28F1D199
:10245000002001A9485501AAAFF22851C74806F04B
:1024600001FDC648183800F0DFFAC5480078022898
:102470000CD1C24A921FA2F11001AFF2D84006F06F
:10248000E5FCBE49AFF2D84006F0E0FC06B070BDF6
:102490002DE9F04F9FB004468A464FF0000B002014
:1024A0001E9000275C2107A806F0D7FE00200490AC
:1024B00005900690B3A1204606F07AFE1E901E9865
:1024C00000285FD0AE480078022811D1AEA006F0F7
:1024D000BDFC002606E0A15DAFF2705006F0B6FC30
:1024E000701CC6B25645F6DBAFF2E05006F0AEFC0B
:1024F000A07852280FD1E07854280CD1A548007854
:1025000040F00100A34908709D480078022802D1DC
:10251000A1A006F09BFCA078582808D1E0785428A8
:1025200005D19C48007840F002009A490870A078D4
:10253000532808D1E078542805D19C48007840F011
:1025400004009A490870A07854280BD1E0784228FA
:1025500008D12046FEF709FF9448007840F00800B3
:1025600092490870A07849280BD1E0785028FBD117
:102570002046FFF7EDFE8D48007840F010008B49B3
:10258000087085E08AA1204606F012FE0746002F5B
:102590007BD07B480078022804D13946AFF2046032
:1025A00006F054FC84A1384606F002FE804683A162
:1025B000384606F0FDFD8146B8F1000F03D004A9AE
:1025C0004046FFF76FFDB9F1000F61D07CA148468E
:1025D00006F0EEFD0546C5B168481838D0F835005C
:1025E000664918390988654A02F10C03CDE90032C1
:1025F000CDE90210931F163A73A107A806F032FC2A
:1026000007A904A8FFF741FC42E075A1484606F07F
:10261000CFFD054645B1FEF793FF4FF4FA7000F089
:10262000C2F900F0F5F933E070A1484606F0C0FDAC
:10263000054645B1FEF784FF4FF4FA7000F0B3F998
:1026400000F0E6F924E04846FFF73BFE83464C489D
:102650000078022801D1FFF7F5FBBBF1010F03D190
:1026600065A104A8FFF711FC0A206549087040F62F
:10267000B83000F098F9FEF763FF4FF4FA7000F0FD
:1026800092F900F0C5F903E0FFE72046FFF75FFB92
:102690001FB0BDE8F08F70B586B006460D46142217
:1026A000002101A800F0AAF92A4656A101A806F0C7
:1026B000D9FB33480078022804D101A9AFF2247075
:1026C00006F0C4FB4FF42F72AFF2647101A8FFF75C
:1026D000B9FAB0B92A48007802280ED1002406E0E1
:1026E000315DAFF2787006F0B1FB601CC4B2AC4251
:1026F000F6DBAFF2E87006F0A9FB29463046FEF79C
:102700007EFA0A2000F04FF906B070BD70B504469D
:10271000002508E00A2000F046F91E48007810F075
:10272000010F00D003E0601E80B20400F2D100BFB0
:102730001848007820F001001649087004B90125F6
:10274000284670BD70B50446002508E00A2000F058
:102750002AF91048007810F0020F00D003E0601E44
:1027600080B20400F2D100BF0A48007820F00200D5
:102770000849087004B90125284670BDB64A0020F2
:102780004A000020262600005265636976653A0DEE
:102790000A000000410000205374617475205254F7
:1027A000205245434956450D0A00000042000020D2
:1027B0002B434D54000000002B383600585854006D
:1027C000585854696E666F0058585425732C2573F9
:1027D0002C25732C25732C25642C25640000000007
:1027E00058585452455345540000000058585472EC
:1027F0006573657400000000736574206F6B0000E2
:102800004B00002041542B514953454E443D256413
:102810000000000000B58DB00121042001F0FAF99C
:102820000121080201F050FA04200B9003208DF8DA
:10283000300000208DF833000BA92C4800F04CFF2D
:102840000121080201F095FA00214FF4807001F097
:1028500090FA002007900A9009904FF48030089079
:1028600007A802F0A3FD002001908DF808008DF864
:1028700009000390059001208DF8180001A91C485B
:1028800002F065FD01211A4802F0ACFD0DB000BD5B
:1028900010B50446072301222146154802F0E2FD47
:1028A000134802F03BFE00BF0221114802F058FF1E
:1028B0000028F9D00E4802F06DFE10BD2DE9F04160
:1028C00007460C460025002608E03846FFF7E0FFE3
:1028D0000544052000F067F8701CC6B2A642F4DB80
:1028E000B5FBF4F080B2BDE8F081000000080240C2
:1028F0000020014010B503F098F803F0DCF903F074
:10290000AFF810BD70B504466FF0040000F03FFE54
:10291000E11704EB5171C1F3C701344A1170E1179B
:1029200004EB5171CD1041F2883045430520304908
:1029300008804FF0E020006940F002004FF0E021F5
:10294000086108464561006940F00100086170BDFA
:102950002DE9F047074600264FF0E020D0F814900C
:102960002248007807FB00F800BF03F0B1F84FF0F1
:10297000E020856911E04FF0E0208469AC420CD082
:10298000AC4202D2281B064403E0A9EB0400284411
:1029900006442546464500D300E0ECE700BF03F0BF
:1029A000DCF8BDE8F08770B50446124800780128CD
:1029B00014D11148007888B90D480088844206DB9C
:1029C0000B48008894FBF0F5284604F0F1FF084816
:1029D000008894FBF0F100FB114084B24FF47A714F
:1029E00004FB01F0FFF7B4FF70BD000046000020BB
:1029F000480000208E0000208200002030B50346F1
:102A000001E003F8011B1400A2F10102F9D130BD6D
:102A1000164817490860704710B504463A22214607
:102A20001448FEF7B3FA10BD70B50446002505F052
:102A3000B5FB05463A2221460E48FEF756FA2846CF
:102A400005F0B0FB70BD10B50BA006F0FFF910BD8E
:102A500010B50A2010490870FEF772FD4FF4FA70A5
:102A6000FFF7A1FFFFF7D4FF10BD00000400FA0537
:102A70000CED00E0008007082B5858542D53544D9E
:102A8000333246342056657273696F6E20312E32B0
:102A90002D300D0A000000004B000020014600BF51
:102AA000704700BFFE4A128812F0400FFAD0C2B23F
:102AB000FB4B9A80704710B588B004460121084648
:102AC00001F0A8F80121102001F0FEF807220921E9
:102AD000F44800F08CFE07220A21F24800F087FE3D
:102AE0004FF4C060069002208DF81C008DF81D0088
:102AF00000208DF81E0001208DF81F0006A9E9486E
:102B000000F0EAFD02940020ADF80C00ADF80E00D4
:102B1000ADF81000ADF814000C20ADF8120002A9B9
:102B2000DF4801F032FA0121DD4801F0B6FA402118
:102B3000DB4801F09AFB012240F22551D84801F010
:102B400062FB25208DF8040003208DF805008DF828
:102B5000060001208DF8070001A800F0CAFC08B0AB
:102B600010BD10B502F061FF40F22551CC4801F0D4
:102B700085FB10B3CA4801F0BFFAC4B2CA48008846
:102B800010F4004F2BD1C848008810F4804F0CD0AF
:102B90000A2C03D00020C449088020E0C2480088E5
:102BA00040F40040C049088019E00D2C06D1BE4811
:102BB000008840F48040BC49088010E0BA48008892
:102BC000C0F30D00B9490C54B7480088401CB64901
:102BD000088008460088C72801DD0020088002F030
:102BE0003FFF10BD70B505460C4604220021284663
:102BF000FFF704FF00E0641C20782028FBD1641C50
:102C00002146284606F0E6FA70BD2DE9F0478246D7
:102C10000E4690461C46B1465546304606F0FEFA32
:102C20000746B84501DDA7EB0408002C00DA0024B4
:102C3000BC4202DD0020BDE8F087A14403E019F8A2
:102C4000010B05F8010B5FEA0800A8F10108F6D1B5
:102C500005F8010B5046EEE72DE9F84304460E4611
:102C600017469846002000906D4603E020782870B3
:102C70006D1C641C20782D28F8D1641C0A220021C8
:102C8000684606F05DFA3080032200216846FFF7AF
:102C9000B5FE6D4603E0207828706D1C641C20781A
:102CA0002D28F8D1641C0A220021684606F048FA53
:102CB00038700A220021204606F042FA88F8000007
:102CC000BDE8F8832DE9F04F87B005460E4617465C
:102CD0009846DDE910AB129C002004900590069008
:102CE0000190029003900DF10409009000E0641C33
:102CF00020782028FBD1641C05E0207889F80000AA
:102D0000641C09F1010920782028F6D1641C3B4697
:102D10003246294601A8FFF79FFF214604A806F086
:102D200059FA0023022204A96846FFF76EFF0A221F
:102D30000021684606F004FA88F800000323022206
:102D400004A96846FFF761FF0A220021684606F0E1
:102D5000F7F98AF800000623022204A96846FFF763
:102D600054FF0A220021684606F0EAF98BF80000B9
:102D700007B0BDE8F08F2DE9F14F8AB04CA10A9859
:102D800006F016FA0790079828B102204B49087000
:102D90004BA006F05BF84EA10A9806F009FA0790DE
:102DA000079828B10420454908704CA006F04EF859
:102DB0004FA10A9806F0FCF90790079828B1052062
:102DC0003E4908704DA006F041F851A10A9806F05E
:102DD000EFF90690069828B10020384908704FA0F6
:102DE00006F034F850A10A9806F0E2F9044684B1DE
:102DF000102200214E48FFF701FE21464C48FFF704
:102E0000F1FE4B48801EFFF70FFE494949A006F02E
:102E10001DF84BA10A9806F0CBF905469DB1062294
:102E2000002143481030FFF7E9FD294640481030A3
:102E3000FFF7D8FE3E48801EFFF7F6FD3C491031F3
:102E400041A006F003F843A10A9806F0B1F906463E
:102E50009EB10C22002136481630FFF7CFFD3146D7
:102E600033481630FFF7BEFE3148801EFFF7DCFD09
:102E70002F49163139A005F0E9FF3BA10A9806F069
:102E800097F9074657B10522002108A8FFF7B6FDBC
:102E9000394608A8FFF7A6FE0A2269E079E000009B
:102EA00000100140000002404C000020D84A0020E1
:102EB0002424646562756720320000004A00002007
:102EC00044454255475F47534D5F4F4E0D0A000042
:102ED000242464656275672034000000444542552F
:102EE000475F52533438355F4F4E0D0A00000000E3
:102EF000242464656275672035000000444542550E
:102F0000475F50726F746F636F6C5F4F4E0D0A00B6
:102F100024246465627567203000000044454255F2
:102F2000475F4F46460D0A002473657469700000C0
:102F3000A04A00202B49502025730D0A00000000F4
:102F400024736574706F74002B504F525420257396
:102F50000D0A00002473657461706E002B41504EA1
:102F60002025730D0A00000024736574686E6400E8
:102F7000002108A806F0E4F8B94908800846FFF7E0
:102F800053FD0020B7490860B5480188B6A005F098
:102F90005DFFB8A10A9806F00BF98046B8F1000F62
:102FA00016D010220021AE482430FFF727FD4146FD
:102FB000AB482430FFF716FEA948FFF735FDA848B7
:102FC000243005F09FFAA6492431ACA005F03EFF5D
:102FD000ADA10A9806F0ECF805900598002852D0AB
:102FE000AB48FEF7A9F91420FFF7DDFCA848FEF76F
:102FF000ACF9A8A005F02AFFA5488078A449497833
:10300000A34A1278CDE900210290A148C3798279C0
:103010008188A8A005F01AFF9149243197A005F0F6
:1030200015FF8F4A1232A2F11001ACA005F00EFF7D
:103030008B491831ACA005F009FF894890F834009D
:10304000AC4A52F82010ACA005F000FF844801887B
:10305000AEA005F0FBFE8248D0F83510AEA005F01A
:10306000F5FEB1480088642190FBF1F201FB1200EB
:103070000290AD48008890FBF1F001900146ABA0B2
:10308000029A05F0E3FEADA10A9806F091F8814698
:10309000B9F1000F35D0ABA10A9806F089F8824645
:1030A000BAF1000F2DD07A48801C411E831E421DAC
:1030B000CDE901090091011D801CFFF703FE744852
:1030C000807873494978DFF8C8C1CDE900109CF8D1
:1030D00000309CF807209CF80610BCF80400FEF7AE
:1030E0000DF96B4880786A494978694A1278CDE9C8
:1030F000002102906648C379827981886DA005F02D
:10310000A5FE91A10A9806F053F88246BAF1000F85
:103110000CD08F48007830B901208D4908708DA0FF
:1031200005F094FE02E08EA005F090FE90A10A98B2
:1031300006F03EF88346BBF1000F19D005220021AE
:1031400008A8FFF75BFC594608A8FFF74BFD0A22C9
:10315000002108A805F0F4FF414981F83400084631
:1031600090F83400634A52F8201083A005F06EFEF8
:1031700086A10A9806F01CF804900498C8B10522AC
:10318000002108A8FFF73AFC08A80499FFF72AFDD8
:103190000A22002108A805F0D3FF3149C1F8350003
:1031A0000846FFF741FC2E48D0F835105AA005F02C
:1031B0004DFE79A10A9805F0FBFF039003980028C3
:1031C00020D077A005F042FE7BA005F03FFE80A056
:1031D00005F03CFE83A005F039FE87A005F036FE21
:1031E0008AA005F033FE8EA005F030FE91A005F018
:1031F0002DFE96A005F02AFE9AA005F027FEA1A0BC
:1032000005F024FE0BB0BDE8F08F30B589B0002585
:103210000024202101A806F020F8A048008810F41E
:10322000004F1BD09D4805781E2D0FDC00BF0BE022
:103230009B48005D01A9085500BF9A48008810F01E
:10324000400FFAD0601CC4B2AC42F1DB00209349BD
:10325000088001A9085501A8FFF78DFD09B030BD10
:103260009E4A0020500000202B48414E44202564F7
:103270000D0A000024736574736E00002B534E20FA
:1032800025730D0A0000000024696E666F000000BF
:10329000944A00202B5858542D53544D3332463401
:1032A0002056657273696F6E20312E322D300D0AF3
:1032B000000000002B74696D653D253034642D25B8
:1032C0003032642D2530326420253032643A253086
:1032D00032643A253032640D0A0000002B697020F8
:1032E00025732025730D0A002B61706E2025730D48
:1032F0000A000000340000202B7463702D75647088
:10330000206D6F64653A25730D0A00002B68616EAD
:10331000642025640D0A00002B64656C6179746972
:103320006D652025640D0A00440000202B61646354
:10333000762025642E25640D0A0000002474696D32
:10334000650000002D0000002472657365740000A4
:103350004B0000202B5265736574204F6B0D0A00E3
:103360002B5265736574204572726F720D0A0000EE
:1033700024746370000000002B7463702D756470FA
:10338000206D6F64653A2025730D0A0024736574FF
:1033900064656C61797400002468656C70000000DD
:1033A000242464656275672032096465627567204C
:1033B0006F6E0D0A000000002424646562756720AA
:1033C00030096465627567206F66660D0A0000004B
:1033D0002424736574697009097365742069700D1C
:1033E0000A0000002424736574706F740973657497
:1033F00020706F72740D0A00242473657461706EFE
:10340000097365742061706E0D0A000024247365D1
:1034100074686E640973657420686E640D0A000038
:103420002424736574736E0973657420736E0D0ABA
:10343000000000002424696E666F090973797374B3
:10344000656D20696E666F0D0A00000024247469A2
:103450006D650909736574207274632074696D6504
:103460000D0A0000242473657464656C6179740925
:103470007365742064656C61792074696D650D0AEB
:103480000000000024247265736574090972657375
:1034900065742073797374656D0D0A004C0000200B
:1034A000D84A0020001001400948804709480047D9
:1034B000FEE7FEE7FEE7FEE7FEE7FEE7FEE7FEE7E4
:1034C000FEE7FEE704480549054A064B7047000041
:1034D0003305000889010008F0630020F06900202E
:1034E000F0650020F065002033490143334A116044
:1034F000704770B5002100230F22C47824B32F4CED
:10350000246804F4E064C4F5E064C4F30721C1F165
:103510000404E3B20A4144789C40E1B28478144048
:1035200021430C07210E264C05786155047804F0E0
:103530001F050124AC4005786D114FF0E02606EB25
:103540008505C5F8004109E0047804F01F04012551
:10355000A5401C4C0678761144F8265070BD1A4AD6
:103560000A400243154B1B1F1A60704739B1134ABA
:10357000121D12680243114B1B1D1A6006E00F4A10
:10358000121D126882430D4B1B1D1A6070470428E0
:1035900008D14FF0E021096941F004014FF0E02229
:1035A000116107E04FF0E021096921F004014FF0BB
:1035B000E0221161704700000000FA050CED00E008
:1035C00000E400E080E100E080FFFF1F10B504464A
:1035D0009848844208D10121084600F086FB00216A
:1035E000012000F082FB76E09348844208D101215B
:1035F000022000F07AFB0021022000F076FB6AE056
:103600008E48844208D10121042000F06EFB002185
:10361000042000F06AFB5EE08948844208D1012161
:10362000082000F062FB0021082000F05EFB52E061
:103630008448844208D10121102000F056FB00216B
:10364000102000F052FB46E07F48844208D101215F
:10365000202000F04AFB0021202000F046FB3AE049
:103660007A48844208D10121402000F03EFB00212D
:10367000402000F03AFB2EE07548844208D1012139
:10368000802000F032FB0021802000F02EFB22E0A1
:103690007048844208D10121801500F026FB0021EA
:1036A000A01500F022FB16E06B48844208D10121EE
:1036B000401500F01AFB0021601500F016FB0AE02F
:1036C0006648844207D10121001500F00EFB00215D
:1036D000201500F00AFB10BDF0B50A4600210023BA
:1036E000002400BF3DE0012505FA01F3156805EA55
:1036F00003049C4234D105684F000326BE40B54305
:10370000056015794E00B5400668354305601579AA
:10371000012D02D01579022D16D185684F000326A0
:10372000BE40B543856055794E00B5408668354347
:103730008560456801268E40B543456045689679A9
:103740008E40B6B235434560C5684F000326BE4083
:10375000B543C560D5794E00B540C6683543C560F0
:10376000491C1029BFD3F0BD4FF6FF710160002145
:10377000017141718171C171704708B54FF4803298
:103780000092009A0A430092009AC261C161009AB5
:10379000C261C2690092C269009208BD024600205F
:1037A00013690B4201D0012000E000207047014660
:1037B000086980B270470246002053690B4201D06D
:1037C000012000E0002070470146486980B2704740
:1037D00001837047418370470AB1018300E0418350
:1037E00070474161704742694A4042617047F0B595
:1037F000002300244D07ED0E02FA05F3CE1000F170
:10380000200555F826504E07F70E0F26BE40B5434B
:10381000CF1000F1200646F82750CE1000F1200509
:1038200055F8265045EA0304CE1000F1200545F86E
:103830002640F0BD000002400004024000080240A3
:10384000000C024000100240001402400018024028
:10385000001C0240002002400024024000280240D8
:10386000F948006840F00100F74908600020F64977
:1038700008310860F4480068F4490840F2490860DB
:10388000F348091D0860F348EF4984310860F048A7
:103890001038091D0860EC48006820F48020EA49CF
:1038A00008600020E8490C310860E7498C31086065
:1038B00070470021E44A921C11701146087070474D
:1038C00010B501460022002300204A11012A02D12E
:1038D000DD4C236808E0022A03D1DB4C70342368F6
:1038E00002E0D94C7434236801F01F020124944093
:1038F0001C4201D0012000E0002010BD38B500209E
:1039000000900024002500BF3120FFF7D9FF0546B5
:103910000098401C00900098B0F5A04F01D0002DF9
:10392000F2D03120FFF7CCFF08B1012400E00024E1
:10393000204638BD01460020C34A106820F0F80038
:1039400040EAC10010607047C34908607047002119
:10395000BD4A703211701170012802D004280AD1BA
:1039600004E00121B84A7032117005E00521B64A21
:103970007032117000E000BF00BF7047B7490860A7
:10398000704770B5049C41EA82150126C6EB5306C8
:1039900045EA0645054345EA0465AB4E361D3560EC
:1039A00070BDAD4908667047820142EA0172A64BBC
:1039B00084331A607047A8498866704710B5830140
:1039C00043EA016343EA02739F4C8834236010BDCD
:1039D000A14908677047A049C864704702460020A3
:1039E000994B0833186820F0EC6042EA0103184351
:1039F000954B08331860704702460020924B0833FD
:103A0000186820F0784042EA010318438E4B0833CF
:103A100018607047014600208B4A0832106820F079
:103A2000030008431060704787480830006800F0C2
:103A30000C00704701460020834A0832106820F0CD
:103A4000F000084310607047014600207E4A0832AB
:103A5000106820F4E05008431060704701460020D1
:103A6000794A0832106820F4604040EAC1001060D2
:103A70007047F0B500210022002402250026022311
:103A8000714F08373F6807F00C0121B1042905D0B8
:103A9000082937D105E0724F076036E0714F0760A3
:103AA00033E0694F3F1D3F68C7F38056664F3F1DA7
:103AB0003F6807F03F036EB16A4FB7FBF3F7DFF8DB
:103AC00088C10CF1040CDCF800C0CCF3881C07FBA7
:103AD0000CF40CE0624FB7FBF3F7DFF86CC10CF1AC
:103AE000040CDCF800C0CCF3881C07FB0CF4564F28
:103AF0003F1D3F68C7F301477F1C7D00B4FBF5F70E
:103B0000076002E0564F076000BF00BF4E4F083706
:103B10003F6807F0F0010909534F7A5C0768D74006
:103B20004760494F08373F6807F4E051890A4E4F14
:103B30007A5C4768D7408760434F08373F6807F48F
:103B40006041490B484F7A5C4768D740C760F0BD79
:103B5000002100F44072B2F5407F0AD13A4A08329F
:103B6000116821F4F811414A02401143364A0832E3
:103B70001160354A70321268C0F30B031A43324B9E
:103B800070331A60704735494439086070473349CB
:103B90004039086070473649086070470146002088
:103BA000294A8C32106820F01F004A1E1043264A12
:103BB0008C321060704701460020234A8C32106816
:103BC00020F4F8504A1E40EA02201F4A8C3210604E
:103BD0007047014600201C4A8C32106820F44010C7
:103BE00008431060704701460020174A8C32106865
:103BF00020F4400008431060704701460020124A3C
:103C00008C32106820F44030084310607047194926
:103C10000860704739B10C4A3032126802430A4BCF
:103C200030331A6006E0084A303212688243064B8D
:103C300030331A607047F9B1034A343212680243D4
:103C4000014B34331A601CE000380240FFFFF6EAF3
:103C5000103000240030002000004742800E474210
:103C60000024F40040787D0158000020FFFCFF0F85
:103C70005C014742E01147428F4A126882438E4BF3
:103C80001A60704739B18C4A121D126802438A4B80
:103C90001B1D1A6006E0884A121D12688243864B7B
:103CA0001B1D1A60704739B1834A0C3212680243F7
:103CB000814B0C331A6006E07F4A0C321268824353
:103CC0007D4B0C331A60704739B17B4A1032126851
:103CD0000243794B10331A6006E0774A10321268BB
:103CE0008243754B10331A60704739B1724A243AD7
:103CF00012680243704B243B1A6006E06E4A243A75
:103D0000126882436C4B243B1A60704739B16A4A8F
:103D1000203A12680243684B203B1A6006E0664A6C
:103D2000203A12688243644B203B1A60704739B1D5
:103D3000614A1C3A126802435F4B1C3B1A6006E062
:103D40005D4A1C3A126882435B4B1C3B1A60704709
:103D500039B1594A143A12680243574B143B1A605E
:103D600006E0554A143A12688243534B143B1A60DA
:103D7000704739B1504A103A126802434E4B103B1B
:103D80001A6006E04C4A103A126882434A4B103BD4
:103D90001A60704739B1484A1C3212680243464BD8
:103DA0001C331A6006E0444A1C3212688243424BBC
:103DB0001C331A60704739B13F4A203212680243FF
:103DC0003D4B20331A6006E03B4A203212688243A2
:103DD000394B20331A60704739B1374A24321268A0
:103DE0000243354B24331A6006E0334A243212680A
:103DF0008243314B24331A60704739B12E4A2C323A
:103E0000126802432C4B2C331A6006E02A4A2C32EB
:103E100012688243284B2C331A60704739B1264A06
:103E2000303212680243244B30331A6006E0224AD3
:103E3000303212688243204B30331A6070470128B9
:103E400008D11D493C31096841F008011A4A3C3249
:103E5000116007E018493C31096821F00801164A51
:103E60003C321160704739B1134A273A1278024345
:103E7000114B273B1A7006E00F4A273A127882430B
:103E80000D4B273B1A7070470B484030006840F0DC
:103E90008070094940310860704701460020064A99
:103EA000283A12680A4201D0012000E00020704741
:103EB00001492639087070473438024010B504466D
:103EC000FA48844208D101211020FFF752FF002157
:103ED0001020FFF74EFF57E0F548844209D1012139
:103EE0004804FFF735FF00214FF40030FFF730FFA3
:103EF0004AE0F048844209D101218804FFF728FFF5
:103F000000214FF48020FFF723FF3DE0EA48844280
:103F100009D10121C804FFF71BFF00214FF4002045
:103F2000FFF716FF30E0E548844209D1012108057A
:103F3000FFF70EFF00214FF48010FFF709FF23E089
:103F4000DF48844208D101212020FFF712FF002121
:103F50002020FFF70EFF17E0DA48844209D1012143
:103F60008807FFF7F5FE00214FF08040FFF7F0FED5
:103F70000AE0D548844207D101214005FFF7E8FE59
:103F800000216005FFF7E4FE10BD2DE9FF4705465F
:103F90000E460024A14600BFA046B08900B100BF74
:103FA0002C8A24F44054F08804432C82AC8941F2DA
:103FB0000C608443B0883189084371890843044305
:103FC000AC81AC8A24F44074B0890443AC82684666
:103FD000FFF74FFDB548854202D0B948854202D16E
:103FE000DDF80C9001E0DDF80890A88910F4004F8E
:103FF00008D009EBC90000EB091031684900B0FB9B
:10400000F1F707E009EBC90000EB091031688900FE
:10401000B0FBF1F76420B7FBF0F004012009642144
:1040200001FB1078A88910F4004F08D0322000EB73
:10403000C800B0FBF1F000F00700044308E03220B4
:1040400000EB08106421B0FBF1F000F00F00044316
:104050002C81BDE8FF874FF416510160002181805B
:10406000C18001810C21418100218181704710B5FF
:1040700002460020108A20F470600B884C8823438D
:104080008C882343CC8823431843108210BD002121
:10409000018041808180C180704721B1828942F4D2
:1040A0000052828104E082894DF6FF731A408281BA
:1040B0007047028B02F47F420283028B0A43028321
:1040C000704721B1828942F40042828103E08289F3
:1040D000C2F30E028281704721B1828A42F40062EB
:1040E000828204E0828A4FF2FF731A408282704714
:1040F000C1F308028280704701468888C0F3080037
:104100007047028A4FF6F0731A400282028A0A430D
:104110000282704721B1828942F00202828104E06A
:1041200082894FF6FD731A408281704782894FF26F
:10413000FF731A40828182890A4382817047028A12
:104140004FF6DF731A400282028A0A4302827047E6
:1041500021B1028A42F48042028204E0028A4BF6D4
:10416000FF731A4002827047818941F00101818109
:10417000704721B1828A42F00802828204E0828A7A
:104180004FF6F7731A4082827047028BD2B20283D5
:10419000028B42EA01220283704721B1828A42F0F7
:1041A0002002828204E0828A4FF6DF731A40828204
:1041B000704721B1828A42F01002828204E0828A32
:1041C0004FF6EF731A4082827047828A4FF6FB7374
:1041D0001A408282828A0A438282704721B1828A8F
:1041E00042F00202828204E0828A4FF6FD731A4096
:1041F000828270471AB1838A0B43838202E0838AEA
:104200008B4383827047F0B50346002400260025C7
:104210000020A1F510676A3F00D100BF1846C1F326
:10422000421401F01F06012707FA06F5012C01D1FF
:104230000C3004E0022C01D1103000E014301AB12F
:1042400007682F43076002E00768AF430760F0BDCF
:1042500002460020B1F5007F00D100BF13880B4259
:1042600001D0012000E00020704701F40072B2F597
:10427000007F00D100BFCA430280704770B502467C
:104280000024002300250020A1F510666A3E00D11D
:1042900000BFC1F3421501F01F03012606FA03F324
:1042A000012D13D19689334017E000000010014022
:1042B0000044004000480040004C004000500040D6
:1042C0000014014000780040007C0040022D02D123
:1042D000168A334001E0968A33400C12012606FA12
:1042E00004F41688344013B10CB1012000E0002022
:1042F00070BD10B500220023A1F510646A3C00D106
:1043000000BF0A1201249440A3B2DC43048010BD14
:1043100008B50022009200200021CA22F94B1A6041
:1043200053221A60F74A183A126822F0A002F54B9D
:10433000183B1A6000BFF34A183A126802F02001D5
:10434000009A521C0092009AB2F5003F01D0002959
:10435000F1D0EC4A183A126812F0200F01D0012077
:1043600000E00020FF22E74B1A6008BD08B50022DC
:10437000009200200021E34A183A126812F0400F20
:104380001CD1421EDF4B183B1A6000BFDD4A183AB1
:10439000126802F04001009A521C0092009AB2F595
:1043A000803F01D00029F1D0D64A183A126812F0A5
:1043B000400F01D0012002E0002000E0012008BDF4
:1043C00038B50020009000240025CA20CD4908609F
:1043D00053200860FFF7CAFF00B952E00020C94926
:1043E0002439086042F20110091D0860081D0068A8
:1043F00000F00700091D086000BFC24818380068B7
:1044000000F004040098401C00900098B0F5803F34
:1044100001D0002CF1D0BB481838006810F0040F10
:1044200001D100252DE0B7481C3800680020B549AF
:104430001C3908604FF6FF70B24910390860B24865
:10444000091F08600020AF490C390860091D086089
:10445000091D0860AB4908310860AA491831086095
:10446000A84920310860091D0860A649183908606C
:10447000A4491C310860FFF74BFF08B9002500E094
:104480000125FF209F490860284638BD9D481838FF
:10449000006820F080009B4918390860704730B5EB
:1044A00004460025CA209749086053200860FFF79A
:1044B0005DFF00B91DE093481C38006820F0400003
:1044C00090491C39086008460068216808438D49F6
:1044D0001C3908608B491439A068086008460068D8
:1044E000A18840EA0140874914390860FFF7CEFFF0
:1044F0000125FF2083490860284630BD0021016066
:104500007F214160FF218160704718B1FF217D4A02
:10451000116004E0CA217B4A116053211160704789
:1045200030B504460025CA2076490860532008604B
:10453000FFF71CFF00B914E044B172481C38006852
:1045400040F010006F491C39086007E06D481C38C6
:10455000006820F010006B491C390860FFF796FFD7
:104560000125FF2067490860284630BDCA21654AF9
:1045700011605321116040B162491C39096841F052
:104580002001604A1C3A116007E05E491C39096845
:1045900001F0DF015B4A1C3A1160FF21594A1160AA
:1045A00070470146002204E0501CC2B2A1F10A008B
:1045B000C1B20A29F8DA100741EA106070470146D3
:1045C00000BF080900EB8000420001F00F0010441A
:1045D000C0B270472DE9F04105460C460026002781
:1045E00055B948481C38006810F0400F00D002E070
:1045F0000020E07000BF0EE042481C38006810F058
:10460000400F04D02078FFF7DAFF064602E00020D2
:10461000E07000BF00BF55B120780004617840EA27
:104620000120A1780843E17840EA014611E02078B2
:10463000FFF7B7FF4FEA00486078FFF7B2FF48EA9C
:104640000028A078FFF7ADFF48EA0008E07848EAC4
:104650000046CA202B49086053200860FFF786FEF9
:1046600008B9002714E02948304026492439086059
:10467000FFF70CFF23481C38006810F0200F06D10C
:10468000FFF746FE08B9002702E0012700E00127F6
:10469000FF201C4908603846BDE8F0810021C17048
:1046A000017041708170704770B506460C46002558
:1046B000144824380068154900EA0105C5F305408F
:1046C0002070C5F30620607005F07F00A07005F42F
:1046D0008000000CE0705EB92078FFF770FF20705A
:1046E0006078FFF76CFF6070A078FFF768FFA0703C
:1046F00070BD00200349091D086802492039096876
:104700007047000024280040FF007F007F7F7F006B
:104710002DE9F04105460C46002600274DB960788A
:1047200000F01000102804D1607820F010000A304A
:10473000607005B908E06078FFF741FF0646A07891
:10474000FFF73DFF064600BF55B1E07800046178F1
:1047500040EA0120A1780843217840EA413611E07F
:10476000E078FFF71EFF4FEA00486078FFF719FF77
:1047700048EA0028A078FFF714FF48EA00082078EC
:1047800048EA4036CA20FE49086053200860FFF717
:10479000EDFD08B9002714E0FA483040F849203907
:1047A0000860FFF773FEF6481C38006810F0200F11
:1047B00006D1FFF7ADFD08B9002702E0012700E0B0
:1047C0000127FF20EE4908603846BDE8F08101214D
:1047D0000170817041700021C170704770B506464C
:1047E0000C460025E64820380068E64900EA010545
:1047F000280CE070C5F30420607005F03F00A07045
:10480000C5F3423020705EB9E078FFF7D8FEE07063
:104810006078FFF7D4FE6070A078FFF7D0FEA0703C
:1048200070BD2DE9F04105460E46144600276DB9CE
:10483000D3481C38006810F0400F00D002E0002080
:10484000E07000BFA06800B91AE019E0CC481C383D
:10485000006810F0400F04D02078FFF7B0FE074644
:1048600002E00020E07000BFA06820B9207BFFF7C5
:10487000A6FE074604E0207BFFF7A1FE074600BF27
:1048800095B120780004617840EA0120A1780843BE
:10489000E17840EA0140217B40EA0160A1680843D9
:1048A000616840EA01071BE02078FFF77AFE4FEAD3
:1048B00000486078FFF775FE48EA0028A078FFF707
:1048C00070FE48EA0008E07848EA0048207BFFF7DD
:1048D00068FE48EA0060A1680843616840EA010791
:1048E000CA20A749086053200860B6F5807F03D12D
:1048F000A3480838076002E0A148001F0760FF20B6
:104900009F490860BDE8F0810021C17001704170CD
:1049100081708160012101730021416070472DE9A0
:10492000F04106460F4614460025B7F5807F03D1B7
:1049300093480838056802E09148001F0568C5F3F0
:1049400005402070C5F30620607005F07F00A07060
:1049500005F48000000CE070C5F30560207305F0DD
:104960008040A06005F0803060607EB92078FFF75D
:1049700026FE20706078FFF722FE6070A078FFF7B7
:104980001EFEA070207BFFF71AFE2073BDE8F081A9
:1049900038B502460024009400230020CA24784D34
:1049A0002C6053242C6041B1754C1C3C246814438A
:1049B000734D1C3D2C6001201EE0714C1C3C246892
:1049C00094436F4D1C3D2C6000BF6D4C183C246817
:1049D00004EA1223009C641C0094009CB4F5803F00
:1049E00001D0002BF1D0664C183C246814EA122F39
:1049F00001D1002000E00120FF24614D2C6038BD72
:104A000030B50023CA245E4D2C6053242C6041EA4B
:104A10000203B0F5807F03D1594C2034236002E0BB
:104A2000574C24342360FF24554D2C6030BD014683
:104A30000020B1F5807F05D1514A20321268C2F3BF
:104A40000E0004E04E4A24321268C2F30E00704792
:104A5000CA214B4A11605321116049491C39096828
:104A600021F00701464A1C3A1160114609680143CA
:104A70001160FF21424A11607047CA21404A11600B
:104A8000532111603E4910390860FF2111607047C1
:104A90003B481038006880B2704718B501460023C3
:104AA000009300220020CA23354C23605323236047
:104AB00049B1334B1C3B1B6843F48063304C1C3CB6
:104AC000236001201FE02E4B1C3B1B6823F48063F6
:104AD0002B4C1C3C236000BF294B183B1B6803F088
:104AE0000402009B5B1C0093009BB3F5803F01D048
:104AF000002AF1D0224B183B1B6813F0040F01D1A0
:104B0000002000E00120FF231D4C236018BDCA22B5
:104B10001B4B1A6053221A60194A1C3A126822F47D
:104B20008022174B1C3B1A601A46126840EA0103A8
:104B30001A43134B1C3B1A60FF22114B1A6070473B
:104B40000F481C38006800F480207047CA220C4BC4
:104B50001A6053221A600A4A1C3A126822F4E002D0
:104B6000074B1C3B1A601A46126840EA01031A43BD
:104B7000034B1C3B1A60FF22014B1A607047000078
:104B8000242800403FFFFF0070B504460D46002674
:104B9000CA20F649086053200860FFF7E7FB00B918
:104BA00007E044EA0500F1490C390860FFF76EFCA4
:104BB0000126FF20ED490860304670BD30B504463F
:104BC0000025CA20E949086053200860FFF7CEFBA2
:104BD00000B914E044B1E5481C38006840F080009A
:104BE000E2491C39086007E0E0481C38006820F002
:104BF0008000DE491C390860FFF748FC0125FF20D2
:104C0000DA490860284630BDCA21D84A11605321CC
:104C1000116040B1D5491C39096841F40001D34AFB
:104C20001C3A116007E0D1491C39096821F40001E0
:104C3000CE4A1C3A1160FF21CC4A11607047CA214C
:104C4000CA4A116053211160C8491C39096821F40E
:104C50000021C64A1C3A11601146096801431160DF
:104C6000FF21C24A1160704770B50346002000243E
:104C7000CA25BE4E356053253560BC4D183D2D68A4
:104C800015F4803F0AD000E0641CB84D183D2D6833
:104C900015F4803F02D0B4F5003FF5D1B34D183D77
:104CA0002D6815F4803F07D143EA01051543AF4E47
:104CB00018363560012000E00020FF25AB4E35603E
:104CC00070BD10B50A460021A84B1C3B1B6840F67E
:104CD000080423EA04011AB140F40063194300E018
:104CE0000143CA23A14C2360532323609F4B1C3BE9
:104CF0001960FF23236010BD2DE9F04180460C466A
:104D000015460026002799480C300068984900EAAB
:104D10000106964810300068964900EA0107C6F37C
:104D200005402070C6F30620607006F07F00A0707A
:104D300006F48000000CE0700020E870C7F3042047
:104D4000687007F03F00A870C7F342302870B8F1D0
:104D5000000F17D12078FFF732FC20706078FFF742
:104D60002EFC6070A078FFF72AFCA0706878FFF72F
:104D700026FC6870A878FFF722FCA8702878FFF757
:104D80001EFC2870BDE8F081784814300068704738
:104D900041B9764A1C32126822EA4002734B1C3336
:104DA0001A6007E0714A1C32126842EA40026F4BF7
:104DB0001C331A60704739B16C4A1C3212680243C6
:104DC0006A4B1C331A6006E0684A1C321268824340
:104DD000664B1C331A60704764491C31096821F422
:104DE000C051624A1C3211601146096801431160CA
:104DF00070475E491C31096821F4E0615B4A1C324E
:104E000011601146096801431160704757491C3110
:104E1000096821F4C041554A1C32116011460968E5
:104E200001431160704740B150491C31096841F09D
:104E300080014E4A1C32116007E04C491C31096860
:104E400021F08001494A1C321160704740B1474946
:104E50001C31096821F40041444A1C32116007E00A
:104E600042491C31096841F40041404A1C3211603A
:104E7000704708B5002200923C4A2C320092009AFA
:104E800002EB80020092009A116008BD08B501464D
:104E90000020009035482C300090009800EB8100F5
:104EA00000900098006808BD30491C31096821F461
:104EB00080312E4A1C32116011460968014311608D
:104EC00070472A491C31096821F40031274A1C32F5
:104ED00011601146096801431160704723491C3174
:104EE000096821F48021214A1C32116011460968A9
:104EF000014311607047F0B504460D4600270026B7
:104F0000CA201A49086053200860184818380068F9
:104F100010F0080F0AD000E0761C1448183800681A
:104F200010F0080F02D0B6F5805FF5D10F481838A1
:104F3000006810F0080F13D10C481C38006810F0FE
:104F4000100F0BD145EA0400084908310860FFF74B
:104F5000DFF908B9002704E0012702E0002700E09C
:104F60000027FF20014908603846F0BD2428004092
:104F70007F7F7F003FFFFF00CA223D4B1A60532214
:104F80001A6091B13A4A1C3A126820F004031A439D
:104F9000374B1C3B1A60364A1C32126800F004037F
:104FA0001A43334B1C331A6011E0314A1C3A126821
:104FB00020F004039A432E4B1C3B1A602C4A1C32EF
:104FC000126800F004039A43294B1C331A60FF2235
:104FD000274B1A60704710B5014600200022244B71
:104FE000183B1B68234C03EA04020A4201D001204B
:104FF00000E0002010BD81B241F080011C4A183A47
:10500000126802F0800262EA0101194A183A11603E
:10501000704730B50146002000220023144C1C3498
:10502000246804F00402124C1C3C24680C4002EA80
:10503000D13544EA05030E4C183C246804EA1112E9
:1050400023B11404240C01D0012000E0002030BD65
:10505000002101098AB242F08002054B183B1B680F
:1050600003F0800363EA0202014B183B1A607047A9
:10507000242800407F3F0100002041490860091DAD
:105080000860091D0860091D08603E483C4914314C
:105090000860704700213A498279002A3AD00A46CE
:1050A000126803689A430B461A600A1D1268036867
:1050B0009A430B1D1A60027911440A6803681A4367
:1050C0000A602F4A0832126803689A432C4B08334F
:1050D0001A601A1D126803689A43294B0C331A6030
:1050E0004279102A0ED11A1F126803681A43244B02
:1050F00008331A601A1D126803681A43204B0C33D8
:105100001A600DE01E49427911440A6803681A4387
:105110000A6005E0027911440A6803689A430A604C
:1051200070470021016001710C21417100218171E2
:1051300070471349103109680143114A1032116058
:105140007047014600200E4A143212680A4201D00C
:10515000012000E0002070470949143108607047C1
:1051600001460020064A143212680A4201D001208A
:1051700000E00020704702491431086070470000C9
:10518000003C0140FFFF7F0010B501210807FEF73A
:10519000DFFD00214FF08050FEF7DAFD10BD5149D0
:1051A00008627047014600204F4A106820F0E00076
:1051B0000843106070474B49086170474B490860CD
:1051C00070474B490860704701460020464A106806
:1051D00020F440400843106070474249086470471B
:1051E00040494864704730B13F49096841F4402163
:1051F0003D4A116005E03C49096821F440213A4AE2
:105200001160704718B10121364AD16202E00021D5
:10521000344AD162704718B10121324A916202E0EA
:105220000021304A916270472E494862704710B59C
:10523000024600202C4B186840F603439843104365
:10524000294B18602B4B1B6843F00403294C236047
:10525000012901D130BF00E020BF264B1B6823F09D
:105260000403244C236010BD10B5024600201E4BE1
:10527000186840F60343984310431B4B18601D4BBE
:105280001B6843F004031B4C2360012901D130BF8C
:1052900000E020BF174B1B6823F00403154C23606C
:1052A00010BD1148006840F002000F490860114825
:1052B000006840F004000F49086000BF00BF30BF25
:1052C000704701460020084A52680A4201D0012076
:1052D00000E0002070470449096841EA8001024A61
:1052E0001160704700000E4200700040A0000E42A6
:1052F000A4000E4210ED00E00E49086070470D4911
:10530000486070470B49886070474AF6AA200949EF
:10531000086070474CF6CC4006490860704701466B
:105320000020044AD2680A4201D0012000E0002097
:10533000704700000030004010B501210802FEF760
:1053400018FD00214FF48070FEF713FD10BD30B53D
:105350000246002000235068F84C20400D790C686C
:1053600044EA0524204350609068F54C2040D1E980
:1053700003542C438D682C434D7944EA4504204363
:105380009060D06A20F470000C7D641EE4B2234368
:1053900040EA0350D06230BD0021016001714171CB
:1053A0008160C16001610121017570470021E54AFA
:1053B0001168E54A01EA0201D0E9002342EA03024A
:1053C000836842EA0302C36842EA030242EA010137
:1053D000DE4AC2F804137047002101604160816019
:1053E000C160704721B1826842F00102826003E02F
:1053F000826822F00102826070470A4600214168FB
:10540000D34B19401143416070474162826270473B
:105410000A460021416821F01F0111434160704795
:1054200038B1C849096841F40001C84AC2F80413F8
:1054300006E0C449096821F40001C44AC2F8041313
:10544000704738B1BF49096841F48001BF4AC2F8CA
:10545000041306E0BB49096821F48001BB4AC2F885
:1054600004137047F0B504460D4600200021092DB5
:1054700011DDE068A5F10A0606EB4607072606FAE5
:1054800007F18843A5F10A0606EB460603FA06F182
:105490000843E0600CE0206905EB4507072606FAA3
:1054A00007F1884305EB450603FA06F1084320613E
:1054B000072A0FDA606B561E06EB86071F2606FAD0
:1054C00007F18843561E06EB860605FA06F10843E7
:1054D000606322E00D2A0FDA206BD61F06EB8607E9
:1054E0001F2606FA07F18843D61F06EB860605FA43
:1054F00006F10843206310E0E06AA2F10D0606EB16
:1055000086071F2606FA07F18843A2F10D0606EB6F
:10551000860605FA06F10843E062F0BD816841F0B5
:10552000804181607047014600208A6812F0804FF8
:1055300001D0012000E00020704721B1826842F4D0
:105540008062826003E0826822F480628260704739
:1055500021B1826842F00202826003E0826822F098
:1055600002028260704710B50A460021002341689C
:1055700021F46041531E41EA4331416010BD21B125
:10558000426842F40062426003E0426822F4006232
:10559000426070470146C86C80B270476D48006831
:1055A000704721B1826842F48072826003E08268B1
:1055B00022F480728260704721B1826842F40072E6
:1055C000826003E0826822F400728260704738B122
:1055D0005C49096841F400515C4AC2F8041306E0D2
:1055E0005849096821F40051584AC2F80413704719
:1055F000F0B504461546002000220026092911DDD9
:10560000E068A1F10A0707EB470C072707FA0CF23D
:105610009043A1F10A0707EB470703FA07F210438B
:10562000E0600CE0206901EB410C072707FA0CF25F
:10563000904301EB410703FA07F210432061A06B8E
:10564000C0F30156EF1C06F1010CA7EB0C0707EBAA
:10565000870C1F2707FA0CF29043EF1C06F1010C90
:10566000A7EB0C0707EB870701FA07F21043A063CB
:10567000F0BD10B50A4600210023816B21F44011D2
:10568000531E41EA0351816310BD08B50023009306
:105690000090009B0B440093009B1A6008BD0A46D3
:1056A0000021816821F470211143816070470A460E
:1056B0000021816821F440111143816070478168A5
:1056C00041F4800181607047014600208A6812F42D
:1056D000800F01D0012000E00020704721B1426816
:1056E00042F48062426003E0426822F480624260D9
:1056F000704721B1426842F48052426003E0426840
:1057000022F480524260704708B5024600200090A3
:10571000009201F12800009B184400900098006856
:1057200080B208BD10B50B460021D9B2012404FA9D
:1057300001F18AB144680C43446010E0FFFEFFFCB5
:10574000FDF7FFC004230140E030FCFF00200140D2
:10575000FFFD3FFF0823014044688C43446010BDB7
:105760000246002013680B4201D0012000E0002017
:105770007047CA430260704770B50246002000239C
:1057800000240B12556801268E4005EA06041568B0
:105790001D4202D00CB1012000E0002070BD0022AB
:1057A0000A12D343036070477CB5002514E06946B4
:1057B000284601F0F4FF064666B9F84850F825403F
:1057C00044B1012C06D0D4E9020100EB81006064F1
:1057D0000198A064681CC5B23F2DE8D97CBD0024A7
:1057E00000BF02E0282002F0E3F8ED48007800282E
:1057F000F8D0EC4800686421B0FBF1F0E94908609A
:105800000846006828B90020E7490870FF2002F028
:1058100008F800BF02F0C2FC0446E4480068E4490E
:1058200008600020E1490860204602F0BBFCE04827
:105830000068DC490968B0FBF1F0C0F16400DA49A6
:10584000087002F017FDFFF7AFFF142002F0B0F868
:10585000E0E700B587B0032000218022D54BCDE9D9
:105860000132CDE903104FF6FE703E23D24A00907C
:10587000AFF2950001F0A8FD06AAD0A13E2001F0EC
:105880000DFF07B000BD002400BF00BF02F086FC82
:105890000446C6480068401CC4490860204602F01F
:1058A00081FC02F0E6FCF1E700B587B0032000219F
:1058B0008022C64BCDE90132CDE903104FF6FF70CF
:1058C0003F23C34A0090AFF2410001F07DFD06AADC
:1058D000C0A13F2001F0E2FE07B000BD04E00022BD
:1058E00000F8012B4A1E91B20029F8D1704770B51B
:1058F000C821BC48FFF7F2FF00230FE0581C85B217
:1059000003EB8300B74901EB800405EB850001EB55
:105910008006002020706660581C83B2092BEDD3EE
:1059200003EB8300AF4901EB80040020207060602E
:105930000846AD49086070BD70B54FF47C71AB4846
:10594000FFF7CCFF4FF480719448FFF7C7FF0024A6
:1059500013E0601CC5B2C4EBC40000EB4000A349D7
:1059600001EB8003C5EBC50000EB400001EB8006B6
:105970005E619FA0D864601CC4B20B2CE9D3C4EB59
:10598000C40000EB4000994901EB800300205861FE
:1059900097A0D86400209749086094489649086009
:1059A00070BD0021954A1170002004E00021944A46
:1059B0001154411CC8B20828F8D30021914A117033
:1059C000914A1170914A1160914A1160704700200C
:1059D0009049086090490870904908709049087093
:1059E00090490870904908607049086070490860E3
:1059F0006C4908606A490870704710B502F032FCC3
:105A0000FFF7E5FFFFF7CDFFFFF796FFFFF76FFF0B
:105A100000F001FF01F0F7F9FFF746FFFFF719FF6C
:105A200002F050FB02F022FC10BD7E4800780128F5
:105A300008D179480078FF2804D277480078401CC4
:105A400075490870704779496C4A1278885C6C49CE
:105A5000095C764A515C01EBC0016B4A11707047DA
:105A600010B500246F480078012830D102F096FB71
:105A700004466948007820B167480078401E6649AE
:105A8000087065480078F8B964480078E0B9FFF715
:105A9000DAFF42485C49097850F821005B49086008
:105AA000594800785749097888420DD0574800680E
:105AB000806B401C5549096888635B480068401C3E
:105AC0005949086002F08AFB204602F06BFB10BDCA
:105AD00010B5002453480078012811D102F05EFB74
